{
  "_format": "hh-sol-artifact-1",
  "contractName": "MockDragonSwapTrigger",
  "sourceName": "contracts/mocks/MockDragonSwapTrigger.sol",
  "abi": [
    {
      "inputs": [
        {
          "internalType": "address",
          "name": "_wrappedToken",
          "type": "address"
        },
        {
          "internalType": "address",
          "name": "_dragonToken",
          "type": "address"
        },
        {
          "internalType": "address",
          "name": "_vrfConsumer",
          "type": "address"
        },
        {
          "internalType": "uint256",
          "name": "_minSwapAmount",
          "type": "uint256"
        }
      ],
      "stateMutability": "nonpayable",
      "type": "constructor"
    },
    {
      "anonymous": false,
      "inputs": [
        {
          "indexed": false,
          "internalType": "uint256",
          "name": "amount",
          "type": "uint256"
        },
        {
          "indexed": false,
          "internalType": "uint256",
          "name": "newBalance",
          "type": "uint256"
        }
      ],
      "name": "JackpotIncreased",
      "type": "event"
    },
    {
      "anonymous": false,
      "inputs": [
        {
          "indexed": true,
          "internalType": "uint256",
          "name": "requestId",
          "type": "uint256"
        },
        {
          "indexed": true,
          "internalType": "address",
          "name": "user",
          "type": "address"
        }
      ],
      "name": "RandomnessRequested",
      "type": "event"
    },
    {
      "anonymous": false,
      "inputs": [
        {
          "indexed": true,
          "internalType": "address",
          "name": "user",
          "type": "address"
        },
        {
          "indexed": false,
          "internalType": "uint256",
          "name": "amount",
          "type": "uint256"
        }
      ],
      "name": "SwapDetected",
      "type": "event"
    },
    {
      "inputs": [
        {
          "internalType": "uint256",
          "name": "_amount",
          "type": "uint256"
        }
      ],
      "name": "addToJackpot",
      "outputs": [],
      "stateMutability": "nonpayable",
      "type": "function"
    },
    {
      "inputs": [],
      "name": "dragonToken",
      "outputs": [
        {
          "internalType": "contract IERC20",
          "name": "",
          "type": "address"
        }
      ],
      "stateMutability": "view",
      "type": "function"
    },
    {
      "inputs": [
        {
          "internalType": "uint256",
          "name": "",
          "type": "uint256"
        },
        {
          "internalType": "uint256",
          "name": "",
          "type": "uint256"
        }
      ],
      "name": "fulfillRandomness",
      "outputs": [],
      "stateMutability": "view",
      "type": "function"
    },
    {
      "inputs": [],
      "name": "getJackpotBalance",
      "outputs": [
        {
          "internalType": "uint256",
          "name": "",
          "type": "uint256"
        }
      ],
      "stateMutability": "view",
      "type": "function"
    },
    {
      "inputs": [],
      "name": "getNativeTokenWrapper",
      "outputs": [
        {
          "internalType": "address",
          "name": "",
          "type": "address"
        }
      ],
      "stateMutability": "view",
      "type": "function"
    },
    {
      "inputs": [],
      "name": "jackpotBalance",
      "outputs": [
        {
          "internalType": "uint256",
          "name": "",
          "type": "uint256"
        }
      ],
      "stateMutability": "view",
      "type": "function"
    },
    {
      "inputs": [],
      "name": "minSwapAmount",
      "outputs": [
        {
          "internalType": "uint256",
          "name": "",
          "type": "uint256"
        }
      ],
      "stateMutability": "view",
      "type": "function"
    },
    {
      "inputs": [
        {
          "internalType": "address",
          "name": "_user",
          "type": "address"
        },
        {
          "internalType": "uint256",
          "name": "_amount",
          "type": "uint256"
        }
      ],
      "name": "onSwapNativeTokenToDragon",
      "outputs": [],
      "stateMutability": "nonpayable",
      "type": "function"
    },
    {
      "inputs": [
        {
          "internalType": "uint256",
          "name": "_minSwapAmount",
          "type": "uint256"
        }
      ],
      "name": "setMinSwapAmount",
      "outputs": [],
      "stateMutability": "nonpayable",
      "type": "function"
    },
    {
      "inputs": [
        {
          "internalType": "address",
          "name": "_vrfConsumerAddress",
          "type": "address"
        }
      ],
      "name": "setVRFConsumer",
      "outputs": [],
      "stateMutability": "nonpayable",
      "type": "function"
    },
    {
      "inputs": [
        {
          "internalType": "uint256",
          "name": "_winThreshold",
          "type": "uint256"
        }
      ],
      "name": "setWinThreshold",
      "outputs": [],
      "stateMutability": "nonpayable",
      "type": "function"
    },
    {
      "inputs": [],
      "name": "swapCount",
      "outputs": [
        {
          "internalType": "uint256",
          "name": "",
          "type": "uint256"
        }
      ],
      "stateMutability": "view",
      "type": "function"
    },
    {
      "inputs": [],
      "name": "vrfConsumer",
      "outputs": [
        {
          "internalType": "address",
          "name": "",
          "type": "address"
        }
      ],
      "stateMutability": "view",
      "type": "function"
    },
    {
      "inputs": [],
      "name": "winThreshold",
      "outputs": [
        {
          "internalType": "uint256",
          "name": "",
          "type": "uint256"
        }
      ],
      "stateMutability": "view",
      "type": "function"
    },
    {
      "inputs": [],
      "name": "wrappedToken",
      "outputs": [
        {
          "internalType": "contract IERC20",
          "name": "",
          "type": "address"
        }
      ],
      "stateMutability": "view",
      "type": "function"
    }
  ],
  "bytecode": "0x60806040526103e860045534801561001657600080fd5b5060405161073238038061073283398101604081905261003591610096565b600080546001600160a01b03199081166001600160a01b03968716179091556001805482169486169490941790935560028054909316919093161790556003556100e1565b80516001600160a01b038116811461009157600080fd5b919050565b600080600080608085870312156100ac57600080fd5b6100b58561007a565b93506100c36020860161007a565b92506100d16040860161007a565b6060959095015193969295505050565b610642806100f06000396000f3fe608060405234801561001057600080fd5b50600436106100f55760003560e01c8063338246e211610097578063998e4d5211610066578063998e4d52146101ce578063b7b50352146101df578063cfd6aa90146101f2578063ed96cc511461022257600080fd5b8063338246e2146101975780637c40a65c146101a05780639509ba0c146101b3578063996c6cc3146101bb57600080fd5b80631ef4d1fd116100d35780631ef4d1fd146101555780632a7e1d06146101685780632eff0d9e1461017b578063320d45341461018457600080fd5b8063040da8f4146100fa5780630695a252146101165780630e42323b1461012a575b600080fd5b61010360065481565b6040519081526020015b60405180910390f35b6101286101243660046104d0565b5050565b005b60015461013d906001600160a01b031681565b6040516001600160a01b03909116815260200161010d565b60025461013d906001600160a01b031681565b6101286101763660046104f2565b600455565b61010360055481565b6101286101923660046104f2565b600355565b61010360035481565b6101286101ae366004610527565b61022b565b600654610103565b60005461013d906001600160a01b031681565b6000546001600160a01b031661013d565b6101286101ed3660046104f2565b6103fd565b610128610200366004610551565b600280546001600160a01b0319166001600160a01b0392909216919091179055565b61010360045481565b600354811015610239575050565b6005805490600061024983610589565b90915550506000546040516323b872dd60e01b81526001600160a01b03848116600483015230602483015260448201849052909116906323b872dd906064016020604051808303816000875af11580156102a7573d6000803e3d6000fd5b505050506040513d601f19601f820116820180604052508101906102cb91906105a2565b50816001600160a01b03167f5590cccd15bf7ebb05ced7d4e11c18447aae5060414fbe666c323e4d18e6df808260405161030791815260200190565b60405180910390a26002546001600160a01b031615610124576002546040516001600160a01b038481166024830152600092169060440160408051601f198184030181529181526020820180516001600160e01b031663ead073c760e01b1790525161037391906105c4565b6000604051808303816000865af19150503d80600081146103b0576040519150601f19603f3d011682016040523d82523d6000602084013e6103b5565b606091505b5050905080156103f8576005546040516001600160a01b03851691907f28f521cf7abd0044cba5bb040c5217ff69a4e5865f5262905018698e68fe7d0090600090a35b505050565b6000546040516323b872dd60e01b8152336004820152306024820152604481018390526001600160a01b03909116906323b872dd906064016020604051808303816000875af1158015610454573d6000803e3d6000fd5b505050506040513d601f19601f8201168201806040525081019061047891906105a2565b50806006600082825461048b91906105f3565b90915550506006546040805183815260208101929092527fb0d06ccaa4821f41669bcc9a049d35783663cd32e846ae89a27dc9835330ce1a910160405180910390a150565b600080604083850312156104e357600080fd5b50508035926020909101359150565b60006020828403121561050457600080fd5b5035919050565b80356001600160a01b038116811461052257600080fd5b919050565b6000806040838503121561053a57600080fd5b6105438361050b565b946020939093013593505050565b60006020828403121561056357600080fd5b61056c8261050b565b9392505050565b634e487b7160e01b600052601160045260246000fd5b60006001820161059b5761059b610573565b5060010190565b6000602082840312156105b457600080fd5b8151801515811461056c57600080fd5b6000825160005b818110156105e557602081860181015185830152016105cb565b506000920191825250919050565b8082018082111561060657610606610573565b9291505056fea26469706673582212200aa7041dd9c1a8e720f7ac2c0307e82c98eda3436c12e73a7dab92bd611415e764736f6c63430008140033",
  "linkReferences": {},
  "deployedLinkReferences": {}
}