{
  "_format": "hh-sol-artifact-1",
  "contractName": "ve69LPPoolVoting",
  "sourceName": "contracts_temp/ve69LPPoolVoting.sol",
  "abi": [
    {
      "inputs": [
        {
          "internalType": "address",
          "name": "_ve69LP",
          "type": "address"
        },
        {
          "internalType": "address",
          "name": "_partnerRegistry",
          "type": "address"
        }
      ],
      "stateMutability": "nonpayable",
      "type": "constructor"
    },
    {
      "anonymous": false,
      "inputs": [
        {
          "indexed": false,
          "internalType": "uint256",
          "name": "period",
          "type": "uint256"
        },
        {
          "indexed": false,
          "internalType": "uint256",
          "name": "totalVotes",
          "type": "uint256"
        }
      ],
      "name": "BoostCalculated",
      "type": "event"
    },
    {
      "anonymous": false,
      "inputs": [
        {
          "indexed": false,
          "internalType": "uint256",
          "name": "newMinVotingPower",
          "type": "uint256"
        }
      ],
      "name": "MinVotingPowerChanged",
      "type": "event"
    },
    {
      "anonymous": false,
      "inputs": [
        {
          "indexed": true,
          "internalType": "address",
          "name": "previousOwner",
          "type": "address"
        },
        {
          "indexed": true,
          "internalType": "address",
          "name": "newOwner",
          "type": "address"
        }
      ],
      "name": "OwnershipTransferred",
      "type": "event"
    },
    {
      "anonymous": false,
      "inputs": [
        {
          "indexed": true,
          "internalType": "uint256",
          "name": "partnerId",
          "type": "uint256"
        },
        {
          "indexed": false,
          "internalType": "uint256",
          "name": "probabilityBoost",
          "type": "uint256"
        }
      ],
      "name": "PartnerBoostUpdated",
      "type": "event"
    },
    {
      "anonymous": false,
      "inputs": [
        {
          "indexed": true,
          "internalType": "address",
          "name": "user",
          "type": "address"
        },
        {
          "indexed": true,
          "internalType": "uint256",
          "name": "partnerId",
          "type": "uint256"
        },
        {
          "indexed": false,
          "internalType": "uint256",
          "name": "votes",
          "type": "uint256"
        },
        {
          "indexed": false,
          "internalType": "uint256",
          "name": "period",
          "type": "uint256"
        }
      ],
      "name": "VoteCast",
      "type": "event"
    },
    {
      "anonymous": false,
      "inputs": [
        {
          "indexed": true,
          "internalType": "address",
          "name": "user",
          "type": "address"
        },
        {
          "indexed": true,
          "internalType": "uint256",
          "name": "oldPartnerId",
          "type": "uint256"
        },
        {
          "indexed": true,
          "internalType": "uint256",
          "name": "newPartnerId",
          "type": "uint256"
        },
        {
          "indexed": false,
          "internalType": "uint256",
          "name": "votes",
          "type": "uint256"
        },
        {
          "indexed": false,
          "internalType": "uint256",
          "name": "period",
          "type": "uint256"
        }
      ],
      "name": "VoteChanged",
      "type": "event"
    },
    {
      "anonymous": false,
      "inputs": [
        {
          "indexed": true,
          "internalType": "address",
          "name": "user",
          "type": "address"
        },
        {
          "indexed": true,
          "internalType": "uint256",
          "name": "partnerId",
          "type": "uint256"
        },
        {
          "indexed": false,
          "internalType": "uint256",
          "name": "votes",
          "type": "uint256"
        },
        {
          "indexed": false,
          "internalType": "uint256",
          "name": "period",
          "type": "uint256"
        }
      ],
      "name": "VoteRemoved",
      "type": "event"
    },
    {
      "anonymous": false,
      "inputs": [
        {
          "indexed": false,
          "internalType": "uint256",
          "name": "newPeriodLength",
          "type": "uint256"
        }
      ],
      "name": "VotingPeriodChanged",
      "type": "event"
    },
    {
      "inputs": [],
      "name": "MAX_TOTAL_BOOST",
      "outputs": [
        {
          "internalType": "uint256",
          "name": "",
          "type": "uint256"
        }
      ],
      "stateMutability": "view",
      "type": "function"
    },
    {
      "inputs": [],
      "name": "calculateBoosts",
      "outputs": [],
      "stateMutability": "nonpayable",
      "type": "function"
    },
    {
      "inputs": [
        {
          "internalType": "uint256",
          "name": "_oldPartnerId",
          "type": "uint256"
        },
        {
          "internalType": "uint256",
          "name": "_newPartnerId",
          "type": "uint256"
        }
      ],
      "name": "changeVote",
      "outputs": [],
      "stateMutability": "nonpayable",
      "type": "function"
    },
    {
      "inputs": [],
      "name": "currentPeriod",
      "outputs": [
        {
          "internalType": "uint256",
          "name": "",
          "type": "uint256"
        }
      ],
      "stateMutability": "view",
      "type": "function"
    },
    {
      "inputs": [
        {
          "internalType": "uint256",
          "name": "_partnerId",
          "type": "uint256"
        }
      ],
      "name": "getPartnerProbabilityBoost",
      "outputs": [
        {
          "internalType": "uint256",
          "name": "",
          "type": "uint256"
        }
      ],
      "stateMutability": "view",
      "type": "function"
    },
    {
      "inputs": [
        {
          "internalType": "address",
          "name": "_partner",
          "type": "address"
        }
      ],
      "name": "getPartnerProbabilityBoostByAddress",
      "outputs": [
        {
          "internalType": "uint256",
          "name": "",
          "type": "uint256"
        }
      ],
      "stateMutability": "view",
      "type": "function"
    },
    {
      "inputs": [
        {
          "internalType": "uint256",
          "name": "",
          "type": "uint256"
        },
        {
          "internalType": "address",
          "name": "",
          "type": "address"
        }
      ],
      "name": "hasVoted",
      "outputs": [
        {
          "internalType": "bool",
          "name": "",
          "type": "bool"
        }
      ],
      "stateMutability": "view",
      "type": "function"
    },
    {
      "inputs": [],
      "name": "lastCalculation",
      "outputs": [
        {
          "internalType": "uint256",
          "name": "",
          "type": "uint256"
        }
      ],
      "stateMutability": "view",
      "type": "function"
    },
    {
      "inputs": [],
      "name": "minVotingPower",
      "outputs": [
        {
          "internalType": "uint256",
          "name": "",
          "type": "uint256"
        }
      ],
      "stateMutability": "view",
      "type": "function"
    },
    {
      "inputs": [],
      "name": "owner",
      "outputs": [
        {
          "internalType": "address",
          "name": "",
          "type": "address"
        }
      ],
      "stateMutability": "view",
      "type": "function"
    },
    {
      "inputs": [
        {
          "internalType": "uint256",
          "name": "",
          "type": "uint256"
        }
      ],
      "name": "partnerProbabilityBoost",
      "outputs": [
        {
          "internalType": "uint256",
          "name": "",
          "type": "uint256"
        }
      ],
      "stateMutability": "view",
      "type": "function"
    },
    {
      "inputs": [],
      "name": "partnerRegistry",
      "outputs": [
        {
          "internalType": "contract DragonPartnerRegistry",
          "name": "",
          "type": "address"
        }
      ],
      "stateMutability": "view",
      "type": "function"
    },
    {
      "inputs": [
        {
          "internalType": "uint256",
          "name": "",
          "type": "uint256"
        },
        {
          "internalType": "uint256",
          "name": "",
          "type": "uint256"
        }
      ],
      "name": "partnerVotes",
      "outputs": [
        {
          "internalType": "uint256",
          "name": "",
          "type": "uint256"
        }
      ],
      "stateMutability": "view",
      "type": "function"
    },
    {
      "inputs": [
        {
          "internalType": "uint256",
          "name": "",
          "type": "uint256"
        }
      ],
      "name": "periodTotalVotes",
      "outputs": [
        {
          "internalType": "uint256",
          "name": "",
          "type": "uint256"
        }
      ],
      "stateMutability": "view",
      "type": "function"
    },
    {
      "inputs": [],
      "name": "renounceOwnership",
      "outputs": [],
      "stateMutability": "nonpayable",
      "type": "function"
    },
    {
      "inputs": [
        {
          "internalType": "uint256",
          "name": "_minVotingPower",
          "type": "uint256"
        }
      ],
      "name": "setMinVotingPower",
      "outputs": [],
      "stateMutability": "nonpayable",
      "type": "function"
    },
    {
      "inputs": [
        {
          "internalType": "uint256",
          "name": "_votingPeriodLength",
          "type": "uint256"
        }
      ],
      "name": "setVotingPeriodLength",
      "outputs": [],
      "stateMutability": "nonpayable",
      "type": "function"
    },
    {
      "inputs": [
        {
          "internalType": "address",
          "name": "newOwner",
          "type": "address"
        }
      ],
      "name": "transferOwnership",
      "outputs": [],
      "stateMutability": "nonpayable",
      "type": "function"
    },
    {
      "inputs": [
        {
          "internalType": "uint256",
          "name": "",
          "type": "uint256"
        },
        {
          "internalType": "address",
          "name": "",
          "type": "address"
        },
        {
          "internalType": "uint256",
          "name": "",
          "type": "uint256"
        }
      ],
      "name": "userVotes",
      "outputs": [
        {
          "internalType": "uint256",
          "name": "",
          "type": "uint256"
        }
      ],
      "stateMutability": "view",
      "type": "function"
    },
    {
      "inputs": [],
      "name": "ve69LP",
      "outputs": [
        {
          "internalType": "contract Ive69LP",
          "name": "",
          "type": "address"
        }
      ],
      "stateMutability": "view",
      "type": "function"
    },
    {
      "inputs": [
        {
          "internalType": "uint256",
          "name": "_partnerId",
          "type": "uint256"
        }
      ],
      "name": "vote",
      "outputs": [],
      "stateMutability": "nonpayable",
      "type": "function"
    },
    {
      "inputs": [],
      "name": "votingPeriodLength",
      "outputs": [
        {
          "internalType": "uint256",
          "name": "",
          "type": "uint256"
        }
      ],
      "stateMutability": "view",
      "type": "function"
    }
  ],
  "bytecode": "0x608060405262093a8060035567016345785d8a00006005553480156200002457600080fd5b5060405162001561380380620015618339810160408190526200004791620001d1565b620000523362000164565b6001600160a01b038216620000ae5760405162461bcd60e51b815260206004820152601d60248201527f766536394c502063616e6e6f74206265207a65726f206164647265737300000060448201526064015b60405180910390fd5b6001600160a01b038116620001165760405162461bcd60e51b815260206004820152602760248201527f506172746e65722072656769737472792063616e6e6f74206265207a65726f206044820152666164647265737360c81b6064820152608401620000a5565b600180546001600160a01b038085166001600160a01b031992831617909255600280549284169290911691909117905560035462000155904262000209565b600455505042600b556200022c565b600080546001600160a01b038381166001600160a01b0319831681178455604051919092169283917f8be0079c531659141344cd1fd0a4f28419497f9722a3daafe3b4186f6b6457e09190a35050565b80516001600160a01b0381168114620001cc57600080fd5b919050565b60008060408385031215620001e557600080fd5b620001f083620001b4565b91506200020060208401620001b4565b90509250929050565b6000826200022757634e487b7160e01b600052601260045260246000fd5b500490565b611325806200023c6000396000f3fe608060405234801561001057600080fd5b50600436106101425760003560e01c80636bd53fbb116100b8578063885262a71161007c578063885262a7146102cc5780638da5cb5b146102df5780639f483b58146102f0578063a9593b9814610303578063ac7181d814610316578063f2fde38b1461034157600080fd5b80636bd53fbb14610261578063713387d014610292578063715018a6146102b257806374414a5c146102ba5780638340bbce146102c357600080fd5b806336fffde01161010a57806336fffde0146101cb57806338712e80146101d45780633e6bad18146101e757806343859632146101f0578063465872f91461022e57806355e489181461024e57600080fd5b80630121b93f1461014757806302bd9c681461015c578063060406181461018f578063249d76fa146101985780632aca8e2b146101a0575b600080fd5b61015a610155366004611039565b610354565b005b61017c61016a366004611039565b6000908152600a602052604090205490565b6040519081526020015b60405180910390f35b61017c60045481565b61015a610642565b6001546101b3906001600160a01b031681565b6040516001600160a01b039091168152602001610186565b61017c60055481565b6002546101b3906001600160a01b031681565b61017c6102b281565b61021e6101fe366004611067565b600860209081526000928352604080842090915290825290205460ff1681565b6040519015158152602001610186565b61017c61023c366004611039565b60076020526000908152604090205481565b61015a61025c366004611039565b610933565b61017c61026f366004611097565b600960209081526000938452604080852082529284528284209052825290205481565b61017c6102a0366004611039565b600a6020526000908152604090205481565b61015a610970565b61017c600b5481565b61017c60035481565b61017c6102da3660046110cf565b610984565b6000546001600160a01b03166101b3565b61015a6102fe366004611039565b610a1e565b61015a6103113660046110f3565b610aae565b61017c6103243660046110f3565b600660209081526000928352604080842090915290825290205481565b61015a61034f3660046110cf565b610d39565b600254604051637fc9661960e01b81526004810183905260009182916001600160a01b0390911690637fc9661990602401600060405180830381865afa1580156103a2573d6000803e3d6000fd5b505050506040513d6000823e601f3d908101601f191682016040526103ca9190810190611140565b50929450919250506001600160a01b03831690506104285760405162461bcd60e51b815260206004820152601660248201527514185c9d1b995c88191bd95cc81b9bdd08195e1a5cdd60521b60448201526064015b60405180910390fd5b8061046d5760405162461bcd60e51b8152602060048201526015602482015274506172746e6572206973206e6f742061637469766560581b604482015260640161041f565b610475610db2565b6001546040516370a0823160e01b81523360048201526000916001600160a01b0316906370a0823190602401602060405180830381865afa1580156104be573d6000803e3d6000fd5b505050506040513d601f19601f820116820180604052508101906104e29190611242565b90506005548110156105365760405162461bcd60e51b815260206004820152601960248201527f496e73756666696369656e7420766f74696e6720706f77657200000000000000604482015260640161041f565b600454600090815260086020908152604080832033845290915290205460ff16156105645761056433610dd3565b600454600090815260066020908152604080832087845290915281208054839290610590908490611271565b9091555050600454600090815260076020526040812080548392906105b6908490611271565b909155505060048054600090815260086020908152604080832033808552908352818420805460ff1916600117905584548452600983528184208185528352818420898552835292819020859055925483518581529182015286927fa23fc440c6fc2e19ce408adc0b47622097fa7ea64409d71d33ba3fcdb5b4cd95910160405180910390a350505050565b600b546106529062015180611271565b4210156106a15760405162461bcd60e51b815260206004820152601760248201527f546f6f20736f6f6e20746f20726563616c63756c617465000000000000000000604482015260640161041f565b6106a9610db2565b600454600090815260076020526040812054908190036107bc5760015b600260009054906101000a90046001600160a01b03166001600160a01b0316634d8004556040518163ffffffff1660e01b8152600401602060405180830381865afa158015610719573d6000803e3d6000fd5b505050506040513d601f19601f8201168201806040525081019061073d9190611242565b8110156107b6576000818152600a6020526040902054156107a4576000818152600a60205260408082208290555182917fe0a4b905b347cf973c5c41fa33f39041a96ed00977fef684ea45bd307dba578e9161079b91815260200190565b60405180910390a25b806107ae8161128a565b9150506106c6565b506108ef565b60015b600260009054906101000a90046001600160a01b03166001600160a01b0316634d8004556040518163ffffffff1660e01b8152600401602060405180830381865afa158015610812573d6000803e3d6000fd5b505050506040513d601f19601f820116820180604052508101906108369190611242565b8110156108ed57600454600090815260066020908152604080832084845290915281205490836108686102b2846112a3565b61087291906112ba565b6000848152600a602052604090205490915081146108d8576000838152600a6020526040908190208290555183907fe0a4b905b347cf973c5c41fa33f39041a96ed00977fef684ea45bd307dba578e906108cf9084815260200190565b60405180910390a25b505080806108e59061128a565b9150506107bf565b505b42600b5560045460408051918252602082018390527fa4ebb675c0a1cda46faa1c93b511fd56262a5cd40fa380cb85df9569195936b991015b60405180910390a150565b61093b610f8f565b60058190556040518181527f07bd67129e27e22b46ba01dbf291098b2b75bf2f60f356e2c78d7c5537e5796e90602001610928565b610978610f8f565b6109826000610fe9565b565b600254604051631a2c3dc560e21b81526001600160a01b03838116600483015260009283929116906368b0f71490602401602060405180830381865afa1580156109d2573d6000803e3d6000fd5b505050506040513d601f19601f820116820180604052508101906109f69190611242565b905080600003610a095750600092915050565b6000908152600a602052604090205492915050565b610a26610f8f565b62015180811015610a795760405162461bcd60e51b815260206004820152601d60248201527f506572696f64206d757374206265206174206c65617374203120646179000000604482015260640161041f565b60038190556040518181527f80de61ff4315232cb8f8914c01ec01d87aaf9714a379151c9cf5ccaba20c739090602001610928565b600254604051637fc9661960e01b81526004810183905260009182916001600160a01b0390911690637fc9661990602401600060405180830381865afa158015610afc573d6000803e3d6000fd5b505050506040513d6000823e601f3d908101601f19168201604052610b249190810190611140565b50929450919250506001600160a01b0383169050610b845760405162461bcd60e51b815260206004820152601a60248201527f4e657720706172746e657220646f6573206e6f74206578697374000000000000604482015260640161041f565b80610bd15760405162461bcd60e51b815260206004820152601960248201527f4e657720706172746e6572206973206e6f742061637469766500000000000000604482015260640161041f565b610bd9610db2565b6004546000908152600960209081526040808320338452825280832087845290915290205480610c4b5760405162461bcd60e51b815260206004820152601860248201527f4e6f20766f74657320666f72206f6c6420706172746e65720000000000000000604482015260640161041f565b600454600090815260066020908152604080832088845290915281208054839290610c779084906112dc565b909155505060048054600090815260096020908152604080832033845282528083208984528252808320839055925482526006815282822087835290529081208054839290610cc7908490611271565b909155505060048054600090815260096020908152604080832033808552908352818420898552835292819020859055925483518581529182015286928892917fd32b927e7cb2947760fba0009a7bf3cadab4addd53fd1db5757c024b25217935910160405180910390a45050505050565b610d41610f8f565b6001600160a01b038116610da65760405162461bcd60e51b815260206004820152602660248201527f4f776e61626c653a206e6577206f776e657220697320746865207a65726f206160448201526564647265737360d01b606482015260840161041f565b610daf81610fe9565b50565b600060035442610dc291906112ba565b9050600454811115610daf57600455565b60015b600260009054906101000a90046001600160a01b03166001600160a01b0316634d8004556040518163ffffffff1660e01b8152600401602060405180830381865afa158015610e29573d6000803e3d6000fd5b505050506040513d601f19601f82011682018060405250810190610e4d9190611242565b811015610f5f5760045460009081526009602090815260408083206001600160a01b038616845282528083208484529091529020548015610f4c57600454600090815260066020908152604080832085845290915281208054839290610eb49084906112dc565b909155505060045460009081526007602052604081208054839290610eda9084906112dc565b90915550506004805460009081526009602090815260408083206001600160a01b038816808552908352818420878552835281842093909355925483518581529182015284927fd1083f5f4d0fa0bdb5be33d13aba55e0e3100946696efae5059d69afd8a572a4910160405180910390a35b5080610f578161128a565b915050610dd6565b5060045460009081526008602090815260408083206001600160a01b03909416835292905220805460ff19169055565b6000546001600160a01b031633146109825760405162461bcd60e51b815260206004820181905260248201527f4f776e61626c653a2063616c6c6572206973206e6f7420746865206f776e6572604482015260640161041f565b600080546001600160a01b038381166001600160a01b0319831681178455604051919092169283917f8be0079c531659141344cd1fd0a4f28419497f9722a3daafe3b4186f6b6457e09190a35050565b60006020828403121561104b57600080fd5b5035919050565b6001600160a01b0381168114610daf57600080fd5b6000806040838503121561107a57600080fd5b82359150602083013561108c81611052565b809150509250929050565b6000806000606084860312156110ac57600080fd5b8335925060208401356110be81611052565b929592945050506040919091013590565b6000602082840312156110e157600080fd5b81356110ec81611052565b9392505050565b6000806040838503121561110657600080fd5b50508035926020909101359150565b634e487b7160e01b600052604160045260246000fd5b8051801515811461113b57600080fd5b919050565b600080600080600060a0868803121561115857600080fd5b855161116381611052565b8095505060208087015167ffffffffffffffff8082111561118357600080fd5b818901915089601f83011261119757600080fd5b8151818111156111a9576111a9611115565b604051601f8201601f19908116603f011681019083821181831017156111d1576111d1611115565b816040528281528c868487010111156111e957600080fd5b600093505b8284101561120b57848401860151818501870152928501926111ee565b60008684830101528099505050505050506040860151925061122f6060870161112b565b9150608086015190509295509295909350565b60006020828403121561125457600080fd5b5051919050565b634e487b7160e01b600052601160045260246000fd5b808201808211156112845761128461125b565b92915050565b60006001820161129c5761129c61125b565b5060010190565b80820281158282048414176112845761128461125b565b6000826112d757634e487b7160e01b600052601260045260246000fd5b500490565b818103818111156112845761128461125b56fea2646970667358221220cb79b7341347fb2f0ee7fb194d7737ab29bb0aa455d6d1a4a5b26422b92e6aef64736f6c63430008140033",
  "linkReferences": {},
  "deployedLinkReferences": {}
}