{
  "_format": "hh-sol-artifact-1",
  "contractName": "SonicVRFConsumerMock",
  "sourceName": "contracts/mocks/SonicVRFConsumerMock.sol",
  "abi": [
    {
      "inputs": [
        {
          "internalType": "address",
          "name": "_endpoint",
          "type": "address"
        },
        {
          "internalType": "uint32",
          "name": "_arbitrumChainId",
          "type": "uint32"
        },
        {
          "internalType": "address",
          "name": "_arbitrumVRFRequester",
          "type": "address"
        },
        {
          "internalType": "address",
          "name": "_lotteryContract",
          "type": "address"
        }
      ],
      "stateMutability": "nonpayable",
      "type": "constructor"
    },
    {
      "anonymous": false,
      "inputs": [
        {
          "indexed": true,
          "internalType": "address",
          "name": "previousOwner",
          "type": "address"
        },
        {
          "indexed": true,
          "internalType": "address",
          "name": "newOwner",
          "type": "address"
        }
      ],
      "name": "OwnershipTransferred",
      "type": "event"
    },
    {
      "anonymous": false,
      "inputs": [
        {
          "indexed": true,
          "internalType": "uint64",
          "name": "requestId",
          "type": "uint64"
        },
        {
          "indexed": true,
          "internalType": "address",
          "name": "user",
          "type": "address"
        },
        {
          "indexed": false,
          "internalType": "uint256",
          "name": "randomness",
          "type": "uint256"
        }
      ],
      "name": "RandomnessProcessingFailed",
      "type": "event"
    },
    {
      "anonymous": false,
      "inputs": [
        {
          "indexed": true,
          "internalType": "uint64",
          "name": "requestId",
          "type": "uint64"
        },
        {
          "indexed": true,
          "internalType": "address",
          "name": "user",
          "type": "address"
        },
        {
          "indexed": false,
          "internalType": "uint256",
          "name": "randomness",
          "type": "uint256"
        }
      ],
      "name": "RandomnessReceived",
      "type": "event"
    },
    {
      "anonymous": false,
      "inputs": [
        {
          "indexed": true,
          "internalType": "uint64",
          "name": "requestId",
          "type": "uint64"
        },
        {
          "indexed": true,
          "internalType": "address",
          "name": "user",
          "type": "address"
        }
      ],
      "name": "RandomnessRequested",
      "type": "event"
    },
    {
      "inputs": [
        {
          "components": [
            {
              "internalType": "uint32",
              "name": "srcEid",
              "type": "uint32"
            },
            {
              "internalType": "bytes32",
              "name": "sender",
              "type": "bytes32"
            },
            {
              "internalType": "uint64",
              "name": "nonce",
              "type": "uint64"
            }
          ],
          "internalType": "struct ILayerZeroEndpointV2Mock.Origin",
          "name": "_origin",
          "type": "tuple"
        },
        {
          "internalType": "bytes32",
          "name": "",
          "type": "bytes32"
        },
        {
          "internalType": "bytes",
          "name": "_message",
          "type": "bytes"
        },
        {
          "internalType": "address",
          "name": "",
          "type": "address"
        },
        {
          "internalType": "bytes",
          "name": "",
          "type": "bytes"
        }
      ],
      "name": "_lzReceive",
      "outputs": [],
      "stateMutability": "nonpayable",
      "type": "function"
    },
    {
      "inputs": [],
      "name": "arbitrumChainId",
      "outputs": [
        {
          "internalType": "uint32",
          "name": "",
          "type": "uint32"
        }
      ],
      "stateMutability": "view",
      "type": "function"
    },
    {
      "inputs": [],
      "name": "arbitrumVRFRequester",
      "outputs": [
        {
          "internalType": "address",
          "name": "",
          "type": "address"
        }
      ],
      "stateMutability": "view",
      "type": "function"
    },
    {
      "inputs": [],
      "name": "endpoint",
      "outputs": [
        {
          "internalType": "contract ILayerZeroEndpointV2Mock",
          "name": "",
          "type": "address"
        }
      ],
      "stateMutability": "view",
      "type": "function"
    },
    {
      "inputs": [],
      "name": "lotteryContract",
      "outputs": [
        {
          "internalType": "address",
          "name": "",
          "type": "address"
        }
      ],
      "stateMutability": "view",
      "type": "function"
    },
    {
      "inputs": [],
      "name": "nonce",
      "outputs": [
        {
          "internalType": "uint64",
          "name": "",
          "type": "uint64"
        }
      ],
      "stateMutability": "view",
      "type": "function"
    },
    {
      "inputs": [],
      "name": "owner",
      "outputs": [
        {
          "internalType": "address",
          "name": "",
          "type": "address"
        }
      ],
      "stateMutability": "view",
      "type": "function"
    },
    {
      "inputs": [],
      "name": "renounceOwnership",
      "outputs": [],
      "stateMutability": "nonpayable",
      "type": "function"
    },
    {
      "inputs": [
        {
          "internalType": "address",
          "name": "_user",
          "type": "address"
        }
      ],
      "name": "requestRandomness",
      "outputs": [
        {
          "internalType": "uint64",
          "name": "",
          "type": "uint64"
        }
      ],
      "stateMutability": "nonpayable",
      "type": "function"
    },
    {
      "inputs": [
        {
          "internalType": "uint64",
          "name": "",
          "type": "uint64"
        }
      ],
      "name": "requestToUser",
      "outputs": [
        {
          "internalType": "address",
          "name": "",
          "type": "address"
        }
      ],
      "stateMutability": "view",
      "type": "function"
    },
    {
      "inputs": [
        {
          "internalType": "address",
          "name": "newOwner",
          "type": "address"
        }
      ],
      "name": "transferOwnership",
      "outputs": [],
      "stateMutability": "nonpayable",
      "type": "function"
    },
    {
      "inputs": [
        {
          "internalType": "uint32",
          "name": "_arbitrumChainId",
          "type": "uint32"
        }
      ],
      "name": "updateArbitrumChainId",
      "outputs": [],
      "stateMutability": "nonpayable",
      "type": "function"
    },
    {
      "inputs": [
        {
          "internalType": "address",
          "name": "_arbitrumVRFRequester",
          "type": "address"
        }
      ],
      "name": "updateArbitrumVRFRequester",
      "outputs": [],
      "stateMutability": "nonpayable",
      "type": "function"
    },
    {
      "inputs": [
        {
          "internalType": "address",
          "name": "_lotteryContract",
          "type": "address"
        }
      ],
      "name": "updateLotteryContract",
      "outputs": [],
      "stateMutability": "nonpayable",
      "type": "function"
    },
    {
      "stateMutability": "payable",
      "type": "receive"
    }
  ],
  "bytecode": "0x608060405234801561001057600080fd5b50604051620010fd380380620010fd83398101604081905261003191610103565b61003a33610097565b600180556002805463ffffffff909416600160a01b026001600160c01b03199094166001600160a01b039586161793909317909255600380549184166001600160a01b031992831617905560048054929093169116179055610162565b600080546001600160a01b038381166001600160a01b0319831681178455604051919092169283917f8be0079c531659141344cd1fd0a4f28419497f9722a3daafe3b4186f6b6457e09190a35050565b80516001600160a01b03811681146100fe57600080fd5b919050565b6000806000806080858703121561011957600080fd5b610122856100e7565b9350602085015163ffffffff8116811461013b57600080fd5b9250610149604086016100e7565b9150610157606086016100e7565b905092959194509250565b610f8b80620001726000396000f3fe6080604052600436106100e15760003560e01c8063715018a61161007f578063affed0e011610059578063affed0e01461026e578063b29c662a146102ad578063ead073c7146102cd578063f2fde38b146102ed57600080fd5b8063715018a6146102055780638da5cb5b1461021a5780639f392c2b1461023857600080fd5b80633b54db6e116100bb5780633b54db6e146101855780635e280f11146101a55780635f8db002146101c557806365efa97c146101e557600080fd5b806318610ae0146100ed5780631c61621e1461010f578063263de2b51461014d57600080fd5b366100e857005b600080fd5b3480156100f957600080fd5b5061010d610108366004610be6565b61030d565b005b34801561011b57600080fd5b5060025461013390600160a01b900463ffffffff1681565b60405163ffffffff90911681526020015b60405180910390f35b34801561015957600080fd5b5060035461016d906001600160a01b031681565b6040516001600160a01b039091168152602001610144565b34801561019157600080fd5b5061010d6101a0366004610be6565b610392565b3480156101b157600080fd5b5060025461016d906001600160a01b031681565b3480156101d157600080fd5b5061010d6101e0366004610c0a565b610412565b3480156101f157600080fd5b5061010d610200366004610c78565b610440565b34801561021157600080fd5b5061010d610764565b34801561022657600080fd5b506000546001600160a01b031661016d565b34801561024457600080fd5b5061016d610253366004610d35565b6005602052600090815260409020546001600160a01b031681565b34801561027a57600080fd5b5060045461029590600160a01b90046001600160401b031681565b6040516001600160401b039091168152602001610144565b3480156102b957600080fd5b5060045461016d906001600160a01b031681565b3480156102d957600080fd5b506102956102e8366004610be6565b610778565b3480156102f957600080fd5b5061010d610308366004610be6565b610a55565b610315610ace565b6001600160a01b0381166103705760405162461bcd60e51b815260206004820152601a60248201527f43616e6e6f742073657420746f207a65726f206164647265737300000000000060448201526064015b60405180910390fd5b600480546001600160a01b0319166001600160a01b0392909216919091179055565b61039a610ace565b6001600160a01b0381166103f05760405162461bcd60e51b815260206004820152601a60248201527f43616e6e6f742073657420746f207a65726f20616464726573730000000000006044820152606401610367565b600380546001600160a01b0319166001600160a01b0392909216919091179055565b61041a610ace565b6002805463ffffffff909216600160a01b0263ffffffff60a01b19909216919091179055565b600254600160a01b900463ffffffff1661045d6020890189610c0a565b63ffffffff16146104b05760405162461bcd60e51b815260206004820152601760248201527f4e6f742066726f6d20417262697472756d20636861696e0000000000000000006044820152606401610367565b6003546020880135906001600160a01b038083169116146105135760405162461bcd60e51b815260206004820152601a60248201527f4e6f742066726f6d20617574686f72697a656420736f757263650000000000006044820152606401610367565b60008080610523888a018a610d50565b6001600160401b03831660009081526005602052604090205492955090935091506001600160a01b03168061058f5760405162461bcd60e51b8152602060048201526012602482015271155b9adb9bdddb881c995c5d595cdd08125160721b6044820152606401610367565b826001600160a01b0316816001600160a01b0316146105e05760405162461bcd60e51b815260206004820152600d60248201526c0aae6cae440dad2e6dac2e8c6d609b1b6044820152606401610367565b826001600160a01b0316846001600160401b03167f4aa9e0f248f6c96da29c00ab96c2d21ab4f40afb34d049557a56089bfb7c4bad8460405161062591815260200190565b60405180910390a36004546040516001600160401b03861660248201526001600160a01b03858116604483015260648201859052600092169060840160408051601f198184030181529181526020820180516001600160e01b03166338b540e760e11b179052516106969190610db3565b6000604051808303816000865af19150503d80600081146106d3576040519150601f19603f3d011682016040523d82523d6000602084013e6106d8565b606091505b50506001600160401b038616600090815260056020526040902080546001600160a01b031916905590508061075557836001600160a01b0316856001600160401b03167fdbed2dec459d7d081bb7f458a7a9a865640acc283b6a0fc313e4856ea660a4258560405161074c91815260200190565b60405180910390a35b50505050505050505050505050565b61076c610ace565b6107766000610b28565b565b6000610782610b78565b6004546001600160a01b031633146107d45760405162461bcd60e51b815260206004820152601560248201527413db9b1e481b1bdd1d195c9e4818dbdb9d1c9858dd605a1b6044820152606401610367565b60048054600091600160a01b9091046001600160401b03169060146107f883610dcf565b82546101009290920a6001600160401b038181021990931691831602179091558116600081815260056020908152604080832080546001600160a01b0319166001600160a01b038a1690811790915581519283019490945281019290925291925060600160408051601f1981840301815260a08301825260025463ffffffff600160a01b9091041683526003549151909350600092916020838101926108c0926001600160a01b0316910160609190911b6bffffffffffffffffffffffff1916815260140190565b60408051601f1981840301815291815290825260208281018690528151600160f01b918101919091526207a120602282015291019060420160408051808303601f1901815291815290825260006020909201829052600254905163239a891360e11b815292935090916001600160a01b0390911690634735122690610949908590600401610e2f565b6040805180830381865afa158015610965573d6000803e3d6000fd5b505050506040513d601f19601f820116820180604052508101906109899190610f0c565b600254815160405163122c3adf60e11b81529293506001600160a01b039091169163245875be91906109bf908690600401610e2f565b60606040518083038185885af11580156109dd573d6000803e3d6000fd5b50505050506040513d601f19601f82011682018060405250810190610a029190610f28565b50506040516001600160a01b038716906001600160401b038616907ff09a63f9e06f8e96ec8e1be5bdfdb17d52cf919bcfe025e59cf8e5c0bd65d35a90600090a35050600180555092915050565b919050565b610a5d610ace565b6001600160a01b038116610ac25760405162461bcd60e51b815260206004820152602660248201527f4f776e61626c653a206e6577206f776e657220697320746865207a65726f206160448201526564647265737360d01b6064820152608401610367565b610acb81610b28565b50565b6000546001600160a01b031633146107765760405162461bcd60e51b815260206004820181905260248201527f4f776e61626c653a2063616c6c6572206973206e6f7420746865206f776e65726044820152606401610367565b600080546001600160a01b038381166001600160a01b0319831681178455604051919092169283917f8be0079c531659141344cd1fd0a4f28419497f9722a3daafe3b4186f6b6457e09190a35050565b600260015403610bca5760405162461bcd60e51b815260206004820152601f60248201527f5265656e7472616e637947756172643a207265656e7472616e742063616c6c006044820152606401610367565b6002600155565b6001600160a01b0381168114610acb57600080fd5b600060208284031215610bf857600080fd5b8135610c0381610bd1565b9392505050565b600060208284031215610c1c57600080fd5b813563ffffffff81168114610c0357600080fd5b60008083601f840112610c4257600080fd5b5081356001600160401b03811115610c5957600080fd5b602083019150836020828501011115610c7157600080fd5b9250929050565b600080600080600080600087890360e0811215610c9457600080fd5b6060811215610ca257600080fd5b508796506060880135955060808801356001600160401b0380821115610cc757600080fd5b610cd38b838c01610c30565b909750955060a08a01359150610ce882610bd1565b90935060c08901359080821115610cfe57600080fd5b50610d0b8a828b01610c30565b989b979a50959850939692959293505050565b80356001600160401b0381168114610a5057600080fd5b600060208284031215610d4757600080fd5b610c0382610d1e565b600080600060608486031215610d6557600080fd5b610d6e84610d1e565b92506020840135610d7e81610bd1565b929592945050506040919091013590565b60005b83811015610daa578181015183820152602001610d92565b50506000910152565b60008251610dc5818460208701610d8f565b9190910192915050565b60006001600160401b03808316818103610df957634e487b7160e01b600052601160045260246000fd5b6001019392505050565b60008151808452610e1b816020860160208601610d8f565b601f01601f19169290920160200192915050565b6020815263ffffffff82511660208201526000602083015160a06040840152610e5b60c0840182610e03565b90506040840151601f1980858403016060860152610e798383610e03565b9250606086015191508085840301608086015250610e978282610e03565b9150506080840151151560a08401528091505092915050565b600060408284031215610ec257600080fd5b604051604081018181106001600160401b0382111715610ef257634e487b7160e01b600052604160045260246000fd5b604052825181526020928301519281019290925250919050565b600060408284031215610f1e57600080fd5b610c038383610eb0565b60008060608385031215610f3b57600080fd5b610f458484610eb0565b915060408301519050925092905056fea2646970667358221220e45d113c28a2fd5485a0d4d7d12fc3a0df0cc14f29136d884cea1a489a82dfb564736f6c63430008140033",
  "linkReferences": {},
  "deployedLinkReferences": {}
}