{
  "_format": "hh-sol-artifact-1",
  "contractName": "MockDragonSwapTrigger",
  "sourceName": "contracts/mocks/MockDragonSwapTrigger.sol",
  "abi": [
    {
      "inputs": [
        {
          "internalType": "address",
          "name": "_wrappedToken",
          "type": "address"
        },
        {
          "internalType": "address",
          "name": "_dragonToken",
          "type": "address"
        },
        {
          "internalType": "address",
          "name": "_vrfConsumer",
          "type": "address"
        },
        {
          "internalType": "uint256",
          "name": "_minSwapAmount",
          "type": "uint256"
        }
      ],
      "stateMutability": "nonpayable",
      "type": "constructor"
    },
    {
      "anonymous": false,
      "inputs": [
        {
          "indexed": false,
          "internalType": "uint256",
          "name": "amount",
          "type": "uint256"
        },
        {
          "indexed": false,
          "internalType": "uint256",
          "name": "newBalance",
          "type": "uint256"
        }
      ],
      "name": "JackpotIncreased",
      "type": "event"
    },
    {
      "anonymous": false,
      "inputs": [
        {
          "indexed": true,
          "internalType": "uint256",
          "name": "requestId",
          "type": "uint256"
        },
        {
          "indexed": true,
          "internalType": "address",
          "name": "user",
          "type": "address"
        }
      ],
      "name": "RandomnessRequested",
      "type": "event"
    },
    {
      "anonymous": false,
      "inputs": [
        {
          "indexed": true,
          "internalType": "address",
          "name": "user",
          "type": "address"
        },
        {
          "indexed": false,
          "internalType": "uint256",
          "name": "amount",
          "type": "uint256"
        }
      ],
      "name": "SwapDetected",
      "type": "event"
    },
    {
      "inputs": [
        {
          "internalType": "uint256",
          "name": "_amount",
          "type": "uint256"
        }
      ],
      "name": "addToJackpot",
      "outputs": [],
      "stateMutability": "nonpayable",
      "type": "function"
    },
    {
      "inputs": [],
      "name": "dragonToken",
      "outputs": [
        {
          "internalType": "contract IERC20",
          "name": "",
          "type": "address"
        }
      ],
      "stateMutability": "view",
      "type": "function"
    },
    {
      "inputs": [
        {
          "internalType": "uint256",
          "name": "_requestId",
          "type": "uint256"
        },
        {
          "internalType": "uint256",
          "name": "_randomness",
          "type": "uint256"
        }
      ],
      "name": "fulfillRandomness",
      "outputs": [],
      "stateMutability": "nonpayable",
      "type": "function"
    },
    {
      "inputs": [],
      "name": "getJackpotBalance",
      "outputs": [
        {
          "internalType": "uint256",
          "name": "",
          "type": "uint256"
        }
      ],
      "stateMutability": "view",
      "type": "function"
    },
    {
      "inputs": [],
      "name": "getNativeTokenWrapper",
      "outputs": [
        {
          "internalType": "address",
          "name": "",
          "type": "address"
        }
      ],
      "stateMutability": "view",
      "type": "function"
    },
    {
      "inputs": [],
      "name": "jackpotBalance",
      "outputs": [
        {
          "internalType": "uint256",
          "name": "",
          "type": "uint256"
        }
      ],
      "stateMutability": "view",
      "type": "function"
    },
    {
      "inputs": [],
      "name": "minSwapAmount",
      "outputs": [
        {
          "internalType": "uint256",
          "name": "",
          "type": "uint256"
        }
      ],
      "stateMutability": "view",
      "type": "function"
    },
    {
      "inputs": [
        {
          "internalType": "address",
          "name": "_user",
          "type": "address"
        },
        {
          "internalType": "uint256",
          "name": "_amount",
          "type": "uint256"
        }
      ],
      "name": "onSwapNativeTokenToDragon",
      "outputs": [],
      "stateMutability": "nonpayable",
      "type": "function"
    },
    {
      "inputs": [
        {
          "internalType": "uint256",
          "name": "_minSwapAmount",
          "type": "uint256"
        }
      ],
      "name": "setMinSwapAmount",
      "outputs": [],
      "stateMutability": "nonpayable",
      "type": "function"
    },
    {
      "inputs": [
        {
          "internalType": "address",
          "name": "_vrfConsumerAddress",
          "type": "address"
        }
      ],
      "name": "setVRFConsumer",
      "outputs": [],
      "stateMutability": "nonpayable",
      "type": "function"
    },
    {
      "inputs": [
        {
          "internalType": "uint256",
          "name": "_winThreshold",
          "type": "uint256"
        }
      ],
      "name": "setWinThreshold",
      "outputs": [],
      "stateMutability": "nonpayable",
      "type": "function"
    },
    {
      "inputs": [],
      "name": "swapCount",
      "outputs": [
        {
          "internalType": "uint256",
          "name": "",
          "type": "uint256"
        }
      ],
      "stateMutability": "view",
      "type": "function"
    },
    {
      "inputs": [],
      "name": "vrfConsumer",
      "outputs": [
        {
          "internalType": "address",
          "name": "",
          "type": "address"
        }
      ],
      "stateMutability": "view",
      "type": "function"
    },
    {
      "inputs": [],
      "name": "winThreshold",
      "outputs": [
        {
          "internalType": "uint256",
          "name": "",
          "type": "uint256"
        }
      ],
      "stateMutability": "view",
      "type": "function"
    },
    {
      "inputs": [],
      "name": "wrappedToken",
      "outputs": [
        {
          "internalType": "contract IERC20",
          "name": "",
          "type": "address"
        }
      ],
      "stateMutability": "view",
      "type": "function"
    }
  ],
  "bytecode": "0x60806040526103e860045534801561001657600080fd5b506040516107a63803806107a683398101604081905261003591610096565b600080546001600160a01b03199081166001600160a01b03968716179091556001805482169486169490941790935560028054909316919093161790556003556100e1565b80516001600160a01b038116811461009157600080fd5b919050565b600080600080608085870312156100ac57600080fd5b6100b58561007a565b93506100c36020860161007a565b92506100d16040860161007a565b6060959095015193969295505050565b6106b6806100f06000396000f3fe608060405234801561001057600080fd5b50600436106100f55760003560e01c8063338246e211610097578063998e4d5211610066578063998e4d52146101cf578063b7b50352146101e0578063cfd6aa90146101f3578063ed96cc511461022357600080fd5b8063338246e2146101985780637c40a65c146101a15780639509ba0c146101b4578063996c6cc3146101bc57600080fd5b80631ef4d1fd116100d35780631ef4d1fd146101565780632a7e1d06146101695780632eff0d9e1461017c578063320d45341461018557600080fd5b8063040da8f4146100fa5780630695a252146101165780630e42323b1461012b575b600080fd5b61010360065481565b6040519081526020015b60405180910390f35b610129610124366004610544565b61022c565b005b60015461013e906001600160a01b031681565b6040516001600160a01b03909116815260200161010d565b60025461013e906001600160a01b031681565b610129610177366004610566565b600455565b61010360055481565b610129610193366004610566565b600355565b61010360035481565b6101296101af36600461059b565b61029f565b600654610103565b60005461013e906001600160a01b031681565b6000546001600160a01b031661013e565b6101296101ee366004610566565b610471565b6101296102013660046105c5565b600280546001600160a01b0319166001600160a01b0392909216919091179055565b61010360045481565b6002546001600160a01b0316331461029b5760405162461bcd60e51b815260206004820152602860248201527f4f6e6c792056524620636f6e73756d65722063616e2066756c66696c6c2072616044820152676e646f6d6e65737360c01b606482015260840160405180910390fd5b5050565b6003548110156102ad575050565b600580549060006102bd836105fd565b90915550506000546040516323b872dd60e01b81526001600160a01b03848116600483015230602483015260448201849052909116906323b872dd906064016020604051808303816000875af115801561031b573d6000803e3d6000fd5b505050506040513d601f19601f8201168201806040525081019061033f9190610616565b50816001600160a01b03167f5590cccd15bf7ebb05ced7d4e11c18447aae5060414fbe666c323e4d18e6df808260405161037b91815260200190565b60405180910390a26002546001600160a01b03161561029b576002546040516001600160a01b038481166024830152600092169060440160408051601f198184030181529181526020820180516001600160e01b031663ead073c760e01b179052516103e79190610638565b6000604051808303816000865af19150503d8060008114610424576040519150601f19603f3d011682016040523d82523d6000602084013e610429565b606091505b50509050801561046c576005546040516001600160a01b03851691907f28f521cf7abd0044cba5bb040c5217ff69a4e5865f5262905018698e68fe7d0090600090a35b505050565b6000546040516323b872dd60e01b8152336004820152306024820152604481018390526001600160a01b03909116906323b872dd906064016020604051808303816000875af11580156104c8573d6000803e3d6000fd5b505050506040513d601f19601f820116820180604052508101906104ec9190610616565b5080600660008282546104ff9190610667565b90915550506006546040805183815260208101929092527fb0d06ccaa4821f41669bcc9a049d35783663cd32e846ae89a27dc9835330ce1a910160405180910390a150565b6000806040838503121561055757600080fd5b50508035926020909101359150565b60006020828403121561057857600080fd5b5035919050565b80356001600160a01b038116811461059657600080fd5b919050565b600080604083850312156105ae57600080fd5b6105b78361057f565b946020939093013593505050565b6000602082840312156105d757600080fd5b6105e08261057f565b9392505050565b634e487b7160e01b600052601160045260246000fd5b60006001820161060f5761060f6105e7565b5060010190565b60006020828403121561062857600080fd5b815180151581146105e057600080fd5b6000825160005b81811015610659576020818601810151858301520161063f565b506000920191825250919050565b8082018082111561067a5761067a6105e7565b9291505056fea2646970667358221220df5d23d36307ad76ac7e83da71d16ec9a75f5743c25ab06e763e288774e4a0e864736f6c63430008140033",
  "linkReferences": {},
  "deployedLinkReferences": {}
}