{
  "_format": "hh-sol-artifact-1",
  "contractName": "MockSonicVRFConsumerRead",
  "sourceName": "contracts/mocks/MockSonicVRFConsumerRead.sol",
  "abi": [
    {
      "anonymous": false,
      "inputs": [
        {
          "indexed": true,
          "internalType": "uint64",
          "name": "requestId",
          "type": "uint64"
        },
        {
          "indexed": true,
          "internalType": "address",
          "name": "user",
          "type": "address"
        },
        {
          "indexed": false,
          "internalType": "uint256",
          "name": "randomness",
          "type": "uint256"
        }
      ],
      "name": "RandomnessProcessingFailed",
      "type": "event"
    },
    {
      "anonymous": false,
      "inputs": [
        {
          "indexed": true,
          "internalType": "uint64",
          "name": "requestId",
          "type": "uint64"
        },
        {
          "indexed": true,
          "internalType": "address",
          "name": "user",
          "type": "address"
        },
        {
          "indexed": false,
          "internalType": "uint256",
          "name": "randomness",
          "type": "uint256"
        }
      ],
      "name": "RandomnessReceived",
      "type": "event"
    },
    {
      "anonymous": false,
      "inputs": [
        {
          "indexed": true,
          "internalType": "uint64",
          "name": "requestId",
          "type": "uint64"
        },
        {
          "indexed": true,
          "internalType": "address",
          "name": "user",
          "type": "address"
        }
      ],
      "name": "RandomnessRequested",
      "type": "event"
    },
    {
      "anonymous": false,
      "inputs": [
        {
          "indexed": false,
          "internalType": "uint64",
          "name": "subscriptionId",
          "type": "uint64"
        },
        {
          "indexed": false,
          "internalType": "bytes32",
          "name": "keyHash",
          "type": "bytes32"
        },
        {
          "indexed": false,
          "internalType": "uint16",
          "name": "confirmations",
          "type": "uint16"
        },
        {
          "indexed": false,
          "internalType": "uint32",
          "name": "callbackGasLimit",
          "type": "uint32"
        },
        {
          "indexed": false,
          "internalType": "uint32",
          "name": "numWords",
          "type": "uint32"
        },
        {
          "indexed": false,
          "internalType": "uint64",
          "name": "timestamp",
          "type": "uint64"
        }
      ],
      "name": "VRFStateQueried",
      "type": "event"
    },
    {
      "inputs": [],
      "name": "READ_CHANNEL",
      "outputs": [
        {
          "internalType": "uint32",
          "name": "",
          "type": "uint32"
        }
      ],
      "stateMutability": "view",
      "type": "function"
    },
    {
      "inputs": [],
      "name": "READ_MSG_TYPE",
      "outputs": [
        {
          "internalType": "uint16",
          "name": "",
          "type": "uint16"
        }
      ],
      "stateMutability": "view",
      "type": "function"
    },
    {
      "inputs": [],
      "name": "arbitrumChainId",
      "outputs": [
        {
          "internalType": "uint32",
          "name": "",
          "type": "uint32"
        }
      ],
      "stateMutability": "view",
      "type": "function"
    },
    {
      "inputs": [],
      "name": "arbitrumVRFRequester",
      "outputs": [
        {
          "internalType": "address",
          "name": "",
          "type": "address"
        }
      ],
      "stateMutability": "view",
      "type": "function"
    },
    {
      "inputs": [
        {
          "internalType": "uint32",
          "name": "_channelId",
          "type": "uint32"
        },
        {
          "internalType": "uint16",
          "name": "_msgType",
          "type": "uint16"
        },
        {
          "internalType": "bytes",
          "name": "_extraOptions",
          "type": "bytes"
        }
      ],
      "name": "combineOptions",
      "outputs": [
        {
          "internalType": "bytes",
          "name": "",
          "type": "bytes"
        }
      ],
      "stateMutability": "pure",
      "type": "function"
    },
    {
      "inputs": [],
      "name": "getArbitrumVRFQuery",
      "outputs": [
        {
          "internalType": "bytes",
          "name": "",
          "type": "bytes"
        }
      ],
      "stateMutability": "view",
      "type": "function"
    },
    {
      "inputs": [],
      "name": "getLatestRequestId",
      "outputs": [
        {
          "internalType": "uint64",
          "name": "",
          "type": "uint64"
        }
      ],
      "stateMutability": "view",
      "type": "function"
    },
    {
      "inputs": [],
      "name": "getRequestCount",
      "outputs": [
        {
          "internalType": "uint256",
          "name": "",
          "type": "uint256"
        }
      ],
      "stateMutability": "view",
      "type": "function"
    },
    {
      "inputs": [
        {
          "internalType": "address",
          "name": "_user",
          "type": "address"
        }
      ],
      "name": "getUserRequestCount",
      "outputs": [
        {
          "internalType": "uint256",
          "name": "",
          "type": "uint256"
        }
      ],
      "stateMutability": "view",
      "type": "function"
    },
    {
      "inputs": [
        {
          "internalType": "address",
          "name": "_lzEndpoint",
          "type": "address"
        },
        {
          "internalType": "uint32",
          "name": "_arbitrumChainId",
          "type": "uint32"
        },
        {
          "internalType": "address",
          "name": "_arbitrumVRFRequester",
          "type": "address"
        }
      ],
      "name": "initialize",
      "outputs": [],
      "stateMutability": "nonpayable",
      "type": "function"
    },
    {
      "inputs": [
        {
          "internalType": "uint32",
          "name": "_srcEid",
          "type": "uint32"
        }
      ],
      "name": "isLzReadResponse",
      "outputs": [
        {
          "internalType": "bool",
          "name": "",
          "type": "bool"
        }
      ],
      "stateMutability": "pure",
      "type": "function"
    },
    {
      "inputs": [],
      "name": "lastQueriedCallbackGasLimit",
      "outputs": [
        {
          "internalType": "uint32",
          "name": "",
          "type": "uint32"
        }
      ],
      "stateMutability": "view",
      "type": "function"
    },
    {
      "inputs": [],
      "name": "lastQueriedConfirmations",
      "outputs": [
        {
          "internalType": "uint16",
          "name": "",
          "type": "uint16"
        }
      ],
      "stateMutability": "view",
      "type": "function"
    },
    {
      "inputs": [],
      "name": "lastQueriedKeyHash",
      "outputs": [
        {
          "internalType": "bytes32",
          "name": "",
          "type": "bytes32"
        }
      ],
      "stateMutability": "view",
      "type": "function"
    },
    {
      "inputs": [],
      "name": "lastQueriedNumWords",
      "outputs": [
        {
          "internalType": "uint32",
          "name": "",
          "type": "uint32"
        }
      ],
      "stateMutability": "view",
      "type": "function"
    },
    {
      "inputs": [],
      "name": "lastQueriedSubscriptionId",
      "outputs": [
        {
          "internalType": "uint64",
          "name": "",
          "type": "uint64"
        }
      ],
      "stateMutability": "view",
      "type": "function"
    },
    {
      "inputs": [],
      "name": "lastQueriedTimestamp",
      "outputs": [
        {
          "internalType": "uint64",
          "name": "",
          "type": "uint64"
        }
      ],
      "stateMutability": "view",
      "type": "function"
    },
    {
      "inputs": [],
      "name": "lotteryContract",
      "outputs": [
        {
          "internalType": "address",
          "name": "",
          "type": "address"
        }
      ],
      "stateMutability": "view",
      "type": "function"
    },
    {
      "inputs": [],
      "name": "lzEndpoint",
      "outputs": [
        {
          "internalType": "address",
          "name": "",
          "type": "address"
        }
      ],
      "stateMutability": "view",
      "type": "function"
    },
    {
      "inputs": [
        {
          "internalType": "uint16",
          "name": "_srcChainId",
          "type": "uint16"
        },
        {
          "internalType": "bytes",
          "name": "_srcAddress",
          "type": "bytes"
        },
        {
          "internalType": "uint64",
          "name": "_nonce",
          "type": "uint64"
        },
        {
          "internalType": "bytes",
          "name": "_payload",
          "type": "bytes"
        }
      ],
      "name": "lzReceive",
      "outputs": [],
      "stateMutability": "nonpayable",
      "type": "function"
    },
    {
      "inputs": [
        {
          "internalType": "uint64",
          "name": "_subscriptionId",
          "type": "uint64"
        },
        {
          "internalType": "bytes32",
          "name": "_keyHash",
          "type": "bytes32"
        },
        {
          "internalType": "uint16",
          "name": "_confirmations",
          "type": "uint16"
        },
        {
          "internalType": "uint32",
          "name": "_callbackGasLimit",
          "type": "uint32"
        },
        {
          "internalType": "uint32",
          "name": "_numWords",
          "type": "uint32"
        }
      ],
      "name": "mockReceiveReadResponse",
      "outputs": [],
      "stateMutability": "nonpayable",
      "type": "function"
    },
    {
      "inputs": [],
      "name": "nonce",
      "outputs": [
        {
          "internalType": "uint64",
          "name": "",
          "type": "uint64"
        }
      ],
      "stateMutability": "view",
      "type": "function"
    },
    {
      "inputs": [
        {
          "internalType": "bytes",
          "name": "_extraOptions",
          "type": "bytes"
        }
      ],
      "name": "queryArbitrumVRFState",
      "outputs": [
        {
          "internalType": "bool",
          "name": "",
          "type": "bool"
        }
      ],
      "stateMutability": "payable",
      "type": "function"
    },
    {
      "inputs": [],
      "name": "requestCount",
      "outputs": [
        {
          "internalType": "uint256",
          "name": "",
          "type": "uint256"
        }
      ],
      "stateMutability": "view",
      "type": "function"
    },
    {
      "inputs": [
        {
          "internalType": "address",
          "name": "_user",
          "type": "address"
        }
      ],
      "name": "requestRandomness",
      "outputs": [
        {
          "internalType": "uint64",
          "name": "",
          "type": "uint64"
        }
      ],
      "stateMutability": "nonpayable",
      "type": "function"
    },
    {
      "inputs": [
        {
          "internalType": "uint64",
          "name": "",
          "type": "uint64"
        }
      ],
      "name": "requestToUser",
      "outputs": [
        {
          "internalType": "address",
          "name": "",
          "type": "address"
        }
      ],
      "stateMutability": "view",
      "type": "function"
    },
    {
      "inputs": [
        {
          "internalType": "address",
          "name": "_lotteryContract",
          "type": "address"
        }
      ],
      "name": "setLotteryContract",
      "outputs": [],
      "stateMutability": "nonpayable",
      "type": "function"
    },
    {
      "inputs": [
        {
          "internalType": "uint64",
          "name": "_requestId",
          "type": "uint64"
        },
        {
          "internalType": "address",
          "name": "_user",
          "type": "address"
        },
        {
          "internalType": "uint256",
          "name": "_randomness",
          "type": "uint256"
        }
      ],
      "name": "simulateReceiveRandomness",
      "outputs": [],
      "stateMutability": "nonpayable",
      "type": "function"
    }
  ],
  "bytecode": "0x608060405234801561001057600080fd5b5061119f806100206000396000f3fe6080604052600436106101b65760003560e01c80638c1bde26116100ec578063bc70b3541161008a578063c1bd92e311610064578063c1bd92e31461059f578063d97ff008146105b4578063e29814de146105f0578063ead073c71461061757600080fd5b8063bc70b354146104ec578063c1554a4b14610519578063c166c4581461057f57600080fd5b8063affed0e0116100c6578063affed0e014610470578063b190d8a314610497578063b29c662a146104ac578063b353aaa7146104cc57600080fd5b80638c1bde26146103f75780638eb96891146104175780639f392c2b1461043a57600080fd5b80633136eca01161015957806358efca041161013357806358efca041461036b5780635badbe4c146103a75780636ff8fc68146103bd57806377896890146103e457600080fd5b80633136eca01461031d5780633859d937146103415780633fad18341461035657600080fd5b806318184fe21161019557806318184fe21461024d5780631c61621e1461028c578063263de2b5146102c557806328455e00146102fd57600080fd5b80621d3567146101bb57806306d7e8db146101dd5780631590a04f14610210575b600080fd5b3480156101c757600080fd5b506101db6101d6366004610d86565b610637565b005b3480156101e957600080fd5b506006546101f89061ffff1681565b60405161ffff90911681526020015b60405180910390f35b34801561021c57600080fd5b506101db61022b366004610e31565b600480546001600160a01b0319166001600160a01b0392909216919091179055565b34801561025957600080fd5b5060065461027490600160501b90046001600160401b031681565b6040516001600160401b039091168152602001610207565b34801561029857600080fd5b506000546102b090600160a01b900463ffffffff1681565b60405163ffffffff9091168152602001610207565b3480156102d157600080fd5b506001546102e5906001600160a01b031681565b6040516001600160a01b039091168152602001610207565b34801561030957600080fd5b506101db610318366004610e69565b610791565b34801561032957600080fd5b5061033360055481565b604051908152602001610207565b34801561034d57600080fd5b506102b0600581565b34801561036257600080fd5b50600354610333565b34801561037757600080fd5b50610397610386366004610ec7565b63fffff9be63ffffffff9091161190565b6040519015158152602001610207565b3480156103b357600080fd5b5061033360035481565b3480156103c957600080fd5b5060045461027490600160a01b90046001600160401b031681565b6103976103f2366004610ee2565b610887565b34801561040357600080fd5b506101db610412366004610f23565b6108c0565b34801561042357600080fd5b506006546102b09062010000900463ffffffff1681565b34801561044657600080fd5b506102e5610455366004610f62565b6002602052600090815260409020546001600160a01b031681565b34801561047c57600080fd5b5060015461027490600160a01b90046001600160401b031681565b3480156104a357600080fd5b506102746108d0565b3480156104b857600080fd5b506004546102e5906001600160a01b031681565b3480156104d857600080fd5b506000546102e5906001600160a01b031681565b3480156104f857600080fd5b5061050c610507366004610f7d565b610913565b6040516102079190611001565b34801561052557600080fd5b506101db610534366004611034565b6000805463ffffffff909316600160a01b026001600160c01b03199093166001600160a01b03948516179290921790915560018054919092166001600160a01b031991909116179055565b34801561058b57600080fd5b5061033361059a366004610e31565b610945565b3480156105ab57600080fd5b506101f8600181565b3480156105c057600080fd5b5060408051600160f81b6020820152600560f81b602182015281518082036002018152602290910190915261050c565b3480156105fc57600080fd5b506006546102b0906601000000000000900463ffffffff1681565b34801561062357600080fd5b50610274610632366004610e31565b6109ba565b6000546001600160a01b031633146106965760405162461bcd60e51b815260206004820152601c60248201527f4f6e6c792066726f6d204c617965725a65726f20656e64706f696e740000000060448201526064015b60405180910390fd5b600054600160a01b900463ffffffff1661ffff8716146106f85760405162461bcd60e51b815260206004820152601760248201527f4e6f742066726f6d20417262697472756d20636861696e000000000000000000604482015260640161068d565b6000610704858761107d565b6001549091506001600160a01b038083169116146107645760405162461bcd60e51b815260206004820152601a60248201527f4e6f742066726f6d20617574686f72697a656420736f75726365000000000000604482015260640161068d565b6000808061077485870187610f23565b925092509250610785838383610ad7565b50505050505050505050565b6004805467ffffffffffffffff60a01b1916600160a01b6001600160401b038881169182029290921790925560058690556006805461ffff871665ffffffffffff1990911681176201000063ffffffff8881169182029290921771ffffffffffffffffffffffff0000000000001916660100000000000092881692830267ffffffffffffffff60501b191617600160501b429096169586021790935560408051958652602086018a90528501919091526060840191909152608083015260a08201527f445a4da439043a5740fbba31409cad3c4ec93020c2cece51a909875e696cda039060c00160405180910390a15050505050565b604051600090339082907ff09a63f9e06f8e96ec8e1be5bdfdb17d52cf919bcfe025e59cf8e5c0bd65d35a908290a35060015b92915050565b6108cb838383610ad7565b505050565b600154600090600160a01b90046001600160401b03166108f05750600090565b6001805461090e9190600160a01b90046001600160401b03166110b1565b905090565b60608484848460405160200161092c94939291906110d1565b6040516020818303038152906040529050949350505050565b600080805b6001546001600160401b03600160a01b909104811690821610156109b3576001600160401b0381166000908152600260205260409020546001600160a01b038086169116036109a1578161099d8161110e565b9250505b806109ab81611127565b91505061094a565b5092915050565b6004546000906001600160a01b03163314610a0f5760405162461bcd60e51b815260206004820152601560248201527413db9b1e481b1bdd1d195c9e4818dbdb9d1c9858dd605a1b604482015260640161068d565b60018054600091600160a01b9091046001600160401b0316906014610a3383611127565b82546101009290920a6001600160401b038181021990931691831602179091558116600090815260026020526040812080546001600160a01b0319166001600160a01b0387161790556003805492935090610a8d8361110e565b90915550506040516001600160a01b038416906001600160401b038316907ff09a63f9e06f8e96ec8e1be5bdfdb17d52cf919bcfe025e59cf8e5c0bd65d35a90600090a392915050565b6001600160401b0383166000908152600260205260409020546001600160a01b031680610b3b5760405162461bcd60e51b8152602060048201526012602482015271155b9adb9bdddb881c995c5d595cdd08125160721b604482015260640161068d565b826001600160a01b0316816001600160a01b031614610b8c5760405162461bcd60e51b815260206004820152600d60248201526c0aae6cae440dad2e6dac2e8c6d609b1b604482015260640161068d565b826001600160a01b0316846001600160401b03167f4aa9e0f248f6c96da29c00ab96c2d21ab4f40afb34d049557a56089bfb7c4bad84604051610bd191815260200190565b60405180910390a36004546001600160a01b031615610ce6576004546040516001600160401b0386166024820152604481018490526000916001600160a01b03169060640160408051601f198184030181529181526020820180516001600160e01b031663034ad12960e11b17905251610c4b919061114d565b6000604051808303816000865af19150503d8060008114610c88576040519150601f19603f3d011682016040523d82523d6000602084013e610c8d565b606091505b5050905080610ce457836001600160a01b0316856001600160401b03167fdbed2dec459d7d081bb7f458a7a9a865640acc283b6a0fc313e4856ea660a42585604051610cdb91815260200190565b60405180910390a35b505b5050506001600160401b0316600090815260026020526040902080546001600160a01b0319169055565b803561ffff81168114610d2257600080fd5b919050565b60008083601f840112610d3957600080fd5b5081356001600160401b03811115610d5057600080fd5b602083019150836020828501011115610d6857600080fd5b9250929050565b80356001600160401b0381168114610d2257600080fd5b60008060008060008060808789031215610d9f57600080fd5b610da887610d10565b955060208701356001600160401b0380821115610dc457600080fd5b610dd08a838b01610d27565b9097509550859150610de460408a01610d6f565b94506060890135915080821115610dfa57600080fd5b50610e0789828a01610d27565b979a9699509497509295939492505050565b6001600160a01b0381168114610e2e57600080fd5b50565b600060208284031215610e4357600080fd5b8135610e4e81610e19565b9392505050565b803563ffffffff81168114610d2257600080fd5b600080600080600060a08688031215610e8157600080fd5b610e8a86610d6f565b945060208601359350610e9f60408701610d10565b9250610ead60608701610e55565b9150610ebb60808701610e55565b90509295509295909350565b600060208284031215610ed957600080fd5b610e4e82610e55565b60008060208385031215610ef557600080fd5b82356001600160401b03811115610f0b57600080fd5b610f1785828601610d27565b90969095509350505050565b600080600060608486031215610f3857600080fd5b610f4184610d6f565b92506020840135610f5181610e19565b929592945050506040919091013590565b600060208284031215610f7457600080fd5b610e4e82610d6f565b60008060008060608587031215610f9357600080fd5b610f9c85610e55565b9350610faa60208601610d10565b925060408501356001600160401b03811115610fc557600080fd5b610fd187828801610d27565b95989497509550505050565b60005b83811015610ff8578181015183820152602001610fe0565b50506000910152565b6020815260008251806020840152611020816040850160208701610fdd565b601f01601f19169190910160400192915050565b60008060006060848603121561104957600080fd5b833561105481610e19565b925061106260208501610e55565b9150604084013561107281610e19565b809150509250925092565b803560208310156108ba57600019602084900360031b1b1692915050565b634e487b7160e01b600052601160045260246000fd5b6001600160401b038281168282160390808211156109b3576109b361109b565b60e085901b6001600160e01b031916815260f084901b6001600160f01b031916600482015281836006830137600091016006019081529392505050565b6000600182016111205761112061109b565b5060010190565b60006001600160401b038083168181036111435761114361109b565b6001019392505050565b6000825161115f818460208701610fdd565b919091019291505056fea2646970667358221220daf41f0bcd636346c43a8201e7d334c5085f54a2999b7271996fcfd72947308a64736f6c63430008140033",
  "linkReferences": {},
  "deployedLinkReferences": {}
}