{
  "_format": "hh-sol-artifact-1",
  "contractName": "MockSonicVRFConsumer",
  "sourceName": "contracts/mocks/MockSonicVRFConsumer.sol",
  "abi": [
    {
      "anonymous": false,
      "inputs": [
        {
          "indexed": true,
          "internalType": "uint64",
          "name": "requestId",
          "type": "uint64"
        },
        {
          "indexed": true,
          "internalType": "address",
          "name": "user",
          "type": "address"
        },
        {
          "indexed": false,
          "internalType": "uint256",
          "name": "randomness",
          "type": "uint256"
        }
      ],
      "name": "RandomnessProcessingFailed",
      "type": "event"
    },
    {
      "anonymous": false,
      "inputs": [
        {
          "indexed": true,
          "internalType": "uint64",
          "name": "requestId",
          "type": "uint64"
        },
        {
          "indexed": true,
          "internalType": "address",
          "name": "user",
          "type": "address"
        },
        {
          "indexed": false,
          "internalType": "uint256",
          "name": "randomness",
          "type": "uint256"
        }
      ],
      "name": "RandomnessReceived",
      "type": "event"
    },
    {
      "anonymous": false,
      "inputs": [
        {
          "indexed": true,
          "internalType": "uint64",
          "name": "requestId",
          "type": "uint64"
        },
        {
          "indexed": true,
          "internalType": "address",
          "name": "user",
          "type": "address"
        }
      ],
      "name": "RandomnessRequested",
      "type": "event"
    },
    {
      "inputs": [],
      "name": "arbitrumChainId",
      "outputs": [
        {
          "internalType": "uint32",
          "name": "",
          "type": "uint32"
        }
      ],
      "stateMutability": "view",
      "type": "function"
    },
    {
      "inputs": [],
      "name": "arbitrumVRFRequester",
      "outputs": [
        {
          "internalType": "address",
          "name": "",
          "type": "address"
        }
      ],
      "stateMutability": "view",
      "type": "function"
    },
    {
      "inputs": [],
      "name": "getLatestRequestId",
      "outputs": [
        {
          "internalType": "uint64",
          "name": "",
          "type": "uint64"
        }
      ],
      "stateMutability": "view",
      "type": "function"
    },
    {
      "inputs": [],
      "name": "getRequestCount",
      "outputs": [
        {
          "internalType": "uint256",
          "name": "",
          "type": "uint256"
        }
      ],
      "stateMutability": "view",
      "type": "function"
    },
    {
      "inputs": [
        {
          "internalType": "address",
          "name": "_user",
          "type": "address"
        }
      ],
      "name": "getUserRequestCount",
      "outputs": [
        {
          "internalType": "uint256",
          "name": "",
          "type": "uint256"
        }
      ],
      "stateMutability": "view",
      "type": "function"
    },
    {
      "inputs": [
        {
          "internalType": "address",
          "name": "_lzEndpoint",
          "type": "address"
        },
        {
          "internalType": "uint32",
          "name": "_arbitrumChainId",
          "type": "uint32"
        },
        {
          "internalType": "address",
          "name": "_arbitrumVRFRequester",
          "type": "address"
        }
      ],
      "name": "initialize",
      "outputs": [],
      "stateMutability": "nonpayable",
      "type": "function"
    },
    {
      "inputs": [],
      "name": "lotteryContract",
      "outputs": [
        {
          "internalType": "address",
          "name": "",
          "type": "address"
        }
      ],
      "stateMutability": "view",
      "type": "function"
    },
    {
      "inputs": [],
      "name": "lzEndpoint",
      "outputs": [
        {
          "internalType": "address",
          "name": "",
          "type": "address"
        }
      ],
      "stateMutability": "view",
      "type": "function"
    },
    {
      "inputs": [
        {
          "internalType": "uint16",
          "name": "_srcChainId",
          "type": "uint16"
        },
        {
          "internalType": "bytes",
          "name": "_srcAddress",
          "type": "bytes"
        },
        {
          "internalType": "uint64",
          "name": "_nonce",
          "type": "uint64"
        },
        {
          "internalType": "bytes",
          "name": "_payload",
          "type": "bytes"
        }
      ],
      "name": "lzReceive",
      "outputs": [],
      "stateMutability": "nonpayable",
      "type": "function"
    },
    {
      "inputs": [],
      "name": "nonce",
      "outputs": [
        {
          "internalType": "uint64",
          "name": "",
          "type": "uint64"
        }
      ],
      "stateMutability": "view",
      "type": "function"
    },
    {
      "inputs": [],
      "name": "requestCount",
      "outputs": [
        {
          "internalType": "uint256",
          "name": "",
          "type": "uint256"
        }
      ],
      "stateMutability": "view",
      "type": "function"
    },
    {
      "inputs": [
        {
          "internalType": "address",
          "name": "_user",
          "type": "address"
        }
      ],
      "name": "requestRandomness",
      "outputs": [
        {
          "internalType": "uint64",
          "name": "",
          "type": "uint64"
        }
      ],
      "stateMutability": "nonpayable",
      "type": "function"
    },
    {
      "inputs": [
        {
          "internalType": "uint64",
          "name": "",
          "type": "uint64"
        }
      ],
      "name": "requestToUser",
      "outputs": [
        {
          "internalType": "address",
          "name": "",
          "type": "address"
        }
      ],
      "stateMutability": "view",
      "type": "function"
    },
    {
      "inputs": [
        {
          "internalType": "address",
          "name": "_lotteryContract",
          "type": "address"
        }
      ],
      "name": "setLotteryContract",
      "outputs": [],
      "stateMutability": "nonpayable",
      "type": "function"
    },
    {
      "inputs": [
        {
          "internalType": "uint64",
          "name": "_requestId",
          "type": "uint64"
        },
        {
          "internalType": "address",
          "name": "_user",
          "type": "address"
        },
        {
          "internalType": "uint256",
          "name": "_randomness",
          "type": "uint256"
        }
      ],
      "name": "simulateReceiveRandomness",
      "outputs": [],
      "stateMutability": "nonpayable",
      "type": "function"
    }
  ],
  "bytecode": "0x608060405234801561001057600080fd5b50610b2b806100206000396000f3fe608060405234801561001057600080fd5b50600436106100f45760003560e01c80639f392c2b11610097578063b353aaa711610066578063b353aaa71461023e578063c1554a4b14610251578063c166c458146102aa578063ead073c7146102bd57600080fd5b80639f392c2b146101c8578063affed0e0146101f1578063b190d8a314610223578063b29c662a1461022b57600080fd5b8063263de2b5116100d3578063263de2b51461016f5780633fad18341461019a5780635badbe4c146101ac5780638c1bde26146101b557600080fd5b80621d3567146100f95780631590a04f1461010e5780631c61621e1461013e575b600080fd5b61010c6101073660046108ac565b6102d0565b005b61010c61011c366004610960565b600480546001600160a01b0319166001600160a01b0392909216919091179055565b60005461015590600160a01b900463ffffffff1681565b60405163ffffffff90911681526020015b60405180910390f35b600154610182906001600160a01b031681565b6040516001600160a01b039091168152602001610166565b6003545b604051908152602001610166565b61019e60035481565b61010c6101c3366004610984565b61042a565b6101826101d63660046109c3565b6002602052600090815260409020546001600160a01b031681565b60015461020b90600160a01b90046001600160401b031681565b6040516001600160401b039091168152602001610166565b61020b61043a565b600454610182906001600160a01b031681565b600054610182906001600160a01b031681565b61010c61025f3660046109de565b6000805463ffffffff909316600160a01b026001600160c01b03199093166001600160a01b03948516179290921790915560018054919092166001600160a01b031991909116179055565b61019e6102b8366004610960565b61047d565b61020b6102cb366004610960565b6104f2565b6000546001600160a01b0316331461032f5760405162461bcd60e51b815260206004820152601c60248201527f4f6e6c792066726f6d204c617965725a65726f20656e64706f696e740000000060448201526064015b60405180910390fd5b600054600160a01b900463ffffffff1661ffff8716146103915760405162461bcd60e51b815260206004820152601760248201527f4e6f742066726f6d20417262697472756d20636861696e0000000000000000006044820152606401610326565b600061039d8587610a32565b6001549091506001600160a01b038083169116146103fd5760405162461bcd60e51b815260206004820152601a60248201527f4e6f742066726f6d20617574686f72697a656420736f757263650000000000006044820152606401610326565b6000808061040d85870187610984565b92509250925061041e83838361060f565b50505050505050505050565b61043583838361060f565b505050565b600154600090600160a01b90046001600160401b031661045a5750600090565b600180546104789190600160a01b90046001600160401b0316610a67565b905090565b600080805b6001546001600160401b03600160a01b909104811690821610156104eb576001600160401b0381166000908152600260205260409020546001600160a01b038086169116036104d957816104d581610a87565b9250505b806104e381610aa0565b915050610482565b5092915050565b6004546000906001600160a01b031633146105475760405162461bcd60e51b815260206004820152601560248201527413db9b1e481b1bdd1d195c9e4818dbdb9d1c9858dd605a1b6044820152606401610326565b60018054600091600160a01b9091046001600160401b031690601461056b83610aa0565b82546101009290920a6001600160401b038181021990931691831602179091558116600090815260026020526040812080546001600160a01b0319166001600160a01b03871617905560038054929350906105c583610a87565b90915550506040516001600160a01b038416906001600160401b038316907ff09a63f9e06f8e96ec8e1be5bdfdb17d52cf919bcfe025e59cf8e5c0bd65d35a90600090a392915050565b6001600160401b0383166000908152600260205260409020546001600160a01b0316806106735760405162461bcd60e51b8152602060048201526012602482015271155b9adb9bdddb881c995c5d595cdd08125160721b6044820152606401610326565b826001600160a01b0316816001600160a01b0316146106c45760405162461bcd60e51b815260206004820152600d60248201526c0aae6cae440dad2e6dac2e8c6d609b1b6044820152606401610326565b826001600160a01b0316846001600160401b03167f4aa9e0f248f6c96da29c00ab96c2d21ab4f40afb34d049557a56089bfb7c4bad8460405161070991815260200190565b60405180910390a36004546001600160a01b03161561081e576004546040516001600160401b0386166024820152604481018490526000916001600160a01b03169060640160408051601f198184030181529181526020820180516001600160e01b031663034ad12960e11b179052516107839190610ac6565b6000604051808303816000865af19150503d80600081146107c0576040519150601f19603f3d011682016040523d82523d6000602084013e6107c5565b606091505b505090508061081c57836001600160a01b0316856001600160401b03167fdbed2dec459d7d081bb7f458a7a9a865640acc283b6a0fc313e4856ea660a4258560405161081391815260200190565b60405180910390a35b505b5050506001600160401b0316600090815260026020526040902080546001600160a01b0319169055565b60008083601f84011261085a57600080fd5b5081356001600160401b0381111561087157600080fd5b60208301915083602082850101111561088957600080fd5b9250929050565b80356001600160401b03811681146108a757600080fd5b919050565b600080600080600080608087890312156108c557600080fd5b863561ffff811681146108d757600080fd5b955060208701356001600160401b03808211156108f357600080fd5b6108ff8a838b01610848565b909750955085915061091360408a01610890565b9450606089013591508082111561092957600080fd5b5061093689828a01610848565b979a9699509497509295939492505050565b6001600160a01b038116811461095d57600080fd5b50565b60006020828403121561097257600080fd5b813561097d81610948565b9392505050565b60008060006060848603121561099957600080fd5b6109a284610890565b925060208401356109b281610948565b929592945050506040919091013590565b6000602082840312156109d557600080fd5b61097d82610890565b6000806000606084860312156109f357600080fd5b83356109fe81610948565b9250602084013563ffffffff81168114610a1757600080fd5b91506040840135610a2781610948565b809150509250925092565b80356020831015610a4b57600019602084900360031b1b165b92915050565b634e487b7160e01b600052601160045260246000fd5b6001600160401b038281168282160390808211156104eb576104eb610a51565b600060018201610a9957610a99610a51565b5060010190565b60006001600160401b03808316818103610abc57610abc610a51565b6001019392505050565b6000825160005b81811015610ae75760208186018101518583015201610acd565b50600092019182525091905056fea2646970667358221220684375685ef4e2bfdeff571b1e48b440d6bb765392b7c5afe6b34cb6a32fb5d764736f6c63430008140033",
  "linkReferences": {},
  "deployedLinkReferences": {}
}