{
  "_format": "hh-sol-artifact-1",
  "contractName": "DragonPartnerRouter",
  "sourceName": "contracts_temp/DragonPartnerRouter.sol",
  "abi": [
    {
      "inputs": [
        {
          "internalType": "address",
          "name": "_partnerRegistry",
          "type": "address"
        },
        {
          "internalType": "address",
          "name": "_shadowSwapper",
          "type": "address"
        },
        {
          "internalType": "address",
          "name": "_jackpot",
          "type": "address"
        },
        {
          "internalType": "address",
          "name": "_beetsLpToken",
          "type": "address"
        },
        {
          "internalType": "address",
          "name": "_x33Token",
          "type": "address"
        }
      ],
      "stateMutability": "nonpayable",
      "type": "constructor"
    },
    {
      "anonymous": false,
      "inputs": [
        {
          "indexed": false,
          "internalType": "address",
          "name": "shadowSwapper",
          "type": "address"
        },
        {
          "indexed": false,
          "internalType": "address",
          "name": "jackpot",
          "type": "address"
        }
      ],
      "name": "ContractsSet",
      "type": "event"
    },
    {
      "anonymous": false,
      "inputs": [
        {
          "indexed": true,
          "internalType": "address",
          "name": "user",
          "type": "address"
        },
        {
          "indexed": false,
          "internalType": "uint256",
          "name": "x33Amount",
          "type": "uint256"
        },
        {
          "indexed": false,
          "internalType": "uint256",
          "name": "beetsLpReceived",
          "type": "uint256"
        }
      ],
      "name": "DirectSwap",
      "type": "event"
    },
    {
      "anonymous": false,
      "inputs": [
        {
          "indexed": true,
          "internalType": "address",
          "name": "previousOwner",
          "type": "address"
        },
        {
          "indexed": true,
          "internalType": "address",
          "name": "newOwner",
          "type": "address"
        }
      ],
      "name": "OwnershipTransferred",
      "type": "event"
    },
    {
      "anonymous": false,
      "inputs": [
        {
          "indexed": true,
          "internalType": "address",
          "name": "partner",
          "type": "address"
        },
        {
          "indexed": true,
          "internalType": "address",
          "name": "user",
          "type": "address"
        },
        {
          "indexed": false,
          "internalType": "uint256",
          "name": "partnerId",
          "type": "uint256"
        },
        {
          "indexed": false,
          "internalType": "uint256",
          "name": "x33Amount",
          "type": "uint256"
        },
        {
          "indexed": false,
          "internalType": "uint256",
          "name": "partnerFeeAmount",
          "type": "uint256"
        },
        {
          "indexed": false,
          "internalType": "uint256",
          "name": "beetsLpReceived",
          "type": "uint256"
        }
      ],
      "name": "PartnerSwap",
      "type": "event"
    },
    {
      "inputs": [],
      "name": "BASE_FEE",
      "outputs": [
        {
          "internalType": "uint256",
          "name": "",
          "type": "uint256"
        }
      ],
      "stateMutability": "view",
      "type": "function"
    },
    {
      "inputs": [],
      "name": "FEE_DENOMINATOR",
      "outputs": [
        {
          "internalType": "uint256",
          "name": "",
          "type": "uint256"
        }
      ],
      "stateMutability": "view",
      "type": "function"
    },
    {
      "inputs": [],
      "name": "beetsLpToken",
      "outputs": [
        {
          "internalType": "contract IERC20",
          "name": "",
          "type": "address"
        }
      ],
      "stateMutability": "view",
      "type": "function"
    },
    {
      "inputs": [
        {
          "internalType": "address",
          "name": "token",
          "type": "address"
        },
        {
          "internalType": "uint256",
          "name": "amount",
          "type": "uint256"
        },
        {
          "internalType": "address",
          "name": "to",
          "type": "address"
        }
      ],
      "name": "emergencyWithdraw",
      "outputs": [],
      "stateMutability": "nonpayable",
      "type": "function"
    },
    {
      "inputs": [],
      "name": "jackpot",
      "outputs": [
        {
          "internalType": "address",
          "name": "",
          "type": "address"
        }
      ],
      "stateMutability": "view",
      "type": "function"
    },
    {
      "inputs": [],
      "name": "owner",
      "outputs": [
        {
          "internalType": "address",
          "name": "",
          "type": "address"
        }
      ],
      "stateMutability": "view",
      "type": "function"
    },
    {
      "inputs": [],
      "name": "partnerRegistry",
      "outputs": [
        {
          "internalType": "contract DragonPartnerRegistry",
          "name": "",
          "type": "address"
        }
      ],
      "stateMutability": "view",
      "type": "function"
    },
    {
      "inputs": [],
      "name": "renounceOwnership",
      "outputs": [],
      "stateMutability": "nonpayable",
      "type": "function"
    },
    {
      "inputs": [
        {
          "internalType": "address",
          "name": "_shadowSwapper",
          "type": "address"
        },
        {
          "internalType": "address",
          "name": "_jackpot",
          "type": "address"
        }
      ],
      "name": "setContracts",
      "outputs": [],
      "stateMutability": "nonpayable",
      "type": "function"
    },
    {
      "inputs": [],
      "name": "shadowSwapper",
      "outputs": [
        {
          "internalType": "address",
          "name": "",
          "type": "address"
        }
      ],
      "stateMutability": "view",
      "type": "function"
    },
    {
      "inputs": [
        {
          "internalType": "uint256",
          "name": "x33Amount",
          "type": "uint256"
        },
        {
          "internalType": "uint256",
          "name": "minBeetsLpOut",
          "type": "uint256"
        },
        {
          "internalType": "uint256",
          "name": "deadline",
          "type": "uint256"
        }
      ],
      "name": "swapX33ForBeetsLP",
      "outputs": [
        {
          "internalType": "uint256",
          "name": "beetsLpReceived",
          "type": "uint256"
        }
      ],
      "stateMutability": "nonpayable",
      "type": "function"
    },
    {
      "inputs": [
        {
          "internalType": "uint256",
          "name": "x33Amount",
          "type": "uint256"
        },
        {
          "internalType": "uint256",
          "name": "minBeetsLpOut",
          "type": "uint256"
        },
        {
          "internalType": "uint256",
          "name": "deadline",
          "type": "uint256"
        },
        {
          "internalType": "uint256",
          "name": "partnerId",
          "type": "uint256"
        }
      ],
      "name": "swapX33ForBeetsLPWithPartner",
      "outputs": [
        {
          "internalType": "uint256",
          "name": "beetsLpReceived",
          "type": "uint256"
        }
      ],
      "stateMutability": "nonpayable",
      "type": "function"
    },
    {
      "inputs": [
        {
          "internalType": "address",
          "name": "newOwner",
          "type": "address"
        }
      ],
      "name": "transferOwnership",
      "outputs": [],
      "stateMutability": "nonpayable",
      "type": "function"
    },
    {
      "inputs": [],
      "name": "x33Token",
      "outputs": [
        {
          "internalType": "contract IERC20",
          "name": "",
          "type": "address"
        }
      ],
      "stateMutability": "view",
      "type": "function"
    }
  ],
  "bytecode": "0x60806040523480156200001157600080fd5b506040516200164c3803806200164c8339810160408190526200003491620004ea565b6200003f33620000b2565b60018055600280546001600160a01b038088166001600160a01b031992831617909255600380548784169083161790556004805486841690831617905560058054858416908316179055600680549284169290911682179055620000a7908560001962000102565b505050505062000618565b600080546001600160a01b038381166001600160a01b0319831681178455604051919092169283917f8be0079c531659141344cd1fd0a4f28419497f9722a3daafe3b4186f6b6457e09190a35050565b801580620001805750604051636eb1769f60e11b81523060048201526001600160a01b03838116602483015284169063dd62ed3e90604401602060405180830381865afa15801562000158573d6000803e3d6000fd5b505050506040513d601f19601f820116820180604052508101906200017e91906200055a565b155b620001f85760405162461bcd60e51b815260206004820152603660248201527f5361666545524332303a20617070726f76652066726f6d206e6f6e2d7a65726f60448201527f20746f206e6f6e2d7a65726f20616c6c6f77616e63650000000000000000000060648201526084015b60405180910390fd5b604080516001600160a01b038416602482015260448082018490528251808303909101815260649091019091526020810180516001600160e01b0390811663095ea7b360e01b17909152620002509185916200025516565b505050565b6040805180820190915260208082527f5361666545524332303a206c6f772d6c6576656c2063616c6c206661696c656490820152600090620002a4906001600160a01b03851690849062000329565b9050805160001480620002c8575080806020019051810190620002c8919062000574565b620002505760405162461bcd60e51b815260206004820152602a60248201527f5361666545524332303a204552433230206f7065726174696f6e20646964206e6044820152691bdd081cdd58d8d9595960b21b6064820152608401620001ef565b60606200033a848460008562000342565b949350505050565b606082471015620003a55760405162461bcd60e51b815260206004820152602660248201527f416464726573733a20696e73756666696369656e742062616c616e636520666f6044820152651c8818d85b1b60d21b6064820152608401620001ef565b600080866001600160a01b03168587604051620003c39190620005c5565b60006040518083038185875af1925050503d806000811462000402576040519150601f19603f3d011682016040523d82523d6000602084013e62000407565b606091505b5090925090506200041b8783838762000426565b979650505050505050565b606083156200049a57825160000362000492576001600160a01b0385163b620004925760405162461bcd60e51b815260206004820152601d60248201527f416464726573733a2063616c6c20746f206e6f6e2d636f6e74726163740000006044820152606401620001ef565b50816200033a565b6200033a8383815115620004b15781518083602001fd5b8060405162461bcd60e51b8152600401620001ef9190620005e3565b80516001600160a01b0381168114620004e557600080fd5b919050565b600080600080600060a086880312156200050357600080fd5b6200050e86620004cd565b94506200051e60208701620004cd565b93506200052e60408701620004cd565b92506200053e60608701620004cd565b91506200054e60808701620004cd565b90509295509295909350565b6000602082840312156200056d57600080fd5b5051919050565b6000602082840312156200058757600080fd5b815180151581146200059857600080fd5b9392505050565b60005b83811015620005bc578181015183820152602001620005a2565b50506000910152565b60008251620005d98184602087016200059f565b9190910192915050565b6020815260008251806020840152620006048160408501602087016200059f565b601f01601f19169190910160400192915050565b61102480620006286000396000f3fe608060405234801561001057600080fd5b50600436106100ea5760003560e01c8063715018a61161008c578063b9b39e4611610066578063b9b39e46146101c2578063d73792a9146101d5578063d8952a49146101de578063f2fde38b146101f157600080fd5b8063715018a61461019657806372c165791461019e5780638da5cb5b146101b157600080fd5b80633d18651e116100c85780633d18651e14610153578063551512de1461015b5780636b31ee01146101705780636c600ad11461018357600080fd5b8063286134fa146100ef578063341442461461011f57806338712e8014610140575b600080fd5b600554610102906001600160a01b031681565b6040516001600160a01b0390911681526020015b60405180910390f35b61013261012d366004610cc2565b610204565b604051908152602001610116565b600254610102906001600160a01b031681565b610132604581565b61016e610169366004610d09565b610509565b005b600454610102906001600160a01b031681565b600354610102906001600160a01b031681565b61016e61052a565b6101326101ac366004610d4b565b61053e565b6000546001600160a01b0316610102565b600654610102906001600160a01b031681565b61013261271081565b61016e6101ec366004610d77565b610631565b61016e6101ff366004610db0565b610798565b600061020e610811565b600254604051637fc9661960e01b815260048101849052600091829182916001600160a01b031690637fc9661990602401600060405180830381865afa15801561025c573d6000803e3d6000fd5b505050506040513d6000823e601f3d908101601f191682016040526102849190810190610e1c565b509295509350909150506001600160a01b0383166102e25760405162461bcd60e51b815260206004820152601660248201527514185c9d1b995c88191bd95cc81b9bdd08195e1a5cdd60521b60448201526064015b60405180910390fd5b806103275760405162461bcd60e51b8152602060048201526015602482015274506172746e6572206973206e6f742061637469766560581b60448201526064016102d9565b60065461033f906001600160a01b031633308b61086a565b600061271061034f60458b610f19565b6103599190610f36565b9050600061271061036a8584610f19565b6103749190610f36565b90506000610382828c610f58565b90508115610411576006546103a1906001600160a01b031687846108db565b60025460065460405163ad7cb6b960e01b8152600481018b90526001600160a01b0391821660248201526044810185905291169063ad7cb6b990606401600060405180830381600087803b1580156103f857600080fd5b505af115801561040c573d6000803e3d6000fd5b505050505b801561049d5760035460405163584200a160e11b815233600482015260248101839052604481018c9052606481018b90526001600160a01b039091169063b0840142906084016020604051808303816000875af1158015610476573d6000803e3d6000fd5b505050506040513d601f19601f8201168201806040525081019061049a9190610f6b565b96505b60408051898152602081018d90529081018390526060810188905233906001600160a01b038816907f842437c4aafed6b695ea494f316c3ec8d26ec38488b0293c3086a484915ed44e9060800160405180910390a350505050505061050160018055565b949350505050565b61051161090b565b6105256001600160a01b03841682846108db565b505050565b61053261090b565b61053c6000610965565b565b6000610548610811565b600654610560906001600160a01b031633308761086a565b60035460405163584200a160e11b81523360048201526024810186905260448101859052606481018490526001600160a01b039091169063b0840142906084016020604051808303816000875af11580156105bf573d6000803e3d6000fd5b505050506040513d601f19601f820116820180604052508101906105e39190610f6b565b604080518681526020810183905291925033917fe746ccae55a76a7f3b9322110adc1a622bd071a7795e604fff29e9a4a8c6eece910160405180910390a261062a60018055565b9392505050565b61063961090b565b6001600160a01b03821661068f5760405162461bcd60e51b815260206004820152601d60248201527f536861646f7720737761707065722063616e6e6f74206265207a65726f00000060448201526064016102d9565b6001600160a01b0381166106de5760405162461bcd60e51b81526020600482015260166024820152754a61636b706f742063616e6e6f74206265207a65726f60501b60448201526064016102d9565b6003546001600160a01b0383811691161461072a57600354600654610711916001600160a01b03918216911660006109b5565b60065461072a906001600160a01b0316836000196109b5565b600380546001600160a01b038481166001600160a01b03199283168117909355600480549185169190921681179091556040805192835260208301919091527f14662a0fccd762a05d5e1fa6afdd204554c4cf90fe58b5c5947f664fb71925f5910160405180910390a15050565b6107a061090b565b6001600160a01b0381166108055760405162461bcd60e51b815260206004820152602660248201527f4f776e61626c653a206e6577206f776e657220697320746865207a65726f206160448201526564647265737360d01b60648201526084016102d9565b61080e81610965565b50565b6002600154036108635760405162461bcd60e51b815260206004820152601f60248201527f5265656e7472616e637947756172643a207265656e7472616e742063616c6c0060448201526064016102d9565b6002600155565b6040516001600160a01b03808516602483015283166044820152606481018290526108d59085906323b872dd60e01b906084015b60408051601f198184030181529190526020810180516001600160e01b03166001600160e01b031990931692909217909152610aca565b50505050565b6040516001600160a01b03831660248201526044810182905261052590849063a9059cbb60e01b9060640161089e565b6000546001600160a01b0316331461053c5760405162461bcd60e51b815260206004820181905260248201527f4f776e61626c653a2063616c6c6572206973206e6f7420746865206f776e657260448201526064016102d9565b600080546001600160a01b038381166001600160a01b0319831681178455604051919092169283917f8be0079c531659141344cd1fd0a4f28419497f9722a3daafe3b4186f6b6457e09190a35050565b801580610a2f5750604051636eb1769f60e11b81523060048201526001600160a01b03838116602483015284169063dd62ed3e90604401602060405180830381865afa158015610a09573d6000803e3d6000fd5b505050506040513d601f19601f82011682018060405250810190610a2d9190610f6b565b155b610a9a5760405162461bcd60e51b815260206004820152603660248201527f5361666545524332303a20617070726f76652066726f6d206e6f6e2d7a65726f60448201527520746f206e6f6e2d7a65726f20616c6c6f77616e636560501b60648201526084016102d9565b6040516001600160a01b03831660248201526044810182905261052590849063095ea7b360e01b9060640161089e565b6000610b1f826040518060400160405280602081526020017f5361666545524332303a206c6f772d6c6576656c2063616c6c206661696c6564815250856001600160a01b0316610b9f9092919063ffffffff16565b9050805160001480610b40575080806020019051810190610b409190610f84565b6105255760405162461bcd60e51b815260206004820152602a60248201527f5361666545524332303a204552433230206f7065726174696f6e20646964206e6044820152691bdd081cdd58d8d9595960b21b60648201526084016102d9565b6060610501848460008585600080866001600160a01b03168587604051610bc69190610f9f565b60006040518083038185875af1925050503d8060008114610c03576040519150601f19603f3d011682016040523d82523d6000602084013e610c08565b606091505b5091509150610c1987838387610c24565b979650505050505050565b60608315610c93578251600003610c8c576001600160a01b0385163b610c8c5760405162461bcd60e51b815260206004820152601d60248201527f416464726573733a2063616c6c20746f206e6f6e2d636f6e747261637400000060448201526064016102d9565b5081610501565b6105018383815115610ca85781518083602001fd5b8060405162461bcd60e51b81526004016102d99190610fbb565b60008060008060808587031215610cd857600080fd5b5050823594602084013594506040840135936060013592509050565b6001600160a01b038116811461080e57600080fd5b600080600060608486031215610d1e57600080fd5b8335610d2981610cf4565b9250602084013591506040840135610d4081610cf4565b809150509250925092565b600080600060608486031215610d6057600080fd5b505081359360208301359350604090920135919050565b60008060408385031215610d8a57600080fd5b8235610d9581610cf4565b91506020830135610da581610cf4565b809150509250929050565b600060208284031215610dc257600080fd5b813561062a81610cf4565b634e487b7160e01b600052604160045260246000fd5b60005b83811015610dfe578181015183820152602001610de6565b50506000910152565b80518015158114610e1757600080fd5b919050565b600080600080600060a08688031215610e3457600080fd5b8551610e3f81610cf4565b602087015190955067ffffffffffffffff80821115610e5d57600080fd5b818801915088601f830112610e7157600080fd5b815181811115610e8357610e83610dcd565b604051601f8201601f19908116603f01168101908382118183101715610eab57610eab610dcd565b816040528281528b6020848701011115610ec457600080fd5b610ed5836020830160208801610de3565b809850505050505060408601519250610ef060608701610e07565b9150608086015190509295509295909350565b634e487b7160e01b600052601160045260246000fd5b8082028115828204841417610f3057610f30610f03565b92915050565b600082610f5357634e487b7160e01b600052601260045260246000fd5b500490565b81810381811115610f3057610f30610f03565b600060208284031215610f7d57600080fd5b5051919050565b600060208284031215610f9657600080fd5b61062a82610e07565b60008251610fb1818460208701610de3565b9190910192915050565b6020815260008251806020840152610fda816040850160208701610de3565b601f01601f1916919091016040019291505056fea26469706673582212203b3ed90153007ab4a5f2043c710e822aa823766dcdda3be1cc1a30bbb73e944d64736f6c63430008140033",
  "linkReferences": {},
  "deployedLinkReferences": {}
}