{
  "_format": "hh-sol-artifact-1",
  "contractName": "SimpleShadowAdapter",
  "sourceName": "contracts_temp/SimpleShadowAdapter.sol",
  "abi": [
    {
      "inputs": [
        {
          "internalType": "address",
          "name": "_dragonToken",
          "type": "address"
        },
        {
          "internalType": "address",
          "name": "_beetsLpToken",
          "type": "address"
        },
        {
          "internalType": "address",
          "name": "_wsToken",
          "type": "address"
        },
        {
          "internalType": "address",
          "name": "_jackpot",
          "type": "address"
        },
        {
          "internalType": "address",
          "name": "_ve69LP",
          "type": "address"
        }
      ],
      "stateMutability": "nonpayable",
      "type": "constructor"
    },
    {
      "anonymous": false,
      "inputs": [
        {
          "indexed": false,
          "internalType": "uint256",
          "name": "jackpotAmount",
          "type": "uint256"
        },
        {
          "indexed": false,
          "internalType": "uint256",
          "name": "ve69LPAmount",
          "type": "uint256"
        }
      ],
      "name": "FeeDistributed",
      "type": "event"
    },
    {
      "anonymous": false,
      "inputs": [
        {
          "indexed": true,
          "internalType": "address",
          "name": "previousOwner",
          "type": "address"
        },
        {
          "indexed": true,
          "internalType": "address",
          "name": "newOwner",
          "type": "address"
        }
      ],
      "name": "OwnershipTransferred",
      "type": "event"
    },
    {
      "anonymous": false,
      "inputs": [
        {
          "indexed": true,
          "internalType": "address",
          "name": "user",
          "type": "address"
        },
        {
          "indexed": false,
          "internalType": "uint256",
          "name": "dragonAmount",
          "type": "uint256"
        },
        {
          "indexed": false,
          "internalType": "uint256",
          "name": "beetsLpReceived",
          "type": "uint256"
        },
        {
          "indexed": false,
          "internalType": "uint256",
          "name": "wsEquivalent",
          "type": "uint256"
        },
        {
          "indexed": false,
          "internalType": "uint256",
          "name": "feeAmount",
          "type": "uint256"
        }
      ],
      "name": "SwapExecuted",
      "type": "event"
    },
    {
      "inputs": [],
      "name": "FEE_DENOMINATOR",
      "outputs": [
        {
          "internalType": "uint256",
          "name": "",
          "type": "uint256"
        }
      ],
      "stateMutability": "view",
      "type": "function"
    },
    {
      "inputs": [],
      "name": "JACKPOT_SHARE",
      "outputs": [
        {
          "internalType": "uint256",
          "name": "",
          "type": "uint256"
        }
      ],
      "stateMutability": "view",
      "type": "function"
    },
    {
      "inputs": [],
      "name": "SHADOW_FEE",
      "outputs": [
        {
          "internalType": "uint256",
          "name": "",
          "type": "uint256"
        }
      ],
      "stateMutability": "view",
      "type": "function"
    },
    {
      "inputs": [],
      "name": "VE69LP_SHARE",
      "outputs": [
        {
          "internalType": "uint256",
          "name": "",
          "type": "uint256"
        }
      ],
      "stateMutability": "view",
      "type": "function"
    },
    {
      "inputs": [],
      "name": "beetsLpToken",
      "outputs": [
        {
          "internalType": "address",
          "name": "",
          "type": "address"
        }
      ],
      "stateMutability": "view",
      "type": "function"
    },
    {
      "inputs": [],
      "name": "dragonToken",
      "outputs": [
        {
          "internalType": "address",
          "name": "",
          "type": "address"
        }
      ],
      "stateMutability": "view",
      "type": "function"
    },
    {
      "inputs": [
        {
          "internalType": "address",
          "name": "token",
          "type": "address"
        },
        {
          "internalType": "uint256",
          "name": "amount",
          "type": "uint256"
        },
        {
          "internalType": "address",
          "name": "to",
          "type": "address"
        }
      ],
      "name": "emergencyWithdraw",
      "outputs": [],
      "stateMutability": "nonpayable",
      "type": "function"
    },
    {
      "inputs": [
        {
          "internalType": "address",
          "name": "tokenIn",
          "type": "address"
        },
        {
          "internalType": "uint256",
          "name": "amountIn",
          "type": "uint256"
        }
      ],
      "name": "estimateWrappedSonicEquivalent",
      "outputs": [
        {
          "internalType": "uint256",
          "name": "",
          "type": "uint256"
        }
      ],
      "stateMutability": "view",
      "type": "function"
    },
    {
      "inputs": [],
      "name": "getJackpotFeePercentage",
      "outputs": [
        {
          "internalType": "uint256",
          "name": "",
          "type": "uint256"
        }
      ],
      "stateMutability": "pure",
      "type": "function"
    },
    {
      "inputs": [],
      "name": "getPartnerName",
      "outputs": [
        {
          "internalType": "string",
          "name": "",
          "type": "string"
        }
      ],
      "stateMutability": "pure",
      "type": "function"
    },
    {
      "inputs": [],
      "name": "getPartnerTokens",
      "outputs": [
        {
          "internalType": "address[]",
          "name": "",
          "type": "address[]"
        }
      ],
      "stateMutability": "view",
      "type": "function"
    },
    {
      "inputs": [],
      "name": "getve69LPFeePercentage",
      "outputs": [
        {
          "internalType": "uint256",
          "name": "",
          "type": "uint256"
        }
      ],
      "stateMutability": "pure",
      "type": "function"
    },
    {
      "inputs": [],
      "name": "jackpot",
      "outputs": [
        {
          "internalType": "address",
          "name": "",
          "type": "address"
        }
      ],
      "stateMutability": "view",
      "type": "function"
    },
    {
      "inputs": [],
      "name": "owner",
      "outputs": [
        {
          "internalType": "address",
          "name": "",
          "type": "address"
        }
      ],
      "stateMutability": "view",
      "type": "function"
    },
    {
      "inputs": [],
      "name": "renounceOwnership",
      "outputs": [],
      "stateMutability": "nonpayable",
      "type": "function"
    },
    {
      "inputs": [
        {
          "internalType": "address",
          "name": "tokenIn",
          "type": "address"
        },
        {
          "internalType": "uint256",
          "name": "amountIn",
          "type": "uint256"
        },
        {
          "internalType": "uint256",
          "name": "minAmountOut",
          "type": "uint256"
        },
        {
          "internalType": "uint256",
          "name": "deadline",
          "type": "uint256"
        },
        {
          "internalType": "address",
          "name": "recipient",
          "type": "address"
        }
      ],
      "name": "swapForJackpotEntry",
      "outputs": [
        {
          "internalType": "uint256",
          "name": "amountOut",
          "type": "uint256"
        },
        {
          "internalType": "uint256",
          "name": "wsEquivalent",
          "type": "uint256"
        }
      ],
      "stateMutability": "nonpayable",
      "type": "function"
    },
    {
      "inputs": [
        {
          "internalType": "address",
          "name": "newOwner",
          "type": "address"
        }
      ],
      "name": "transferOwnership",
      "outputs": [],
      "stateMutability": "nonpayable",
      "type": "function"
    },
    {
      "inputs": [
        {
          "internalType": "address",
          "name": "_jackpot",
          "type": "address"
        },
        {
          "internalType": "address",
          "name": "_ve69LP",
          "type": "address"
        }
      ],
      "name": "updateFeeRecipients",
      "outputs": [],
      "stateMutability": "nonpayable",
      "type": "function"
    },
    {
      "inputs": [],
      "name": "ve69LP",
      "outputs": [
        {
          "internalType": "address",
          "name": "",
          "type": "address"
        }
      ],
      "stateMutability": "view",
      "type": "function"
    },
    {
      "inputs": [],
      "name": "wsToken",
      "outputs": [
        {
          "internalType": "address",
          "name": "",
          "type": "address"
        }
      ],
      "stateMutability": "view",
      "type": "function"
    }
  ],
  "bytecode": "0x60e06040523480156200001157600080fd5b5060405162001051380380620010518339810160408190526200003491620000f3565b6200003f3362000086565b600180556001600160a01b0394851660805292841660a05290831660c052600280549184166001600160a01b03199283161790556003805492909316911617905562000163565b600080546001600160a01b038381166001600160a01b0319831681178455604051919092169283917f8be0079c531659141344cd1fd0a4f28419497f9722a3daafe3b4186f6b6457e09190a35050565b80516001600160a01b0381168114620000ee57600080fd5b919050565b600080600080600060a086880312156200010c57600080fd5b6200011786620000d6565b94506200012760208701620000d6565b93506200013760408701620000d6565b92506200014760608701620000d6565b91506200015760808701620000d6565b90509295509295909350565b60805160a05160c051610ea9620001a860003960006102a8015260006101a2015260008181610163015281816102fd0152818161057d01526105df0152610ea96000f3fe608060405234801561001057600080fd5b506004361061012c5760003560e01c8063a19d466a116100ad578063d93879b511610071578063d93879b514610288578063db7863b414610290578063ef4907aa146102a3578063f1f73620146102ca578063f2fde38b146102dd57600080fd5b8063a19d466a14610236578063a4c24ec61461024b578063c64d61f514610202578063d73792a914610253578063d8c370321461025c57600080fd5b8063551512de116100f4578063551512de146101ed57806358d276d5146102025780636b31ee011461020a578063715018a61461021d5780638da5cb5b1461022557600080fd5b80630d22ce3f146101315780630e42323b1461015e578063286134fa1461019d5780632aca8e2b146101c457806343f9430d146101d7575b600080fd5b61014461013f366004610c0e565b6102f0565b604080519283526020830191909152015b60405180910390f35b6101857f000000000000000000000000000000000000000000000000000000000000000081565b6040516001600160a01b039091168152602001610155565b6101857f000000000000000000000000000000000000000000000000000000000000000081565b600354610185906001600160a01b031681565b6101df610501565b604051908152602001610155565b6102006101fb366004610c5e565b610520565b005b6101df604581565b600254610185906001600160a01b031681565b610200610541565b6000546001600160a01b0316610185565b61023e610555565b6040516101559190610c9a565b6101df6105cc565b6101df6103e881565b604080518082018252600a8152690a6d0c2c8deee40888ab60b31b602082015290516101559190610d0b565b6101df601f81565b6101df61029e366004610d3e565b6105db565b6101857f000000000000000000000000000000000000000000000000000000000000000081565b6102006102d8366004610d68565b61068e565b6102006102eb366004610d9b565b610770565b6000806102fb6107e9565b7f00000000000000000000000000000000000000000000000000000000000000006001600160a01b0316876001600160a01b0316146103815760405162461bcd60e51b815260206004820152601b60248201527f4f6e6c7920447261676f6e20746f6b656e20737570706f72746564000000000060448201526064015b60405180910390fd5b6103966001600160a01b038816333089610842565b60006103e86103a6604589610dd3565b6103b09190610dea565b905060006103be8289610e0c565b9050600060646103cf604585610dd3565b6103d99190610dea565b905060006103e78285610e0c565b600254909150610404906001600160a01b038d81169116846108b3565b60035461041e906001600160a01b038d81169116836108b3565b60408051838152602081018390527f61930a6c1553eab59d5766da6e1bab8eba982aec848ae7683452f4a6423b6e4a910160405180910390a161046b6001600160a01b038c1688856108b3565b829550600a8a61047b9190610dea565b9450606461048a866045610dd3565b6104949190610dea565b604080518c815260208101899052908101829052606081018690529095506001600160a01b038816907f6e897e83b2ea962118c2abaeb4ffb85a1a63da2c8f1880660079b88983900d849060800160405180910390a2505050506104f760018055565b9550959350505050565b60006064610511601f6045610dd3565b61051b9190610dea565b905090565b6105286108e3565b61053c6001600160a01b03841682846108b3565b505050565b6105496108e3565b610553600061093d565b565b60408051600180825281830190925260609160009190602080830190803683370190505090507f0000000000000000000000000000000000000000000000000000000000000000816000815181106105af576105af610e1f565b6001600160a01b0390921660209283029190910190910152919050565b60006064610511604580610dd3565b60007f00000000000000000000000000000000000000000000000000000000000000006001600160a01b0316836001600160a01b03161461065e5760405162461bcd60e51b815260206004820152601b60248201527f4f6e6c7920447261676f6e20746f6b656e20737570706f7274656400000000006044820152606401610378565b600061066b600a84610dea565b9050606461067a826045610dd3565b6106849190610dea565b9150505b92915050565b6106966108e3565b6001600160a01b0382166106ec5760405162461bcd60e51b815260206004820152601e60248201527f4a61636b706f742063616e6e6f74206265207a65726f206164647265737300006044820152606401610378565b6001600160a01b0381166107425760405162461bcd60e51b815260206004820152601d60248201527f766536394c502063616e6e6f74206265207a65726f20616464726573730000006044820152606401610378565b600280546001600160a01b039384166001600160a01b03199182161790915560038054929093169116179055565b6107786108e3565b6001600160a01b0381166107dd5760405162461bcd60e51b815260206004820152602660248201527f4f776e61626c653a206e6577206f776e657220697320746865207a65726f206160448201526564647265737360d01b6064820152608401610378565b6107e68161093d565b50565b60026001540361083b5760405162461bcd60e51b815260206004820152601f60248201527f5265656e7472616e637947756172643a207265656e7472616e742063616c6c006044820152606401610378565b6002600155565b6040516001600160a01b03808516602483015283166044820152606481018290526108ad9085906323b872dd60e01b906084015b60408051601f198184030181529190526020810180516001600160e01b03166001600160e01b03199093169290921790915261098d565b50505050565b6040516001600160a01b03831660248201526044810182905261053c90849063a9059cbb60e01b90606401610876565b6000546001600160a01b031633146105535760405162461bcd60e51b815260206004820181905260248201527f4f776e61626c653a2063616c6c6572206973206e6f7420746865206f776e65726044820152606401610378565b600080546001600160a01b038381166001600160a01b0319831681178455604051919092169283917f8be0079c531659141344cd1fd0a4f28419497f9722a3daafe3b4186f6b6457e09190a35050565b60006109e2826040518060400160405280602081526020017f5361666545524332303a206c6f772d6c6576656c2063616c6c206661696c6564815250856001600160a01b0316610a629092919063ffffffff16565b9050805160001480610a03575080806020019051810190610a039190610e35565b61053c5760405162461bcd60e51b815260206004820152602a60248201527f5361666545524332303a204552433230206f7065726174696f6e20646964206e6044820152691bdd081cdd58d8d9595960b21b6064820152608401610378565b6060610a718484600085610a79565b949350505050565b606082471015610ada5760405162461bcd60e51b815260206004820152602660248201527f416464726573733a20696e73756666696369656e742062616c616e636520666f6044820152651c8818d85b1b60d21b6064820152608401610378565b600080866001600160a01b03168587604051610af69190610e57565b60006040518083038185875af1925050503d8060008114610b33576040519150601f19603f3d011682016040523d82523d6000602084013e610b38565b606091505b5091509150610b4987838387610b54565b979650505050505050565b60608315610bc3578251600003610bbc576001600160a01b0385163b610bbc5760405162461bcd60e51b815260206004820152601d60248201527f416464726573733a2063616c6c20746f206e6f6e2d636f6e74726163740000006044820152606401610378565b5081610a71565b610a718383815115610bd85781518083602001fd5b8060405162461bcd60e51b81526004016103789190610d0b565b80356001600160a01b0381168114610c0957600080fd5b919050565b600080600080600060a08688031215610c2657600080fd5b610c2f86610bf2565b9450602086013593506040860135925060608601359150610c5260808701610bf2565b90509295509295909350565b600080600060608486031215610c7357600080fd5b610c7c84610bf2565b925060208401359150610c9160408501610bf2565b90509250925092565b6020808252825182820181905260009190848201906040850190845b81811015610cdb5783516001600160a01b031683529284019291840191600101610cb6565b50909695505050505050565b60005b83811015610d02578181015183820152602001610cea565b50506000910152565b6020815260008251806020840152610d2a816040850160208701610ce7565b601f01601f19169190910160400192915050565b60008060408385031215610d5157600080fd5b610d5a83610bf2565b946020939093013593505050565b60008060408385031215610d7b57600080fd5b610d8483610bf2565b9150610d9260208401610bf2565b90509250929050565b600060208284031215610dad57600080fd5b610db682610bf2565b9392505050565b634e487b7160e01b600052601160045260246000fd5b808202811582820484141761068857610688610dbd565b600082610e0757634e487b7160e01b600052601260045260246000fd5b500490565b8181038181111561068857610688610dbd565b634e487b7160e01b600052603260045260246000fd5b600060208284031215610e4757600080fd5b81518015158114610db657600080fd5b60008251610e69818460208701610ce7565b919091019291505056fea2646970667358221220933eff43772df38f985dcbd3959eeb4f6a6ed94256a64cd0279eedbde1333dee64736f6c63430008140033",
  "linkReferences": {},
  "deployedLinkReferences": {}
}