{
  "_format": "hh-sol-artifact-1",
  "contractName": "DragonProbabilityHelper",
  "sourceName": "contracts/mocks/DragonProbabilityHelper.sol",
  "abi": [
    {
      "inputs": [
        {
          "internalType": "uint256",
          "name": "_maxVotingPower",
          "type": "uint256"
        }
      ],
      "stateMutability": "nonpayable",
      "type": "constructor"
    },
    {
      "inputs": [],
      "name": "BPS_SCALE",
      "outputs": [
        {
          "internalType": "uint256",
          "name": "",
          "type": "uint256"
        }
      ],
      "stateMutability": "view",
      "type": "function"
    },
    {
      "inputs": [],
      "name": "MAX_BOOST_BPS",
      "outputs": [
        {
          "internalType": "uint256",
          "name": "",
          "type": "uint256"
        }
      ],
      "stateMutability": "view",
      "type": "function"
    },
    {
      "inputs": [],
      "name": "MAX_PROBABILITY",
      "outputs": [
        {
          "internalType": "uint256",
          "name": "",
          "type": "uint256"
        }
      ],
      "stateMutability": "view",
      "type": "function"
    },
    {
      "inputs": [],
      "name": "MAX_USD_AMOUNT",
      "outputs": [
        {
          "internalType": "uint256",
          "name": "",
          "type": "uint256"
        }
      ],
      "stateMutability": "view",
      "type": "function"
    },
    {
      "inputs": [],
      "name": "MIN_PROBABILITY",
      "outputs": [
        {
          "internalType": "uint256",
          "name": "",
          "type": "uint256"
        }
      ],
      "stateMutability": "view",
      "type": "function"
    },
    {
      "inputs": [],
      "name": "MIN_USD_AMOUNT",
      "outputs": [
        {
          "internalType": "uint256",
          "name": "",
          "type": "uint256"
        }
      ],
      "stateMutability": "view",
      "type": "function"
    },
    {
      "inputs": [],
      "name": "PROBABILITY_SCALE",
      "outputs": [
        {
          "internalType": "uint256",
          "name": "",
          "type": "uint256"
        }
      ],
      "stateMutability": "view",
      "type": "function"
    },
    {
      "inputs": [
        {
          "internalType": "uint256",
          "name": "_usdAmount",
          "type": "uint256"
        }
      ],
      "name": "calculateBaseProbability",
      "outputs": [
        {
          "internalType": "uint256",
          "name": "",
          "type": "uint256"
        }
      ],
      "stateMutability": "pure",
      "type": "function"
    },
    {
      "inputs": [
        {
          "internalType": "uint256",
          "name": "_votingPower",
          "type": "uint256"
        }
      ],
      "name": "calculateBoost",
      "outputs": [
        {
          "internalType": "uint256",
          "name": "",
          "type": "uint256"
        }
      ],
      "stateMutability": "view",
      "type": "function"
    },
    {
      "inputs": [
        {
          "internalType": "uint256",
          "name": "_usdAmount",
          "type": "uint256"
        },
        {
          "internalType": "uint256",
          "name": "_votingPower",
          "type": "uint256"
        }
      ],
      "name": "calculateWinProbability",
      "outputs": [
        {
          "internalType": "uint256",
          "name": "",
          "type": "uint256"
        }
      ],
      "stateMutability": "view",
      "type": "function"
    },
    {
      "inputs": [
        {
          "internalType": "uint256",
          "name": "_x",
          "type": "uint256"
        }
      ],
      "name": "computeCubeRoot",
      "outputs": [
        {
          "internalType": "uint256",
          "name": "",
          "type": "uint256"
        }
      ],
      "stateMutability": "pure",
      "type": "function"
    },
    {
      "inputs": [
        {
          "internalType": "uint256",
          "name": "_randomness",
          "type": "uint256"
        },
        {
          "internalType": "uint256",
          "name": "_usdAmount",
          "type": "uint256"
        },
        {
          "internalType": "uint256",
          "name": "_votingPower",
          "type": "uint256"
        }
      ],
      "name": "isWinner",
      "outputs": [
        {
          "internalType": "bool",
          "name": "",
          "type": "bool"
        }
      ],
      "stateMutability": "view",
      "type": "function"
    },
    {
      "inputs": [],
      "name": "maxVotingPower",
      "outputs": [
        {
          "internalType": "uint256",
          "name": "",
          "type": "uint256"
        }
      ],
      "stateMutability": "view",
      "type": "function"
    },
    {
      "inputs": [
        {
          "internalType": "uint256",
          "name": "_maxVotingPower",
          "type": "uint256"
        }
      ],
      "name": "setMaxVotingPower",
      "outputs": [],
      "stateMutability": "nonpayable",
      "type": "function"
    }
  ],
  "bytecode": "0x608060405234801561001057600080fd5b5060405161087338038061087383398101604081905261002f91610095565b6000811161008d5760405162461bcd60e51b815260206004820152602160248201527f4d617820766f74696e6720706f776572206d75737420626520706f73697469766044820152606560f81b606482015260840160405180910390fd5b6000556100ae565b6000602082840312156100a757600080fd5b5051919050565b6107b6806100bd6000396000f3fe608060405234801561001057600080fd5b50600436106100ea5760003560e01c806390960d571161008c578063b94c940611610066578063b94c9406146101a2578063cc40a8ca146101b5578063f6af258c146101be578063f8b9f4f0146101d357600080fd5b806390960d571461017c578063972a04ed146101865780639ef0fb851461019957600080fd5b8063439185a3116100c8578063439185a3146101365780634b276742146101475780635ed45c101461015a578063854a1f041461016d57600080fd5b806316342d37146100ef57806333521bba1461010a5780633d9a581a1461012d575b600080fd5b6100f7600481565b6040519081526020015b60405180910390f35b61011d610118366004610656565b6101dc565b6040519015158152602001610101565b6100f76161a881565b6100f769021e19e0c9bab240000081565b6100f7610155366004610682565b610265565b6100f7610168366004610682565b610301565b6100f7670de0b6b3a764000081565b6100f7620f424081565b6100f7610194366004610682565b610501565b6100f760005481565b6100f76101b036600461069b565b6105b6565b6100f7619c4081565b6101d16101cc366004610682565b6105f3565b005b6100f761271081565b6000806101ec620f4240866106d3565b604051635ca64a0360e11b81526004810186905260248101859052909150600090309063b94c940690604401602060405180830381865afa158015610235573d6000803e3d6000fd5b505050506040513d601f19601f8201168201806040525081019061025991906106e7565b90911095945050505050565b60008115806102745750600054155b156102825750612710919050565b6000805483116102ab5760005461029c620f424085610716565b6102a6919061072d565b6102b0565b620f42405b905060006102bd82610301565b90506000620f42406102d36127106161a8610741565b6102dd9084610716565b6102e7919061072d565b905060006102f782612710610754565b9695505050505050565b60008160000361031357506000919050565b620f424082036103275750620f4240919050565b620f424082116103f15761033f6064620f424061072d565b820361034f57506207151f919050565b61035d6014620f424061072d565b820361036d5750620a9471919050565b61037b600a620f424061072d565b820361038b5750620c1ed8919050565b6103996004620f424061072d565b82036103a95750620e2a0c919050565b6103b76002620f424061072d565b82036103c75750620c19a8919050565b60046103d7620f42406003610716565b6103e1919061072d565b82036103f15750620ddae0919050565b60006003610403620f42406002610716565b61040d9085610754565b610417919061072d565b90506000805b600a8110801561042d5750818314155b156104f8578291506000620f42406104458480610716565b61044f919061072d565b90506000620f42406104618684610716565b61046b919061072d565b9050600087821115610488576104818883610741565b905061048c565b5060005b6000610499846003610716565b9050806000036104ac57505050506104f8565b60006104b8828461072d565b90508781106104d3576104cc60028961072d565b97506104e0565b6104dd8189610741565b97505b505050505080806104f090610767565b91505061041d565b50909392505050565b600081670de0b6b3a76400008110156105235750670de0b6b3a7640000610542565b69021e19e0c9bab2400000811115610542575069021e19e0c9bab24000005b6000610560670de0b6b3a764000069021e19e0c9bab2400000610741565b905060006105716004619c40610741565b90506000610587670de0b6b3a764000085610741565b90506000836105968484610716565b6105a0919061072d565b6105ab906004610754565b979650505050505050565b6000806105c284610501565b905060006105cf84610265565b90506127106105de8284610716565b6105e8919061072d565b925050505b92915050565b600081116106515760405162461bcd60e51b815260206004820152602160248201527f4d617820766f74696e6720706f776572206d75737420626520706f73697469766044820152606560f81b606482015260840160405180910390fd5b600055565b60008060006060848603121561066b57600080fd5b505081359360208301359350604090920135919050565b60006020828403121561069457600080fd5b5035919050565b600080604083850312156106ae57600080fd5b50508035926020909101359150565b634e487b7160e01b600052601260045260246000fd5b6000826106e2576106e26106bd565b500690565b6000602082840312156106f957600080fd5b5051919050565b634e487b7160e01b600052601160045260246000fd5b80820281158282048414176105ed576105ed610700565b60008261073c5761073c6106bd565b500490565b818103818111156105ed576105ed610700565b808201808211156105ed576105ed610700565b60006001820161077957610779610700565b506001019056fea264697066735822122055085304529d1d1f66c7b2f19818ea9468bc903a9585d055f33ccb4a9d73a54f64736f6c63430008140033",
  "linkReferences": {},
  "deployedLinkReferences": {}
}