{"contracts/test/UniswapV3PriceUtilsTest.sol":{"UniswapV3PriceUtilsTest":{"abi":[{"inputs":[{"internalType":"uint256","name":"amountUSD","type":"uint256"},{"internalType":"uint256","name":"dailyVolumeUSD","type":"uint256"},{"internalType":"uint24","name":"feeTier","type":"uint24"}],"name":"testCalculateAPR","outputs":[{"internalType":"uint256","name":"apr","type":"uint256"}],"stateMutability":"pure","type":"function"},{"inputs":[{"internalType":"int24","name":"lowerTick","type":"int24"},{"internalType":"int24","name":"upperTick","type":"int24"}],"name":"testCalculateLiquidityRange","outputs":[{"internalType":"uint256","name":"rangePercentage","type":"uint256"}],"stateMutability":"pure","type":"function"},{"inputs":[{"internalType":"int24","name":"currentTick","type":"int24"},{"internalType":"int24","name":"lowerTick","type":"int24"},{"internalType":"int24","name":"upperTick","type":"int24"}],"name":"testCalculateTokenRatios","outputs":[{"internalType":"uint8","name":"token0Percent","type":"uint8"},{"internalType":"uint8","name":"token1Percent","type":"uint8"}],"stateMutability":"pure","type":"function"},{"inputs":[{"internalType":"uint160","name":"sqrtPriceX96","type":"uint160"},{"internalType":"uint160","name":"sqrtPriceX96A","type":"uint160"},{"internalType":"uint160","name":"sqrtPriceX96B","type":"uint160"}],"name":"testCalculateTokenRatiosFromSqrtPrice","outputs":[{"internalType":"uint8","name":"token0Percent","type":"uint8"},{"internalType":"uint8","name":"token1Percent","type":"uint8"}],"stateMutability":"pure","type":"function"},{"inputs":[{"internalType":"uint256","name":"x","type":"uint256"}],"name":"testSqrt","outputs":[{"internalType":"uint256","name":"y","type":"uint256"}],"stateMutability":"pure","type":"function"},{"inputs":[{"internalType":"uint160","name":"sqrtPriceX96","type":"uint160"}],"name":"testSqrtPriceX96ToPrice","outputs":[{"internalType":"uint256","name":"price","type":"uint256"}],"stateMutability":"pure","type":"function"},{"inputs":[{"internalType":"int24","name":"tick","type":"int24"}],"name":"testTickToPrice","outputs":[{"internalType":"uint256","name":"price","type":"uint256"}],"stateMutability":"pure","type":"function"},{"inputs":[{"internalType":"int24","name":"tick","type":"int24"}],"name":"testTickToSqrtPriceX96","outputs":[{"internalType":"uint160","name":"sqrtPriceX96","type":"uint160"}],"stateMutability":"pure","type":"function"}],"evm":{"bytecode":{"linkReferences":{},"object":"608060405234801561001057600080fd5b50610838806100206000396000f3fe608060405234801561001057600080fd5b50600436106100885760003560e01c8063866f24d21161005b578063866f24d2146100ec57806398f82cdc14610119578063a9acdc3b1461012c578063c9cf17191461015757600080fd5b80630de4eb161461008d5780633df0a485146100b35780634866ed27146100c65780636183978f146100d9575b600080fd5b6100a061009b3660046105e9565b61016a565b6040519081526020015b60405180910390f35b6100a06100c1366004610614565b61017b565b6100a06100d4366004610647565b61018e565b6100a06100e736600461069f565b6101a3565b6100ff6100fa3660046106ba565b6101ae565b6040805160ff9384168152929091166020830152016100aa565b6100a06101273660046106fd565b6101c9565b61013f61013a3660046106fd565b6101d4565b6040516001600160a01b0390911681526020016100aa565b6100ff610165366004610718565b6101df565b6000610175826101ed565b92915050565b60006101878383610257565b9392505050565b600061019b84848461029c565b949350505050565b600061017582610311565b6000806101bc858585610353565b915091505b935093915050565b6000610175826103c6565b6000610175826103ea565b6000806101bc858585610437565b6000816000036101ff57506000919050565b6000600261020e846001610768565b610218919061077b565b90508291505b8181101561025157905080600281610236818661077b565b6102409190610768565b61024a919061077b565b905061021e565b50919050565b600080610263846103c6565b90506000610270846103c6565b90508161027d818361079d565b610289906127106107b0565b610293919061077b565b95945050505050565b6000836000036102ae57506000610187565b6000620f42406102c362ffffff8516866107b0565b6102cd919061077b565b905060006102dd8261016d6107b0565b9050856102ec826127106107b0565b6102f6919061077b565b92506127108311156103085761271092505b50509392505050565b6000806103276001600160a01b038416806107b0565b9050610337600160601b806107b0565b61034982670de0b6b3a76400006107b0565b610187919061077b565b6000808360020b8560020b1361036f57506064905060006101c1565b8260020b8560020b1261038857506000905060646101c1565b6000610393866103ea565b905060006103a0866103ea565b905060006103ad866103ea565b90506103ba838383610437565b945094505050506101c1565b6000808260020b12156103dc5761017582610504565b6101758261054a565b919050565b6000806103f6836103c6565b9050600061041461040f83670de0b6b3a76400006107b0565b6101ed565b9050670de0b6b3a764000061042d600160601b836107b0565b61019b919061077b565b600080836001600160a01b0316856001600160a01b03161161045f57506064905060006101c1565b826001600160a01b0316856001600160a01b03161061048457506000905060646101c1565b600061048f86610311565b9050600061049c86610311565b905060006104a986610311565b905060006104b7838361079d565b6104c1848661079d565b6104cc9060646107b0565b6104d6919061077b565b9050606481116104e657806104e9565b60645b94506104f68560646107c7565b955050505050935093915050565b60008060008360020b136105205761051b836107e0565b610522565b825b9050600061052f8261054a565b905061019b816ec097ce7bc90715b34b9f100000000061077b565b6000670de0b6b3a7640000600283900b82121561017557670de111a6b7de4000835b60008160020b13156105e1578060011660020b6001036105a657670de0b6b3a764000061059983856107b0565b6105a3919061077b565b92505b60018160020b901d905060008160020b13156105dc57670de0b6b3a76400006105cf83806107b0565b6105d9919061077b565b91505b61056c565b505092915050565b6000602082840312156105fb57600080fd5b5035919050565b8035600281900b81146103e557600080fd5b6000806040838503121561062757600080fd5b61063083610602565b915061063e60208401610602565b90509250929050565b60008060006060848603121561065c57600080fd5b8335925060208401359150604084013562ffffff8116811461067d57600080fd5b809150509250925092565b80356001600160a01b03811681146103e557600080fd5b6000602082840312156106b157600080fd5b61018782610688565b6000806000606084860312156106cf57600080fd5b6106d884610602565b92506106e660208501610602565b91506106f460408501610602565b90509250925092565b60006020828403121561070f57600080fd5b61018782610602565b60008060006060848603121561072d57600080fd5b61073684610688565b925061074460208501610688565b91506106f460408501610688565b634e487b7160e01b600052601160045260246000fd5b8082018082111561017557610175610752565b60008261079857634e487b7160e01b600052601260045260246000fd5b500490565b8181038181111561017557610175610752565b808202811582820484141761017557610175610752565b60ff828116828216039081111561017557610175610752565b60008160020b627fffff1981036107f9576107f9610752565b6000039291505056fea264697066735822122050f1748a258d349ef8b850916e84aea58cf3e082cb3da9295d87b6637979a8f064736f6c63430008140033","opcodes":"PUSH1 0x80 PUSH1 0x40 MSTORE CALLVALUE DUP1 ISZERO PUSH2 0x10 JUMPI PUSH1 0x0 DUP1 REVERT JUMPDEST POP PUSH2 0x838 DUP1 PUSH2 0x20 PUSH1 0x0 CODECOPY PUSH1 0x0 RETURN INVALID PUSH1 0x80 PUSH1 0x40 MSTORE CALLVALUE DUP1 ISZERO PUSH2 0x10 JUMPI PUSH1 0x0 DUP1 REVERT JUMPDEST POP PUSH1 0x4 CALLDATASIZE LT PUSH2 0x88 JUMPI PUSH1 0x0 CALLDATALOAD PUSH1 0xE0 SHR DUP1 PUSH4 0x866F24D2 GT PUSH2 0x5B JUMPI DUP1 PUSH4 0x866F24D2 EQ PUSH2 0xEC JUMPI DUP1 PUSH4 0x98F82CDC EQ PUSH2 0x119 JUMPI DUP1 PUSH4 0xA9ACDC3B EQ PUSH2 0x12C JUMPI DUP1 PUSH4 0xC9CF1719 EQ PUSH2 0x157 JUMPI PUSH1 0x0 DUP1 REVERT JUMPDEST DUP1 PUSH4 0xDE4EB16 EQ PUSH2 0x8D JUMPI DUP1 PUSH4 0x3DF0A485 EQ PUSH2 0xB3 JUMPI DUP1 PUSH4 0x4866ED27 EQ PUSH2 0xC6 JUMPI DUP1 PUSH4 0x6183978F EQ PUSH2 0xD9 JUMPI JUMPDEST PUSH1 0x0 DUP1 REVERT JUMPDEST PUSH2 0xA0 PUSH2 0x9B CALLDATASIZE PUSH1 0x4 PUSH2 0x5E9 JUMP JUMPDEST PUSH2 0x16A JUMP JUMPDEST PUSH1 0x40 MLOAD SWAP1 DUP2 MSTORE PUSH1 0x20 ADD JUMPDEST PUSH1 0x40 MLOAD DUP1 SWAP2 SUB SWAP1 RETURN JUMPDEST PUSH2 0xA0 PUSH2 0xC1 CALLDATASIZE PUSH1 0x4 PUSH2 0x614 JUMP JUMPDEST PUSH2 0x17B JUMP JUMPDEST PUSH2 0xA0 PUSH2 0xD4 CALLDATASIZE PUSH1 0x4 PUSH2 0x647 JUMP JUMPDEST PUSH2 0x18E JUMP JUMPDEST PUSH2 0xA0 PUSH2 0xE7 CALLDATASIZE PUSH1 0x4 PUSH2 0x69F JUMP JUMPDEST PUSH2 0x1A3 JUMP JUMPDEST PUSH2 0xFF PUSH2 0xFA CALLDATASIZE PUSH1 0x4 PUSH2 0x6BA JUMP JUMPDEST PUSH2 0x1AE JUMP JUMPDEST PUSH1 0x40 DUP1 MLOAD PUSH1 0xFF SWAP4 DUP5 AND DUP2 MSTORE SWAP3 SWAP1 SWAP2 AND PUSH1 0x20 DUP4 ADD MSTORE ADD PUSH2 0xAA JUMP JUMPDEST PUSH2 0xA0 PUSH2 0x127 CALLDATASIZE PUSH1 0x4 PUSH2 0x6FD JUMP JUMPDEST PUSH2 0x1C9 JUMP JUMPDEST PUSH2 0x13F PUSH2 0x13A CALLDATASIZE PUSH1 0x4 PUSH2 0x6FD JUMP JUMPDEST PUSH2 0x1D4 JUMP JUMPDEST PUSH1 0x40 MLOAD PUSH1 0x1 PUSH1 0x1 PUSH1 0xA0 SHL SUB SWAP1 SWAP2 AND DUP2 MSTORE PUSH1 0x20 ADD PUSH2 0xAA JUMP JUMPDEST PUSH2 0xFF PUSH2 0x165 CALLDATASIZE PUSH1 0x4 PUSH2 0x718 JUMP JUMPDEST PUSH2 0x1DF JUMP JUMPDEST PUSH1 0x0 PUSH2 0x175 DUP3 PUSH2 0x1ED JUMP JUMPDEST SWAP3 SWAP2 POP POP JUMP JUMPDEST PUSH1 0x0 PUSH2 0x187 DUP4 DUP4 PUSH2 0x257 JUMP JUMPDEST SWAP4 SWAP3 POP POP POP JUMP JUMPDEST PUSH1 0x0 PUSH2 0x19B DUP5 DUP5 DUP5 PUSH2 0x29C JUMP JUMPDEST SWAP5 SWAP4 POP POP POP POP JUMP JUMPDEST PUSH1 0x0 PUSH2 0x175 DUP3 PUSH2 0x311 JUMP JUMPDEST PUSH1 0x0 DUP1 PUSH2 0x1BC DUP6 DUP6 DUP6 PUSH2 0x353 JUMP JUMPDEST SWAP2 POP SWAP2 POP JUMPDEST SWAP4 POP SWAP4 SWAP2 POP POP JUMP JUMPDEST PUSH1 0x0 PUSH2 0x175 DUP3 PUSH2 0x3C6 JUMP JUMPDEST PUSH1 0x0 PUSH2 0x175 DUP3 PUSH2 0x3EA JUMP JUMPDEST PUSH1 0x0 DUP1 PUSH2 0x1BC DUP6 DUP6 DUP6 PUSH2 0x437 JUMP JUMPDEST PUSH1 0x0 DUP2 PUSH1 0x0 SUB PUSH2 0x1FF JUMPI POP PUSH1 0x0 SWAP2 SWAP1 POP JUMP JUMPDEST PUSH1 0x0 PUSH1 0x2 PUSH2 0x20E DUP5 PUSH1 0x1 PUSH2 0x768 JUMP JUMPDEST PUSH2 0x218 SWAP2 SWAP1 PUSH2 0x77B JUMP JUMPDEST SWAP1 POP DUP3 SWAP2 POP JUMPDEST DUP2 DUP2 LT ISZERO PUSH2 0x251 JUMPI SWAP1 POP DUP1 PUSH1 0x2 DUP2 PUSH2 0x236 DUP2 DUP7 PUSH2 0x77B JUMP JUMPDEST PUSH2 0x240 SWAP2 SWAP1 PUSH2 0x768 JUMP JUMPDEST PUSH2 0x24A SWAP2 SWAP1 PUSH2 0x77B JUMP JUMPDEST SWAP1 POP PUSH2 0x21E JUMP JUMPDEST POP SWAP2 SWAP1 POP JUMP JUMPDEST PUSH1 0x0 DUP1 PUSH2 0x263 DUP5 PUSH2 0x3C6 JUMP JUMPDEST SWAP1 POP PUSH1 0x0 PUSH2 0x270 DUP5 PUSH2 0x3C6 JUMP JUMPDEST SWAP1 POP DUP2 PUSH2 0x27D DUP2 DUP4 PUSH2 0x79D JUMP JUMPDEST PUSH2 0x289 SWAP1 PUSH2 0x2710 PUSH2 0x7B0 JUMP JUMPDEST PUSH2 0x293 SWAP2 SWAP1 PUSH2 0x77B JUMP JUMPDEST SWAP6 SWAP5 POP POP POP POP POP JUMP JUMPDEST PUSH1 0x0 DUP4 PUSH1 0x0 SUB PUSH2 0x2AE JUMPI POP PUSH1 0x0 PUSH2 0x187 JUMP JUMPDEST PUSH1 0x0 PUSH3 0xF4240 PUSH2 0x2C3 PUSH3 0xFFFFFF DUP6 AND DUP7 PUSH2 0x7B0 JUMP JUMPDEST PUSH2 0x2CD SWAP2 SWAP1 PUSH2 0x77B JUMP JUMPDEST SWAP1 POP PUSH1 0x0 PUSH2 0x2DD DUP3 PUSH2 0x16D PUSH2 0x7B0 JUMP JUMPDEST SWAP1 POP DUP6 PUSH2 0x2EC DUP3 PUSH2 0x2710 PUSH2 0x7B0 JUMP JUMPDEST PUSH2 0x2F6 SWAP2 SWAP1 PUSH2 0x77B JUMP JUMPDEST SWAP3 POP PUSH2 0x2710 DUP4 GT ISZERO PUSH2 0x308 JUMPI PUSH2 0x2710 SWAP3 POP JUMPDEST POP POP SWAP4 SWAP3 POP POP POP JUMP JUMPDEST PUSH1 0x0 DUP1 PUSH2 0x327 PUSH1 0x1 PUSH1 0x1 PUSH1 0xA0 SHL SUB DUP5 AND DUP1 PUSH2 0x7B0 JUMP JUMPDEST SWAP1 POP PUSH2 0x337 PUSH1 0x1 PUSH1 0x60 SHL DUP1 PUSH2 0x7B0 JUMP JUMPDEST PUSH2 0x349 DUP3 PUSH8 0xDE0B6B3A7640000 PUSH2 0x7B0 JUMP JUMPDEST PUSH2 0x187 SWAP2 SWAP1 PUSH2 0x77B JUMP JUMPDEST PUSH1 0x0 DUP1 DUP4 PUSH1 0x2 SIGNEXTEND DUP6 PUSH1 0x2 SIGNEXTEND SGT PUSH2 0x36F JUMPI POP PUSH1 0x64 SWAP1 POP PUSH1 0x0 PUSH2 0x1C1 JUMP JUMPDEST DUP3 PUSH1 0x2 SIGNEXTEND DUP6 PUSH1 0x2 SIGNEXTEND SLT PUSH2 0x388 JUMPI POP PUSH1 0x0 SWAP1 POP PUSH1 0x64 PUSH2 0x1C1 JUMP JUMPDEST PUSH1 0x0 PUSH2 0x393 DUP7 PUSH2 0x3EA JUMP JUMPDEST SWAP1 POP PUSH1 0x0 PUSH2 0x3A0 DUP7 PUSH2 0x3EA JUMP JUMPDEST SWAP1 POP PUSH1 0x0 PUSH2 0x3AD DUP7 PUSH2 0x3EA JUMP JUMPDEST SWAP1 POP PUSH2 0x3BA DUP4 DUP4 DUP4 PUSH2 0x437 JUMP JUMPDEST SWAP5 POP SWAP5 POP POP POP POP PUSH2 0x1C1 JUMP JUMPDEST PUSH1 0x0 DUP1 DUP3 PUSH1 0x2 SIGNEXTEND SLT ISZERO PUSH2 0x3DC JUMPI PUSH2 0x175 DUP3 PUSH2 0x504 JUMP JUMPDEST PUSH2 0x175 DUP3 PUSH2 0x54A JUMP JUMPDEST SWAP2 SWAP1 POP JUMP JUMPDEST PUSH1 0x0 DUP1 PUSH2 0x3F6 DUP4 PUSH2 0x3C6 JUMP JUMPDEST SWAP1 POP PUSH1 0x0 PUSH2 0x414 PUSH2 0x40F DUP4 PUSH8 0xDE0B6B3A7640000 PUSH2 0x7B0 JUMP JUMPDEST PUSH2 0x1ED JUMP JUMPDEST SWAP1 POP PUSH8 0xDE0B6B3A7640000 PUSH2 0x42D PUSH1 0x1 PUSH1 0x60 SHL DUP4 PUSH2 0x7B0 JUMP JUMPDEST PUSH2 0x19B SWAP2 SWAP1 PUSH2 0x77B JUMP JUMPDEST PUSH1 0x0 DUP1 DUP4 PUSH1 0x1 PUSH1 0x1 PUSH1 0xA0 SHL SUB AND DUP6 PUSH1 0x1 PUSH1 0x1 PUSH1 0xA0 SHL SUB AND GT PUSH2 0x45F JUMPI POP PUSH1 0x64 SWAP1 POP PUSH1 0x0 PUSH2 0x1C1 JUMP JUMPDEST DUP3 PUSH1 0x1 PUSH1 0x1 PUSH1 0xA0 SHL SUB AND DUP6 PUSH1 0x1 PUSH1 0x1 PUSH1 0xA0 SHL SUB AND LT PUSH2 0x484 JUMPI POP PUSH1 0x0 SWAP1 POP PUSH1 0x64 PUSH2 0x1C1 JUMP JUMPDEST PUSH1 0x0 PUSH2 0x48F DUP7 PUSH2 0x311 JUMP JUMPDEST SWAP1 POP PUSH1 0x0 PUSH2 0x49C DUP7 PUSH2 0x311 JUMP JUMPDEST SWAP1 POP PUSH1 0x0 PUSH2 0x4A9 DUP7 PUSH2 0x311 JUMP JUMPDEST SWAP1 POP PUSH1 0x0 PUSH2 0x4B7 DUP4 DUP4 PUSH2 0x79D JUMP JUMPDEST PUSH2 0x4C1 DUP5 DUP7 PUSH2 0x79D JUMP JUMPDEST PUSH2 0x4CC SWAP1 PUSH1 0x64 PUSH2 0x7B0 JUMP JUMPDEST PUSH2 0x4D6 SWAP2 SWAP1 PUSH2 0x77B JUMP JUMPDEST SWAP1 POP PUSH1 0x64 DUP2 GT PUSH2 0x4E6 JUMPI DUP1 PUSH2 0x4E9 JUMP JUMPDEST PUSH1 0x64 JUMPDEST SWAP5 POP PUSH2 0x4F6 DUP6 PUSH1 0x64 PUSH2 0x7C7 JUMP JUMPDEST SWAP6 POP POP POP POP POP SWAP4 POP SWAP4 SWAP2 POP POP JUMP JUMPDEST PUSH1 0x0 DUP1 PUSH1 0x0 DUP4 PUSH1 0x2 SIGNEXTEND SGT PUSH2 0x520 JUMPI PUSH2 0x51B DUP4 PUSH2 0x7E0 JUMP JUMPDEST PUSH2 0x522 JUMP JUMPDEST DUP3 JUMPDEST SWAP1 POP PUSH1 0x0 PUSH2 0x52F DUP3 PUSH2 0x54A JUMP JUMPDEST SWAP1 POP PUSH2 0x19B DUP2 PUSH15 0xC097CE7BC90715B34B9F1000000000 PUSH2 0x77B JUMP JUMPDEST PUSH1 0x0 PUSH8 0xDE0B6B3A7640000 PUSH1 0x2 DUP4 SWAP1 SIGNEXTEND DUP3 SLT ISZERO PUSH2 0x175 JUMPI PUSH8 0xDE111A6B7DE4000 DUP4 JUMPDEST PUSH1 0x0 DUP2 PUSH1 0x2 SIGNEXTEND SGT ISZERO PUSH2 0x5E1 JUMPI DUP1 PUSH1 0x1 AND PUSH1 0x2 SIGNEXTEND PUSH1 0x1 SUB PUSH2 0x5A6 JUMPI PUSH8 0xDE0B6B3A7640000 PUSH2 0x599 DUP4 DUP6 PUSH2 0x7B0 JUMP JUMPDEST PUSH2 0x5A3 SWAP2 SWAP1 PUSH2 0x77B JUMP JUMPDEST SWAP3 POP JUMPDEST PUSH1 0x1 DUP2 PUSH1 0x2 SIGNEXTEND SWAP1 SAR SWAP1 POP PUSH1 0x0 DUP2 PUSH1 0x2 SIGNEXTEND SGT ISZERO PUSH2 0x5DC JUMPI PUSH8 0xDE0B6B3A7640000 PUSH2 0x5CF DUP4 DUP1 PUSH2 0x7B0 JUMP JUMPDEST PUSH2 0x5D9 SWAP2 SWAP1 PUSH2 0x77B JUMP JUMPDEST SWAP2 POP JUMPDEST PUSH2 0x56C JUMP JUMPDEST POP POP SWAP3 SWAP2 POP POP JUMP JUMPDEST PUSH1 0x0 PUSH1 0x20 DUP3 DUP5 SUB SLT ISZERO PUSH2 0x5FB JUMPI PUSH1 0x0 DUP1 REVERT JUMPDEST POP CALLDATALOAD SWAP2 SWAP1 POP JUMP JUMPDEST DUP1 CALLDATALOAD PUSH1 0x2 DUP2 SWAP1 SIGNEXTEND DUP2 EQ PUSH2 0x3E5 JUMPI PUSH1 0x0 DUP1 REVERT JUMPDEST PUSH1 0x0 DUP1 PUSH1 0x40 DUP4 DUP6 SUB SLT ISZERO PUSH2 0x627 JUMPI PUSH1 0x0 DUP1 REVERT JUMPDEST PUSH2 0x630 DUP4 PUSH2 0x602 JUMP JUMPDEST SWAP2 POP PUSH2 0x63E PUSH1 0x20 DUP5 ADD PUSH2 0x602 JUMP JUMPDEST SWAP1 POP SWAP3 POP SWAP3 SWAP1 POP JUMP JUMPDEST PUSH1 0x0 DUP1 PUSH1 0x0 PUSH1 0x60 DUP5 DUP7 SUB SLT ISZERO PUSH2 0x65C JUMPI PUSH1 0x0 DUP1 REVERT JUMPDEST DUP4 CALLDATALOAD SWAP3 POP PUSH1 0x20 DUP5 ADD CALLDATALOAD SWAP2 POP PUSH1 0x40 DUP5 ADD CALLDATALOAD PUSH3 0xFFFFFF DUP2 AND DUP2 EQ PUSH2 0x67D JUMPI PUSH1 0x0 DUP1 REVERT JUMPDEST DUP1 SWAP2 POP POP SWAP3 POP SWAP3 POP SWAP3 JUMP JUMPDEST DUP1 CALLDATALOAD PUSH1 0x1 PUSH1 0x1 PUSH1 0xA0 SHL SUB DUP2 AND DUP2 EQ PUSH2 0x3E5 JUMPI PUSH1 0x0 DUP1 REVERT JUMPDEST PUSH1 0x0 PUSH1 0x20 DUP3 DUP5 SUB SLT ISZERO PUSH2 0x6B1 JUMPI PUSH1 0x0 DUP1 REVERT JUMPDEST PUSH2 0x187 DUP3 PUSH2 0x688 JUMP JUMPDEST PUSH1 0x0 DUP1 PUSH1 0x0 PUSH1 0x60 DUP5 DUP7 SUB SLT ISZERO PUSH2 0x6CF JUMPI PUSH1 0x0 DUP1 REVERT JUMPDEST PUSH2 0x6D8 DUP5 PUSH2 0x602 JUMP JUMPDEST SWAP3 POP PUSH2 0x6E6 PUSH1 0x20 DUP6 ADD PUSH2 0x602 JUMP JUMPDEST SWAP2 POP PUSH2 0x6F4 PUSH1 0x40 DUP6 ADD PUSH2 0x602 JUMP JUMPDEST SWAP1 POP SWAP3 POP SWAP3 POP SWAP3 JUMP JUMPDEST PUSH1 0x0 PUSH1 0x20 DUP3 DUP5 SUB SLT ISZERO PUSH2 0x70F JUMPI PUSH1 0x0 DUP1 REVERT JUMPDEST PUSH2 0x187 DUP3 PUSH2 0x602 JUMP JUMPDEST PUSH1 0x0 DUP1 PUSH1 0x0 PUSH1 0x60 DUP5 DUP7 SUB SLT ISZERO PUSH2 0x72D JUMPI PUSH1 0x0 DUP1 REVERT JUMPDEST PUSH2 0x736 DUP5 PUSH2 0x688 JUMP JUMPDEST SWAP3 POP PUSH2 0x744 PUSH1 0x20 DUP6 ADD PUSH2 0x688 JUMP JUMPDEST SWAP2 POP PUSH2 0x6F4 PUSH1 0x40 DUP6 ADD PUSH2 0x688 JUMP JUMPDEST PUSH4 0x4E487B71 PUSH1 0xE0 SHL PUSH1 0x0 MSTORE PUSH1 0x11 PUSH1 0x4 MSTORE PUSH1 0x24 PUSH1 0x0 REVERT JUMPDEST DUP1 DUP3 ADD DUP1 DUP3 GT ISZERO PUSH2 0x175 JUMPI PUSH2 0x175 PUSH2 0x752 JUMP JUMPDEST PUSH1 0x0 DUP3 PUSH2 0x798 JUMPI PUSH4 0x4E487B71 PUSH1 0xE0 SHL PUSH1 0x0 MSTORE PUSH1 0x12 PUSH1 0x4 MSTORE PUSH1 0x24 PUSH1 0x0 REVERT JUMPDEST POP DIV SWAP1 JUMP JUMPDEST DUP2 DUP2 SUB DUP2 DUP2 GT ISZERO PUSH2 0x175 JUMPI PUSH2 0x175 PUSH2 0x752 JUMP JUMPDEST DUP1 DUP3 MUL DUP2 ISZERO DUP3 DUP3 DIV DUP5 EQ OR PUSH2 0x175 JUMPI PUSH2 0x175 PUSH2 0x752 JUMP JUMPDEST PUSH1 0xFF DUP3 DUP2 AND DUP3 DUP3 AND SUB SWAP1 DUP2 GT ISZERO PUSH2 0x175 JUMPI PUSH2 0x175 PUSH2 0x752 JUMP JUMPDEST PUSH1 0x0 DUP2 PUSH1 0x2 SIGNEXTEND PUSH3 0x7FFFFF NOT DUP2 SUB PUSH2 0x7F9 JUMPI PUSH2 0x7F9 PUSH2 0x752 JUMP JUMPDEST PUSH1 0x0 SUB SWAP3 SWAP2 POP POP JUMP INVALID LOG2 PUSH5 0x6970667358 0x22 SLT KECCAK256 POP CALL PUSH21 0x8A258D349EF8B850916E84AEA58CF3E082CB3DA929 0x5D DUP8 0xB6 PUSH4 0x7979A8F0 PUSH5 0x736F6C6343 STOP ADDMOD EQ STOP CALLER "},"methodIdentifiers":{"testCalculateAPR(uint256,uint256,uint24)":"4866ed27","testCalculateLiquidityRange(int24,int24)":"3df0a485","testCalculateTokenRatios(int24,int24,int24)":"866f24d2","testCalculateTokenRatiosFromSqrtPrice(uint160,uint160,uint160)":"c9cf1719","testSqrt(uint256)":"0de4eb16","testSqrtPriceX96ToPrice(uint160)":"6183978f","testTickToPrice(int24)":"98f82cdc","testTickToSqrtPriceX96(int24)":"a9acdc3b"}}}}}