{"contracts/utils/UniswapV3PriceUtils.sol":{"UniswapV3PriceUtils":{"abi":[{"inputs":[],"name":"MAX_TICK","outputs":[{"internalType":"int24","name":"","type":"int24"}],"stateMutability":"view","type":"function"},{"inputs":[],"name":"MIN_TICK","outputs":[{"internalType":"int24","name":"","type":"int24"}],"stateMutability":"view","type":"function"},{"inputs":[],"name":"Q96","outputs":[{"internalType":"uint256","name":"","type":"uint256"}],"stateMutability":"view","type":"function"},{"inputs":[],"name":"TICK_BASE","outputs":[{"internalType":"uint256","name":"","type":"uint256"}],"stateMutability":"view","type":"function"}],"evm":{"bytecode":{"linkReferences":{},"object":"60dc610039600b82828239805160001a60731461002c57634e487b7160e01b600052600060045260246000fd5b30600052607381538281f3fe730000000000000000000000000000000000000000301460806040526004361060515760003560e01c8063407924651460565780636882a8881460735780636ea8153614608e578063a1634b1414609c575b600080fd5b6060600160601b81565b6040519081526020015b60405180910390f35b607c620d89e881565b60405160029190910b8152602001606a565b6060670de111a6b7de400081565b607c620d89e7198156fea2646970667358221220565fb66d995c191542209985fa7b8718a9d22fb33624b51f760f7d80cecf06f364736f6c63430008140033","opcodes":"PUSH1 0xDC PUSH2 0x39 PUSH1 0xB DUP3 DUP3 DUP3 CODECOPY DUP1 MLOAD PUSH1 0x0 BYTE PUSH1 0x73 EQ PUSH2 0x2C JUMPI PUSH4 0x4E487B71 PUSH1 0xE0 SHL PUSH1 0x0 MSTORE PUSH1 0x0 PUSH1 0x4 MSTORE PUSH1 0x24 PUSH1 0x0 REVERT JUMPDEST ADDRESS PUSH1 0x0 MSTORE PUSH1 0x73 DUP2 MSTORE8 DUP3 DUP2 RETURN INVALID PUSH20 0x0 ADDRESS EQ PUSH1 0x80 PUSH1 0x40 MSTORE PUSH1 0x4 CALLDATASIZE LT PUSH1 0x51 JUMPI PUSH1 0x0 CALLDATALOAD PUSH1 0xE0 SHR DUP1 PUSH4 0x40792465 EQ PUSH1 0x56 JUMPI DUP1 PUSH4 0x6882A888 EQ PUSH1 0x73 JUMPI DUP1 PUSH4 0x6EA81536 EQ PUSH1 0x8E JUMPI DUP1 PUSH4 0xA1634B14 EQ PUSH1 0x9C JUMPI JUMPDEST PUSH1 0x0 DUP1 REVERT JUMPDEST PUSH1 0x60 PUSH1 0x1 PUSH1 0x60 SHL DUP2 JUMP JUMPDEST PUSH1 0x40 MLOAD SWAP1 DUP2 MSTORE PUSH1 0x20 ADD JUMPDEST PUSH1 0x40 MLOAD DUP1 SWAP2 SUB SWAP1 RETURN JUMPDEST PUSH1 0x7C PUSH3 0xD89E8 DUP2 JUMP JUMPDEST PUSH1 0x40 MLOAD PUSH1 0x2 SWAP2 SWAP1 SWAP2 SIGNEXTEND DUP2 MSTORE PUSH1 0x20 ADD PUSH1 0x6A JUMP JUMPDEST PUSH1 0x60 PUSH8 0xDE111A6B7DE4000 DUP2 JUMP JUMPDEST PUSH1 0x7C PUSH3 0xD89E7 NOT DUP2 JUMP INVALID LOG2 PUSH5 0x6970667358 0x22 SLT KECCAK256 JUMP PUSH0 0xB6 PUSH14 0x995C191542209985FA7B8718A9D2 0x2F 0xB3 CALLDATASIZE 0x24 0xB5 0x1F PUSH23 0xF7D80CECF06F364736F6C634300081400330000000000 "},"methodIdentifiers":{"MAX_TICK()":"6882a888","MIN_TICK()":"a1634b14","Q96()":"40792465","TICK_BASE()":"6ea81536"}}}}}