{
  "_format": "hh-sol-artifact-1",
  "contractName": "MockWrappedSonic",
  "sourceName": "test/mocks/MockWrappedSonic.sol",
  "abi": [
    {
      "inputs": [],
      "stateMutability": "nonpayable",
      "type": "constructor"
    },
    {
      "anonymous": false,
      "inputs": [
        {
          "indexed": true,
          "internalType": "address",
          "name": "owner",
          "type": "address"
        },
        {
          "indexed": true,
          "internalType": "address",
          "name": "spender",
          "type": "address"
        },
        {
          "indexed": false,
          "internalType": "uint256",
          "name": "value",
          "type": "uint256"
        }
      ],
      "name": "Approval",
      "type": "event"
    },
    {
      "anonymous": false,
      "inputs": [
        {
          "indexed": true,
          "internalType": "address",
          "name": "from",
          "type": "address"
        },
        {
          "indexed": true,
          "internalType": "address",
          "name": "to",
          "type": "address"
        },
        {
          "indexed": false,
          "internalType": "uint256",
          "name": "value",
          "type": "uint256"
        }
      ],
      "name": "Transfer",
      "type": "event"
    },
    {
      "inputs": [
        {
          "internalType": "address",
          "name": "",
          "type": "address"
        },
        {
          "internalType": "address",
          "name": "",
          "type": "address"
        }
      ],
      "name": "allowance",
      "outputs": [
        {
          "internalType": "uint256",
          "name": "",
          "type": "uint256"
        }
      ],
      "stateMutability": "view",
      "type": "function"
    },
    {
      "inputs": [
        {
          "internalType": "address",
          "name": "spender",
          "type": "address"
        },
        {
          "internalType": "uint256",
          "name": "amount",
          "type": "uint256"
        }
      ],
      "name": "approve",
      "outputs": [
        {
          "internalType": "bool",
          "name": "",
          "type": "bool"
        }
      ],
      "stateMutability": "nonpayable",
      "type": "function"
    },
    {
      "inputs": [
        {
          "internalType": "address",
          "name": "",
          "type": "address"
        }
      ],
      "name": "balanceOf",
      "outputs": [
        {
          "internalType": "uint256",
          "name": "",
          "type": "uint256"
        }
      ],
      "stateMutability": "view",
      "type": "function"
    },
    {
      "inputs": [],
      "name": "decimals",
      "outputs": [
        {
          "internalType": "uint8",
          "name": "",
          "type": "uint8"
        }
      ],
      "stateMutability": "view",
      "type": "function"
    },
    {
      "inputs": [],
      "name": "deposit",
      "outputs": [],
      "stateMutability": "payable",
      "type": "function"
    },
    {
      "inputs": [
        {
          "internalType": "address",
          "name": "to",
          "type": "address"
        },
        {
          "internalType": "uint256",
          "name": "amount",
          "type": "uint256"
        }
      ],
      "name": "mint",
      "outputs": [],
      "stateMutability": "nonpayable",
      "type": "function"
    },
    {
      "inputs": [],
      "name": "name",
      "outputs": [
        {
          "internalType": "string",
          "name": "",
          "type": "string"
        }
      ],
      "stateMutability": "view",
      "type": "function"
    },
    {
      "inputs": [],
      "name": "symbol",
      "outputs": [
        {
          "internalType": "string",
          "name": "",
          "type": "string"
        }
      ],
      "stateMutability": "view",
      "type": "function"
    },
    {
      "inputs": [],
      "name": "totalSupply",
      "outputs": [
        {
          "internalType": "uint256",
          "name": "",
          "type": "uint256"
        }
      ],
      "stateMutability": "view",
      "type": "function"
    },
    {
      "inputs": [
        {
          "internalType": "address",
          "name": "to",
          "type": "address"
        },
        {
          "internalType": "uint256",
          "name": "amount",
          "type": "uint256"
        }
      ],
      "name": "transfer",
      "outputs": [
        {
          "internalType": "bool",
          "name": "",
          "type": "bool"
        }
      ],
      "stateMutability": "nonpayable",
      "type": "function"
    },
    {
      "inputs": [
        {
          "internalType": "address",
          "name": "from",
          "type": "address"
        },
        {
          "internalType": "address",
          "name": "to",
          "type": "address"
        },
        {
          "internalType": "uint256",
          "name": "amount",
          "type": "uint256"
        }
      ],
      "name": "transferFrom",
      "outputs": [
        {
          "internalType": "bool",
          "name": "",
          "type": "bool"
        }
      ],
      "stateMutability": "nonpayable",
      "type": "function"
    },
    {
      "inputs": [
        {
          "internalType": "uint256",
          "name": "amount",
          "type": "uint256"
        }
      ],
      "name": "withdraw",
      "outputs": [],
      "stateMutability": "nonpayable",
      "type": "function"
    },
    {
      "stateMutability": "payable",
      "type": "receive"
    }
  ],
  "bytecode": "0x60806040523480156200001157600080fd5b506040518060400160405280600d81526020017f5772617070656420536f6e6963000000000000000000000000000000000000008152506040518060400160405280600281526020017f77530000000000000000000000000000000000000000000000000000000000008152506012826000908162000091919062000342565b508160019081620000a3919062000342565b5080600260006101000a81548160ff021916908360ff16021790555050505062000429565b600081519050919050565b7f4e487b7100000000000000000000000000000000000000000000000000000000600052604160045260246000fd5b7f4e487b7100000000000000000000000000000000000000000000000000000000600052602260045260246000fd5b600060028204905060018216806200014a57607f821691505b60208210810362000160576200015f62000102565b5b50919050565b60008190508160005260206000209050919050565b60006020601f8301049050919050565b600082821b905092915050565b600060088302620001ca7fffffffffffffffffffffffffffffffffffffffffffffffffffffffffffffffff826200018b565b620001d686836200018b565b95508019841693508086168417925050509392505050565b6000819050919050565b6000819050919050565b6000620002236200021d6200021784620001ee565b620001f8565b620001ee565b9050919050565b6000819050919050565b6200023f8362000202565b620002576200024e826200022a565b84845462000198565b825550505050565b600090565b6200026e6200025f565b6200027b81848462000234565b505050565b5b81811015620002a3576200029760008262000264565b60018101905062000281565b5050565b601f821115620002f257620002bc8162000166565b620002c7846200017b565b81016020851015620002d7578190505b620002ef620002e6856200017b565b83018262000280565b50505b505050565b600082821c905092915050565b60006200031760001984600802620002f7565b1980831691505092915050565b600062000332838362000304565b9150826002028217905092915050565b6200034d82620000c8565b67ffffffffffffffff811115620003695762000368620000d3565b5b62000375825462000131565b62000382828285620002a7565b600060209050601f831160018114620003ba5760008415620003a5578287015190505b620003b1858262000324565b86555062000421565b601f198416620003ca8662000166565b60005b82811015620003f457848901518255600182019150602085019450602081019050620003cd565b8683101562000414578489015162000410601f89168262000304565b8355505b6001600288020188555050505b505050505050565b61121b80620004396000396000f3fe6080604052600436106100ab5760003560e01c806340c10f191161006457806340c10f19146102b057806370a08231146102d957806395d89b4114610316578063a9059cbb14610341578063d0e30db01461037e578063dd62ed3e1461038857610187565b806306fdde031461018c578063095ea7b3146101b757806318160ddd146101f457806323b872dd1461021f5780632e1a7d4d1461025c578063313ce5671461028557610187565b366101875734600360008282546100c29190610d40565b9250508190555034600460003373ffffffffffffffffffffffffffffffffffffffff1673ffffffffffffffffffffffffffffffffffffffff16815260200190815260200160002060008282546101189190610d40565b925050819055503373ffffffffffffffffffffffffffffffffffffffff16600073ffffffffffffffffffffffffffffffffffffffff167fddf252ad1be2c89b69c2b068fc378daa952ba7f163c4a11628f55a4df523b3ef3460405161017d9190610d83565b60405180910390a3005b600080fd5b34801561019857600080fd5b506101a16103c5565b6040516101ae9190610e2e565b60405180910390f35b3480156101c357600080fd5b506101de60048036038101906101d99190610edf565b610453565b6040516101eb9190610f3a565b60405180910390f35b34801561020057600080fd5b50610209610545565b6040516102169190610d83565b60405180910390f35b34801561022b57600080fd5b5061024660048036038101906102419190610f55565b61054b565b6040516102539190610f3a565b60405180910390f35b34801561026857600080fd5b50610283600480360381019061027e9190610fa8565b6107bb565b005b34801561029157600080fd5b5061029a61095c565b6040516102a79190610ff1565b60405180910390f35b3480156102bc57600080fd5b506102d760048036038101906102d29190610edf565b61096f565b005b3480156102e557600080fd5b5061030060048036038101906102fb919061100c565b610a48565b60405161030d9190610d83565b60405180910390f35b34801561032257600080fd5b5061032b610a60565b6040516103389190610e2e565b60405180910390f35b34801561034d57600080fd5b5061036860048036038101906103639190610edf565b610aee565b6040516103759190610f3a565b60405180910390f35b610386610c0b565b005b34801561039457600080fd5b506103af60048036038101906103aa9190611039565b610ce2565b6040516103bc9190610d83565b60405180910390f35b600080546103d2906110a8565b80601f01602080910402602001604051908101604052809291908181526020018280546103fe906110a8565b801561044b5780601f106104205761010080835404028352916020019161044b565b820191906000526020600020905b81548152906001019060200180831161042e57829003601f168201915b505050505081565b600081600560003373ffffffffffffffffffffffffffffffffffffffff1673ffffffffffffffffffffffffffffffffffffffff16815260200190815260200160002060008573ffffffffffffffffffffffffffffffffffffffff1673ffffffffffffffffffffffffffffffffffffffff168152602001908152602001600020819055508273ffffffffffffffffffffffffffffffffffffffff163373ffffffffffffffffffffffffffffffffffffffff167f8c5be1e5ebec7d5bd14f71427d1e84f3dd0314c0f7b2291e5b200ac8c7c3b925846040516105339190610d83565b60405180910390a36001905092915050565b60035481565b600081600560008673ffffffffffffffffffffffffffffffffffffffff1673ffffffffffffffffffffffffffffffffffffffff16815260200190815260200160002060003373ffffffffffffffffffffffffffffffffffffffff1673ffffffffffffffffffffffffffffffffffffffff16815260200190815260200160002054101561060c576040517f08c379a000000000000000000000000000000000000000000000000000000000815260040161060390611125565b60405180910390fd5b81600560008673ffffffffffffffffffffffffffffffffffffffff1673ffffffffffffffffffffffffffffffffffffffff16815260200190815260200160002060003373ffffffffffffffffffffffffffffffffffffffff1673ffffffffffffffffffffffffffffffffffffffff16815260200190815260200160002060008282546106989190611145565b9250508190555081600460008673ffffffffffffffffffffffffffffffffffffffff1673ffffffffffffffffffffffffffffffffffffffff16815260200190815260200160002060008282546106ee9190611145565b9250508190555081600460008573ffffffffffffffffffffffffffffffffffffffff1673ffffffffffffffffffffffffffffffffffffffff16815260200190815260200160002060008282546107449190610d40565b925050819055508273ffffffffffffffffffffffffffffffffffffffff168473ffffffffffffffffffffffffffffffffffffffff167fddf252ad1be2c89b69c2b068fc378daa952ba7f163c4a11628f55a4df523b3ef846040516107a89190610d83565b60405180910390a3600190509392505050565b80600460003373ffffffffffffffffffffffffffffffffffffffff1673ffffffffffffffffffffffffffffffffffffffff16815260200190815260200160002054101561083d576040517f08c379a0000000000000000000000000000000000000000000000000000000008152600401610834906111c5565b60405180910390fd5b80600460003373ffffffffffffffffffffffffffffffffffffffff1673ffffffffffffffffffffffffffffffffffffffff168152602001908152602001600020600082825461088c9190611145565b9250508190555080600360008282546108a59190611145565b925050819055503373ffffffffffffffffffffffffffffffffffffffff166108fc829081150290604051600060405180830381858888f193505050501580156108f2573d6000803e3d6000fd5b50600073ffffffffffffffffffffffffffffffffffffffff163373ffffffffffffffffffffffffffffffffffffffff167fddf252ad1be2c89b69c2b068fc378daa952ba7f163c4a11628f55a4df523b3ef836040516109519190610d83565b60405180910390a350565b600260009054906101000a900460ff1681565b80600360008282546109819190610d40565b9250508190555080600460008473ffffffffffffffffffffffffffffffffffffffff1673ffffffffffffffffffffffffffffffffffffffff16815260200190815260200160002060008282546109d79190610d40565b925050819055508173ffffffffffffffffffffffffffffffffffffffff16600073ffffffffffffffffffffffffffffffffffffffff167fddf252ad1be2c89b69c2b068fc378daa952ba7f163c4a11628f55a4df523b3ef83604051610a3c9190610d83565b60405180910390a35050565b60046020528060005260406000206000915090505481565b60018054610a6d906110a8565b80601f0160208091040260200160405190810160405280929190818152602001828054610a99906110a8565b8015610ae65780601f10610abb57610100808354040283529160200191610ae6565b820191906000526020600020905b815481529060010190602001808311610ac957829003601f168201915b505050505081565b600081600460003373ffffffffffffffffffffffffffffffffffffffff1673ffffffffffffffffffffffffffffffffffffffff1681526020019081526020016000206000828254610b3f9190611145565b9250508190555081600460008573ffffffffffffffffffffffffffffffffffffffff1673ffffffffffffffffffffffffffffffffffffffff1681526020019081526020016000206000828254610b959190610d40565b925050819055508273ffffffffffffffffffffffffffffffffffffffff163373ffffffffffffffffffffffffffffffffffffffff167fddf252ad1be2c89b69c2b068fc378daa952ba7f163c4a11628f55a4df523b3ef84604051610bf99190610d83565b60405180910390a36001905092915050565b3460036000828254610c1d9190610d40565b9250508190555034600460003373ffffffffffffffffffffffffffffffffffffffff1673ffffffffffffffffffffffffffffffffffffffff1681526020019081526020016000206000828254610c739190610d40565b925050819055503373ffffffffffffffffffffffffffffffffffffffff16600073ffffffffffffffffffffffffffffffffffffffff167fddf252ad1be2c89b69c2b068fc378daa952ba7f163c4a11628f55a4df523b3ef34604051610cd89190610d83565b60405180910390a3565b6005602052816000526040600020602052806000526040600020600091509150505481565b6000819050919050565b7f4e487b7100000000000000000000000000000000000000000000000000000000600052601160045260246000fd5b6000610d4b82610d07565b9150610d5683610d07565b9250828201905080821115610d6e57610d6d610d11565b5b92915050565b610d7d81610d07565b82525050565b6000602082019050610d986000830184610d74565b92915050565b600081519050919050565b600082825260208201905092915050565b60005b83811015610dd8578082015181840152602081019050610dbd565b60008484015250505050565b6000601f19601f8301169050919050565b6000610e0082610d9e565b610e0a8185610da9565b9350610e1a818560208601610dba565b610e2381610de4565b840191505092915050565b60006020820190508181036000830152610e488184610df5565b905092915050565b600080fd5b600073ffffffffffffffffffffffffffffffffffffffff82169050919050565b6000610e8082610e55565b9050919050565b610e9081610e75565b8114610e9b57600080fd5b50565b600081359050610ead81610e87565b92915050565b610ebc81610d07565b8114610ec757600080fd5b50565b600081359050610ed981610eb3565b92915050565b60008060408385031215610ef657610ef5610e50565b5b6000610f0485828601610e9e565b9250506020610f1585828601610eca565b9150509250929050565b60008115159050919050565b610f3481610f1f565b82525050565b6000602082019050610f4f6000830184610f2b565b92915050565b600080600060608486031215610f6e57610f6d610e50565b5b6000610f7c86828701610e9e565b9350506020610f8d86828701610e9e565b9250506040610f9e86828701610eca565b9150509250925092565b600060208284031215610fbe57610fbd610e50565b5b6000610fcc84828501610eca565b91505092915050565b600060ff82169050919050565b610feb81610fd5565b82525050565b60006020820190506110066000830184610fe2565b92915050565b60006020828403121561102257611021610e50565b5b600061103084828501610e9e565b91505092915050565b600080604083850312156110505761104f610e50565b5b600061105e85828601610e9e565b925050602061106f85828601610e9e565b9150509250929050565b7f4e487b7100000000000000000000000000000000000000000000000000000000600052602260045260246000fd5b600060028204905060018216806110c057607f821691505b6020821081036110d3576110d2611079565b5b50919050565b7f45524332303a20696e73756666696369656e7420616c6c6f77616e6365000000600082015250565b600061110f601d83610da9565b915061111a826110d9565b602082019050919050565b6000602082019050818103600083015261113e81611102565b9050919050565b600061115082610d07565b915061115b83610d07565b925082820390508181111561117357611172610d11565b5b92915050565b7f496e73756666696369656e742062616c616e6365000000000000000000000000600082015250565b60006111af601483610da9565b91506111ba82611179565b602082019050919050565b600060208201905081810360008301526111de816111a2565b905091905056fea26469706673582212209f0f13a233b4c55b650303d182bc24960f21487cb96f0f287f039176985c0ae664736f6c63430008140033",
  "linkReferences": {},
  "deployedLinkReferences": {}
}