{"contracts/mocks/MockSonicVRFConsumerRead.sol":{"MockSonicVRFConsumerRead":{"abi":[{"anonymous":false,"inputs":[{"indexed":true,"internalType":"uint64","name":"requestId","type":"uint64"},{"indexed":true,"internalType":"address","name":"user","type":"address"},{"indexed":false,"internalType":"uint256","name":"randomness","type":"uint256"}],"name":"RandomnessProcessingFailed","type":"event"},{"anonymous":false,"inputs":[{"indexed":true,"internalType":"uint64","name":"requestId","type":"uint64"},{"indexed":true,"internalType":"address","name":"user","type":"address"},{"indexed":false,"internalType":"uint256","name":"randomness","type":"uint256"}],"name":"RandomnessReceived","type":"event"},{"anonymous":false,"inputs":[{"indexed":true,"internalType":"uint64","name":"requestId","type":"uint64"},{"indexed":true,"internalType":"address","name":"user","type":"address"}],"name":"RandomnessRequested","type":"event"},{"anonymous":false,"inputs":[{"indexed":false,"internalType":"uint64","name":"subscriptionId","type":"uint64"},{"indexed":false,"internalType":"bytes32","name":"keyHash","type":"bytes32"},{"indexed":false,"internalType":"uint16","name":"confirmations","type":"uint16"},{"indexed":false,"internalType":"uint32","name":"callbackGasLimit","type":"uint32"},{"indexed":false,"internalType":"uint32","name":"numWords","type":"uint32"},{"indexed":false,"internalType":"uint64","name":"timestamp","type":"uint64"}],"name":"VRFStateQueried","type":"event"},{"inputs":[],"name":"READ_CHANNEL","outputs":[{"internalType":"uint32","name":"","type":"uint32"}],"stateMutability":"view","type":"function"},{"inputs":[],"name":"READ_MSG_TYPE","outputs":[{"internalType":"uint16","name":"","type":"uint16"}],"stateMutability":"view","type":"function"},{"inputs":[],"name":"arbitrumChainId","outputs":[{"internalType":"uint32","name":"","type":"uint32"}],"stateMutability":"view","type":"function"},{"inputs":[],"name":"arbitrumVRFRequester","outputs":[{"internalType":"address","name":"","type":"address"}],"stateMutability":"view","type":"function"},{"inputs":[{"internalType":"uint32","name":"_channelId","type":"uint32"},{"internalType":"uint16","name":"_msgType","type":"uint16"},{"internalType":"bytes","name":"_extraOptions","type":"bytes"}],"name":"combineOptions","outputs":[{"internalType":"bytes","name":"","type":"bytes"}],"stateMutability":"pure","type":"function"},{"inputs":[],"name":"getArbitrumVRFQuery","outputs":[{"internalType":"bytes","name":"","type":"bytes"}],"stateMutability":"view","type":"function"},{"inputs":[],"name":"getLatestRequestId","outputs":[{"internalType":"uint64","name":"","type":"uint64"}],"stateMutability":"view","type":"function"},{"inputs":[],"name":"getRequestCount","outputs":[{"internalType":"uint256","name":"","type":"uint256"}],"stateMutability":"view","type":"function"},{"inputs":[{"internalType":"address","name":"_user","type":"address"}],"name":"getUserRequestCount","outputs":[{"internalType":"uint256","name":"","type":"uint256"}],"stateMutability":"view","type":"function"},{"inputs":[{"internalType":"address","name":"_lzEndpoint","type":"address"},{"internalType":"uint32","name":"_arbitrumChainId","type":"uint32"},{"internalType":"address","name":"_arbitrumVRFRequester","type":"address"}],"name":"initialize","outputs":[],"stateMutability":"nonpayable","type":"function"},{"inputs":[{"internalType":"uint32","name":"_srcEid","type":"uint32"}],"name":"isLzReadResponse","outputs":[{"internalType":"bool","name":"","type":"bool"}],"stateMutability":"pure","type":"function"},{"inputs":[],"name":"lastQueriedCallbackGasLimit","outputs":[{"internalType":"uint32","name":"","type":"uint32"}],"stateMutability":"view","type":"function"},{"inputs":[],"name":"lastQueriedConfirmations","outputs":[{"internalType":"uint16","name":"","type":"uint16"}],"stateMutability":"view","type":"function"},{"inputs":[],"name":"lastQueriedKeyHash","outputs":[{"internalType":"bytes32","name":"","type":"bytes32"}],"stateMutability":"view","type":"function"},{"inputs":[],"name":"lastQueriedNumWords","outputs":[{"internalType":"uint32","name":"","type":"uint32"}],"stateMutability":"view","type":"function"},{"inputs":[],"name":"lastQueriedSubscriptionId","outputs":[{"internalType":"uint64","name":"","type":"uint64"}],"stateMutability":"view","type":"function"},{"inputs":[],"name":"lastQueriedTimestamp","outputs":[{"internalType":"uint64","name":"","type":"uint64"}],"stateMutability":"view","type":"function"},{"inputs":[],"name":"lotteryContract","outputs":[{"internalType":"address","name":"","type":"address"}],"stateMutability":"view","type":"function"},{"inputs":[],"name":"lzEndpoint","outputs":[{"internalType":"address","name":"","type":"address"}],"stateMutability":"view","type":"function"},{"inputs":[{"internalType":"uint16","name":"_srcChainId","type":"uint16"},{"internalType":"bytes","name":"_srcAddress","type":"bytes"},{"internalType":"uint64","name":"_nonce","type":"uint64"},{"internalType":"bytes","name":"_payload","type":"bytes"}],"name":"lzReceive","outputs":[],"stateMutability":"nonpayable","type":"function"},{"inputs":[{"internalType":"uint64","name":"_subscriptionId","type":"uint64"},{"internalType":"bytes32","name":"_keyHash","type":"bytes32"},{"internalType":"uint16","name":"_confirmations","type":"uint16"},{"internalType":"uint32","name":"_callbackGasLimit","type":"uint32"},{"internalType":"uint32","name":"_numWords","type":"uint32"}],"name":"mockReceiveReadResponse","outputs":[],"stateMutability":"nonpayable","type":"function"},{"inputs":[],"name":"nonce","outputs":[{"internalType":"uint64","name":"","type":"uint64"}],"stateMutability":"view","type":"function"},{"inputs":[{"internalType":"bytes","name":"_extraOptions","type":"bytes"}],"name":"queryArbitrumVRFState","outputs":[{"internalType":"bool","name":"","type":"bool"}],"stateMutability":"payable","type":"function"},{"inputs":[],"name":"requestCount","outputs":[{"internalType":"uint256","name":"","type":"uint256"}],"stateMutability":"view","type":"function"},{"inputs":[{"internalType":"address","name":"_user","type":"address"}],"name":"requestRandomness","outputs":[{"internalType":"uint64","name":"","type":"uint64"}],"stateMutability":"nonpayable","type":"function"},{"inputs":[{"internalType":"uint64","name":"","type":"uint64"}],"name":"requestToUser","outputs":[{"internalType":"address","name":"","type":"address"}],"stateMutability":"view","type":"function"},{"inputs":[{"internalType":"address","name":"_lotteryContract","type":"address"}],"name":"setLotteryContract","outputs":[],"stateMutability":"nonpayable","type":"function"},{"inputs":[{"internalType":"uint64","name":"_requestId","type":"uint64"},{"internalType":"address","name":"_user","type":"address"},{"internalType":"uint256","name":"_randomness","type":"uint256"}],"name":"simulateReceiveRandomness","outputs":[],"stateMutability":"nonpayable","type":"function"}],"evm":{"bytecode":{"linkReferences":{},"object":"608060405234801561001057600080fd5b5061119f806100206000396000f3fe6080604052600436106101b65760003560e01c80638c1bde26116100ec578063bc70b3541161008a578063c1bd92e311610064578063c1bd92e31461059f578063d97ff008146105b4578063e29814de146105f0578063ead073c71461061757600080fd5b8063bc70b354146104ec578063c1554a4b14610519578063c166c4581461057f57600080fd5b8063affed0e0116100c6578063affed0e014610470578063b190d8a314610497578063b29c662a146104ac578063b353aaa7146104cc57600080fd5b80638c1bde26146103f75780638eb96891146104175780639f392c2b1461043a57600080fd5b80633136eca01161015957806358efca041161013357806358efca041461036b5780635badbe4c146103a75780636ff8fc68146103bd57806377896890146103e457600080fd5b80633136eca01461031d5780633859d937146103415780633fad18341461035657600080fd5b806318184fe21161019557806318184fe21461024d5780631c61621e1461028c578063263de2b5146102c557806328455e00146102fd57600080fd5b80621d3567146101bb57806306d7e8db146101dd5780631590a04f14610210575b600080fd5b3480156101c757600080fd5b506101db6101d6366004610d86565b610637565b005b3480156101e957600080fd5b506006546101f89061ffff1681565b60405161ffff90911681526020015b60405180910390f35b34801561021c57600080fd5b506101db61022b366004610e31565b600480546001600160a01b0319166001600160a01b0392909216919091179055565b34801561025957600080fd5b5060065461027490600160501b90046001600160401b031681565b6040516001600160401b039091168152602001610207565b34801561029857600080fd5b506000546102b090600160a01b900463ffffffff1681565b60405163ffffffff9091168152602001610207565b3480156102d157600080fd5b506001546102e5906001600160a01b031681565b6040516001600160a01b039091168152602001610207565b34801561030957600080fd5b506101db610318366004610e69565b610791565b34801561032957600080fd5b5061033360055481565b604051908152602001610207565b34801561034d57600080fd5b506102b0600581565b34801561036257600080fd5b50600354610333565b34801561037757600080fd5b50610397610386366004610ec7565b63fffff9be63ffffffff9091161190565b6040519015158152602001610207565b3480156103b357600080fd5b5061033360035481565b3480156103c957600080fd5b5060045461027490600160a01b90046001600160401b031681565b6103976103f2366004610ee2565b610887565b34801561040357600080fd5b506101db610412366004610f23565b6108c0565b34801561042357600080fd5b506006546102b09062010000900463ffffffff1681565b34801561044657600080fd5b506102e5610455366004610f62565b6002602052600090815260409020546001600160a01b031681565b34801561047c57600080fd5b5060015461027490600160a01b90046001600160401b031681565b3480156104a357600080fd5b506102746108d0565b3480156104b857600080fd5b506004546102e5906001600160a01b031681565b3480156104d857600080fd5b506000546102e5906001600160a01b031681565b3480156104f857600080fd5b5061050c610507366004610f7d565b610913565b6040516102079190611001565b34801561052557600080fd5b506101db610534366004611034565b6000805463ffffffff909316600160a01b026001600160c01b03199093166001600160a01b03948516179290921790915560018054919092166001600160a01b031991909116179055565b34801561058b57600080fd5b5061033361059a366004610e31565b610945565b3480156105ab57600080fd5b506101f8600181565b3480156105c057600080fd5b5060408051600160f81b6020820152600560f81b602182015281518082036002018152602290910190915261050c565b3480156105fc57600080fd5b506006546102b0906601000000000000900463ffffffff1681565b34801561062357600080fd5b50610274610632366004610e31565b6109ba565b6000546001600160a01b031633146106965760405162461bcd60e51b815260206004820152601c60248201527f4f6e6c792066726f6d204c617965725a65726f20656e64706f696e740000000060448201526064015b60405180910390fd5b600054600160a01b900463ffffffff1661ffff8716146106f85760405162461bcd60e51b815260206004820152601760248201527f4e6f742066726f6d20417262697472756d20636861696e000000000000000000604482015260640161068d565b6000610704858761107d565b6001549091506001600160a01b038083169116146107645760405162461bcd60e51b815260206004820152601a60248201527f4e6f742066726f6d20617574686f72697a656420736f75726365000000000000604482015260640161068d565b6000808061077485870187610f23565b925092509250610785838383610ad7565b50505050505050505050565b6004805467ffffffffffffffff60a01b1916600160a01b6001600160401b038881169182029290921790925560058690556006805461ffff871665ffffffffffff1990911681176201000063ffffffff8881169182029290921771ffffffffffffffffffffffff0000000000001916660100000000000092881692830267ffffffffffffffff60501b191617600160501b429096169586021790935560408051958652602086018a90528501919091526060840191909152608083015260a08201527f445a4da439043a5740fbba31409cad3c4ec93020c2cece51a909875e696cda039060c00160405180910390a15050505050565b604051600090339082907ff09a63f9e06f8e96ec8e1be5bdfdb17d52cf919bcfe025e59cf8e5c0bd65d35a908290a35060015b92915050565b6108cb838383610ad7565b505050565b600154600090600160a01b90046001600160401b03166108f05750600090565b6001805461090e9190600160a01b90046001600160401b03166110b1565b905090565b60608484848460405160200161092c94939291906110d1565b6040516020818303038152906040529050949350505050565b600080805b6001546001600160401b03600160a01b909104811690821610156109b3576001600160401b0381166000908152600260205260409020546001600160a01b038086169116036109a1578161099d8161110e565b9250505b806109ab81611127565b91505061094a565b5092915050565b6004546000906001600160a01b03163314610a0f5760405162461bcd60e51b815260206004820152601560248201527413db9b1e481b1bdd1d195c9e4818dbdb9d1c9858dd605a1b604482015260640161068d565b60018054600091600160a01b9091046001600160401b0316906014610a3383611127565b82546101009290920a6001600160401b038181021990931691831602179091558116600090815260026020526040812080546001600160a01b0319166001600160a01b0387161790556003805492935090610a8d8361110e565b90915550506040516001600160a01b038416906001600160401b038316907ff09a63f9e06f8e96ec8e1be5bdfdb17d52cf919bcfe025e59cf8e5c0bd65d35a90600090a392915050565b6001600160401b0383166000908152600260205260409020546001600160a01b031680610b3b5760405162461bcd60e51b8152602060048201526012602482015271155b9adb9bdddb881c995c5d595cdd08125160721b604482015260640161068d565b826001600160a01b0316816001600160a01b031614610b8c5760405162461bcd60e51b815260206004820152600d60248201526c0aae6cae440dad2e6dac2e8c6d609b1b604482015260640161068d565b826001600160a01b0316846001600160401b03167f4aa9e0f248f6c96da29c00ab96c2d21ab4f40afb34d049557a56089bfb7c4bad84604051610bd191815260200190565b60405180910390a36004546001600160a01b031615610ce6576004546040516001600160401b0386166024820152604481018490526000916001600160a01b03169060640160408051601f198184030181529181526020820180516001600160e01b031663034ad12960e11b17905251610c4b919061114d565b6000604051808303816000865af19150503d8060008114610c88576040519150601f19603f3d011682016040523d82523d6000602084013e610c8d565b606091505b5050905080610ce457836001600160a01b0316856001600160401b03167fdbed2dec459d7d081bb7f458a7a9a865640acc283b6a0fc313e4856ea660a42585604051610cdb91815260200190565b60405180910390a35b505b5050506001600160401b0316600090815260026020526040902080546001600160a01b0319169055565b803561ffff81168114610d2257600080fd5b919050565b60008083601f840112610d3957600080fd5b5081356001600160401b03811115610d5057600080fd5b602083019150836020828501011115610d6857600080fd5b9250929050565b80356001600160401b0381168114610d2257600080fd5b60008060008060008060808789031215610d9f57600080fd5b610da887610d10565b955060208701356001600160401b0380821115610dc457600080fd5b610dd08a838b01610d27565b9097509550859150610de460408a01610d6f565b94506060890135915080821115610dfa57600080fd5b50610e0789828a01610d27565b979a9699509497509295939492505050565b6001600160a01b0381168114610e2e57600080fd5b50565b600060208284031215610e4357600080fd5b8135610e4e81610e19565b9392505050565b803563ffffffff81168114610d2257600080fd5b600080600080600060a08688031215610e8157600080fd5b610e8a86610d6f565b945060208601359350610e9f60408701610d10565b9250610ead60608701610e55565b9150610ebb60808701610e55565b90509295509295909350565b600060208284031215610ed957600080fd5b610e4e82610e55565b60008060208385031215610ef557600080fd5b82356001600160401b03811115610f0b57600080fd5b610f1785828601610d27565b90969095509350505050565b600080600060608486031215610f3857600080fd5b610f4184610d6f565b92506020840135610f5181610e19565b929592945050506040919091013590565b600060208284031215610f7457600080fd5b610e4e82610d6f565b60008060008060608587031215610f9357600080fd5b610f9c85610e55565b9350610faa60208601610d10565b925060408501356001600160401b03811115610fc557600080fd5b610fd187828801610d27565b95989497509550505050565b60005b83811015610ff8578181015183820152602001610fe0565b50506000910152565b6020815260008251806020840152611020816040850160208701610fdd565b601f01601f19169190910160400192915050565b60008060006060848603121561104957600080fd5b833561105481610e19565b925061106260208501610e55565b9150604084013561107281610e19565b809150509250925092565b803560208310156108ba57600019602084900360031b1b1692915050565b634e487b7160e01b600052601160045260246000fd5b6001600160401b038281168282160390808211156109b3576109b361109b565b60e085901b6001600160e01b031916815260f084901b6001600160f01b031916600482015281836006830137600091016006019081529392505050565b6000600182016111205761112061109b565b5060010190565b60006001600160401b038083168181036111435761114361109b565b6001019392505050565b6000825161115f818460208701610fdd565b919091019291505056fea2646970667358221220daf41f0bcd636346c43a8201e7d334c5085f54a2999b7271996fcfd72947308a64736f6c63430008140033","opcodes":"PUSH1 0x80 PUSH1 0x40 MSTORE CALLVALUE DUP1 ISZERO PUSH2 0x10 JUMPI PUSH1 0x0 DUP1 REVERT JUMPDEST POP PUSH2 0x119F DUP1 PUSH2 0x20 PUSH1 0x0 CODECOPY PUSH1 0x0 RETURN INVALID PUSH1 0x80 PUSH1 0x40 MSTORE PUSH1 0x4 CALLDATASIZE LT PUSH2 0x1B6 JUMPI PUSH1 0x0 CALLDATALOAD PUSH1 0xE0 SHR DUP1 PUSH4 0x8C1BDE26 GT PUSH2 0xEC JUMPI DUP1 PUSH4 0xBC70B354 GT PUSH2 0x8A JUMPI DUP1 PUSH4 0xC1BD92E3 GT PUSH2 0x64 JUMPI DUP1 PUSH4 0xC1BD92E3 EQ PUSH2 0x59F JUMPI DUP1 PUSH4 0xD97FF008 EQ PUSH2 0x5B4 JUMPI DUP1 PUSH4 0xE29814DE EQ PUSH2 0x5F0 JUMPI DUP1 PUSH4 0xEAD073C7 EQ PUSH2 0x617 JUMPI PUSH1 0x0 DUP1 REVERT JUMPDEST DUP1 PUSH4 0xBC70B354 EQ PUSH2 0x4EC JUMPI DUP1 PUSH4 0xC1554A4B EQ PUSH2 0x519 JUMPI DUP1 PUSH4 0xC166C458 EQ PUSH2 0x57F JUMPI PUSH1 0x0 DUP1 REVERT JUMPDEST DUP1 PUSH4 0xAFFED0E0 GT PUSH2 0xC6 JUMPI DUP1 PUSH4 0xAFFED0E0 EQ PUSH2 0x470 JUMPI DUP1 PUSH4 0xB190D8A3 EQ PUSH2 0x497 JUMPI DUP1 PUSH4 0xB29C662A EQ PUSH2 0x4AC JUMPI DUP1 PUSH4 0xB353AAA7 EQ PUSH2 0x4CC JUMPI PUSH1 0x0 DUP1 REVERT JUMPDEST DUP1 PUSH4 0x8C1BDE26 EQ PUSH2 0x3F7 JUMPI DUP1 PUSH4 0x8EB96891 EQ PUSH2 0x417 JUMPI DUP1 PUSH4 0x9F392C2B EQ PUSH2 0x43A JUMPI PUSH1 0x0 DUP1 REVERT JUMPDEST DUP1 PUSH4 0x3136ECA0 GT PUSH2 0x159 JUMPI DUP1 PUSH4 0x58EFCA04 GT PUSH2 0x133 JUMPI DUP1 PUSH4 0x58EFCA04 EQ PUSH2 0x36B JUMPI DUP1 PUSH4 0x5BADBE4C EQ PUSH2 0x3A7 JUMPI DUP1 PUSH4 0x6FF8FC68 EQ PUSH2 0x3BD JUMPI DUP1 PUSH4 0x77896890 EQ PUSH2 0x3E4 JUMPI PUSH1 0x0 DUP1 REVERT JUMPDEST DUP1 PUSH4 0x3136ECA0 EQ PUSH2 0x31D JUMPI DUP1 PUSH4 0x3859D937 EQ PUSH2 0x341 JUMPI DUP1 PUSH4 0x3FAD1834 EQ PUSH2 0x356 JUMPI PUSH1 0x0 DUP1 REVERT JUMPDEST DUP1 PUSH4 0x18184FE2 GT PUSH2 0x195 JUMPI DUP1 PUSH4 0x18184FE2 EQ PUSH2 0x24D JUMPI DUP1 PUSH4 0x1C61621E EQ PUSH2 0x28C JUMPI DUP1 PUSH4 0x263DE2B5 EQ PUSH2 0x2C5 JUMPI DUP1 PUSH4 0x28455E00 EQ PUSH2 0x2FD JUMPI PUSH1 0x0 DUP1 REVERT JUMPDEST DUP1 PUSH3 0x1D3567 EQ PUSH2 0x1BB JUMPI DUP1 PUSH4 0x6D7E8DB EQ PUSH2 0x1DD JUMPI DUP1 PUSH4 0x1590A04F EQ PUSH2 0x210 JUMPI JUMPDEST PUSH1 0x0 DUP1 REVERT JUMPDEST CALLVALUE DUP1 ISZERO PUSH2 0x1C7 JUMPI PUSH1 0x0 DUP1 REVERT JUMPDEST POP PUSH2 0x1DB PUSH2 0x1D6 CALLDATASIZE PUSH1 0x4 PUSH2 0xD86 JUMP JUMPDEST PUSH2 0x637 JUMP JUMPDEST STOP JUMPDEST CALLVALUE DUP1 ISZERO PUSH2 0x1E9 JUMPI PUSH1 0x0 DUP1 REVERT JUMPDEST POP PUSH1 0x6 SLOAD PUSH2 0x1F8 SWAP1 PUSH2 0xFFFF AND DUP2 JUMP JUMPDEST PUSH1 0x40 MLOAD PUSH2 0xFFFF SWAP1 SWAP2 AND DUP2 MSTORE PUSH1 0x20 ADD JUMPDEST PUSH1 0x40 MLOAD DUP1 SWAP2 SUB SWAP1 RETURN JUMPDEST CALLVALUE DUP1 ISZERO PUSH2 0x21C JUMPI PUSH1 0x0 DUP1 REVERT JUMPDEST POP PUSH2 0x1DB PUSH2 0x22B CALLDATASIZE PUSH1 0x4 PUSH2 0xE31 JUMP JUMPDEST PUSH1 0x4 DUP1 SLOAD PUSH1 0x1 PUSH1 0x1 PUSH1 0xA0 SHL SUB NOT AND PUSH1 0x1 PUSH1 0x1 PUSH1 0xA0 SHL SUB SWAP3 SWAP1 SWAP3 AND SWAP2 SWAP1 SWAP2 OR SWAP1 SSTORE JUMP JUMPDEST CALLVALUE DUP1 ISZERO PUSH2 0x259 JUMPI PUSH1 0x0 DUP1 REVERT JUMPDEST POP PUSH1 0x6 SLOAD PUSH2 0x274 SWAP1 PUSH1 0x1 PUSH1 0x50 SHL SWAP1 DIV PUSH1 0x1 PUSH1 0x1 PUSH1 0x40 SHL SUB AND DUP2 JUMP JUMPDEST PUSH1 0x40 MLOAD PUSH1 0x1 PUSH1 0x1 PUSH1 0x40 SHL SUB SWAP1 SWAP2 AND DUP2 MSTORE PUSH1 0x20 ADD PUSH2 0x207 JUMP JUMPDEST CALLVALUE DUP1 ISZERO PUSH2 0x298 JUMPI PUSH1 0x0 DUP1 REVERT JUMPDEST POP PUSH1 0x0 SLOAD PUSH2 0x2B0 SWAP1 PUSH1 0x1 PUSH1 0xA0 SHL SWAP1 DIV PUSH4 0xFFFFFFFF AND DUP2 JUMP JUMPDEST PUSH1 0x40 MLOAD PUSH4 0xFFFFFFFF SWAP1 SWAP2 AND DUP2 MSTORE PUSH1 0x20 ADD PUSH2 0x207 JUMP JUMPDEST CALLVALUE DUP1 ISZERO PUSH2 0x2D1 JUMPI PUSH1 0x0 DUP1 REVERT JUMPDEST POP PUSH1 0x1 SLOAD PUSH2 0x2E5 SWAP1 PUSH1 0x1 PUSH1 0x1 PUSH1 0xA0 SHL SUB AND DUP2 JUMP JUMPDEST PUSH1 0x40 MLOAD PUSH1 0x1 PUSH1 0x1 PUSH1 0xA0 SHL SUB SWAP1 SWAP2 AND DUP2 MSTORE PUSH1 0x20 ADD PUSH2 0x207 JUMP JUMPDEST CALLVALUE DUP1 ISZERO PUSH2 0x309 JUMPI PUSH1 0x0 DUP1 REVERT JUMPDEST POP PUSH2 0x1DB PUSH2 0x318 CALLDATASIZE PUSH1 0x4 PUSH2 0xE69 JUMP JUMPDEST PUSH2 0x791 JUMP JUMPDEST CALLVALUE DUP1 ISZERO PUSH2 0x329 JUMPI PUSH1 0x0 DUP1 REVERT JUMPDEST POP PUSH2 0x333 PUSH1 0x5 SLOAD DUP2 JUMP JUMPDEST PUSH1 0x40 MLOAD SWAP1 DUP2 MSTORE PUSH1 0x20 ADD PUSH2 0x207 JUMP JUMPDEST CALLVALUE DUP1 ISZERO PUSH2 0x34D JUMPI PUSH1 0x0 DUP1 REVERT JUMPDEST POP PUSH2 0x2B0 PUSH1 0x5 DUP2 JUMP JUMPDEST CALLVALUE DUP1 ISZERO PUSH2 0x362 JUMPI PUSH1 0x0 DUP1 REVERT JUMPDEST POP PUSH1 0x3 SLOAD PUSH2 0x333 JUMP JUMPDEST CALLVALUE DUP1 ISZERO PUSH2 0x377 JUMPI PUSH1 0x0 DUP1 REVERT JUMPDEST POP PUSH2 0x397 PUSH2 0x386 CALLDATASIZE PUSH1 0x4 PUSH2 0xEC7 JUMP JUMPDEST PUSH4 0xFFFFF9BE PUSH4 0xFFFFFFFF SWAP1 SWAP2 AND GT SWAP1 JUMP JUMPDEST PUSH1 0x40 MLOAD SWAP1 ISZERO ISZERO DUP2 MSTORE PUSH1 0x20 ADD PUSH2 0x207 JUMP JUMPDEST CALLVALUE DUP1 ISZERO PUSH2 0x3B3 JUMPI PUSH1 0x0 DUP1 REVERT JUMPDEST POP PUSH2 0x333 PUSH1 0x3 SLOAD DUP2 JUMP JUMPDEST CALLVALUE DUP1 ISZERO PUSH2 0x3C9 JUMPI PUSH1 0x0 DUP1 REVERT JUMPDEST POP PUSH1 0x4 SLOAD PUSH2 0x274 SWAP1 PUSH1 0x1 PUSH1 0xA0 SHL SWAP1 DIV PUSH1 0x1 PUSH1 0x1 PUSH1 0x40 SHL SUB AND DUP2 JUMP JUMPDEST PUSH2 0x397 PUSH2 0x3F2 CALLDATASIZE PUSH1 0x4 PUSH2 0xEE2 JUMP JUMPDEST PUSH2 0x887 JUMP JUMPDEST CALLVALUE DUP1 ISZERO PUSH2 0x403 JUMPI PUSH1 0x0 DUP1 REVERT JUMPDEST POP PUSH2 0x1DB PUSH2 0x412 CALLDATASIZE PUSH1 0x4 PUSH2 0xF23 JUMP JUMPDEST PUSH2 0x8C0 JUMP JUMPDEST CALLVALUE DUP1 ISZERO PUSH2 0x423 JUMPI PUSH1 0x0 DUP1 REVERT JUMPDEST POP PUSH1 0x6 SLOAD PUSH2 0x2B0 SWAP1 PUSH3 0x10000 SWAP1 DIV PUSH4 0xFFFFFFFF AND DUP2 JUMP JUMPDEST CALLVALUE DUP1 ISZERO PUSH2 0x446 JUMPI PUSH1 0x0 DUP1 REVERT JUMPDEST POP PUSH2 0x2E5 PUSH2 0x455 CALLDATASIZE PUSH1 0x4 PUSH2 0xF62 JUMP JUMPDEST PUSH1 0x2 PUSH1 0x20 MSTORE PUSH1 0x0 SWAP1 DUP2 MSTORE PUSH1 0x40 SWAP1 KECCAK256 SLOAD PUSH1 0x1 PUSH1 0x1 PUSH1 0xA0 SHL SUB AND DUP2 JUMP JUMPDEST CALLVALUE DUP1 ISZERO PUSH2 0x47C JUMPI PUSH1 0x0 DUP1 REVERT JUMPDEST POP PUSH1 0x1 SLOAD PUSH2 0x274 SWAP1 PUSH1 0x1 PUSH1 0xA0 SHL SWAP1 DIV PUSH1 0x1 PUSH1 0x1 PUSH1 0x40 SHL SUB AND DUP2 JUMP JUMPDEST CALLVALUE DUP1 ISZERO PUSH2 0x4A3 JUMPI PUSH1 0x0 DUP1 REVERT JUMPDEST POP PUSH2 0x274 PUSH2 0x8D0 JUMP JUMPDEST CALLVALUE DUP1 ISZERO PUSH2 0x4B8 JUMPI PUSH1 0x0 DUP1 REVERT JUMPDEST POP PUSH1 0x4 SLOAD PUSH2 0x2E5 SWAP1 PUSH1 0x1 PUSH1 0x1 PUSH1 0xA0 SHL SUB AND DUP2 JUMP JUMPDEST CALLVALUE DUP1 ISZERO PUSH2 0x4D8 JUMPI PUSH1 0x0 DUP1 REVERT JUMPDEST POP PUSH1 0x0 SLOAD PUSH2 0x2E5 SWAP1 PUSH1 0x1 PUSH1 0x1 PUSH1 0xA0 SHL SUB AND DUP2 JUMP JUMPDEST CALLVALUE DUP1 ISZERO PUSH2 0x4F8 JUMPI PUSH1 0x0 DUP1 REVERT JUMPDEST POP PUSH2 0x50C PUSH2 0x507 CALLDATASIZE PUSH1 0x4 PUSH2 0xF7D JUMP JUMPDEST PUSH2 0x913 JUMP JUMPDEST PUSH1 0x40 MLOAD PUSH2 0x207 SWAP2 SWAP1 PUSH2 0x1001 JUMP JUMPDEST CALLVALUE DUP1 ISZERO PUSH2 0x525 JUMPI PUSH1 0x0 DUP1 REVERT JUMPDEST POP PUSH2 0x1DB PUSH2 0x534 CALLDATASIZE PUSH1 0x4 PUSH2 0x1034 JUMP JUMPDEST PUSH1 0x0 DUP1 SLOAD PUSH4 0xFFFFFFFF SWAP1 SWAP4 AND PUSH1 0x1 PUSH1 0xA0 SHL MUL PUSH1 0x1 PUSH1 0x1 PUSH1 0xC0 SHL SUB NOT SWAP1 SWAP4 AND PUSH1 0x1 PUSH1 0x1 PUSH1 0xA0 SHL SUB SWAP5 DUP6 AND OR SWAP3 SWAP1 SWAP3 OR SWAP1 SWAP2 SSTORE PUSH1 0x1 DUP1 SLOAD SWAP2 SWAP1 SWAP3 AND PUSH1 0x1 PUSH1 0x1 PUSH1 0xA0 SHL SUB NOT SWAP2 SWAP1 SWAP2 AND OR SWAP1 SSTORE JUMP JUMPDEST CALLVALUE DUP1 ISZERO PUSH2 0x58B JUMPI PUSH1 0x0 DUP1 REVERT JUMPDEST POP PUSH2 0x333 PUSH2 0x59A CALLDATASIZE PUSH1 0x4 PUSH2 0xE31 JUMP JUMPDEST PUSH2 0x945 JUMP JUMPDEST CALLVALUE DUP1 ISZERO PUSH2 0x5AB JUMPI PUSH1 0x0 DUP1 REVERT JUMPDEST POP PUSH2 0x1F8 PUSH1 0x1 DUP2 JUMP JUMPDEST CALLVALUE DUP1 ISZERO PUSH2 0x5C0 JUMPI PUSH1 0x0 DUP1 REVERT JUMPDEST POP PUSH1 0x40 DUP1 MLOAD PUSH1 0x1 PUSH1 0xF8 SHL PUSH1 0x20 DUP3 ADD MSTORE PUSH1 0x5 PUSH1 0xF8 SHL PUSH1 0x21 DUP3 ADD MSTORE DUP2 MLOAD DUP1 DUP3 SUB PUSH1 0x2 ADD DUP2 MSTORE PUSH1 0x22 SWAP1 SWAP2 ADD SWAP1 SWAP2 MSTORE PUSH2 0x50C JUMP JUMPDEST CALLVALUE DUP1 ISZERO PUSH2 0x5FC JUMPI PUSH1 0x0 DUP1 REVERT JUMPDEST POP PUSH1 0x6 SLOAD PUSH2 0x2B0 SWAP1 PUSH7 0x1000000000000 SWAP1 DIV PUSH4 0xFFFFFFFF AND DUP2 JUMP JUMPDEST CALLVALUE DUP1 ISZERO PUSH2 0x623 JUMPI PUSH1 0x0 DUP1 REVERT JUMPDEST POP PUSH2 0x274 PUSH2 0x632 CALLDATASIZE PUSH1 0x4 PUSH2 0xE31 JUMP JUMPDEST PUSH2 0x9BA JUMP JUMPDEST PUSH1 0x0 SLOAD PUSH1 0x1 PUSH1 0x1 PUSH1 0xA0 SHL SUB AND CALLER EQ PUSH2 0x696 JUMPI PUSH1 0x40 MLOAD PUSH3 0x461BCD PUSH1 0xE5 SHL DUP2 MSTORE PUSH1 0x20 PUSH1 0x4 DUP3 ADD MSTORE PUSH1 0x1C PUSH1 0x24 DUP3 ADD MSTORE PUSH32 0x4F6E6C792066726F6D204C617965725A65726F20656E64706F696E7400000000 PUSH1 0x44 DUP3 ADD MSTORE PUSH1 0x64 ADD JUMPDEST PUSH1 0x40 MLOAD DUP1 SWAP2 SUB SWAP1 REVERT JUMPDEST PUSH1 0x0 SLOAD PUSH1 0x1 PUSH1 0xA0 SHL SWAP1 DIV PUSH4 0xFFFFFFFF AND PUSH2 0xFFFF DUP8 AND EQ PUSH2 0x6F8 JUMPI PUSH1 0x40 MLOAD PUSH3 0x461BCD PUSH1 0xE5 SHL DUP2 MSTORE PUSH1 0x20 PUSH1 0x4 DUP3 ADD MSTORE PUSH1 0x17 PUSH1 0x24 DUP3 ADD MSTORE PUSH32 0x4E6F742066726F6D20417262697472756D20636861696E000000000000000000 PUSH1 0x44 DUP3 ADD MSTORE PUSH1 0x64 ADD PUSH2 0x68D JUMP JUMPDEST PUSH1 0x0 PUSH2 0x704 DUP6 DUP8 PUSH2 0x107D JUMP JUMPDEST PUSH1 0x1 SLOAD SWAP1 SWAP2 POP PUSH1 0x1 PUSH1 0x1 PUSH1 0xA0 SHL SUB DUP1 DUP4 AND SWAP2 AND EQ PUSH2 0x764 JUMPI PUSH1 0x40 MLOAD PUSH3 0x461BCD PUSH1 0xE5 SHL DUP2 MSTORE PUSH1 0x20 PUSH1 0x4 DUP3 ADD MSTORE PUSH1 0x1A PUSH1 0x24 DUP3 ADD MSTORE PUSH32 0x4E6F742066726F6D20617574686F72697A656420736F75726365000000000000 PUSH1 0x44 DUP3 ADD MSTORE PUSH1 0x64 ADD PUSH2 0x68D JUMP JUMPDEST PUSH1 0x0 DUP1 DUP1 PUSH2 0x774 DUP6 DUP8 ADD DUP8 PUSH2 0xF23 JUMP JUMPDEST SWAP3 POP SWAP3 POP SWAP3 POP PUSH2 0x785 DUP4 DUP4 DUP4 PUSH2 0xAD7 JUMP JUMPDEST POP POP POP POP POP POP POP POP POP POP JUMP JUMPDEST PUSH1 0x4 DUP1 SLOAD PUSH8 0xFFFFFFFFFFFFFFFF PUSH1 0xA0 SHL NOT AND PUSH1 0x1 PUSH1 0xA0 SHL PUSH1 0x1 PUSH1 0x1 PUSH1 0x40 SHL SUB DUP9 DUP2 AND SWAP2 DUP3 MUL SWAP3 SWAP1 SWAP3 OR SWAP1 SWAP3 SSTORE PUSH1 0x5 DUP7 SWAP1 SSTORE PUSH1 0x6 DUP1 SLOAD PUSH2 0xFFFF DUP8 AND PUSH6 0xFFFFFFFFFFFF NOT SWAP1 SWAP2 AND DUP2 OR PUSH3 0x10000 PUSH4 0xFFFFFFFF DUP9 DUP2 AND SWAP2 DUP3 MUL SWAP3 SWAP1 SWAP3 OR PUSH18 0xFFFFFFFFFFFFFFFFFFFFFFFF000000000000 NOT AND PUSH7 0x1000000000000 SWAP3 DUP9 AND SWAP3 DUP4 MUL PUSH8 0xFFFFFFFFFFFFFFFF PUSH1 0x50 SHL NOT AND OR PUSH1 0x1 PUSH1 0x50 SHL TIMESTAMP SWAP1 SWAP7 AND SWAP6 DUP7 MUL OR SWAP1 SWAP4 SSTORE PUSH1 0x40 DUP1 MLOAD SWAP6 DUP7 MSTORE PUSH1 0x20 DUP7 ADD DUP11 SWAP1 MSTORE DUP6 ADD SWAP2 SWAP1 SWAP2 MSTORE PUSH1 0x60 DUP5 ADD SWAP2 SWAP1 SWAP2 MSTORE PUSH1 0x80 DUP4 ADD MSTORE PUSH1 0xA0 DUP3 ADD MSTORE PUSH32 0x445A4DA439043A5740FBBA31409CAD3C4EC93020C2CECE51A909875E696CDA03 SWAP1 PUSH1 0xC0 ADD PUSH1 0x40 MLOAD DUP1 SWAP2 SUB SWAP1 LOG1 POP POP POP POP POP JUMP JUMPDEST PUSH1 0x40 MLOAD PUSH1 0x0 SWAP1 CALLER SWAP1 DUP3 SWAP1 PUSH32 0xF09A63F9E06F8E96EC8E1BE5BDFDB17D52CF919BCFE025E59CF8E5C0BD65D35A SWAP1 DUP3 SWAP1 LOG3 POP PUSH1 0x1 JUMPDEST SWAP3 SWAP2 POP POP JUMP JUMPDEST PUSH2 0x8CB DUP4 DUP4 DUP4 PUSH2 0xAD7 JUMP JUMPDEST POP POP POP JUMP JUMPDEST PUSH1 0x1 SLOAD PUSH1 0x0 SWAP1 PUSH1 0x1 PUSH1 0xA0 SHL SWAP1 DIV PUSH1 0x1 PUSH1 0x1 PUSH1 0x40 SHL SUB AND PUSH2 0x8F0 JUMPI POP PUSH1 0x0 SWAP1 JUMP JUMPDEST PUSH1 0x1 DUP1 SLOAD PUSH2 0x90E SWAP2 SWAP1 PUSH1 0x1 PUSH1 0xA0 SHL SWAP1 DIV PUSH1 0x1 PUSH1 0x1 PUSH1 0x40 SHL SUB AND PUSH2 0x10B1 JUMP JUMPDEST SWAP1 POP SWAP1 JUMP JUMPDEST PUSH1 0x60 DUP5 DUP5 DUP5 DUP5 PUSH1 0x40 MLOAD PUSH1 0x20 ADD PUSH2 0x92C SWAP5 SWAP4 SWAP3 SWAP2 SWAP1 PUSH2 0x10D1 JUMP JUMPDEST PUSH1 0x40 MLOAD PUSH1 0x20 DUP2 DUP4 SUB SUB DUP2 MSTORE SWAP1 PUSH1 0x40 MSTORE SWAP1 POP SWAP5 SWAP4 POP POP POP POP JUMP JUMPDEST PUSH1 0x0 DUP1 DUP1 JUMPDEST PUSH1 0x1 SLOAD PUSH1 0x1 PUSH1 0x1 PUSH1 0x40 SHL SUB PUSH1 0x1 PUSH1 0xA0 SHL SWAP1 SWAP2 DIV DUP2 AND SWAP1 DUP3 AND LT ISZERO PUSH2 0x9B3 JUMPI PUSH1 0x1 PUSH1 0x1 PUSH1 0x40 SHL SUB DUP2 AND PUSH1 0x0 SWAP1 DUP2 MSTORE PUSH1 0x2 PUSH1 0x20 MSTORE PUSH1 0x40 SWAP1 KECCAK256 SLOAD PUSH1 0x1 PUSH1 0x1 PUSH1 0xA0 SHL SUB DUP1 DUP7 AND SWAP2 AND SUB PUSH2 0x9A1 JUMPI DUP2 PUSH2 0x99D DUP2 PUSH2 0x110E JUMP JUMPDEST SWAP3 POP POP JUMPDEST DUP1 PUSH2 0x9AB DUP2 PUSH2 0x1127 JUMP JUMPDEST SWAP2 POP POP PUSH2 0x94A JUMP JUMPDEST POP SWAP3 SWAP2 POP POP JUMP JUMPDEST PUSH1 0x4 SLOAD PUSH1 0x0 SWAP1 PUSH1 0x1 PUSH1 0x1 PUSH1 0xA0 SHL SUB AND CALLER EQ PUSH2 0xA0F JUMPI PUSH1 0x40 MLOAD PUSH3 0x461BCD PUSH1 0xE5 SHL DUP2 MSTORE PUSH1 0x20 PUSH1 0x4 DUP3 ADD MSTORE PUSH1 0x15 PUSH1 0x24 DUP3 ADD MSTORE PUSH21 0x13DB9B1E481B1BDD1D195C9E4818DBDB9D1C9858DD PUSH1 0x5A SHL PUSH1 0x44 DUP3 ADD MSTORE PUSH1 0x64 ADD PUSH2 0x68D JUMP JUMPDEST PUSH1 0x1 DUP1 SLOAD PUSH1 0x0 SWAP2 PUSH1 0x1 PUSH1 0xA0 SHL SWAP1 SWAP2 DIV PUSH1 0x1 PUSH1 0x1 PUSH1 0x40 SHL SUB AND SWAP1 PUSH1 0x14 PUSH2 0xA33 DUP4 PUSH2 0x1127 JUMP JUMPDEST DUP3 SLOAD PUSH2 0x100 SWAP3 SWAP1 SWAP3 EXP PUSH1 0x1 PUSH1 0x1 PUSH1 0x40 SHL SUB DUP2 DUP2 MUL NOT SWAP1 SWAP4 AND SWAP2 DUP4 AND MUL OR SWAP1 SWAP2 SSTORE DUP2 AND PUSH1 0x0 SWAP1 DUP2 MSTORE PUSH1 0x2 PUSH1 0x20 MSTORE PUSH1 0x40 DUP2 KECCAK256 DUP1 SLOAD PUSH1 0x1 PUSH1 0x1 PUSH1 0xA0 SHL SUB NOT AND PUSH1 0x1 PUSH1 0x1 PUSH1 0xA0 SHL SUB DUP8 AND OR SWAP1 SSTORE PUSH1 0x3 DUP1 SLOAD SWAP3 SWAP4 POP SWAP1 PUSH2 0xA8D DUP4 PUSH2 0x110E JUMP JUMPDEST SWAP1 SWAP2 SSTORE POP POP PUSH1 0x40 MLOAD PUSH1 0x1 PUSH1 0x1 PUSH1 0xA0 SHL SUB DUP5 AND SWAP1 PUSH1 0x1 PUSH1 0x1 PUSH1 0x40 SHL SUB DUP4 AND SWAP1 PUSH32 0xF09A63F9E06F8E96EC8E1BE5BDFDB17D52CF919BCFE025E59CF8E5C0BD65D35A SWAP1 PUSH1 0x0 SWAP1 LOG3 SWAP3 SWAP2 POP POP JUMP JUMPDEST PUSH1 0x1 PUSH1 0x1 PUSH1 0x40 SHL SUB DUP4 AND PUSH1 0x0 SWAP1 DUP2 MSTORE PUSH1 0x2 PUSH1 0x20 MSTORE PUSH1 0x40 SWAP1 KECCAK256 SLOAD PUSH1 0x1 PUSH1 0x1 PUSH1 0xA0 SHL SUB AND DUP1 PUSH2 0xB3B JUMPI PUSH1 0x40 MLOAD PUSH3 0x461BCD PUSH1 0xE5 SHL DUP2 MSTORE PUSH1 0x20 PUSH1 0x4 DUP3 ADD MSTORE PUSH1 0x12 PUSH1 0x24 DUP3 ADD MSTORE PUSH18 0x155B9ADB9BDDDB881C995C5D595CDD081251 PUSH1 0x72 SHL PUSH1 0x44 DUP3 ADD MSTORE PUSH1 0x64 ADD PUSH2 0x68D JUMP JUMPDEST DUP3 PUSH1 0x1 PUSH1 0x1 PUSH1 0xA0 SHL SUB AND DUP2 PUSH1 0x1 PUSH1 0x1 PUSH1 0xA0 SHL SUB AND EQ PUSH2 0xB8C JUMPI PUSH1 0x40 MLOAD PUSH3 0x461BCD PUSH1 0xE5 SHL DUP2 MSTORE PUSH1 0x20 PUSH1 0x4 DUP3 ADD MSTORE PUSH1 0xD PUSH1 0x24 DUP3 ADD MSTORE PUSH13 0xAAE6CAE440DAD2E6DAC2E8C6D PUSH1 0x9B SHL PUSH1 0x44 DUP3 ADD MSTORE PUSH1 0x64 ADD PUSH2 0x68D JUMP JUMPDEST DUP3 PUSH1 0x1 PUSH1 0x1 PUSH1 0xA0 SHL SUB AND DUP5 PUSH1 0x1 PUSH1 0x1 PUSH1 0x40 SHL SUB AND PUSH32 0x4AA9E0F248F6C96DA29C00AB96C2D21AB4F40AFB34D049557A56089BFB7C4BAD DUP5 PUSH1 0x40 MLOAD PUSH2 0xBD1 SWAP2 DUP2 MSTORE PUSH1 0x20 ADD SWAP1 JUMP JUMPDEST PUSH1 0x40 MLOAD DUP1 SWAP2 SUB SWAP1 LOG3 PUSH1 0x4 SLOAD PUSH1 0x1 PUSH1 0x1 PUSH1 0xA0 SHL SUB AND ISZERO PUSH2 0xCE6 JUMPI PUSH1 0x4 SLOAD PUSH1 0x40 MLOAD PUSH1 0x1 PUSH1 0x1 PUSH1 0x40 SHL SUB DUP7 AND PUSH1 0x24 DUP3 ADD MSTORE PUSH1 0x44 DUP2 ADD DUP5 SWAP1 MSTORE PUSH1 0x0 SWAP2 PUSH1 0x1 PUSH1 0x1 PUSH1 0xA0 SHL SUB AND SWAP1 PUSH1 0x64 ADD PUSH1 0x40 DUP1 MLOAD PUSH1 0x1F NOT DUP2 DUP5 SUB ADD DUP2 MSTORE SWAP2 DUP2 MSTORE PUSH1 0x20 DUP3 ADD DUP1 MLOAD PUSH1 0x1 PUSH1 0x1 PUSH1 0xE0 SHL SUB AND PUSH4 0x34AD129 PUSH1 0xE1 SHL OR SWAP1 MSTORE MLOAD PUSH2 0xC4B SWAP2 SWAP1 PUSH2 0x114D JUMP JUMPDEST PUSH1 0x0 PUSH1 0x40 MLOAD DUP1 DUP4 SUB DUP2 PUSH1 0x0 DUP7 GAS CALL SWAP2 POP POP RETURNDATASIZE DUP1 PUSH1 0x0 DUP2 EQ PUSH2 0xC88 JUMPI PUSH1 0x40 MLOAD SWAP2 POP PUSH1 0x1F NOT PUSH1 0x3F RETURNDATASIZE ADD AND DUP3 ADD PUSH1 0x40 MSTORE RETURNDATASIZE DUP3 MSTORE RETURNDATASIZE PUSH1 0x0 PUSH1 0x20 DUP5 ADD RETURNDATACOPY PUSH2 0xC8D JUMP JUMPDEST PUSH1 0x60 SWAP2 POP JUMPDEST POP POP SWAP1 POP DUP1 PUSH2 0xCE4 JUMPI DUP4 PUSH1 0x1 PUSH1 0x1 PUSH1 0xA0 SHL SUB AND DUP6 PUSH1 0x1 PUSH1 0x1 PUSH1 0x40 SHL SUB AND PUSH32 0xDBED2DEC459D7D081BB7F458A7A9A865640ACC283B6A0FC313E4856EA660A425 DUP6 PUSH1 0x40 MLOAD PUSH2 0xCDB SWAP2 DUP2 MSTORE PUSH1 0x20 ADD SWAP1 JUMP JUMPDEST PUSH1 0x40 MLOAD DUP1 SWAP2 SUB SWAP1 LOG3 JUMPDEST POP JUMPDEST POP POP POP PUSH1 0x1 PUSH1 0x1 PUSH1 0x40 SHL SUB AND PUSH1 0x0 SWAP1 DUP2 MSTORE PUSH1 0x2 PUSH1 0x20 MSTORE PUSH1 0x40 SWAP1 KECCAK256 DUP1 SLOAD PUSH1 0x1 PUSH1 0x1 PUSH1 0xA0 SHL SUB NOT AND SWAP1 SSTORE JUMP JUMPDEST DUP1 CALLDATALOAD PUSH2 0xFFFF DUP2 AND DUP2 EQ PUSH2 0xD22 JUMPI PUSH1 0x0 DUP1 REVERT JUMPDEST SWAP2 SWAP1 POP JUMP JUMPDEST PUSH1 0x0 DUP1 DUP4 PUSH1 0x1F DUP5 ADD SLT PUSH2 0xD39 JUMPI PUSH1 0x0 DUP1 REVERT JUMPDEST POP DUP2 CALLDATALOAD PUSH1 0x1 PUSH1 0x1 PUSH1 0x40 SHL SUB DUP2 GT ISZERO PUSH2 0xD50 JUMPI PUSH1 0x0 DUP1 REVERT JUMPDEST PUSH1 0x20 DUP4 ADD SWAP2 POP DUP4 PUSH1 0x20 DUP3 DUP6 ADD ADD GT ISZERO PUSH2 0xD68 JUMPI PUSH1 0x0 DUP1 REVERT JUMPDEST SWAP3 POP SWAP3 SWAP1 POP JUMP JUMPDEST DUP1 CALLDATALOAD PUSH1 0x1 PUSH1 0x1 PUSH1 0x40 SHL SUB DUP2 AND DUP2 EQ PUSH2 0xD22 JUMPI PUSH1 0x0 DUP1 REVERT JUMPDEST PUSH1 0x0 DUP1 PUSH1 0x0 DUP1 PUSH1 0x0 DUP1 PUSH1 0x80 DUP8 DUP10 SUB SLT ISZERO PUSH2 0xD9F JUMPI PUSH1 0x0 DUP1 REVERT JUMPDEST PUSH2 0xDA8 DUP8 PUSH2 0xD10 JUMP JUMPDEST SWAP6 POP PUSH1 0x20 DUP8 ADD CALLDATALOAD PUSH1 0x1 PUSH1 0x1 PUSH1 0x40 SHL SUB DUP1 DUP3 GT ISZERO PUSH2 0xDC4 JUMPI PUSH1 0x0 DUP1 REVERT JUMPDEST PUSH2 0xDD0 DUP11 DUP4 DUP12 ADD PUSH2 0xD27 JUMP JUMPDEST SWAP1 SWAP8 POP SWAP6 POP DUP6 SWAP2 POP PUSH2 0xDE4 PUSH1 0x40 DUP11 ADD PUSH2 0xD6F JUMP JUMPDEST SWAP5 POP PUSH1 0x60 DUP10 ADD CALLDATALOAD SWAP2 POP DUP1 DUP3 GT ISZERO PUSH2 0xDFA JUMPI PUSH1 0x0 DUP1 REVERT JUMPDEST POP PUSH2 0xE07 DUP10 DUP3 DUP11 ADD PUSH2 0xD27 JUMP JUMPDEST SWAP8 SWAP11 SWAP7 SWAP10 POP SWAP5 SWAP8 POP SWAP3 SWAP6 SWAP4 SWAP5 SWAP3 POP POP POP JUMP JUMPDEST PUSH1 0x1 PUSH1 0x1 PUSH1 0xA0 SHL SUB DUP2 AND DUP2 EQ PUSH2 0xE2E JUMPI PUSH1 0x0 DUP1 REVERT JUMPDEST POP JUMP JUMPDEST PUSH1 0x0 PUSH1 0x20 DUP3 DUP5 SUB SLT ISZERO PUSH2 0xE43 JUMPI PUSH1 0x0 DUP1 REVERT JUMPDEST DUP2 CALLDATALOAD PUSH2 0xE4E DUP2 PUSH2 0xE19 JUMP JUMPDEST SWAP4 SWAP3 POP POP POP JUMP JUMPDEST DUP1 CALLDATALOAD PUSH4 0xFFFFFFFF DUP2 AND DUP2 EQ PUSH2 0xD22 JUMPI PUSH1 0x0 DUP1 REVERT JUMPDEST PUSH1 0x0 DUP1 PUSH1 0x0 DUP1 PUSH1 0x0 PUSH1 0xA0 DUP7 DUP9 SUB SLT ISZERO PUSH2 0xE81 JUMPI PUSH1 0x0 DUP1 REVERT JUMPDEST PUSH2 0xE8A DUP7 PUSH2 0xD6F JUMP JUMPDEST SWAP5 POP PUSH1 0x20 DUP7 ADD CALLDATALOAD SWAP4 POP PUSH2 0xE9F PUSH1 0x40 DUP8 ADD PUSH2 0xD10 JUMP JUMPDEST SWAP3 POP PUSH2 0xEAD PUSH1 0x60 DUP8 ADD PUSH2 0xE55 JUMP JUMPDEST SWAP2 POP PUSH2 0xEBB PUSH1 0x80 DUP8 ADD PUSH2 0xE55 JUMP JUMPDEST SWAP1 POP SWAP3 SWAP6 POP SWAP3 SWAP6 SWAP1 SWAP4 POP JUMP JUMPDEST PUSH1 0x0 PUSH1 0x20 DUP3 DUP5 SUB SLT ISZERO PUSH2 0xED9 JUMPI PUSH1 0x0 DUP1 REVERT JUMPDEST PUSH2 0xE4E DUP3 PUSH2 0xE55 JUMP JUMPDEST PUSH1 0x0 DUP1 PUSH1 0x20 DUP4 DUP6 SUB SLT ISZERO PUSH2 0xEF5 JUMPI PUSH1 0x0 DUP1 REVERT JUMPDEST DUP3 CALLDATALOAD PUSH1 0x1 PUSH1 0x1 PUSH1 0x40 SHL SUB DUP2 GT ISZERO PUSH2 0xF0B JUMPI PUSH1 0x0 DUP1 REVERT JUMPDEST PUSH2 0xF17 DUP6 DUP3 DUP7 ADD PUSH2 0xD27 JUMP JUMPDEST SWAP1 SWAP7 SWAP1 SWAP6 POP SWAP4 POP POP POP POP JUMP JUMPDEST PUSH1 0x0 DUP1 PUSH1 0x0 PUSH1 0x60 DUP5 DUP7 SUB SLT ISZERO PUSH2 0xF38 JUMPI PUSH1 0x0 DUP1 REVERT JUMPDEST PUSH2 0xF41 DUP5 PUSH2 0xD6F JUMP JUMPDEST SWAP3 POP PUSH1 0x20 DUP5 ADD CALLDATALOAD PUSH2 0xF51 DUP2 PUSH2 0xE19 JUMP JUMPDEST SWAP3 SWAP6 SWAP3 SWAP5 POP POP POP PUSH1 0x40 SWAP2 SWAP1 SWAP2 ADD CALLDATALOAD SWAP1 JUMP JUMPDEST PUSH1 0x0 PUSH1 0x20 DUP3 DUP5 SUB SLT ISZERO PUSH2 0xF74 JUMPI PUSH1 0x0 DUP1 REVERT JUMPDEST PUSH2 0xE4E DUP3 PUSH2 0xD6F JUMP JUMPDEST PUSH1 0x0 DUP1 PUSH1 0x0 DUP1 PUSH1 0x60 DUP6 DUP8 SUB SLT ISZERO PUSH2 0xF93 JUMPI PUSH1 0x0 DUP1 REVERT JUMPDEST PUSH2 0xF9C DUP6 PUSH2 0xE55 JUMP JUMPDEST SWAP4 POP PUSH2 0xFAA PUSH1 0x20 DUP7 ADD PUSH2 0xD10 JUMP JUMPDEST SWAP3 POP PUSH1 0x40 DUP6 ADD CALLDATALOAD PUSH1 0x1 PUSH1 0x1 PUSH1 0x40 SHL SUB DUP2 GT ISZERO PUSH2 0xFC5 JUMPI PUSH1 0x0 DUP1 REVERT JUMPDEST PUSH2 0xFD1 DUP8 DUP3 DUP9 ADD PUSH2 0xD27 JUMP JUMPDEST SWAP6 SWAP9 SWAP5 SWAP8 POP SWAP6 POP POP POP POP JUMP JUMPDEST PUSH1 0x0 JUMPDEST DUP4 DUP2 LT ISZERO PUSH2 0xFF8 JUMPI DUP2 DUP2 ADD MLOAD DUP4 DUP3 ADD MSTORE PUSH1 0x20 ADD PUSH2 0xFE0 JUMP JUMPDEST POP POP PUSH1 0x0 SWAP2 ADD MSTORE JUMP JUMPDEST PUSH1 0x20 DUP2 MSTORE PUSH1 0x0 DUP3 MLOAD DUP1 PUSH1 0x20 DUP5 ADD MSTORE PUSH2 0x1020 DUP2 PUSH1 0x40 DUP6 ADD PUSH1 0x20 DUP8 ADD PUSH2 0xFDD JUMP JUMPDEST PUSH1 0x1F ADD PUSH1 0x1F NOT AND SWAP2 SWAP1 SWAP2 ADD PUSH1 0x40 ADD SWAP3 SWAP2 POP POP JUMP JUMPDEST PUSH1 0x0 DUP1 PUSH1 0x0 PUSH1 0x60 DUP5 DUP7 SUB SLT ISZERO PUSH2 0x1049 JUMPI PUSH1 0x0 DUP1 REVERT JUMPDEST DUP4 CALLDATALOAD PUSH2 0x1054 DUP2 PUSH2 0xE19 JUMP JUMPDEST SWAP3 POP PUSH2 0x1062 PUSH1 0x20 DUP6 ADD PUSH2 0xE55 JUMP JUMPDEST SWAP2 POP PUSH1 0x40 DUP5 ADD CALLDATALOAD PUSH2 0x1072 DUP2 PUSH2 0xE19 JUMP JUMPDEST DUP1 SWAP2 POP POP SWAP3 POP SWAP3 POP SWAP3 JUMP JUMPDEST DUP1 CALLDATALOAD PUSH1 0x20 DUP4 LT ISZERO PUSH2 0x8BA JUMPI PUSH1 0x0 NOT PUSH1 0x20 DUP5 SWAP1 SUB PUSH1 0x3 SHL SHL AND SWAP3 SWAP2 POP POP JUMP JUMPDEST PUSH4 0x4E487B71 PUSH1 0xE0 SHL PUSH1 0x0 MSTORE PUSH1 0x11 PUSH1 0x4 MSTORE PUSH1 0x24 PUSH1 0x0 REVERT JUMPDEST PUSH1 0x1 PUSH1 0x1 PUSH1 0x40 SHL SUB DUP3 DUP2 AND DUP3 DUP3 AND SUB SWAP1 DUP1 DUP3 GT ISZERO PUSH2 0x9B3 JUMPI PUSH2 0x9B3 PUSH2 0x109B JUMP JUMPDEST PUSH1 0xE0 DUP6 SWAP1 SHL PUSH1 0x1 PUSH1 0x1 PUSH1 0xE0 SHL SUB NOT AND DUP2 MSTORE PUSH1 0xF0 DUP5 SWAP1 SHL PUSH1 0x1 PUSH1 0x1 PUSH1 0xF0 SHL SUB NOT AND PUSH1 0x4 DUP3 ADD MSTORE DUP2 DUP4 PUSH1 0x6 DUP4 ADD CALLDATACOPY PUSH1 0x0 SWAP2 ADD PUSH1 0x6 ADD SWAP1 DUP2 MSTORE SWAP4 SWAP3 POP POP POP JUMP JUMPDEST PUSH1 0x0 PUSH1 0x1 DUP3 ADD PUSH2 0x1120 JUMPI PUSH2 0x1120 PUSH2 0x109B JUMP JUMPDEST POP PUSH1 0x1 ADD SWAP1 JUMP JUMPDEST PUSH1 0x0 PUSH1 0x1 PUSH1 0x1 PUSH1 0x40 SHL SUB DUP1 DUP4 AND DUP2 DUP2 SUB PUSH2 0x1143 JUMPI PUSH2 0x1143 PUSH2 0x109B JUMP JUMPDEST PUSH1 0x1 ADD SWAP4 SWAP3 POP POP POP JUMP JUMPDEST PUSH1 0x0 DUP3 MLOAD PUSH2 0x115F DUP2 DUP5 PUSH1 0x20 DUP8 ADD PUSH2 0xFDD JUMP JUMPDEST SWAP2 SWAP1 SWAP2 ADD SWAP3 SWAP2 POP POP JUMP INVALID LOG2 PUSH5 0x6970667358 0x22 SLT KECCAK256 0xDA DELEGATECALL 0x1F SIGNEXTEND 0xCD PUSH4 0x6346C43A DUP3 ADD 0xE7 0xD3 CALLVALUE 0xC5 ADDMOD PUSH0 SLOAD LOG2 SWAP10 SWAP12 PUSH19 0x71996FCFD72947308A64736F6C634300081400 CALLER "},"methodIdentifiers":{"READ_CHANNEL()":"3859d937","READ_MSG_TYPE()":"c1bd92e3","arbitrumChainId()":"1c61621e","arbitrumVRFRequester()":"263de2b5","combineOptions(uint32,uint16,bytes)":"bc70b354","getArbitrumVRFQuery()":"d97ff008","getLatestRequestId()":"b190d8a3","getRequestCount()":"3fad1834","getUserRequestCount(address)":"c166c458","initialize(address,uint32,address)":"c1554a4b","isLzReadResponse(uint32)":"58efca04","lastQueriedCallbackGasLimit()":"8eb96891","lastQueriedConfirmations()":"06d7e8db","lastQueriedKeyHash()":"3136eca0","lastQueriedNumWords()":"e29814de","lastQueriedSubscriptionId()":"6ff8fc68","lastQueriedTimestamp()":"18184fe2","lotteryContract()":"b29c662a","lzEndpoint()":"b353aaa7","lzReceive(uint16,bytes,uint64,bytes)":"001d3567","mockReceiveReadResponse(uint64,bytes32,uint16,uint32,uint32)":"28455e00","nonce()":"affed0e0","queryArbitrumVRFState(bytes)":"77896890","requestCount()":"5badbe4c","requestRandomness(address)":"ead073c7","requestToUser(uint64)":"9f392c2b","setLotteryContract(address)":"1590a04f","simulateReceiveRandomness(uint64,address,uint256)":"8c1bde26"}}}}}