{"contracts/mocks/SonicVRFConsumerMock.sol":{"SonicVRFConsumerMock":{"abi":[{"inputs":[{"internalType":"address","name":"_endpoint","type":"address"},{"internalType":"uint32","name":"_arbitrumChainId","type":"uint32"},{"internalType":"address","name":"_arbitrumVRFRequester","type":"address"},{"internalType":"address","name":"_lotteryContract","type":"address"}],"stateMutability":"nonpayable","type":"constructor"},{"anonymous":false,"inputs":[{"indexed":true,"internalType":"address","name":"previousOwner","type":"address"},{"indexed":true,"internalType":"address","name":"newOwner","type":"address"}],"name":"OwnershipTransferred","type":"event"},{"anonymous":false,"inputs":[{"indexed":true,"internalType":"uint64","name":"requestId","type":"uint64"},{"indexed":true,"internalType":"address","name":"user","type":"address"},{"indexed":false,"internalType":"uint256","name":"randomness","type":"uint256"}],"name":"RandomnessProcessingFailed","type":"event"},{"anonymous":false,"inputs":[{"indexed":true,"internalType":"uint64","name":"requestId","type":"uint64"},{"indexed":true,"internalType":"address","name":"user","type":"address"},{"indexed":false,"internalType":"uint256","name":"randomness","type":"uint256"}],"name":"RandomnessReceived","type":"event"},{"anonymous":false,"inputs":[{"indexed":true,"internalType":"uint64","name":"requestId","type":"uint64"},{"indexed":true,"internalType":"address","name":"user","type":"address"}],"name":"RandomnessRequested","type":"event"},{"inputs":[{"components":[{"internalType":"uint32","name":"srcEid","type":"uint32"},{"internalType":"bytes32","name":"sender","type":"bytes32"},{"internalType":"uint64","name":"nonce","type":"uint64"}],"internalType":"struct ILayerZeroEndpointV2Mock.Origin","name":"_origin","type":"tuple"},{"internalType":"bytes32","name":"","type":"bytes32"},{"internalType":"bytes","name":"_message","type":"bytes"},{"internalType":"address","name":"","type":"address"},{"internalType":"bytes","name":"","type":"bytes"}],"name":"_lzReceive","outputs":[],"stateMutability":"nonpayable","type":"function"},{"inputs":[],"name":"arbitrumChainId","outputs":[{"internalType":"uint32","name":"","type":"uint32"}],"stateMutability":"view","type":"function"},{"inputs":[],"name":"arbitrumVRFRequester","outputs":[{"internalType":"address","name":"","type":"address"}],"stateMutability":"view","type":"function"},{"inputs":[],"name":"endpoint","outputs":[{"internalType":"contract ILayerZeroEndpointV2Mock","name":"","type":"address"}],"stateMutability":"view","type":"function"},{"inputs":[],"name":"lotteryContract","outputs":[{"internalType":"address","name":"","type":"address"}],"stateMutability":"view","type":"function"},{"inputs":[],"name":"nonce","outputs":[{"internalType":"uint64","name":"","type":"uint64"}],"stateMutability":"view","type":"function"},{"inputs":[],"name":"owner","outputs":[{"internalType":"address","name":"","type":"address"}],"stateMutability":"view","type":"function"},{"inputs":[],"name":"renounceOwnership","outputs":[],"stateMutability":"nonpayable","type":"function"},{"inputs":[{"internalType":"address","name":"_user","type":"address"}],"name":"requestRandomness","outputs":[{"internalType":"uint64","name":"","type":"uint64"}],"stateMutability":"nonpayable","type":"function"},{"inputs":[{"internalType":"uint64","name":"","type":"uint64"}],"name":"requestToUser","outputs":[{"internalType":"address","name":"","type":"address"}],"stateMutability":"view","type":"function"},{"inputs":[{"internalType":"address","name":"newOwner","type":"address"}],"name":"transferOwnership","outputs":[],"stateMutability":"nonpayable","type":"function"},{"inputs":[{"internalType":"uint32","name":"_arbitrumChainId","type":"uint32"}],"name":"updateArbitrumChainId","outputs":[],"stateMutability":"nonpayable","type":"function"},{"inputs":[{"internalType":"address","name":"_arbitrumVRFRequester","type":"address"}],"name":"updateArbitrumVRFRequester","outputs":[],"stateMutability":"nonpayable","type":"function"},{"inputs":[{"internalType":"address","name":"_lotteryContract","type":"address"}],"name":"updateLotteryContract","outputs":[],"stateMutability":"nonpayable","type":"function"},{"stateMutability":"payable","type":"receive"}],"evm":{"bytecode":{"linkReferences":{},"object":"608060405234801561001057600080fd5b50604051620010fd380380620010fd83398101604081905261003191610103565b61003a33610097565b600180556002805463ffffffff909416600160a01b026001600160c01b03199094166001600160a01b039586161793909317909255600380549184166001600160a01b031992831617905560048054929093169116179055610162565b600080546001600160a01b038381166001600160a01b0319831681178455604051919092169283917f8be0079c531659141344cd1fd0a4f28419497f9722a3daafe3b4186f6b6457e09190a35050565b80516001600160a01b03811681146100fe57600080fd5b919050565b6000806000806080858703121561011957600080fd5b610122856100e7565b9350602085015163ffffffff8116811461013b57600080fd5b9250610149604086016100e7565b9150610157606086016100e7565b905092959194509250565b610f8b80620001726000396000f3fe6080604052600436106100e15760003560e01c8063715018a61161007f578063affed0e011610059578063affed0e01461026e578063b29c662a146102ad578063ead073c7146102cd578063f2fde38b146102ed57600080fd5b8063715018a6146102055780638da5cb5b1461021a5780639f392c2b1461023857600080fd5b80633b54db6e116100bb5780633b54db6e146101855780635e280f11146101a55780635f8db002146101c557806365efa97c146101e557600080fd5b806318610ae0146100ed5780631c61621e1461010f578063263de2b51461014d57600080fd5b366100e857005b600080fd5b3480156100f957600080fd5b5061010d610108366004610be6565b61030d565b005b34801561011b57600080fd5b5060025461013390600160a01b900463ffffffff1681565b60405163ffffffff90911681526020015b60405180910390f35b34801561015957600080fd5b5060035461016d906001600160a01b031681565b6040516001600160a01b039091168152602001610144565b34801561019157600080fd5b5061010d6101a0366004610be6565b610392565b3480156101b157600080fd5b5060025461016d906001600160a01b031681565b3480156101d157600080fd5b5061010d6101e0366004610c0a565b610412565b3480156101f157600080fd5b5061010d610200366004610c78565b610440565b34801561021157600080fd5b5061010d610764565b34801561022657600080fd5b506000546001600160a01b031661016d565b34801561024457600080fd5b5061016d610253366004610d35565b6005602052600090815260409020546001600160a01b031681565b34801561027a57600080fd5b5060045461029590600160a01b90046001600160401b031681565b6040516001600160401b039091168152602001610144565b3480156102b957600080fd5b5060045461016d906001600160a01b031681565b3480156102d957600080fd5b506102956102e8366004610be6565b610778565b3480156102f957600080fd5b5061010d610308366004610be6565b610a55565b610315610ace565b6001600160a01b0381166103705760405162461bcd60e51b815260206004820152601a60248201527f43616e6e6f742073657420746f207a65726f206164647265737300000000000060448201526064015b60405180910390fd5b600480546001600160a01b0319166001600160a01b0392909216919091179055565b61039a610ace565b6001600160a01b0381166103f05760405162461bcd60e51b815260206004820152601a60248201527f43616e6e6f742073657420746f207a65726f20616464726573730000000000006044820152606401610367565b600380546001600160a01b0319166001600160a01b0392909216919091179055565b61041a610ace565b6002805463ffffffff909216600160a01b0263ffffffff60a01b19909216919091179055565b600254600160a01b900463ffffffff1661045d6020890189610c0a565b63ffffffff16146104b05760405162461bcd60e51b815260206004820152601760248201527f4e6f742066726f6d20417262697472756d20636861696e0000000000000000006044820152606401610367565b6003546020880135906001600160a01b038083169116146105135760405162461bcd60e51b815260206004820152601a60248201527f4e6f742066726f6d20617574686f72697a656420736f757263650000000000006044820152606401610367565b60008080610523888a018a610d50565b6001600160401b03831660009081526005602052604090205492955090935091506001600160a01b03168061058f5760405162461bcd60e51b8152602060048201526012602482015271155b9adb9bdddb881c995c5d595cdd08125160721b6044820152606401610367565b826001600160a01b0316816001600160a01b0316146105e05760405162461bcd60e51b815260206004820152600d60248201526c0aae6cae440dad2e6dac2e8c6d609b1b6044820152606401610367565b826001600160a01b0316846001600160401b03167f4aa9e0f248f6c96da29c00ab96c2d21ab4f40afb34d049557a56089bfb7c4bad8460405161062591815260200190565b60405180910390a36004546040516001600160401b03861660248201526001600160a01b03858116604483015260648201859052600092169060840160408051601f198184030181529181526020820180516001600160e01b03166338b540e760e11b179052516106969190610db3565b6000604051808303816000865af19150503d80600081146106d3576040519150601f19603f3d011682016040523d82523d6000602084013e6106d8565b606091505b50506001600160401b038616600090815260056020526040902080546001600160a01b031916905590508061075557836001600160a01b0316856001600160401b03167fdbed2dec459d7d081bb7f458a7a9a865640acc283b6a0fc313e4856ea660a4258560405161074c91815260200190565b60405180910390a35b50505050505050505050505050565b61076c610ace565b6107766000610b28565b565b6000610782610b78565b6004546001600160a01b031633146107d45760405162461bcd60e51b815260206004820152601560248201527413db9b1e481b1bdd1d195c9e4818dbdb9d1c9858dd605a1b6044820152606401610367565b60048054600091600160a01b9091046001600160401b03169060146107f883610dcf565b82546101009290920a6001600160401b038181021990931691831602179091558116600081815260056020908152604080832080546001600160a01b0319166001600160a01b038a1690811790915581519283019490945281019290925291925060600160408051601f1981840301815260a08301825260025463ffffffff600160a01b9091041683526003549151909350600092916020838101926108c0926001600160a01b0316910160609190911b6bffffffffffffffffffffffff1916815260140190565b60408051601f1981840301815291815290825260208281018690528151600160f01b918101919091526207a120602282015291019060420160408051808303601f1901815291815290825260006020909201829052600254905163239a891360e11b815292935090916001600160a01b0390911690634735122690610949908590600401610e2f565b6040805180830381865afa158015610965573d6000803e3d6000fd5b505050506040513d601f19601f820116820180604052508101906109899190610f0c565b600254815160405163122c3adf60e11b81529293506001600160a01b039091169163245875be91906109bf908690600401610e2f565b60606040518083038185885af11580156109dd573d6000803e3d6000fd5b50505050506040513d601f19601f82011682018060405250810190610a029190610f28565b50506040516001600160a01b038716906001600160401b038616907ff09a63f9e06f8e96ec8e1be5bdfdb17d52cf919bcfe025e59cf8e5c0bd65d35a90600090a35050600180555092915050565b919050565b610a5d610ace565b6001600160a01b038116610ac25760405162461bcd60e51b815260206004820152602660248201527f4f776e61626c653a206e6577206f776e657220697320746865207a65726f206160448201526564647265737360d01b6064820152608401610367565b610acb81610b28565b50565b6000546001600160a01b031633146107765760405162461bcd60e51b815260206004820181905260248201527f4f776e61626c653a2063616c6c6572206973206e6f7420746865206f776e65726044820152606401610367565b600080546001600160a01b038381166001600160a01b0319831681178455604051919092169283917f8be0079c531659141344cd1fd0a4f28419497f9722a3daafe3b4186f6b6457e09190a35050565b600260015403610bca5760405162461bcd60e51b815260206004820152601f60248201527f5265656e7472616e637947756172643a207265656e7472616e742063616c6c006044820152606401610367565b6002600155565b6001600160a01b0381168114610acb57600080fd5b600060208284031215610bf857600080fd5b8135610c0381610bd1565b9392505050565b600060208284031215610c1c57600080fd5b813563ffffffff81168114610c0357600080fd5b60008083601f840112610c4257600080fd5b5081356001600160401b03811115610c5957600080fd5b602083019150836020828501011115610c7157600080fd5b9250929050565b600080600080600080600087890360e0811215610c9457600080fd5b6060811215610ca257600080fd5b508796506060880135955060808801356001600160401b0380821115610cc757600080fd5b610cd38b838c01610c30565b909750955060a08a01359150610ce882610bd1565b90935060c08901359080821115610cfe57600080fd5b50610d0b8a828b01610c30565b989b979a50959850939692959293505050565b80356001600160401b0381168114610a5057600080fd5b600060208284031215610d4757600080fd5b610c0382610d1e565b600080600060608486031215610d6557600080fd5b610d6e84610d1e565b92506020840135610d7e81610bd1565b929592945050506040919091013590565b60005b83811015610daa578181015183820152602001610d92565b50506000910152565b60008251610dc5818460208701610d8f565b9190910192915050565b60006001600160401b03808316818103610df957634e487b7160e01b600052601160045260246000fd5b6001019392505050565b60008151808452610e1b816020860160208601610d8f565b601f01601f19169290920160200192915050565b6020815263ffffffff82511660208201526000602083015160a06040840152610e5b60c0840182610e03565b90506040840151601f1980858403016060860152610e798383610e03565b9250606086015191508085840301608086015250610e978282610e03565b9150506080840151151560a08401528091505092915050565b600060408284031215610ec257600080fd5b604051604081018181106001600160401b0382111715610ef257634e487b7160e01b600052604160045260246000fd5b604052825181526020928301519281019290925250919050565b600060408284031215610f1e57600080fd5b610c038383610eb0565b60008060608385031215610f3b57600080fd5b610f458484610eb0565b915060408301519050925092905056fea2646970667358221220e45d113c28a2fd5485a0d4d7d12fc3a0df0cc14f29136d884cea1a489a82dfb564736f6c63430008140033","opcodes":"PUSH1 0x80 PUSH1 0x40 MSTORE CALLVALUE DUP1 ISZERO PUSH2 0x10 JUMPI PUSH1 0x0 DUP1 REVERT JUMPDEST POP PUSH1 0x40 MLOAD PUSH3 0x10FD CODESIZE SUB DUP1 PUSH3 0x10FD DUP4 CODECOPY DUP2 ADD PUSH1 0x40 DUP2 SWAP1 MSTORE PUSH2 0x31 SWAP2 PUSH2 0x103 JUMP JUMPDEST PUSH2 0x3A CALLER PUSH2 0x97 JUMP JUMPDEST PUSH1 0x1 DUP1 SSTORE PUSH1 0x2 DUP1 SLOAD PUSH4 0xFFFFFFFF SWAP1 SWAP5 AND PUSH1 0x1 PUSH1 0xA0 SHL MUL PUSH1 0x1 PUSH1 0x1 PUSH1 0xC0 SHL SUB NOT SWAP1 SWAP5 AND PUSH1 0x1 PUSH1 0x1 PUSH1 0xA0 SHL SUB SWAP6 DUP7 AND OR SWAP4 SWAP1 SWAP4 OR SWAP1 SWAP3 SSTORE PUSH1 0x3 DUP1 SLOAD SWAP2 DUP5 AND PUSH1 0x1 PUSH1 0x1 PUSH1 0xA0 SHL SUB NOT SWAP3 DUP4 AND OR SWAP1 SSTORE PUSH1 0x4 DUP1 SLOAD SWAP3 SWAP1 SWAP4 AND SWAP2 AND OR SWAP1 SSTORE PUSH2 0x162 JUMP JUMPDEST PUSH1 0x0 DUP1 SLOAD PUSH1 0x1 PUSH1 0x1 PUSH1 0xA0 SHL SUB DUP4 DUP2 AND PUSH1 0x1 PUSH1 0x1 PUSH1 0xA0 SHL SUB NOT DUP4 AND DUP2 OR DUP5 SSTORE PUSH1 0x40 MLOAD SWAP2 SWAP1 SWAP3 AND SWAP3 DUP4 SWAP2 PUSH32 0x8BE0079C531659141344CD1FD0A4F28419497F9722A3DAAFE3B4186F6B6457E0 SWAP2 SWAP1 LOG3 POP POP JUMP JUMPDEST DUP1 MLOAD PUSH1 0x1 PUSH1 0x1 PUSH1 0xA0 SHL SUB DUP2 AND DUP2 EQ PUSH2 0xFE JUMPI PUSH1 0x0 DUP1 REVERT JUMPDEST SWAP2 SWAP1 POP JUMP JUMPDEST PUSH1 0x0 DUP1 PUSH1 0x0 DUP1 PUSH1 0x80 DUP6 DUP8 SUB SLT ISZERO PUSH2 0x119 JUMPI PUSH1 0x0 DUP1 REVERT JUMPDEST PUSH2 0x122 DUP6 PUSH2 0xE7 JUMP JUMPDEST SWAP4 POP PUSH1 0x20 DUP6 ADD MLOAD PUSH4 0xFFFFFFFF DUP2 AND DUP2 EQ PUSH2 0x13B JUMPI PUSH1 0x0 DUP1 REVERT JUMPDEST SWAP3 POP PUSH2 0x149 PUSH1 0x40 DUP7 ADD PUSH2 0xE7 JUMP JUMPDEST SWAP2 POP PUSH2 0x157 PUSH1 0x60 DUP7 ADD PUSH2 0xE7 JUMP JUMPDEST SWAP1 POP SWAP3 SWAP6 SWAP2 SWAP5 POP SWAP3 POP JUMP JUMPDEST PUSH2 0xF8B DUP1 PUSH3 0x172 PUSH1 0x0 CODECOPY PUSH1 0x0 RETURN INVALID PUSH1 0x80 PUSH1 0x40 MSTORE PUSH1 0x4 CALLDATASIZE LT PUSH2 0xE1 JUMPI PUSH1 0x0 CALLDATALOAD PUSH1 0xE0 SHR DUP1 PUSH4 0x715018A6 GT PUSH2 0x7F JUMPI DUP1 PUSH4 0xAFFED0E0 GT PUSH2 0x59 JUMPI DUP1 PUSH4 0xAFFED0E0 EQ PUSH2 0x26E JUMPI DUP1 PUSH4 0xB29C662A EQ PUSH2 0x2AD JUMPI DUP1 PUSH4 0xEAD073C7 EQ PUSH2 0x2CD JUMPI DUP1 PUSH4 0xF2FDE38B EQ PUSH2 0x2ED JUMPI PUSH1 0x0 DUP1 REVERT JUMPDEST DUP1 PUSH4 0x715018A6 EQ PUSH2 0x205 JUMPI DUP1 PUSH4 0x8DA5CB5B EQ PUSH2 0x21A JUMPI DUP1 PUSH4 0x9F392C2B EQ PUSH2 0x238 JUMPI PUSH1 0x0 DUP1 REVERT JUMPDEST DUP1 PUSH4 0x3B54DB6E GT PUSH2 0xBB JUMPI DUP1 PUSH4 0x3B54DB6E EQ PUSH2 0x185 JUMPI DUP1 PUSH4 0x5E280F11 EQ PUSH2 0x1A5 JUMPI DUP1 PUSH4 0x5F8DB002 EQ PUSH2 0x1C5 JUMPI DUP1 PUSH4 0x65EFA97C EQ PUSH2 0x1E5 JUMPI PUSH1 0x0 DUP1 REVERT JUMPDEST DUP1 PUSH4 0x18610AE0 EQ PUSH2 0xED JUMPI DUP1 PUSH4 0x1C61621E EQ PUSH2 0x10F JUMPI DUP1 PUSH4 0x263DE2B5 EQ PUSH2 0x14D JUMPI PUSH1 0x0 DUP1 REVERT JUMPDEST CALLDATASIZE PUSH2 0xE8 JUMPI STOP JUMPDEST PUSH1 0x0 DUP1 REVERT JUMPDEST CALLVALUE DUP1 ISZERO PUSH2 0xF9 JUMPI PUSH1 0x0 DUP1 REVERT JUMPDEST POP PUSH2 0x10D PUSH2 0x108 CALLDATASIZE PUSH1 0x4 PUSH2 0xBE6 JUMP JUMPDEST PUSH2 0x30D JUMP JUMPDEST STOP JUMPDEST CALLVALUE DUP1 ISZERO PUSH2 0x11B JUMPI PUSH1 0x0 DUP1 REVERT JUMPDEST POP PUSH1 0x2 SLOAD PUSH2 0x133 SWAP1 PUSH1 0x1 PUSH1 0xA0 SHL SWAP1 DIV PUSH4 0xFFFFFFFF AND DUP2 JUMP JUMPDEST PUSH1 0x40 MLOAD PUSH4 0xFFFFFFFF SWAP1 SWAP2 AND DUP2 MSTORE PUSH1 0x20 ADD JUMPDEST PUSH1 0x40 MLOAD DUP1 SWAP2 SUB SWAP1 RETURN JUMPDEST CALLVALUE DUP1 ISZERO PUSH2 0x159 JUMPI PUSH1 0x0 DUP1 REVERT JUMPDEST POP PUSH1 0x3 SLOAD PUSH2 0x16D SWAP1 PUSH1 0x1 PUSH1 0x1 PUSH1 0xA0 SHL SUB AND DUP2 JUMP JUMPDEST PUSH1 0x40 MLOAD PUSH1 0x1 PUSH1 0x1 PUSH1 0xA0 SHL SUB SWAP1 SWAP2 AND DUP2 MSTORE PUSH1 0x20 ADD PUSH2 0x144 JUMP JUMPDEST CALLVALUE DUP1 ISZERO PUSH2 0x191 JUMPI PUSH1 0x0 DUP1 REVERT JUMPDEST POP PUSH2 0x10D PUSH2 0x1A0 CALLDATASIZE PUSH1 0x4 PUSH2 0xBE6 JUMP JUMPDEST PUSH2 0x392 JUMP JUMPDEST CALLVALUE DUP1 ISZERO PUSH2 0x1B1 JUMPI PUSH1 0x0 DUP1 REVERT JUMPDEST POP PUSH1 0x2 SLOAD PUSH2 0x16D SWAP1 PUSH1 0x1 PUSH1 0x1 PUSH1 0xA0 SHL SUB AND DUP2 JUMP JUMPDEST CALLVALUE DUP1 ISZERO PUSH2 0x1D1 JUMPI PUSH1 0x0 DUP1 REVERT JUMPDEST POP PUSH2 0x10D PUSH2 0x1E0 CALLDATASIZE PUSH1 0x4 PUSH2 0xC0A JUMP JUMPDEST PUSH2 0x412 JUMP JUMPDEST CALLVALUE DUP1 ISZERO PUSH2 0x1F1 JUMPI PUSH1 0x0 DUP1 REVERT JUMPDEST POP PUSH2 0x10D PUSH2 0x200 CALLDATASIZE PUSH1 0x4 PUSH2 0xC78 JUMP JUMPDEST PUSH2 0x440 JUMP JUMPDEST CALLVALUE DUP1 ISZERO PUSH2 0x211 JUMPI PUSH1 0x0 DUP1 REVERT JUMPDEST POP PUSH2 0x10D PUSH2 0x764 JUMP JUMPDEST CALLVALUE DUP1 ISZERO PUSH2 0x226 JUMPI PUSH1 0x0 DUP1 REVERT JUMPDEST POP PUSH1 0x0 SLOAD PUSH1 0x1 PUSH1 0x1 PUSH1 0xA0 SHL SUB AND PUSH2 0x16D JUMP JUMPDEST CALLVALUE DUP1 ISZERO PUSH2 0x244 JUMPI PUSH1 0x0 DUP1 REVERT JUMPDEST POP PUSH2 0x16D PUSH2 0x253 CALLDATASIZE PUSH1 0x4 PUSH2 0xD35 JUMP JUMPDEST PUSH1 0x5 PUSH1 0x20 MSTORE PUSH1 0x0 SWAP1 DUP2 MSTORE PUSH1 0x40 SWAP1 KECCAK256 SLOAD PUSH1 0x1 PUSH1 0x1 PUSH1 0xA0 SHL SUB AND DUP2 JUMP JUMPDEST CALLVALUE DUP1 ISZERO PUSH2 0x27A JUMPI PUSH1 0x0 DUP1 REVERT JUMPDEST POP PUSH1 0x4 SLOAD PUSH2 0x295 SWAP1 PUSH1 0x1 PUSH1 0xA0 SHL SWAP1 DIV PUSH1 0x1 PUSH1 0x1 PUSH1 0x40 SHL SUB AND DUP2 JUMP JUMPDEST PUSH1 0x40 MLOAD PUSH1 0x1 PUSH1 0x1 PUSH1 0x40 SHL SUB SWAP1 SWAP2 AND DUP2 MSTORE PUSH1 0x20 ADD PUSH2 0x144 JUMP JUMPDEST CALLVALUE DUP1 ISZERO PUSH2 0x2B9 JUMPI PUSH1 0x0 DUP1 REVERT JUMPDEST POP PUSH1 0x4 SLOAD PUSH2 0x16D SWAP1 PUSH1 0x1 PUSH1 0x1 PUSH1 0xA0 SHL SUB AND DUP2 JUMP JUMPDEST CALLVALUE DUP1 ISZERO PUSH2 0x2D9 JUMPI PUSH1 0x0 DUP1 REVERT JUMPDEST POP PUSH2 0x295 PUSH2 0x2E8 CALLDATASIZE PUSH1 0x4 PUSH2 0xBE6 JUMP JUMPDEST PUSH2 0x778 JUMP JUMPDEST CALLVALUE DUP1 ISZERO PUSH2 0x2F9 JUMPI PUSH1 0x0 DUP1 REVERT JUMPDEST POP PUSH2 0x10D PUSH2 0x308 CALLDATASIZE PUSH1 0x4 PUSH2 0xBE6 JUMP JUMPDEST PUSH2 0xA55 JUMP JUMPDEST PUSH2 0x315 PUSH2 0xACE JUMP JUMPDEST PUSH1 0x1 PUSH1 0x1 PUSH1 0xA0 SHL SUB DUP2 AND PUSH2 0x370 JUMPI PUSH1 0x40 MLOAD PUSH3 0x461BCD PUSH1 0xE5 SHL DUP2 MSTORE PUSH1 0x20 PUSH1 0x4 DUP3 ADD MSTORE PUSH1 0x1A PUSH1 0x24 DUP3 ADD MSTORE PUSH32 0x43616E6E6F742073657420746F207A65726F2061646472657373000000000000 PUSH1 0x44 DUP3 ADD MSTORE PUSH1 0x64 ADD JUMPDEST PUSH1 0x40 MLOAD DUP1 SWAP2 SUB SWAP1 REVERT JUMPDEST PUSH1 0x4 DUP1 SLOAD PUSH1 0x1 PUSH1 0x1 PUSH1 0xA0 SHL SUB NOT AND PUSH1 0x1 PUSH1 0x1 PUSH1 0xA0 SHL SUB SWAP3 SWAP1 SWAP3 AND SWAP2 SWAP1 SWAP2 OR SWAP1 SSTORE JUMP JUMPDEST PUSH2 0x39A PUSH2 0xACE JUMP JUMPDEST PUSH1 0x1 PUSH1 0x1 PUSH1 0xA0 SHL SUB DUP2 AND PUSH2 0x3F0 JUMPI PUSH1 0x40 MLOAD PUSH3 0x461BCD PUSH1 0xE5 SHL DUP2 MSTORE PUSH1 0x20 PUSH1 0x4 DUP3 ADD MSTORE PUSH1 0x1A PUSH1 0x24 DUP3 ADD MSTORE PUSH32 0x43616E6E6F742073657420746F207A65726F2061646472657373000000000000 PUSH1 0x44 DUP3 ADD MSTORE PUSH1 0x64 ADD PUSH2 0x367 JUMP JUMPDEST PUSH1 0x3 DUP1 SLOAD PUSH1 0x1 PUSH1 0x1 PUSH1 0xA0 SHL SUB NOT AND PUSH1 0x1 PUSH1 0x1 PUSH1 0xA0 SHL SUB SWAP3 SWAP1 SWAP3 AND SWAP2 SWAP1 SWAP2 OR SWAP1 SSTORE JUMP JUMPDEST PUSH2 0x41A PUSH2 0xACE JUMP JUMPDEST PUSH1 0x2 DUP1 SLOAD PUSH4 0xFFFFFFFF SWAP1 SWAP3 AND PUSH1 0x1 PUSH1 0xA0 SHL MUL PUSH4 0xFFFFFFFF PUSH1 0xA0 SHL NOT SWAP1 SWAP3 AND SWAP2 SWAP1 SWAP2 OR SWAP1 SSTORE JUMP JUMPDEST PUSH1 0x2 SLOAD PUSH1 0x1 PUSH1 0xA0 SHL SWAP1 DIV PUSH4 0xFFFFFFFF AND PUSH2 0x45D PUSH1 0x20 DUP10 ADD DUP10 PUSH2 0xC0A JUMP JUMPDEST PUSH4 0xFFFFFFFF AND EQ PUSH2 0x4B0 JUMPI PUSH1 0x40 MLOAD PUSH3 0x461BCD PUSH1 0xE5 SHL DUP2 MSTORE PUSH1 0x20 PUSH1 0x4 DUP3 ADD MSTORE PUSH1 0x17 PUSH1 0x24 DUP3 ADD MSTORE PUSH32 0x4E6F742066726F6D20417262697472756D20636861696E000000000000000000 PUSH1 0x44 DUP3 ADD MSTORE PUSH1 0x64 ADD PUSH2 0x367 JUMP JUMPDEST PUSH1 0x3 SLOAD PUSH1 0x20 DUP9 ADD CALLDATALOAD SWAP1 PUSH1 0x1 PUSH1 0x1 PUSH1 0xA0 SHL SUB DUP1 DUP4 AND SWAP2 AND EQ PUSH2 0x513 JUMPI PUSH1 0x40 MLOAD PUSH3 0x461BCD PUSH1 0xE5 SHL DUP2 MSTORE PUSH1 0x20 PUSH1 0x4 DUP3 ADD MSTORE PUSH1 0x1A PUSH1 0x24 DUP3 ADD MSTORE PUSH32 0x4E6F742066726F6D20617574686F72697A656420736F75726365000000000000 PUSH1 0x44 DUP3 ADD MSTORE PUSH1 0x64 ADD PUSH2 0x367 JUMP JUMPDEST PUSH1 0x0 DUP1 DUP1 PUSH2 0x523 DUP9 DUP11 ADD DUP11 PUSH2 0xD50 JUMP JUMPDEST PUSH1 0x1 PUSH1 0x1 PUSH1 0x40 SHL SUB DUP4 AND PUSH1 0x0 SWAP1 DUP2 MSTORE PUSH1 0x5 PUSH1 0x20 MSTORE PUSH1 0x40 SWAP1 KECCAK256 SLOAD SWAP3 SWAP6 POP SWAP1 SWAP4 POP SWAP2 POP PUSH1 0x1 PUSH1 0x1 PUSH1 0xA0 SHL SUB AND DUP1 PUSH2 0x58F JUMPI PUSH1 0x40 MLOAD PUSH3 0x461BCD PUSH1 0xE5 SHL DUP2 MSTORE PUSH1 0x20 PUSH1 0x4 DUP3 ADD MSTORE PUSH1 0x12 PUSH1 0x24 DUP3 ADD MSTORE PUSH18 0x155B9ADB9BDDDB881C995C5D595CDD081251 PUSH1 0x72 SHL PUSH1 0x44 DUP3 ADD MSTORE PUSH1 0x64 ADD PUSH2 0x367 JUMP JUMPDEST DUP3 PUSH1 0x1 PUSH1 0x1 PUSH1 0xA0 SHL SUB AND DUP2 PUSH1 0x1 PUSH1 0x1 PUSH1 0xA0 SHL SUB AND EQ PUSH2 0x5E0 JUMPI PUSH1 0x40 MLOAD PUSH3 0x461BCD PUSH1 0xE5 SHL DUP2 MSTORE PUSH1 0x20 PUSH1 0x4 DUP3 ADD MSTORE PUSH1 0xD PUSH1 0x24 DUP3 ADD MSTORE PUSH13 0xAAE6CAE440DAD2E6DAC2E8C6D PUSH1 0x9B SHL PUSH1 0x44 DUP3 ADD MSTORE PUSH1 0x64 ADD PUSH2 0x367 JUMP JUMPDEST DUP3 PUSH1 0x1 PUSH1 0x1 PUSH1 0xA0 SHL SUB AND DUP5 PUSH1 0x1 PUSH1 0x1 PUSH1 0x40 SHL SUB AND PUSH32 0x4AA9E0F248F6C96DA29C00AB96C2D21AB4F40AFB34D049557A56089BFB7C4BAD DUP5 PUSH1 0x40 MLOAD PUSH2 0x625 SWAP2 DUP2 MSTORE PUSH1 0x20 ADD SWAP1 JUMP JUMPDEST PUSH1 0x40 MLOAD DUP1 SWAP2 SUB SWAP1 LOG3 PUSH1 0x4 SLOAD PUSH1 0x40 MLOAD PUSH1 0x1 PUSH1 0x1 PUSH1 0x40 SHL SUB DUP7 AND PUSH1 0x24 DUP3 ADD MSTORE PUSH1 0x1 PUSH1 0x1 PUSH1 0xA0 SHL SUB DUP6 DUP2 AND PUSH1 0x44 DUP4 ADD MSTORE PUSH1 0x64 DUP3 ADD DUP6 SWAP1 MSTORE PUSH1 0x0 SWAP3 AND SWAP1 PUSH1 0x84 ADD PUSH1 0x40 DUP1 MLOAD PUSH1 0x1F NOT DUP2 DUP5 SUB ADD DUP2 MSTORE SWAP2 DUP2 MSTORE PUSH1 0x20 DUP3 ADD DUP1 MLOAD PUSH1 0x1 PUSH1 0x1 PUSH1 0xE0 SHL SUB AND PUSH4 0x38B540E7 PUSH1 0xE1 SHL OR SWAP1 MSTORE MLOAD PUSH2 0x696 SWAP2 SWAP1 PUSH2 0xDB3 JUMP JUMPDEST PUSH1 0x0 PUSH1 0x40 MLOAD DUP1 DUP4 SUB DUP2 PUSH1 0x0 DUP7 GAS CALL SWAP2 POP POP RETURNDATASIZE DUP1 PUSH1 0x0 DUP2 EQ PUSH2 0x6D3 JUMPI PUSH1 0x40 MLOAD SWAP2 POP PUSH1 0x1F NOT PUSH1 0x3F RETURNDATASIZE ADD AND DUP3 ADD PUSH1 0x40 MSTORE RETURNDATASIZE DUP3 MSTORE RETURNDATASIZE PUSH1 0x0 PUSH1 0x20 DUP5 ADD RETURNDATACOPY PUSH2 0x6D8 JUMP JUMPDEST PUSH1 0x60 SWAP2 POP JUMPDEST POP POP PUSH1 0x1 PUSH1 0x1 PUSH1 0x40 SHL SUB DUP7 AND PUSH1 0x0 SWAP1 DUP2 MSTORE PUSH1 0x5 PUSH1 0x20 MSTORE PUSH1 0x40 SWAP1 KECCAK256 DUP1 SLOAD PUSH1 0x1 PUSH1 0x1 PUSH1 0xA0 SHL SUB NOT AND SWAP1 SSTORE SWAP1 POP DUP1 PUSH2 0x755 JUMPI DUP4 PUSH1 0x1 PUSH1 0x1 PUSH1 0xA0 SHL SUB AND DUP6 PUSH1 0x1 PUSH1 0x1 PUSH1 0x40 SHL SUB AND PUSH32 0xDBED2DEC459D7D081BB7F458A7A9A865640ACC283B6A0FC313E4856EA660A425 DUP6 PUSH1 0x40 MLOAD PUSH2 0x74C SWAP2 DUP2 MSTORE PUSH1 0x20 ADD SWAP1 JUMP JUMPDEST PUSH1 0x40 MLOAD DUP1 SWAP2 SUB SWAP1 LOG3 JUMPDEST POP POP POP POP POP POP POP POP POP POP POP POP POP JUMP JUMPDEST PUSH2 0x76C PUSH2 0xACE JUMP JUMPDEST PUSH2 0x776 PUSH1 0x0 PUSH2 0xB28 JUMP JUMPDEST JUMP JUMPDEST PUSH1 0x0 PUSH2 0x782 PUSH2 0xB78 JUMP JUMPDEST PUSH1 0x4 SLOAD PUSH1 0x1 PUSH1 0x1 PUSH1 0xA0 SHL SUB AND CALLER EQ PUSH2 0x7D4 JUMPI PUSH1 0x40 MLOAD PUSH3 0x461BCD PUSH1 0xE5 SHL DUP2 MSTORE PUSH1 0x20 PUSH1 0x4 DUP3 ADD MSTORE PUSH1 0x15 PUSH1 0x24 DUP3 ADD MSTORE PUSH21 0x13DB9B1E481B1BDD1D195C9E4818DBDB9D1C9858DD PUSH1 0x5A SHL PUSH1 0x44 DUP3 ADD MSTORE PUSH1 0x64 ADD PUSH2 0x367 JUMP JUMPDEST PUSH1 0x4 DUP1 SLOAD PUSH1 0x0 SWAP2 PUSH1 0x1 PUSH1 0xA0 SHL SWAP1 SWAP2 DIV PUSH1 0x1 PUSH1 0x1 PUSH1 0x40 SHL SUB AND SWAP1 PUSH1 0x14 PUSH2 0x7F8 DUP4 PUSH2 0xDCF JUMP JUMPDEST DUP3 SLOAD PUSH2 0x100 SWAP3 SWAP1 SWAP3 EXP PUSH1 0x1 PUSH1 0x1 PUSH1 0x40 SHL SUB DUP2 DUP2 MUL NOT SWAP1 SWAP4 AND SWAP2 DUP4 AND MUL OR SWAP1 SWAP2 SSTORE DUP2 AND PUSH1 0x0 DUP2 DUP2 MSTORE PUSH1 0x5 PUSH1 0x20 SWAP1 DUP2 MSTORE PUSH1 0x40 DUP1 DUP4 KECCAK256 DUP1 SLOAD PUSH1 0x1 PUSH1 0x1 PUSH1 0xA0 SHL SUB NOT AND PUSH1 0x1 PUSH1 0x1 PUSH1 0xA0 SHL SUB DUP11 AND SWAP1 DUP2 OR SWAP1 SWAP2 SSTORE DUP2 MLOAD SWAP3 DUP4 ADD SWAP5 SWAP1 SWAP5 MSTORE DUP2 ADD SWAP3 SWAP1 SWAP3 MSTORE SWAP2 SWAP3 POP PUSH1 0x60 ADD PUSH1 0x40 DUP1 MLOAD PUSH1 0x1F NOT DUP2 DUP5 SUB ADD DUP2 MSTORE PUSH1 0xA0 DUP4 ADD DUP3 MSTORE PUSH1 0x2 SLOAD PUSH4 0xFFFFFFFF PUSH1 0x1 PUSH1 0xA0 SHL SWAP1 SWAP2 DIV AND DUP4 MSTORE PUSH1 0x3 SLOAD SWAP2 MLOAD SWAP1 SWAP4 POP PUSH1 0x0 SWAP3 SWAP2 PUSH1 0x20 DUP4 DUP2 ADD SWAP3 PUSH2 0x8C0 SWAP3 PUSH1 0x1 PUSH1 0x1 PUSH1 0xA0 SHL SUB AND SWAP2 ADD PUSH1 0x60 SWAP2 SWAP1 SWAP2 SHL PUSH12 0xFFFFFFFFFFFFFFFFFFFFFFFF NOT AND DUP2 MSTORE PUSH1 0x14 ADD SWAP1 JUMP JUMPDEST PUSH1 0x40 DUP1 MLOAD PUSH1 0x1F NOT DUP2 DUP5 SUB ADD DUP2 MSTORE SWAP2 DUP2 MSTORE SWAP1 DUP3 MSTORE PUSH1 0x20 DUP3 DUP2 ADD DUP7 SWAP1 MSTORE DUP2 MLOAD PUSH1 0x1 PUSH1 0xF0 SHL SWAP2 DUP2 ADD SWAP2 SWAP1 SWAP2 MSTORE PUSH3 0x7A120 PUSH1 0x22 DUP3 ADD MSTORE SWAP2 ADD SWAP1 PUSH1 0x42 ADD PUSH1 0x40 DUP1 MLOAD DUP1 DUP4 SUB PUSH1 0x1F NOT ADD DUP2 MSTORE SWAP2 DUP2 MSTORE SWAP1 DUP3 MSTORE PUSH1 0x0 PUSH1 0x20 SWAP1 SWAP3 ADD DUP3 SWAP1 MSTORE PUSH1 0x2 SLOAD SWAP1 MLOAD PUSH4 0x239A8913 PUSH1 0xE1 SHL DUP2 MSTORE SWAP3 SWAP4 POP SWAP1 SWAP2 PUSH1 0x1 PUSH1 0x1 PUSH1 0xA0 SHL SUB SWAP1 SWAP2 AND SWAP1 PUSH4 0x47351226 SWAP1 PUSH2 0x949 SWAP1 DUP6 SWAP1 PUSH1 0x4 ADD PUSH2 0xE2F JUMP JUMPDEST PUSH1 0x40 DUP1 MLOAD DUP1 DUP4 SUB DUP2 DUP7 GAS STATICCALL ISZERO DUP1 ISZERO PUSH2 0x965 JUMPI RETURNDATASIZE PUSH1 0x0 DUP1 RETURNDATACOPY RETURNDATASIZE PUSH1 0x0 REVERT JUMPDEST POP POP POP POP PUSH1 0x40 MLOAD RETURNDATASIZE PUSH1 0x1F NOT PUSH1 0x1F DUP3 ADD AND DUP3 ADD DUP1 PUSH1 0x40 MSTORE POP DUP2 ADD SWAP1 PUSH2 0x989 SWAP2 SWAP1 PUSH2 0xF0C JUMP JUMPDEST PUSH1 0x2 SLOAD DUP2 MLOAD PUSH1 0x40 MLOAD PUSH4 0x122C3ADF PUSH1 0xE1 SHL DUP2 MSTORE SWAP3 SWAP4 POP PUSH1 0x1 PUSH1 0x1 PUSH1 0xA0 SHL SUB SWAP1 SWAP2 AND SWAP2 PUSH4 0x245875BE SWAP2 SWAP1 PUSH2 0x9BF SWAP1 DUP7 SWAP1 PUSH1 0x4 ADD PUSH2 0xE2F JUMP JUMPDEST PUSH1 0x60 PUSH1 0x40 MLOAD DUP1 DUP4 SUB DUP2 DUP6 DUP9 GAS CALL ISZERO DUP1 ISZERO PUSH2 0x9DD JUMPI RETURNDATASIZE PUSH1 0x0 DUP1 RETURNDATACOPY RETURNDATASIZE PUSH1 0x0 REVERT JUMPDEST POP POP POP POP POP PUSH1 0x40 MLOAD RETURNDATASIZE PUSH1 0x1F NOT PUSH1 0x1F DUP3 ADD AND DUP3 ADD DUP1 PUSH1 0x40 MSTORE POP DUP2 ADD SWAP1 PUSH2 0xA02 SWAP2 SWAP1 PUSH2 0xF28 JUMP JUMPDEST POP POP PUSH1 0x40 MLOAD PUSH1 0x1 PUSH1 0x1 PUSH1 0xA0 SHL SUB DUP8 AND SWAP1 PUSH1 0x1 PUSH1 0x1 PUSH1 0x40 SHL SUB DUP7 AND SWAP1 PUSH32 0xF09A63F9E06F8E96EC8E1BE5BDFDB17D52CF919BCFE025E59CF8E5C0BD65D35A SWAP1 PUSH1 0x0 SWAP1 LOG3 POP POP PUSH1 0x1 DUP1 SSTORE POP SWAP3 SWAP2 POP POP JUMP JUMPDEST SWAP2 SWAP1 POP JUMP JUMPDEST PUSH2 0xA5D PUSH2 0xACE JUMP JUMPDEST PUSH1 0x1 PUSH1 0x1 PUSH1 0xA0 SHL SUB DUP2 AND PUSH2 0xAC2 JUMPI PUSH1 0x40 MLOAD PUSH3 0x461BCD PUSH1 0xE5 SHL DUP2 MSTORE PUSH1 0x20 PUSH1 0x4 DUP3 ADD MSTORE PUSH1 0x26 PUSH1 0x24 DUP3 ADD MSTORE PUSH32 0x4F776E61626C653A206E6577206F776E657220697320746865207A65726F2061 PUSH1 0x44 DUP3 ADD MSTORE PUSH6 0x646472657373 PUSH1 0xD0 SHL PUSH1 0x64 DUP3 ADD MSTORE PUSH1 0x84 ADD PUSH2 0x367 JUMP JUMPDEST PUSH2 0xACB DUP2 PUSH2 0xB28 JUMP JUMPDEST POP JUMP JUMPDEST PUSH1 0x0 SLOAD PUSH1 0x1 PUSH1 0x1 PUSH1 0xA0 SHL SUB AND CALLER EQ PUSH2 0x776 JUMPI PUSH1 0x40 MLOAD PUSH3 0x461BCD PUSH1 0xE5 SHL DUP2 MSTORE PUSH1 0x20 PUSH1 0x4 DUP3 ADD DUP2 SWAP1 MSTORE PUSH1 0x24 DUP3 ADD MSTORE PUSH32 0x4F776E61626C653A2063616C6C6572206973206E6F7420746865206F776E6572 PUSH1 0x44 DUP3 ADD MSTORE PUSH1 0x64 ADD PUSH2 0x367 JUMP JUMPDEST PUSH1 0x0 DUP1 SLOAD PUSH1 0x1 PUSH1 0x1 PUSH1 0xA0 SHL SUB DUP4 DUP2 AND PUSH1 0x1 PUSH1 0x1 PUSH1 0xA0 SHL SUB NOT DUP4 AND DUP2 OR DUP5 SSTORE PUSH1 0x40 MLOAD SWAP2 SWAP1 SWAP3 AND SWAP3 DUP4 SWAP2 PUSH32 0x8BE0079C531659141344CD1FD0A4F28419497F9722A3DAAFE3B4186F6B6457E0 SWAP2 SWAP1 LOG3 POP POP JUMP JUMPDEST PUSH1 0x2 PUSH1 0x1 SLOAD SUB PUSH2 0xBCA JUMPI PUSH1 0x40 MLOAD PUSH3 0x461BCD PUSH1 0xE5 SHL DUP2 MSTORE PUSH1 0x20 PUSH1 0x4 DUP3 ADD MSTORE PUSH1 0x1F PUSH1 0x24 DUP3 ADD MSTORE PUSH32 0x5265656E7472616E637947756172643A207265656E7472616E742063616C6C00 PUSH1 0x44 DUP3 ADD MSTORE PUSH1 0x64 ADD PUSH2 0x367 JUMP JUMPDEST PUSH1 0x2 PUSH1 0x1 SSTORE JUMP JUMPDEST PUSH1 0x1 PUSH1 0x1 PUSH1 0xA0 SHL SUB DUP2 AND DUP2 EQ PUSH2 0xACB JUMPI PUSH1 0x0 DUP1 REVERT JUMPDEST PUSH1 0x0 PUSH1 0x20 DUP3 DUP5 SUB SLT ISZERO PUSH2 0xBF8 JUMPI PUSH1 0x0 DUP1 REVERT JUMPDEST DUP2 CALLDATALOAD PUSH2 0xC03 DUP2 PUSH2 0xBD1 JUMP JUMPDEST SWAP4 SWAP3 POP POP POP JUMP JUMPDEST PUSH1 0x0 PUSH1 0x20 DUP3 DUP5 SUB SLT ISZERO PUSH2 0xC1C JUMPI PUSH1 0x0 DUP1 REVERT JUMPDEST DUP2 CALLDATALOAD PUSH4 0xFFFFFFFF DUP2 AND DUP2 EQ PUSH2 0xC03 JUMPI PUSH1 0x0 DUP1 REVERT JUMPDEST PUSH1 0x0 DUP1 DUP4 PUSH1 0x1F DUP5 ADD SLT PUSH2 0xC42 JUMPI PUSH1 0x0 DUP1 REVERT JUMPDEST POP DUP2 CALLDATALOAD PUSH1 0x1 PUSH1 0x1 PUSH1 0x40 SHL SUB DUP2 GT ISZERO PUSH2 0xC59 JUMPI PUSH1 0x0 DUP1 REVERT JUMPDEST PUSH1 0x20 DUP4 ADD SWAP2 POP DUP4 PUSH1 0x20 DUP3 DUP6 ADD ADD GT ISZERO PUSH2 0xC71 JUMPI PUSH1 0x0 DUP1 REVERT JUMPDEST SWAP3 POP SWAP3 SWAP1 POP JUMP JUMPDEST PUSH1 0x0 DUP1 PUSH1 0x0 DUP1 PUSH1 0x0 DUP1 PUSH1 0x0 DUP8 DUP10 SUB PUSH1 0xE0 DUP2 SLT ISZERO PUSH2 0xC94 JUMPI PUSH1 0x0 DUP1 REVERT JUMPDEST PUSH1 0x60 DUP2 SLT ISZERO PUSH2 0xCA2 JUMPI PUSH1 0x0 DUP1 REVERT JUMPDEST POP DUP8 SWAP7 POP PUSH1 0x60 DUP9 ADD CALLDATALOAD SWAP6 POP PUSH1 0x80 DUP9 ADD CALLDATALOAD PUSH1 0x1 PUSH1 0x1 PUSH1 0x40 SHL SUB DUP1 DUP3 GT ISZERO PUSH2 0xCC7 JUMPI PUSH1 0x0 DUP1 REVERT JUMPDEST PUSH2 0xCD3 DUP12 DUP4 DUP13 ADD PUSH2 0xC30 JUMP JUMPDEST SWAP1 SWAP8 POP SWAP6 POP PUSH1 0xA0 DUP11 ADD CALLDATALOAD SWAP2 POP PUSH2 0xCE8 DUP3 PUSH2 0xBD1 JUMP JUMPDEST SWAP1 SWAP4 POP PUSH1 0xC0 DUP10 ADD CALLDATALOAD SWAP1 DUP1 DUP3 GT ISZERO PUSH2 0xCFE JUMPI PUSH1 0x0 DUP1 REVERT JUMPDEST POP PUSH2 0xD0B DUP11 DUP3 DUP12 ADD PUSH2 0xC30 JUMP JUMPDEST SWAP9 SWAP12 SWAP8 SWAP11 POP SWAP6 SWAP9 POP SWAP4 SWAP7 SWAP3 SWAP6 SWAP3 SWAP4 POP POP POP JUMP JUMPDEST DUP1 CALLDATALOAD PUSH1 0x1 PUSH1 0x1 PUSH1 0x40 SHL SUB DUP2 AND DUP2 EQ PUSH2 0xA50 JUMPI PUSH1 0x0 DUP1 REVERT JUMPDEST PUSH1 0x0 PUSH1 0x20 DUP3 DUP5 SUB SLT ISZERO PUSH2 0xD47 JUMPI PUSH1 0x0 DUP1 REVERT JUMPDEST PUSH2 0xC03 DUP3 PUSH2 0xD1E JUMP JUMPDEST PUSH1 0x0 DUP1 PUSH1 0x0 PUSH1 0x60 DUP5 DUP7 SUB SLT ISZERO PUSH2 0xD65 JUMPI PUSH1 0x0 DUP1 REVERT JUMPDEST PUSH2 0xD6E DUP5 PUSH2 0xD1E JUMP JUMPDEST SWAP3 POP PUSH1 0x20 DUP5 ADD CALLDATALOAD PUSH2 0xD7E DUP2 PUSH2 0xBD1 JUMP JUMPDEST SWAP3 SWAP6 SWAP3 SWAP5 POP POP POP PUSH1 0x40 SWAP2 SWAP1 SWAP2 ADD CALLDATALOAD SWAP1 JUMP JUMPDEST PUSH1 0x0 JUMPDEST DUP4 DUP2 LT ISZERO PUSH2 0xDAA JUMPI DUP2 DUP2 ADD MLOAD DUP4 DUP3 ADD MSTORE PUSH1 0x20 ADD PUSH2 0xD92 JUMP JUMPDEST POP POP PUSH1 0x0 SWAP2 ADD MSTORE JUMP JUMPDEST PUSH1 0x0 DUP3 MLOAD PUSH2 0xDC5 DUP2 DUP5 PUSH1 0x20 DUP8 ADD PUSH2 0xD8F JUMP JUMPDEST SWAP2 SWAP1 SWAP2 ADD SWAP3 SWAP2 POP POP JUMP JUMPDEST PUSH1 0x0 PUSH1 0x1 PUSH1 0x1 PUSH1 0x40 SHL SUB DUP1 DUP4 AND DUP2 DUP2 SUB PUSH2 0xDF9 JUMPI PUSH4 0x4E487B71 PUSH1 0xE0 SHL PUSH1 0x0 MSTORE PUSH1 0x11 PUSH1 0x4 MSTORE PUSH1 0x24 PUSH1 0x0 REVERT JUMPDEST PUSH1 0x1 ADD SWAP4 SWAP3 POP POP POP JUMP JUMPDEST PUSH1 0x0 DUP2 MLOAD DUP1 DUP5 MSTORE PUSH2 0xE1B DUP2 PUSH1 0x20 DUP7 ADD PUSH1 0x20 DUP7 ADD PUSH2 0xD8F JUMP JUMPDEST PUSH1 0x1F ADD PUSH1 0x1F NOT AND SWAP3 SWAP1 SWAP3 ADD PUSH1 0x20 ADD SWAP3 SWAP2 POP POP JUMP JUMPDEST PUSH1 0x20 DUP2 MSTORE PUSH4 0xFFFFFFFF DUP3 MLOAD AND PUSH1 0x20 DUP3 ADD MSTORE PUSH1 0x0 PUSH1 0x20 DUP4 ADD MLOAD PUSH1 0xA0 PUSH1 0x40 DUP5 ADD MSTORE PUSH2 0xE5B PUSH1 0xC0 DUP5 ADD DUP3 PUSH2 0xE03 JUMP JUMPDEST SWAP1 POP PUSH1 0x40 DUP5 ADD MLOAD PUSH1 0x1F NOT DUP1 DUP6 DUP5 SUB ADD PUSH1 0x60 DUP7 ADD MSTORE PUSH2 0xE79 DUP4 DUP4 PUSH2 0xE03 JUMP JUMPDEST SWAP3 POP PUSH1 0x60 DUP7 ADD MLOAD SWAP2 POP DUP1 DUP6 DUP5 SUB ADD PUSH1 0x80 DUP7 ADD MSTORE POP PUSH2 0xE97 DUP3 DUP3 PUSH2 0xE03 JUMP JUMPDEST SWAP2 POP POP PUSH1 0x80 DUP5 ADD MLOAD ISZERO ISZERO PUSH1 0xA0 DUP5 ADD MSTORE DUP1 SWAP2 POP POP SWAP3 SWAP2 POP POP JUMP JUMPDEST PUSH1 0x0 PUSH1 0x40 DUP3 DUP5 SUB SLT ISZERO PUSH2 0xEC2 JUMPI PUSH1 0x0 DUP1 REVERT JUMPDEST PUSH1 0x40 MLOAD PUSH1 0x40 DUP2 ADD DUP2 DUP2 LT PUSH1 0x1 PUSH1 0x1 PUSH1 0x40 SHL SUB DUP3 GT OR ISZERO PUSH2 0xEF2 JUMPI PUSH4 0x4E487B71 PUSH1 0xE0 SHL PUSH1 0x0 MSTORE PUSH1 0x41 PUSH1 0x4 MSTORE PUSH1 0x24 PUSH1 0x0 REVERT JUMPDEST PUSH1 0x40 MSTORE DUP3 MLOAD DUP2 MSTORE PUSH1 0x20 SWAP3 DUP4 ADD MLOAD SWAP3 DUP2 ADD SWAP3 SWAP1 SWAP3 MSTORE POP SWAP2 SWAP1 POP JUMP JUMPDEST PUSH1 0x0 PUSH1 0x40 DUP3 DUP5 SUB SLT ISZERO PUSH2 0xF1E JUMPI PUSH1 0x0 DUP1 REVERT JUMPDEST PUSH2 0xC03 DUP4 DUP4 PUSH2 0xEB0 JUMP JUMPDEST PUSH1 0x0 DUP1 PUSH1 0x60 DUP4 DUP6 SUB SLT ISZERO PUSH2 0xF3B JUMPI PUSH1 0x0 DUP1 REVERT JUMPDEST PUSH2 0xF45 DUP5 DUP5 PUSH2 0xEB0 JUMP JUMPDEST SWAP2 POP PUSH1 0x40 DUP4 ADD MLOAD SWAP1 POP SWAP3 POP SWAP3 SWAP1 POP JUMP INVALID LOG2 PUSH5 0x6970667358 0x22 SLT KECCAK256 0xE4 0x5D GT EXTCODECOPY 0x28 LOG2 REVERT SLOAD DUP6 LOG0 0xD4 0xD7 0xD1 0x2F 0xC3 LOG0 0xDF 0xC 0xC1 0x4F 0x29 SGT PUSH14 0x884CEA1A489A82DFB564736F6C63 NUMBER STOP ADDMOD EQ STOP CALLER "},"methodIdentifiers":{"_lzReceive((uint32,bytes32,uint64),bytes32,bytes,address,bytes)":"65efa97c","arbitrumChainId()":"1c61621e","arbitrumVRFRequester()":"263de2b5","endpoint()":"5e280f11","lotteryContract()":"b29c662a","nonce()":"affed0e0","owner()":"8da5cb5b","renounceOwnership()":"715018a6","requestRandomness(address)":"ead073c7","requestToUser(uint64)":"9f392c2b","transferOwnership(address)":"f2fde38b","updateArbitrumChainId(uint32)":"5f8db002","updateArbitrumVRFRequester(address)":"3b54db6e","updateLotteryContract(address)":"18610ae0"}}}}}