{"contracts_temp/ShadowDEXAdapter.sol":{"ShadowDEXAdapter":{"abi":[{"inputs":[{"internalType":"address","name":"_router","type":"address"},{"internalType":"address","name":"_quoter","type":"address"},{"internalType":"address","name":"_x33Token","type":"address"},{"internalType":"address","name":"_beetsLpToken","type":"address"},{"internalType":"address","name":"_wsToken","type":"address"},{"internalType":"address","name":"_jackpot","type":"address"},{"internalType":"address","name":"_ve69LP","type":"address"}],"stateMutability":"nonpayable","type":"constructor"},{"anonymous":false,"inputs":[{"indexed":false,"internalType":"uint256","name":"jackpotAmount","type":"uint256"},{"indexed":false,"internalType":"uint256","name":"ve69LPAmount","type":"uint256"}],"name":"FeeDistributed","type":"event"},{"anonymous":false,"inputs":[{"indexed":true,"internalType":"address","name":"previousOwner","type":"address"},{"indexed":true,"internalType":"address","name":"newOwner","type":"address"}],"name":"OwnershipTransferred","type":"event"},{"anonymous":false,"inputs":[{"indexed":true,"internalType":"address","name":"user","type":"address"},{"indexed":false,"internalType":"uint256","name":"x33Amount","type":"uint256"},{"indexed":false,"internalType":"uint256","name":"beetsLpReceived","type":"uint256"},{"indexed":false,"internalType":"uint256","name":"wsEquivalent","type":"uint256"},{"indexed":false,"internalType":"uint256","name":"feeAmount","type":"uint256"}],"name":"SwapExecuted","type":"event"},{"inputs":[],"name":"FEE_DENOMINATOR","outputs":[{"internalType":"uint256","name":"","type":"uint256"}],"stateMutability":"view","type":"function"},{"inputs":[],"name":"JACKPOT_SHARE","outputs":[{"internalType":"uint256","name":"","type":"uint256"}],"stateMutability":"view","type":"function"},{"inputs":[],"name":"POOL_FEE","outputs":[{"internalType":"uint24","name":"","type":"uint24"}],"stateMutability":"view","type":"function"},{"inputs":[],"name":"SHADOW_FEE","outputs":[{"internalType":"uint256","name":"","type":"uint256"}],"stateMutability":"view","type":"function"},{"inputs":[],"name":"SHADOW_WS_POOL","outputs":[{"internalType":"address","name":"","type":"address"}],"stateMutability":"view","type":"function"},{"inputs":[],"name":"VE69LP_SHARE","outputs":[{"internalType":"uint256","name":"","type":"uint256"}],"stateMutability":"view","type":"function"},{"inputs":[],"name":"X33_SHADOW_POOL","outputs":[{"internalType":"address","name":"","type":"address"}],"stateMutability":"view","type":"function"},{"inputs":[],"name":"X33_USDC_POOL","outputs":[{"internalType":"address","name":"","type":"address"}],"stateMutability":"view","type":"function"},{"inputs":[],"name":"beetsLpToken","outputs":[{"internalType":"address","name":"","type":"address"}],"stateMutability":"view","type":"function"},{"inputs":[{"internalType":"uint256","name":"x33Amount","type":"uint256"}],"name":"calculateWSEquivalent","outputs":[{"internalType":"uint256","name":"","type":"uint256"}],"stateMutability":"view","type":"function"},{"inputs":[{"internalType":"address","name":"token","type":"address"},{"internalType":"uint256","name":"amount","type":"uint256"},{"internalType":"address","name":"to","type":"address"}],"name":"emergencyWithdraw","outputs":[],"stateMutability":"nonpayable","type":"function"},{"inputs":[{"internalType":"address","name":"tokenIn","type":"address"},{"internalType":"uint256","name":"amountIn","type":"uint256"}],"name":"estimateWSEquivalent","outputs":[{"internalType":"uint256","name":"","type":"uint256"}],"stateMutability":"view","type":"function"},{"inputs":[{"internalType":"address","name":"tokenIn","type":"address"},{"internalType":"uint256","name":"amountIn","type":"uint256"}],"name":"estimateWrappedSonicEquivalent","outputs":[{"internalType":"uint256","name":"","type":"uint256"}],"stateMutability":"view","type":"function"},{"inputs":[],"name":"getJackpotFeePercentage","outputs":[{"internalType":"uint256","name":"","type":"uint256"}],"stateMutability":"pure","type":"function"},{"inputs":[],"name":"getPartnerName","outputs":[{"internalType":"string","name":"","type":"string"}],"stateMutability":"pure","type":"function"},{"inputs":[],"name":"getPartnerTokens","outputs":[{"internalType":"address[]","name":"","type":"address[]"}],"stateMutability":"view","type":"function"},{"inputs":[{"internalType":"uint256","name":"x33Amount","type":"uint256"}],"name":"getX33ToWSViaContractRatios","outputs":[{"internalType":"uint256","name":"wsAmount","type":"uint256"}],"stateMutability":"view","type":"function"},{"inputs":[],"name":"getve69LPFeePercentage","outputs":[{"internalType":"uint256","name":"","type":"uint256"}],"stateMutability":"pure","type":"function"},{"inputs":[],"name":"jackpot","outputs":[{"internalType":"address","name":"","type":"address"}],"stateMutability":"view","type":"function"},{"inputs":[],"name":"manualRatio","outputs":[{"internalType":"uint256","name":"","type":"uint256"}],"stateMutability":"view","type":"function"},{"inputs":[],"name":"owner","outputs":[{"internalType":"address","name":"","type":"address"}],"stateMutability":"view","type":"function"},{"inputs":[],"name":"priceMethod","outputs":[{"internalType":"enum ShadowDEXAdapter.PriceMethod","name":"","type":"uint8"}],"stateMutability":"view","type":"function"},{"inputs":[],"name":"quoter","outputs":[{"internalType":"contract IShadowQuoter","name":"","type":"address"}],"stateMutability":"view","type":"function"},{"inputs":[],"name":"renounceOwnership","outputs":[],"stateMutability":"nonpayable","type":"function"},{"inputs":[],"name":"router","outputs":[{"internalType":"contract IShadowSwapRouter","name":"","type":"address"}],"stateMutability":"view","type":"function"},{"inputs":[{"internalType":"enum ShadowDEXAdapter.PriceMethod","name":"_method","type":"uint8"}],"name":"setPriceMethod","outputs":[],"stateMutability":"nonpayable","type":"function"},{"inputs":[],"name":"shadowToken","outputs":[{"internalType":"address","name":"","type":"address"}],"stateMutability":"view","type":"function"},{"inputs":[{"internalType":"address","name":"tokenIn","type":"address"},{"internalType":"uint256","name":"amountIn","type":"uint256"},{"internalType":"uint256","name":"minAmountOut","type":"uint256"},{"internalType":"uint256","name":"deadline","type":"uint256"},{"internalType":"address","name":"recipient","type":"address"}],"name":"swapForJackpotEntry","outputs":[{"internalType":"uint256","name":"amountOut","type":"uint256"},{"internalType":"uint256","name":"wsEquivalent","type":"uint256"}],"stateMutability":"nonpayable","type":"function"},{"inputs":[{"internalType":"address","name":"newOwner","type":"address"}],"name":"transferOwnership","outputs":[],"stateMutability":"nonpayable","type":"function"},{"inputs":[{"internalType":"address","name":"_jackpot","type":"address"},{"internalType":"address","name":"_ve69LP","type":"address"}],"name":"updateFeeRecipients","outputs":[],"stateMutability":"nonpayable","type":"function"},{"inputs":[{"internalType":"uint256","name":"_newRatio","type":"uint256"}],"name":"updateManualRatio","outputs":[],"stateMutability":"nonpayable","type":"function"},{"inputs":[],"name":"ve69LP","outputs":[{"internalType":"address","name":"","type":"address"}],"stateMutability":"view","type":"function"},{"inputs":[],"name":"wsToken","outputs":[{"internalType":"address","name":"","type":"address"}],"stateMutability":"view","type":"function"},{"inputs":[],"name":"x33Token","outputs":[{"internalType":"address","name":"","type":"address"}],"stateMutability":"view","type":"function"},{"inputs":[],"name":"xShadowToken","outputs":[{"internalType":"address","name":"","type":"address"}],"stateMutability":"view","type":"function"}],"evm":{"bytecode":{"linkReferences":{},"object":"6101606040526003805460ff60a01b1916600160a01b179055670de0b6b3a76400006004553480156200003157600080fd5b5060405162002152380380620021528339810160408190526200005491620005e8565b6200005f33620001b0565b600180556001600160a01b0380881660805286811660a0528581166101008190528582166101205290841661014052604080516338d52e0f60e01b815290516338d52e0f916004808201926020929091908290030181865afa158015620000ca573d6000803e3d6000fd5b505050506040513d601f19601f82011682018060405250810190620000f091906200067d565b6001600160a01b031660e081905260408051631e49236560e21b815290516379248d94916004808201926020929091908290030181865afa1580156200013a573d6000803e3d6000fd5b505050506040513d601f19601f820116820180604052508101906200016091906200067d565b6001600160a01b0390811660c052600280546001600160a01b03199081168584161790915560038054909116838316179055620001a39086168860001962000200565b5050505050505062000759565b600080546001600160a01b038381166001600160a01b0319831681178455604051919092169283917f8be0079c531659141344cd1fd0a4f28419497f9722a3daafe3b4186f6b6457e09190a35050565b8015806200027e5750604051636eb1769f60e11b81523060048201526001600160a01b03838116602483015284169063dd62ed3e90604401602060405180830381865afa15801562000256573d6000803e3d6000fd5b505050506040513d601f19601f820116820180604052508101906200027c9190620006a2565b155b620002f65760405162461bcd60e51b815260206004820152603660248201527f5361666545524332303a20617070726f76652066726f6d206e6f6e2d7a65726f60448201527f20746f206e6f6e2d7a65726f20616c6c6f77616e63650000000000000000000060648201526084015b60405180910390fd5b604080516001600160a01b038416602482015260448082018490528251808303909101815260649091019091526020810180516001600160e01b0390811663095ea7b360e01b179091526200034e9185916200035316565b505050565b6040805180820190915260208082527f5361666545524332303a206c6f772d6c6576656c2063616c6c206661696c656490820152600090620003a2906001600160a01b03851690849062000427565b9050805160001480620003c6575080806020019051810190620003c69190620006bc565b6200034e5760405162461bcd60e51b815260206004820152602a60248201527f5361666545524332303a204552433230206f7065726174696f6e20646964206e6044820152691bdd081cdd58d8d9595960b21b6064820152608401620002ed565b606062000438848460008562000440565b949350505050565b606082471015620004a35760405162461bcd60e51b815260206004820152602660248201527f416464726573733a20696e73756666696369656e742062616c616e636520666f6044820152651c8818d85b1b60d21b6064820152608401620002ed565b600080866001600160a01b03168587604051620004c1919062000706565b60006040518083038185875af1925050503d806000811462000500576040519150601f19603f3d011682016040523d82523d6000602084013e62000505565b606091505b509092509050620005198783838762000524565b979650505050505050565b606083156200059857825160000362000590576001600160a01b0385163b620005905760405162461bcd60e51b815260206004820152601d60248201527f416464726573733a2063616c6c20746f206e6f6e2d636f6e74726163740000006044820152606401620002ed565b508162000438565b620004388383815115620005af5781518083602001fd5b8060405162461bcd60e51b8152600401620002ed919062000724565b80516001600160a01b0381168114620005e357600080fd5b919050565b600080600080600080600060e0888a0312156200060457600080fd5b6200060f88620005cb565b96506200061f60208901620005cb565b95506200062f60408901620005cb565b94506200063f60608901620005cb565b93506200064f60808901620005cb565b92506200065f60a08901620005cb565b91506200066f60c08901620005cb565b905092959891949750929550565b6000602082840312156200069057600080fd5b6200069b82620005cb565b9392505050565b600060208284031215620006b557600080fd5b5051919050565b600060208284031215620006cf57600080fd5b815180151581146200069b57600080fd5b60005b83811015620006fd578181015183820152602001620006e3565b50506000910152565b600082516200071a818460208701620006e0565b9190910192915050565b602081526000825180602084015262000745816040850160208701620006e0565b601f01601f19169190910160400192915050565b60805160a05160c05160e05161010051610120516101405161193c620008166000396000818161049801528181610afa0152610e4e015260008181610248015261079f0152600081816103dd01528181610562015281816105e30152818161097301528181610ca701528181610e260152610fe00152600081816104e50152610a1a0152600081816105330152610ad201526000818161040401528181610b3b0152610e9101526000818161050c0152610800015261193c6000f3fe608060405234801561001057600080fd5b50600436106102115760003560e01c8063a4c24ec611610125578063d93879b5116100ad578063f1f736201161007c578063f1f73620146104ba578063f2fde38b146104cd578063f382331f146104e0578063f887ea4014610507578063ffc5d97a1461052e57600080fd5b8063d93879b51461046e578063db7863b4146103c5578063dd1b9c4a14610476578063ef4907aa1461049357600080fd5b8063c64d61f5116100f4578063c64d61f51461032a578063c6bbd5a7146103ff578063cbe1e7d514610426578063d73792a914610439578063d8c370321461044257600080fd5b8063a4c24ec6146103aa578063aaae0963146103b2578063b241a890146103c5578063b9b39e46146103d857600080fd5b8063551512de116101a85780636fcd8207116101775780636fcd820714610360578063715018a6146103695780637d32bd9a146103715780638da5cb5b14610384578063a19d466a1461039557600080fd5b8063551512de1461031557806358d276d51461032a57806367b76fac146103325780636b31ee011461034d57600080fd5b806335d31d49116101e457806335d31d49146102b657806338ceb797146102d157806338f61a5f146102ec57806343f9430d1461030d57600080fd5b80630d22ce3f14610216578063286134fa146102435780632aca8e2b146102825780632d96d29314610295575b600080fd5b6102296102243660046115e4565b610555565b604080519283526020830191909152015b60405180910390f35b61026a7f000000000000000000000000000000000000000000000000000000000000000081565b6040516001600160a01b03909116815260200161023a565b60035461026a906001600160a01b031681565b6102a86102a3366004611634565b61096e565b60405190815260200161023a565b61026a73f19748a0e269c6965a84f8c98ca8c47a064d4dd081565b61026a73e076acf0c028ac2ba1ec4807d592bfb2c524fdb081565b60035461030090600160a01b900460ff1681565b60405161023a9190611663565b6102a8610bf6565b61032861032336600461168b565b610c15565b005b6102a8604581565b61026a73e8b696fb500c2a3b1faa5e0fce4d53d6ad26765f81565b60025461026a906001600160a01b031681565b6102a860045481565b610328610c36565b61032861037f3660046116c7565b610c4a565b6000546001600160a01b031661026a565b61039d610c7f565b60405161023a91906116ef565b6102a8610cf6565b6102a86103c0366004611634565b610d05565b6102a86103d336600461173c565b610fdc565b61026a7f000000000000000000000000000000000000000000000000000000000000000081565b61026a7f000000000000000000000000000000000000000000000000000000000000000081565b610328610434366004611634565b611074565b6102a86103e881565b604080518082018252600a8152690a6d0c2c8deee40888ab60b31b6020820152905161023a919061178a565b6102a8601f81565b61047f610bb881565b60405162ffffff909116815260200161023a565b61026a7f000000000000000000000000000000000000000000000000000000000000000081565b6103286104c83660046117bd565b6110d1565b6103286104db3660046117f0565b6111b3565b61026a7f000000000000000000000000000000000000000000000000000000000000000081565b61026a7f000000000000000000000000000000000000000000000000000000000000000081565b61026a7f000000000000000000000000000000000000000000000000000000000000000081565b60008061056061122c565b7f00000000000000000000000000000000000000000000000000000000000000006001600160a01b0316876001600160a01b0316146105e15760405162461bcd60e51b815260206004820152601860248201527713db9b1e481e0cccc81d1bdad95b881cdd5c1c1bdc9d195960421b60448201526064015b60405180910390fd5b7f00000000000000000000000000000000000000000000000000000000000000006001600160a01b0316638380edb76040518163ffffffff1660e01b8152600401602060405180830381865afa15801561063f573d6000803e3d6000fd5b505050506040513d601f19601f82011682018060405250810190610663919061180b565b6106af5760405162461bcd60e51b815260206004820152601760248201527f7833332069732063757272656e746c79206c6f636b656400000000000000000060448201526064016105d8565b6106c46001600160a01b038816333089611285565b60006103e86106d4604589611843565b6106de919061185a565b905060006106ec828961187c565b9050600060646106fd604585611843565b610707919061185a565b90506000610715828561187c565b600254909150610732906001600160a01b038d81169116846112f6565b60035461074c906001600160a01b038d81169116836112f6565b60408051838152602081018390527f61930a6c1553eab59d5766da6e1bab8eba982aec848ae7683452f4a6423b6e4a910160405180910390a160408051610100810182526001600160a01b03808e1682527f000000000000000000000000000000000000000000000000000000000000000081166020830152610bb8828401528981166060830152608082018b905260a0820186905260c082018c9052600060e0830152915163414bf38960e01b815290917f0000000000000000000000000000000000000000000000000000000000000000169063414bf3899061089990849060040181516001600160a01b03908116825260208084015182169083015260408084015162ffffff16908301526060808401518216908301526080808401519083015260a0838101519083015260c0808401519083015260e09283015116918101919091526101000190565b6020604051808303816000875af11580156108b8573d6000803e3d6000fd5b505050506040513d601f19601f820116820180604052508101906108dc919061188f565b96506108e78b610d05565b955060646108f6876045611843565b610900919061185a565b604080518d8152602081018a9052908101829052606081018790529096506001600160a01b038916907f6e897e83b2ea962118c2abaeb4ffb85a1a63da2c8f1880660079b88983900d849060800160405180910390a2505050505061096460018055565b9550959350505050565b6000807f00000000000000000000000000000000000000000000000000000000000000006001600160a01b03166371ca337d6040518163ffffffff1660e01b8152600401602060405180830381865afa1580156109cf573d6000803e3d6000fd5b505050506040513d601f19601f820116820180604052508101906109f3919061188f565b90506000670de0b6b3a7640000610a0a8386611843565b610a14919061185a565b905060007f00000000000000000000000000000000000000000000000000000000000000006001600160a01b03166371ca337d6040518163ffffffff1660e01b8152600401602060405180830381865afa158015610a76573d6000803e3d6000fd5b505050506040513d601f19601f82011682018060405250810190610a9a919061188f565b90506000670de0b6b3a7640000610ab18385611843565b610abb919061185a565b60405163f7729d4360e01b81526001600160a01b037f0000000000000000000000000000000000000000000000000000000000000000811660048301527f000000000000000000000000000000000000000000000000000000000000000081166024830152610bb8604483015260648201839052600060848301529192507f00000000000000000000000000000000000000000000000000000000000000009091169063f7729d439060a401602060405180830381865afa925050508015610ba0575060408051601f3d908101601f19168201909252610b9d9181019061188f565b60015b610bec5760405162461bcd60e51b815260206004820152601d60248201527f43616e6e6f742067657420534841444f5720746f20775320707269636500000060448201526064016105d8565b9695505050505050565b60006064610c06601f6045611843565b610c10919061185a565b905090565b610c1d611326565b610c316001600160a01b03841682846112f6565b505050565b610c3e611326565b610c486000611380565b565b610c52611326565b6003805482919060ff60a01b1916600160a01b836002811115610c7757610c7761164d565b021790555050565b60408051600180825281830190925260609160009190602080830190803683370190505090507f000000000000000000000000000000000000000000000000000000000000000081600081518110610cd957610cd96118a8565b6001600160a01b0390921660209283029190910190910152919050565b60006064610c06604580611843565b600080600354600160a01b900460ff166002811115610d2657610d2661164d565b03610d5257670de0b6b3a764000060045483610d429190611843565b610d4c919061185a565b92915050565b6001600354600160a01b900460ff166002811115610d7257610d7261164d565b03610dea57604051632d96d29360e01b8152600481018390523090632d96d29390602401602060405180830381865afa925050508015610dcf575060408051601f3d908101601f19168201909252610dcc9181019061188f565b60015b610d4c57670de0b6b3a764000060045483610d429190611843565b6002600354600160a01b900460ff166002811115610e0a57610e0a61164d565b03610fc55760405163f7729d4360e01b81526001600160a01b037f0000000000000000000000000000000000000000000000000000000000000000811660048301527f000000000000000000000000000000000000000000000000000000000000000081166024830152610bb86044830152606482018490526000608483018190529182917f0000000000000000000000000000000000000000000000000000000000000000169063f7729d439060a401602060405180830381865afa925050508015610ef4575060408051601f3d908101601f19168201909252610ef19181019061188f565b60015b15610f1457610f0381836118be565b915082610f0f816118d1565b935050505b604051632d96d29360e01b8152600481018590523090632d96d29390602401602060405180830381865afa925050508015610f6c575060408051601f3d908101601f19168201909252610f699181019061188f565b60015b15610f8c57610f7b81836118be565b915082610f87816118d1565b935050505b8115610fa457610f9c828261185a565b949350505050565b670de0b6b3a764000060045485610fbb9190611843565b610f9c919061185a565b670de0b6b3a764000060045483610d429190611843565b60007f00000000000000000000000000000000000000000000000000000000000000006001600160a01b0316836001600160a01b03161461105a5760405162461bcd60e51b815260206004820152601860248201527713db9b1e481e0cccc81d1bdad95b881cdd5c1c1bdc9d195960421b60448201526064016105d8565b600061106583610d05565b90506064610fbb826045611843565b61107c611326565b600081116110cc5760405162461bcd60e51b815260206004820152601c60248201527f526174696f206d7573742062652067726561746572207468616e20300000000060448201526064016105d8565b600455565b6110d9611326565b6001600160a01b03821661112f5760405162461bcd60e51b815260206004820152601e60248201527f4a61636b706f742063616e6e6f74206265207a65726f2061646472657373000060448201526064016105d8565b6001600160a01b0381166111855760405162461bcd60e51b815260206004820152601d60248201527f766536394c502063616e6e6f74206265207a65726f206164647265737300000060448201526064016105d8565b600280546001600160a01b039384166001600160a01b03199182161790915560038054929093169116179055565b6111bb611326565b6001600160a01b0381166112205760405162461bcd60e51b815260206004820152602660248201527f4f776e61626c653a206e6577206f776e657220697320746865207a65726f206160448201526564647265737360d01b60648201526084016105d8565b61122981611380565b50565b60026001540361127e5760405162461bcd60e51b815260206004820152601f60248201527f5265656e7472616e637947756172643a207265656e7472616e742063616c6c0060448201526064016105d8565b6002600155565b6040516001600160a01b03808516602483015283166044820152606481018290526112f09085906323b872dd60e01b906084015b60408051601f198184030181529190526020810180516001600160e01b03166001600160e01b0319909316929092179091526113d0565b50505050565b6040516001600160a01b038316602482015260448101829052610c3190849063a9059cbb60e01b906064016112b9565b6000546001600160a01b03163314610c485760405162461bcd60e51b815260206004820181905260248201527f4f776e61626c653a2063616c6c6572206973206e6f7420746865206f776e657260448201526064016105d8565b600080546001600160a01b038381166001600160a01b0319831681178455604051919092169283917f8be0079c531659141344cd1fd0a4f28419497f9722a3daafe3b4186f6b6457e09190a35050565b6000611425826040518060400160405280602081526020017f5361666545524332303a206c6f772d6c6576656c2063616c6c206661696c6564815250856001600160a01b03166114a59092919063ffffffff16565b9050805160001480611446575080806020019051810190611446919061180b565b610c315760405162461bcd60e51b815260206004820152602a60248201527f5361666545524332303a204552433230206f7065726174696f6e20646964206e6044820152691bdd081cdd58d8d9595960b21b60648201526084016105d8565b6060610f9c848460008585600080866001600160a01b031685876040516114cc91906118ea565b60006040518083038185875af1925050503d8060008114611509576040519150601f19603f3d011682016040523d82523d6000602084013e61150e565b606091505b509150915061151f8783838761152a565b979650505050505050565b60608315611599578251600003611592576001600160a01b0385163b6115925760405162461bcd60e51b815260206004820152601d60248201527f416464726573733a2063616c6c20746f206e6f6e2d636f6e747261637400000060448201526064016105d8565b5081610f9c565b610f9c83838151156115ae5781518083602001fd5b8060405162461bcd60e51b81526004016105d8919061178a565b80356001600160a01b03811681146115df57600080fd5b919050565b600080600080600060a086880312156115fc57600080fd5b611605866115c8565b9450602086013593506040860135925060608601359150611628608087016115c8565b90509295509295909350565b60006020828403121561164657600080fd5b5035919050565b634e487b7160e01b600052602160045260246000fd5b602081016003831061168557634e487b7160e01b600052602160045260246000fd5b91905290565b6000806000606084860312156116a057600080fd5b6116a9846115c8565b9250602084013591506116be604085016115c8565b90509250925092565b6000602082840312156116d957600080fd5b8135600381106116e857600080fd5b9392505050565b6020808252825182820181905260009190848201906040850190845b818110156117305783516001600160a01b03168352928401929184019160010161170b565b50909695505050505050565b6000806040838503121561174f57600080fd5b611758836115c8565b946020939093013593505050565b60005b83811015611781578181015183820152602001611769565b50506000910152565b60208152600082518060208401526117a9816040850160208701611766565b601f01601f19169190910160400192915050565b600080604083850312156117d057600080fd5b6117d9836115c8565b91506117e7602084016115c8565b90509250929050565b60006020828403121561180257600080fd5b6116e8826115c8565b60006020828403121561181d57600080fd5b815180151581146116e857600080fd5b634e487b7160e01b600052601160045260246000fd5b8082028115828204841417610d4c57610d4c61182d565b60008261187757634e487b7160e01b600052601260045260246000fd5b500490565b81810381811115610d4c57610d4c61182d565b6000602082840312156118a157600080fd5b5051919050565b634e487b7160e01b600052603260045260246000fd5b80820180821115610d4c57610d4c61182d565b6000600182016118e3576118e361182d565b5060010190565b600082516118fc818460208701611766565b919091019291505056fea26469706673582212208e4379138e846411790ee66c461f40efeb33b874c34a3f248c54f14ae37f51cd64736f6c63430008140033","opcodes":"PUSH2 0x160 PUSH1 0x40 MSTORE PUSH1 0x3 DUP1 SLOAD PUSH1 0xFF PUSH1 0xA0 SHL NOT AND PUSH1 0x1 PUSH1 0xA0 SHL OR SWAP1 SSTORE PUSH8 0xDE0B6B3A7640000 PUSH1 0x4 SSTORE CALLVALUE DUP1 ISZERO PUSH3 0x31 JUMPI PUSH1 0x0 DUP1 REVERT JUMPDEST POP PUSH1 0x40 MLOAD PUSH3 0x2152 CODESIZE SUB DUP1 PUSH3 0x2152 DUP4 CODECOPY DUP2 ADD PUSH1 0x40 DUP2 SWAP1 MSTORE PUSH3 0x54 SWAP2 PUSH3 0x5E8 JUMP JUMPDEST PUSH3 0x5F CALLER PUSH3 0x1B0 JUMP JUMPDEST PUSH1 0x1 DUP1 SSTORE PUSH1 0x1 PUSH1 0x1 PUSH1 0xA0 SHL SUB DUP1 DUP9 AND PUSH1 0x80 MSTORE DUP7 DUP2 AND PUSH1 0xA0 MSTORE DUP6 DUP2 AND PUSH2 0x100 DUP2 SWAP1 MSTORE DUP6 DUP3 AND PUSH2 0x120 MSTORE SWAP1 DUP5 AND PUSH2 0x140 MSTORE PUSH1 0x40 DUP1 MLOAD PUSH4 0x38D52E0F PUSH1 0xE0 SHL DUP2 MSTORE SWAP1 MLOAD PUSH4 0x38D52E0F SWAP2 PUSH1 0x4 DUP1 DUP3 ADD SWAP3 PUSH1 0x20 SWAP3 SWAP1 SWAP2 SWAP1 DUP3 SWAP1 SUB ADD DUP2 DUP7 GAS STATICCALL ISZERO DUP1 ISZERO PUSH3 0xCA JUMPI RETURNDATASIZE PUSH1 0x0 DUP1 RETURNDATACOPY RETURNDATASIZE PUSH1 0x0 REVERT JUMPDEST POP POP POP POP PUSH1 0x40 MLOAD RETURNDATASIZE PUSH1 0x1F NOT PUSH1 0x1F DUP3 ADD AND DUP3 ADD DUP1 PUSH1 0x40 MSTORE POP DUP2 ADD SWAP1 PUSH3 0xF0 SWAP2 SWAP1 PUSH3 0x67D JUMP JUMPDEST PUSH1 0x1 PUSH1 0x1 PUSH1 0xA0 SHL SUB AND PUSH1 0xE0 DUP2 SWAP1 MSTORE PUSH1 0x40 DUP1 MLOAD PUSH4 0x1E492365 PUSH1 0xE2 SHL DUP2 MSTORE SWAP1 MLOAD PUSH4 0x79248D94 SWAP2 PUSH1 0x4 DUP1 DUP3 ADD SWAP3 PUSH1 0x20 SWAP3 SWAP1 SWAP2 SWAP1 DUP3 SWAP1 SUB ADD DUP2 DUP7 GAS STATICCALL ISZERO DUP1 ISZERO PUSH3 0x13A JUMPI RETURNDATASIZE PUSH1 0x0 DUP1 RETURNDATACOPY RETURNDATASIZE PUSH1 0x0 REVERT JUMPDEST POP POP POP POP PUSH1 0x40 MLOAD RETURNDATASIZE PUSH1 0x1F NOT PUSH1 0x1F DUP3 ADD AND DUP3 ADD DUP1 PUSH1 0x40 MSTORE POP DUP2 ADD SWAP1 PUSH3 0x160 SWAP2 SWAP1 PUSH3 0x67D JUMP JUMPDEST PUSH1 0x1 PUSH1 0x1 PUSH1 0xA0 SHL SUB SWAP1 DUP2 AND PUSH1 0xC0 MSTORE PUSH1 0x2 DUP1 SLOAD PUSH1 0x1 PUSH1 0x1 PUSH1 0xA0 SHL SUB NOT SWAP1 DUP2 AND DUP6 DUP5 AND OR SWAP1 SWAP2 SSTORE PUSH1 0x3 DUP1 SLOAD SWAP1 SWAP2 AND DUP4 DUP4 AND OR SWAP1 SSTORE PUSH3 0x1A3 SWAP1 DUP7 AND DUP9 PUSH1 0x0 NOT PUSH3 0x200 JUMP JUMPDEST POP POP POP POP POP POP POP PUSH3 0x759 JUMP JUMPDEST PUSH1 0x0 DUP1 SLOAD PUSH1 0x1 PUSH1 0x1 PUSH1 0xA0 SHL SUB DUP4 DUP2 AND PUSH1 0x1 PUSH1 0x1 PUSH1 0xA0 SHL SUB NOT DUP4 AND DUP2 OR DUP5 SSTORE PUSH1 0x40 MLOAD SWAP2 SWAP1 SWAP3 AND SWAP3 DUP4 SWAP2 PUSH32 0x8BE0079C531659141344CD1FD0A4F28419497F9722A3DAAFE3B4186F6B6457E0 SWAP2 SWAP1 LOG3 POP POP JUMP JUMPDEST DUP1 ISZERO DUP1 PUSH3 0x27E JUMPI POP PUSH1 0x40 MLOAD PUSH4 0x6EB1769F PUSH1 0xE1 SHL DUP2 MSTORE ADDRESS PUSH1 0x4 DUP3 ADD MSTORE PUSH1 0x1 PUSH1 0x1 PUSH1 0xA0 SHL SUB DUP4 DUP2 AND PUSH1 0x24 DUP4 ADD MSTORE DUP5 AND SWAP1 PUSH4 0xDD62ED3E SWAP1 PUSH1 0x44 ADD PUSH1 0x20 PUSH1 0x40 MLOAD DUP1 DUP4 SUB DUP2 DUP7 GAS STATICCALL ISZERO DUP1 ISZERO PUSH3 0x256 JUMPI RETURNDATASIZE PUSH1 0x0 DUP1 RETURNDATACOPY RETURNDATASIZE PUSH1 0x0 REVERT JUMPDEST POP POP POP POP PUSH1 0x40 MLOAD RETURNDATASIZE PUSH1 0x1F NOT PUSH1 0x1F DUP3 ADD AND DUP3 ADD DUP1 PUSH1 0x40 MSTORE POP DUP2 ADD SWAP1 PUSH3 0x27C SWAP2 SWAP1 PUSH3 0x6A2 JUMP JUMPDEST ISZERO JUMPDEST PUSH3 0x2F6 JUMPI PUSH1 0x40 MLOAD PUSH3 0x461BCD PUSH1 0xE5 SHL DUP2 MSTORE PUSH1 0x20 PUSH1 0x4 DUP3 ADD MSTORE PUSH1 0x36 PUSH1 0x24 DUP3 ADD MSTORE PUSH32 0x5361666545524332303A20617070726F76652066726F6D206E6F6E2D7A65726F PUSH1 0x44 DUP3 ADD MSTORE PUSH32 0x20746F206E6F6E2D7A65726F20616C6C6F77616E636500000000000000000000 PUSH1 0x64 DUP3 ADD MSTORE PUSH1 0x84 ADD JUMPDEST PUSH1 0x40 MLOAD DUP1 SWAP2 SUB SWAP1 REVERT JUMPDEST PUSH1 0x40 DUP1 MLOAD PUSH1 0x1 PUSH1 0x1 PUSH1 0xA0 SHL SUB DUP5 AND PUSH1 0x24 DUP3 ADD MSTORE PUSH1 0x44 DUP1 DUP3 ADD DUP5 SWAP1 MSTORE DUP3 MLOAD DUP1 DUP4 SUB SWAP1 SWAP2 ADD DUP2 MSTORE PUSH1 0x64 SWAP1 SWAP2 ADD SWAP1 SWAP2 MSTORE PUSH1 0x20 DUP2 ADD DUP1 MLOAD PUSH1 0x1 PUSH1 0x1 PUSH1 0xE0 SHL SUB SWAP1 DUP2 AND PUSH4 0x95EA7B3 PUSH1 0xE0 SHL OR SWAP1 SWAP2 MSTORE PUSH3 0x34E SWAP2 DUP6 SWAP2 PUSH3 0x353 AND JUMP JUMPDEST POP POP POP JUMP JUMPDEST PUSH1 0x40 DUP1 MLOAD DUP1 DUP3 ADD SWAP1 SWAP2 MSTORE PUSH1 0x20 DUP1 DUP3 MSTORE PUSH32 0x5361666545524332303A206C6F772D6C6576656C2063616C6C206661696C6564 SWAP1 DUP3 ADD MSTORE PUSH1 0x0 SWAP1 PUSH3 0x3A2 SWAP1 PUSH1 0x1 PUSH1 0x1 PUSH1 0xA0 SHL SUB DUP6 AND SWAP1 DUP5 SWAP1 PUSH3 0x427 JUMP JUMPDEST SWAP1 POP DUP1 MLOAD PUSH1 0x0 EQ DUP1 PUSH3 0x3C6 JUMPI POP DUP1 DUP1 PUSH1 0x20 ADD SWAP1 MLOAD DUP2 ADD SWAP1 PUSH3 0x3C6 SWAP2 SWAP1 PUSH3 0x6BC JUMP JUMPDEST PUSH3 0x34E JUMPI PUSH1 0x40 MLOAD PUSH3 0x461BCD PUSH1 0xE5 SHL DUP2 MSTORE PUSH1 0x20 PUSH1 0x4 DUP3 ADD MSTORE PUSH1 0x2A PUSH1 0x24 DUP3 ADD MSTORE PUSH32 0x5361666545524332303A204552433230206F7065726174696F6E20646964206E PUSH1 0x44 DUP3 ADD MSTORE PUSH10 0x1BDD081CDD58D8D95959 PUSH1 0xB2 SHL PUSH1 0x64 DUP3 ADD MSTORE PUSH1 0x84 ADD PUSH3 0x2ED JUMP JUMPDEST PUSH1 0x60 PUSH3 0x438 DUP5 DUP5 PUSH1 0x0 DUP6 PUSH3 0x440 JUMP JUMPDEST SWAP5 SWAP4 POP POP POP POP JUMP JUMPDEST PUSH1 0x60 DUP3 SELFBALANCE LT ISZERO PUSH3 0x4A3 JUMPI PUSH1 0x40 MLOAD PUSH3 0x461BCD PUSH1 0xE5 SHL DUP2 MSTORE PUSH1 0x20 PUSH1 0x4 DUP3 ADD MSTORE PUSH1 0x26 PUSH1 0x24 DUP3 ADD MSTORE PUSH32 0x416464726573733A20696E73756666696369656E742062616C616E636520666F PUSH1 0x44 DUP3 ADD MSTORE PUSH6 0x1C8818D85B1B PUSH1 0xD2 SHL PUSH1 0x64 DUP3 ADD MSTORE PUSH1 0x84 ADD PUSH3 0x2ED JUMP JUMPDEST PUSH1 0x0 DUP1 DUP7 PUSH1 0x1 PUSH1 0x1 PUSH1 0xA0 SHL SUB AND DUP6 DUP8 PUSH1 0x40 MLOAD PUSH3 0x4C1 SWAP2 SWAP1 PUSH3 0x706 JUMP JUMPDEST PUSH1 0x0 PUSH1 0x40 MLOAD DUP1 DUP4 SUB DUP2 DUP6 DUP8 GAS CALL SWAP3 POP POP POP RETURNDATASIZE DUP1 PUSH1 0x0 DUP2 EQ PUSH3 0x500 JUMPI PUSH1 0x40 MLOAD SWAP2 POP PUSH1 0x1F NOT PUSH1 0x3F RETURNDATASIZE ADD AND DUP3 ADD PUSH1 0x40 MSTORE RETURNDATASIZE DUP3 MSTORE RETURNDATASIZE PUSH1 0x0 PUSH1 0x20 DUP5 ADD RETURNDATACOPY PUSH3 0x505 JUMP JUMPDEST PUSH1 0x60 SWAP2 POP JUMPDEST POP SWAP1 SWAP3 POP SWAP1 POP PUSH3 0x519 DUP8 DUP4 DUP4 DUP8 PUSH3 0x524 JUMP JUMPDEST SWAP8 SWAP7 POP POP POP POP POP POP POP JUMP JUMPDEST PUSH1 0x60 DUP4 ISZERO PUSH3 0x598 JUMPI DUP3 MLOAD PUSH1 0x0 SUB PUSH3 0x590 JUMPI PUSH1 0x1 PUSH1 0x1 PUSH1 0xA0 SHL SUB DUP6 AND EXTCODESIZE PUSH3 0x590 JUMPI PUSH1 0x40 MLOAD PUSH3 0x461BCD PUSH1 0xE5 SHL DUP2 MSTORE PUSH1 0x20 PUSH1 0x4 DUP3 ADD MSTORE PUSH1 0x1D PUSH1 0x24 DUP3 ADD MSTORE PUSH32 0x416464726573733A2063616C6C20746F206E6F6E2D636F6E7472616374000000 PUSH1 0x44 DUP3 ADD MSTORE PUSH1 0x64 ADD PUSH3 0x2ED JUMP JUMPDEST POP DUP2 PUSH3 0x438 JUMP JUMPDEST PUSH3 0x438 DUP4 DUP4 DUP2 MLOAD ISZERO PUSH3 0x5AF JUMPI DUP2 MLOAD DUP1 DUP4 PUSH1 0x20 ADD REVERT JUMPDEST DUP1 PUSH1 0x40 MLOAD PUSH3 0x461BCD PUSH1 0xE5 SHL DUP2 MSTORE PUSH1 0x4 ADD PUSH3 0x2ED SWAP2 SWAP1 PUSH3 0x724 JUMP JUMPDEST DUP1 MLOAD PUSH1 0x1 PUSH1 0x1 PUSH1 0xA0 SHL SUB DUP2 AND DUP2 EQ PUSH3 0x5E3 JUMPI PUSH1 0x0 DUP1 REVERT JUMPDEST SWAP2 SWAP1 POP JUMP JUMPDEST PUSH1 0x0 DUP1 PUSH1 0x0 DUP1 PUSH1 0x0 DUP1 PUSH1 0x0 PUSH1 0xE0 DUP9 DUP11 SUB SLT ISZERO PUSH3 0x604 JUMPI PUSH1 0x0 DUP1 REVERT JUMPDEST PUSH3 0x60F DUP9 PUSH3 0x5CB JUMP JUMPDEST SWAP7 POP PUSH3 0x61F PUSH1 0x20 DUP10 ADD PUSH3 0x5CB JUMP JUMPDEST SWAP6 POP PUSH3 0x62F PUSH1 0x40 DUP10 ADD PUSH3 0x5CB JUMP JUMPDEST SWAP5 POP PUSH3 0x63F PUSH1 0x60 DUP10 ADD PUSH3 0x5CB JUMP JUMPDEST SWAP4 POP PUSH3 0x64F PUSH1 0x80 DUP10 ADD PUSH3 0x5CB JUMP JUMPDEST SWAP3 POP PUSH3 0x65F PUSH1 0xA0 DUP10 ADD PUSH3 0x5CB JUMP JUMPDEST SWAP2 POP PUSH3 0x66F PUSH1 0xC0 DUP10 ADD PUSH3 0x5CB JUMP JUMPDEST SWAP1 POP SWAP3 SWAP6 SWAP9 SWAP2 SWAP5 SWAP8 POP SWAP3 SWAP6 POP JUMP JUMPDEST PUSH1 0x0 PUSH1 0x20 DUP3 DUP5 SUB SLT ISZERO PUSH3 0x690 JUMPI PUSH1 0x0 DUP1 REVERT JUMPDEST PUSH3 0x69B DUP3 PUSH3 0x5CB JUMP JUMPDEST SWAP4 SWAP3 POP POP POP JUMP JUMPDEST PUSH1 0x0 PUSH1 0x20 DUP3 DUP5 SUB SLT ISZERO PUSH3 0x6B5 JUMPI PUSH1 0x0 DUP1 REVERT JUMPDEST POP MLOAD SWAP2 SWAP1 POP JUMP JUMPDEST PUSH1 0x0 PUSH1 0x20 DUP3 DUP5 SUB SLT ISZERO PUSH3 0x6CF JUMPI PUSH1 0x0 DUP1 REVERT JUMPDEST DUP2 MLOAD DUP1 ISZERO ISZERO DUP2 EQ PUSH3 0x69B JUMPI PUSH1 0x0 DUP1 REVERT JUMPDEST PUSH1 0x0 JUMPDEST DUP4 DUP2 LT ISZERO PUSH3 0x6FD JUMPI DUP2 DUP2 ADD MLOAD DUP4 DUP3 ADD MSTORE PUSH1 0x20 ADD PUSH3 0x6E3 JUMP JUMPDEST POP POP PUSH1 0x0 SWAP2 ADD MSTORE JUMP JUMPDEST PUSH1 0x0 DUP3 MLOAD PUSH3 0x71A DUP2 DUP5 PUSH1 0x20 DUP8 ADD PUSH3 0x6E0 JUMP JUMPDEST SWAP2 SWAP1 SWAP2 ADD SWAP3 SWAP2 POP POP JUMP JUMPDEST PUSH1 0x20 DUP2 MSTORE PUSH1 0x0 DUP3 MLOAD DUP1 PUSH1 0x20 DUP5 ADD MSTORE PUSH3 0x745 DUP2 PUSH1 0x40 DUP6 ADD PUSH1 0x20 DUP8 ADD PUSH3 0x6E0 JUMP JUMPDEST PUSH1 0x1F ADD PUSH1 0x1F NOT AND SWAP2 SWAP1 SWAP2 ADD PUSH1 0x40 ADD SWAP3 SWAP2 POP POP JUMP JUMPDEST PUSH1 0x80 MLOAD PUSH1 0xA0 MLOAD PUSH1 0xC0 MLOAD PUSH1 0xE0 MLOAD PUSH2 0x100 MLOAD PUSH2 0x120 MLOAD PUSH2 0x140 MLOAD PUSH2 0x193C PUSH3 0x816 PUSH1 0x0 CODECOPY PUSH1 0x0 DUP2 DUP2 PUSH2 0x498 ADD MSTORE DUP2 DUP2 PUSH2 0xAFA ADD MSTORE PUSH2 0xE4E ADD MSTORE PUSH1 0x0 DUP2 DUP2 PUSH2 0x248 ADD MSTORE PUSH2 0x79F ADD MSTORE PUSH1 0x0 DUP2 DUP2 PUSH2 0x3DD ADD MSTORE DUP2 DUP2 PUSH2 0x562 ADD MSTORE DUP2 DUP2 PUSH2 0x5E3 ADD MSTORE DUP2 DUP2 PUSH2 0x973 ADD MSTORE DUP2 DUP2 PUSH2 0xCA7 ADD MSTORE DUP2 DUP2 PUSH2 0xE26 ADD MSTORE PUSH2 0xFE0 ADD MSTORE PUSH1 0x0 DUP2 DUP2 PUSH2 0x4E5 ADD MSTORE PUSH2 0xA1A ADD MSTORE PUSH1 0x0 DUP2 DUP2 PUSH2 0x533 ADD MSTORE PUSH2 0xAD2 ADD MSTORE PUSH1 0x0 DUP2 DUP2 PUSH2 0x404 ADD MSTORE DUP2 DUP2 PUSH2 0xB3B ADD MSTORE PUSH2 0xE91 ADD MSTORE PUSH1 0x0 DUP2 DUP2 PUSH2 0x50C ADD MSTORE PUSH2 0x800 ADD MSTORE PUSH2 0x193C PUSH1 0x0 RETURN INVALID PUSH1 0x80 PUSH1 0x40 MSTORE CALLVALUE DUP1 ISZERO PUSH2 0x10 JUMPI PUSH1 0x0 DUP1 REVERT JUMPDEST POP PUSH1 0x4 CALLDATASIZE LT PUSH2 0x211 JUMPI PUSH1 0x0 CALLDATALOAD PUSH1 0xE0 SHR DUP1 PUSH4 0xA4C24EC6 GT PUSH2 0x125 JUMPI DUP1 PUSH4 0xD93879B5 GT PUSH2 0xAD JUMPI DUP1 PUSH4 0xF1F73620 GT PUSH2 0x7C JUMPI DUP1 PUSH4 0xF1F73620 EQ PUSH2 0x4BA JUMPI DUP1 PUSH4 0xF2FDE38B EQ PUSH2 0x4CD JUMPI DUP1 PUSH4 0xF382331F EQ PUSH2 0x4E0 JUMPI DUP1 PUSH4 0xF887EA40 EQ PUSH2 0x507 JUMPI DUP1 PUSH4 0xFFC5D97A EQ PUSH2 0x52E JUMPI PUSH1 0x0 DUP1 REVERT JUMPDEST DUP1 PUSH4 0xD93879B5 EQ PUSH2 0x46E JUMPI DUP1 PUSH4 0xDB7863B4 EQ PUSH2 0x3C5 JUMPI DUP1 PUSH4 0xDD1B9C4A EQ PUSH2 0x476 JUMPI DUP1 PUSH4 0xEF4907AA EQ PUSH2 0x493 JUMPI PUSH1 0x0 DUP1 REVERT JUMPDEST DUP1 PUSH4 0xC64D61F5 GT PUSH2 0xF4 JUMPI DUP1 PUSH4 0xC64D61F5 EQ PUSH2 0x32A JUMPI DUP1 PUSH4 0xC6BBD5A7 EQ PUSH2 0x3FF JUMPI DUP1 PUSH4 0xCBE1E7D5 EQ PUSH2 0x426 JUMPI DUP1 PUSH4 0xD73792A9 EQ PUSH2 0x439 JUMPI DUP1 PUSH4 0xD8C37032 EQ PUSH2 0x442 JUMPI PUSH1 0x0 DUP1 REVERT JUMPDEST DUP1 PUSH4 0xA4C24EC6 EQ PUSH2 0x3AA JUMPI DUP1 PUSH4 0xAAAE0963 EQ PUSH2 0x3B2 JUMPI DUP1 PUSH4 0xB241A890 EQ PUSH2 0x3C5 JUMPI DUP1 PUSH4 0xB9B39E46 EQ PUSH2 0x3D8 JUMPI PUSH1 0x0 DUP1 REVERT JUMPDEST DUP1 PUSH4 0x551512DE GT PUSH2 0x1A8 JUMPI DUP1 PUSH4 0x6FCD8207 GT PUSH2 0x177 JUMPI DUP1 PUSH4 0x6FCD8207 EQ PUSH2 0x360 JUMPI DUP1 PUSH4 0x715018A6 EQ PUSH2 0x369 JUMPI DUP1 PUSH4 0x7D32BD9A EQ PUSH2 0x371 JUMPI DUP1 PUSH4 0x8DA5CB5B EQ PUSH2 0x384 JUMPI DUP1 PUSH4 0xA19D466A EQ PUSH2 0x395 JUMPI PUSH1 0x0 DUP1 REVERT JUMPDEST DUP1 PUSH4 0x551512DE EQ PUSH2 0x315 JUMPI DUP1 PUSH4 0x58D276D5 EQ PUSH2 0x32A JUMPI DUP1 PUSH4 0x67B76FAC EQ PUSH2 0x332 JUMPI DUP1 PUSH4 0x6B31EE01 EQ PUSH2 0x34D JUMPI PUSH1 0x0 DUP1 REVERT JUMPDEST DUP1 PUSH4 0x35D31D49 GT PUSH2 0x1E4 JUMPI DUP1 PUSH4 0x35D31D49 EQ PUSH2 0x2B6 JUMPI DUP1 PUSH4 0x38CEB797 EQ PUSH2 0x2D1 JUMPI DUP1 PUSH4 0x38F61A5F EQ PUSH2 0x2EC JUMPI DUP1 PUSH4 0x43F9430D EQ PUSH2 0x30D JUMPI PUSH1 0x0 DUP1 REVERT JUMPDEST DUP1 PUSH4 0xD22CE3F EQ PUSH2 0x216 JUMPI DUP1 PUSH4 0x286134FA EQ PUSH2 0x243 JUMPI DUP1 PUSH4 0x2ACA8E2B EQ PUSH2 0x282 JUMPI DUP1 PUSH4 0x2D96D293 EQ PUSH2 0x295 JUMPI JUMPDEST PUSH1 0x0 DUP1 REVERT JUMPDEST PUSH2 0x229 PUSH2 0x224 CALLDATASIZE PUSH1 0x4 PUSH2 0x15E4 JUMP JUMPDEST PUSH2 0x555 JUMP JUMPDEST PUSH1 0x40 DUP1 MLOAD SWAP3 DUP4 MSTORE PUSH1 0x20 DUP4 ADD SWAP2 SWAP1 SWAP2 MSTORE ADD JUMPDEST PUSH1 0x40 MLOAD DUP1 SWAP2 SUB SWAP1 RETURN JUMPDEST PUSH2 0x26A PUSH32 0x0 DUP2 JUMP JUMPDEST PUSH1 0x40 MLOAD PUSH1 0x1 PUSH1 0x1 PUSH1 0xA0 SHL SUB SWAP1 SWAP2 AND DUP2 MSTORE PUSH1 0x20 ADD PUSH2 0x23A JUMP JUMPDEST PUSH1 0x3 SLOAD PUSH2 0x26A SWAP1 PUSH1 0x1 PUSH1 0x1 PUSH1 0xA0 SHL SUB AND DUP2 JUMP JUMPDEST PUSH2 0x2A8 PUSH2 0x2A3 CALLDATASIZE PUSH1 0x4 PUSH2 0x1634 JUMP JUMPDEST PUSH2 0x96E JUMP JUMPDEST PUSH1 0x40 MLOAD SWAP1 DUP2 MSTORE PUSH1 0x20 ADD PUSH2 0x23A JUMP JUMPDEST PUSH2 0x26A PUSH20 0xF19748A0E269C6965A84F8C98CA8C47A064D4DD0 DUP2 JUMP JUMPDEST PUSH2 0x26A PUSH20 0xE076ACF0C028AC2BA1EC4807D592BFB2C524FDB0 DUP2 JUMP JUMPDEST PUSH1 0x3 SLOAD PUSH2 0x300 SWAP1 PUSH1 0x1 PUSH1 0xA0 SHL SWAP1 DIV PUSH1 0xFF AND DUP2 JUMP JUMPDEST PUSH1 0x40 MLOAD PUSH2 0x23A SWAP2 SWAP1 PUSH2 0x1663 JUMP JUMPDEST PUSH2 0x2A8 PUSH2 0xBF6 JUMP JUMPDEST PUSH2 0x328 PUSH2 0x323 CALLDATASIZE PUSH1 0x4 PUSH2 0x168B JUMP JUMPDEST PUSH2 0xC15 JUMP JUMPDEST STOP JUMPDEST PUSH2 0x2A8 PUSH1 0x45 DUP2 JUMP JUMPDEST PUSH2 0x26A PUSH20 0xE8B696FB500C2A3B1FAA5E0FCE4D53D6AD26765F DUP2 JUMP JUMPDEST PUSH1 0x2 SLOAD PUSH2 0x26A SWAP1 PUSH1 0x1 PUSH1 0x1 PUSH1 0xA0 SHL SUB AND DUP2 JUMP JUMPDEST PUSH2 0x2A8 PUSH1 0x4 SLOAD DUP2 JUMP JUMPDEST PUSH2 0x328 PUSH2 0xC36 JUMP JUMPDEST PUSH2 0x328 PUSH2 0x37F CALLDATASIZE PUSH1 0x4 PUSH2 0x16C7 JUMP JUMPDEST PUSH2 0xC4A JUMP JUMPDEST PUSH1 0x0 SLOAD PUSH1 0x1 PUSH1 0x1 PUSH1 0xA0 SHL SUB AND PUSH2 0x26A JUMP JUMPDEST PUSH2 0x39D PUSH2 0xC7F JUMP JUMPDEST PUSH1 0x40 MLOAD PUSH2 0x23A SWAP2 SWAP1 PUSH2 0x16EF JUMP JUMPDEST PUSH2 0x2A8 PUSH2 0xCF6 JUMP JUMPDEST PUSH2 0x2A8 PUSH2 0x3C0 CALLDATASIZE PUSH1 0x4 PUSH2 0x1634 JUMP JUMPDEST PUSH2 0xD05 JUMP JUMPDEST PUSH2 0x2A8 PUSH2 0x3D3 CALLDATASIZE PUSH1 0x4 PUSH2 0x173C JUMP JUMPDEST PUSH2 0xFDC JUMP JUMPDEST PUSH2 0x26A PUSH32 0x0 DUP2 JUMP JUMPDEST PUSH2 0x26A PUSH32 0x0 DUP2 JUMP JUMPDEST PUSH2 0x328 PUSH2 0x434 CALLDATASIZE PUSH1 0x4 PUSH2 0x1634 JUMP JUMPDEST PUSH2 0x1074 JUMP JUMPDEST PUSH2 0x2A8 PUSH2 0x3E8 DUP2 JUMP JUMPDEST PUSH1 0x40 DUP1 MLOAD DUP1 DUP3 ADD DUP3 MSTORE PUSH1 0xA DUP2 MSTORE PUSH10 0xA6D0C2C8DEEE40888AB PUSH1 0xB3 SHL PUSH1 0x20 DUP3 ADD MSTORE SWAP1 MLOAD PUSH2 0x23A SWAP2 SWAP1 PUSH2 0x178A JUMP JUMPDEST PUSH2 0x2A8 PUSH1 0x1F DUP2 JUMP JUMPDEST PUSH2 0x47F PUSH2 0xBB8 DUP2 JUMP JUMPDEST PUSH1 0x40 MLOAD PUSH3 0xFFFFFF SWAP1 SWAP2 AND DUP2 MSTORE PUSH1 0x20 ADD PUSH2 0x23A JUMP JUMPDEST PUSH2 0x26A PUSH32 0x0 DUP2 JUMP JUMPDEST PUSH2 0x328 PUSH2 0x4C8 CALLDATASIZE PUSH1 0x4 PUSH2 0x17BD JUMP JUMPDEST PUSH2 0x10D1 JUMP JUMPDEST PUSH2 0x328 PUSH2 0x4DB CALLDATASIZE PUSH1 0x4 PUSH2 0x17F0 JUMP JUMPDEST PUSH2 0x11B3 JUMP JUMPDEST PUSH2 0x26A PUSH32 0x0 DUP2 JUMP JUMPDEST PUSH2 0x26A PUSH32 0x0 DUP2 JUMP JUMPDEST PUSH2 0x26A PUSH32 0x0 DUP2 JUMP JUMPDEST PUSH1 0x0 DUP1 PUSH2 0x560 PUSH2 0x122C JUMP JUMPDEST PUSH32 0x0 PUSH1 0x1 PUSH1 0x1 PUSH1 0xA0 SHL SUB AND DUP8 PUSH1 0x1 PUSH1 0x1 PUSH1 0xA0 SHL SUB AND EQ PUSH2 0x5E1 JUMPI PUSH1 0x40 MLOAD PUSH3 0x461BCD PUSH1 0xE5 SHL DUP2 MSTORE PUSH1 0x20 PUSH1 0x4 DUP3 ADD MSTORE PUSH1 0x18 PUSH1 0x24 DUP3 ADD MSTORE PUSH24 0x13DB9B1E481E0CCCC81D1BDAD95B881CDD5C1C1BDC9D1959 PUSH1 0x42 SHL PUSH1 0x44 DUP3 ADD MSTORE PUSH1 0x64 ADD JUMPDEST PUSH1 0x40 MLOAD DUP1 SWAP2 SUB SWAP1 REVERT JUMPDEST PUSH32 0x0 PUSH1 0x1 PUSH1 0x1 PUSH1 0xA0 SHL SUB AND PUSH4 0x8380EDB7 PUSH1 0x40 MLOAD DUP2 PUSH4 0xFFFFFFFF AND PUSH1 0xE0 SHL DUP2 MSTORE PUSH1 0x4 ADD PUSH1 0x20 PUSH1 0x40 MLOAD DUP1 DUP4 SUB DUP2 DUP7 GAS STATICCALL ISZERO DUP1 ISZERO PUSH2 0x63F JUMPI RETURNDATASIZE PUSH1 0x0 DUP1 RETURNDATACOPY RETURNDATASIZE PUSH1 0x0 REVERT JUMPDEST POP POP POP POP PUSH1 0x40 MLOAD RETURNDATASIZE PUSH1 0x1F NOT PUSH1 0x1F DUP3 ADD AND DUP3 ADD DUP1 PUSH1 0x40 MSTORE POP DUP2 ADD SWAP1 PUSH2 0x663 SWAP2 SWAP1 PUSH2 0x180B JUMP JUMPDEST PUSH2 0x6AF JUMPI PUSH1 0x40 MLOAD PUSH3 0x461BCD PUSH1 0xE5 SHL DUP2 MSTORE PUSH1 0x20 PUSH1 0x4 DUP3 ADD MSTORE PUSH1 0x17 PUSH1 0x24 DUP3 ADD MSTORE PUSH32 0x7833332069732063757272656E746C79206C6F636B6564000000000000000000 PUSH1 0x44 DUP3 ADD MSTORE PUSH1 0x64 ADD PUSH2 0x5D8 JUMP JUMPDEST PUSH2 0x6C4 PUSH1 0x1 PUSH1 0x1 PUSH1 0xA0 SHL SUB DUP9 AND CALLER ADDRESS DUP10 PUSH2 0x1285 JUMP JUMPDEST PUSH1 0x0 PUSH2 0x3E8 PUSH2 0x6D4 PUSH1 0x45 DUP10 PUSH2 0x1843 JUMP JUMPDEST PUSH2 0x6DE SWAP2 SWAP1 PUSH2 0x185A JUMP JUMPDEST SWAP1 POP PUSH1 0x0 PUSH2 0x6EC DUP3 DUP10 PUSH2 0x187C JUMP JUMPDEST SWAP1 POP PUSH1 0x0 PUSH1 0x64 PUSH2 0x6FD PUSH1 0x45 DUP6 PUSH2 0x1843 JUMP JUMPDEST PUSH2 0x707 SWAP2 SWAP1 PUSH2 0x185A JUMP JUMPDEST SWAP1 POP PUSH1 0x0 PUSH2 0x715 DUP3 DUP6 PUSH2 0x187C JUMP JUMPDEST PUSH1 0x2 SLOAD SWAP1 SWAP2 POP PUSH2 0x732 SWAP1 PUSH1 0x1 PUSH1 0x1 PUSH1 0xA0 SHL SUB DUP14 DUP2 AND SWAP2 AND DUP5 PUSH2 0x12F6 JUMP JUMPDEST PUSH1 0x3 SLOAD PUSH2 0x74C SWAP1 PUSH1 0x1 PUSH1 0x1 PUSH1 0xA0 SHL SUB DUP14 DUP2 AND SWAP2 AND DUP4 PUSH2 0x12F6 JUMP JUMPDEST PUSH1 0x40 DUP1 MLOAD DUP4 DUP2 MSTORE PUSH1 0x20 DUP2 ADD DUP4 SWAP1 MSTORE PUSH32 0x61930A6C1553EAB59D5766DA6E1BAB8EBA982AEC848AE7683452F4A6423B6E4A SWAP2 ADD PUSH1 0x40 MLOAD DUP1 SWAP2 SUB SWAP1 LOG1 PUSH1 0x40 DUP1 MLOAD PUSH2 0x100 DUP2 ADD DUP3 MSTORE PUSH1 0x1 PUSH1 0x1 PUSH1 0xA0 SHL SUB DUP1 DUP15 AND DUP3 MSTORE PUSH32 0x0 DUP2 AND PUSH1 0x20 DUP4 ADD MSTORE PUSH2 0xBB8 DUP3 DUP5 ADD MSTORE DUP10 DUP2 AND PUSH1 0x60 DUP4 ADD MSTORE PUSH1 0x80 DUP3 ADD DUP12 SWAP1 MSTORE PUSH1 0xA0 DUP3 ADD DUP7 SWAP1 MSTORE PUSH1 0xC0 DUP3 ADD DUP13 SWAP1 MSTORE PUSH1 0x0 PUSH1 0xE0 DUP4 ADD MSTORE SWAP2 MLOAD PUSH4 0x414BF389 PUSH1 0xE0 SHL DUP2 MSTORE SWAP1 SWAP2 PUSH32 0x0 AND SWAP1 PUSH4 0x414BF389 SWAP1 PUSH2 0x899 SWAP1 DUP5 SWAP1 PUSH1 0x4 ADD DUP2 MLOAD PUSH1 0x1 PUSH1 0x1 PUSH1 0xA0 SHL SUB SWAP1 DUP2 AND DUP3 MSTORE PUSH1 0x20 DUP1 DUP5 ADD MLOAD DUP3 AND SWAP1 DUP4 ADD MSTORE PUSH1 0x40 DUP1 DUP5 ADD MLOAD PUSH3 0xFFFFFF AND SWAP1 DUP4 ADD MSTORE PUSH1 0x60 DUP1 DUP5 ADD MLOAD DUP3 AND SWAP1 DUP4 ADD MSTORE PUSH1 0x80 DUP1 DUP5 ADD MLOAD SWAP1 DUP4 ADD MSTORE PUSH1 0xA0 DUP4 DUP2 ADD MLOAD SWAP1 DUP4 ADD MSTORE PUSH1 0xC0 DUP1 DUP5 ADD MLOAD SWAP1 DUP4 ADD MSTORE PUSH1 0xE0 SWAP3 DUP4 ADD MLOAD AND SWAP2 DUP2 ADD SWAP2 SWAP1 SWAP2 MSTORE PUSH2 0x100 ADD SWAP1 JUMP JUMPDEST PUSH1 0x20 PUSH1 0x40 MLOAD DUP1 DUP4 SUB DUP2 PUSH1 0x0 DUP8 GAS CALL ISZERO DUP1 ISZERO PUSH2 0x8B8 JUMPI RETURNDATASIZE PUSH1 0x0 DUP1 RETURNDATACOPY RETURNDATASIZE PUSH1 0x0 REVERT JUMPDEST POP POP POP POP PUSH1 0x40 MLOAD RETURNDATASIZE PUSH1 0x1F NOT PUSH1 0x1F DUP3 ADD AND DUP3 ADD DUP1 PUSH1 0x40 MSTORE POP DUP2 ADD SWAP1 PUSH2 0x8DC SWAP2 SWAP1 PUSH2 0x188F JUMP JUMPDEST SWAP7 POP PUSH2 0x8E7 DUP12 PUSH2 0xD05 JUMP JUMPDEST SWAP6 POP PUSH1 0x64 PUSH2 0x8F6 DUP8 PUSH1 0x45 PUSH2 0x1843 JUMP JUMPDEST PUSH2 0x900 SWAP2 SWAP1 PUSH2 0x185A JUMP JUMPDEST PUSH1 0x40 DUP1 MLOAD DUP14 DUP2 MSTORE PUSH1 0x20 DUP2 ADD DUP11 SWAP1 MSTORE SWAP1 DUP2 ADD DUP3 SWAP1 MSTORE PUSH1 0x60 DUP2 ADD DUP8 SWAP1 MSTORE SWAP1 SWAP7 POP PUSH1 0x1 PUSH1 0x1 PUSH1 0xA0 SHL SUB DUP10 AND SWAP1 PUSH32 0x6E897E83B2EA962118C2ABAEB4FFB85A1A63DA2C8F1880660079B88983900D84 SWAP1 PUSH1 0x80 ADD PUSH1 0x40 MLOAD DUP1 SWAP2 SUB SWAP1 LOG2 POP POP POP POP POP PUSH2 0x964 PUSH1 0x1 DUP1 SSTORE JUMP JUMPDEST SWAP6 POP SWAP6 SWAP4 POP POP POP POP JUMP JUMPDEST PUSH1 0x0 DUP1 PUSH32 0x0 PUSH1 0x1 PUSH1 0x1 PUSH1 0xA0 SHL SUB AND PUSH4 0x71CA337D PUSH1 0x40 MLOAD DUP2 PUSH4 0xFFFFFFFF AND PUSH1 0xE0 SHL DUP2 MSTORE PUSH1 0x4 ADD PUSH1 0x20 PUSH1 0x40 MLOAD DUP1 DUP4 SUB DUP2 DUP7 GAS STATICCALL ISZERO DUP1 ISZERO PUSH2 0x9CF JUMPI RETURNDATASIZE PUSH1 0x0 DUP1 RETURNDATACOPY RETURNDATASIZE PUSH1 0x0 REVERT JUMPDEST POP POP POP POP PUSH1 0x40 MLOAD RETURNDATASIZE PUSH1 0x1F NOT PUSH1 0x1F DUP3 ADD AND DUP3 ADD DUP1 PUSH1 0x40 MSTORE POP DUP2 ADD SWAP1 PUSH2 0x9F3 SWAP2 SWAP1 PUSH2 0x188F JUMP JUMPDEST SWAP1 POP PUSH1 0x0 PUSH8 0xDE0B6B3A7640000 PUSH2 0xA0A DUP4 DUP7 PUSH2 0x1843 JUMP JUMPDEST PUSH2 0xA14 SWAP2 SWAP1 PUSH2 0x185A JUMP JUMPDEST SWAP1 POP PUSH1 0x0 PUSH32 0x0 PUSH1 0x1 PUSH1 0x1 PUSH1 0xA0 SHL SUB AND PUSH4 0x71CA337D PUSH1 0x40 MLOAD DUP2 PUSH4 0xFFFFFFFF AND PUSH1 0xE0 SHL DUP2 MSTORE PUSH1 0x4 ADD PUSH1 0x20 PUSH1 0x40 MLOAD DUP1 DUP4 SUB DUP2 DUP7 GAS STATICCALL ISZERO DUP1 ISZERO PUSH2 0xA76 JUMPI RETURNDATASIZE PUSH1 0x0 DUP1 RETURNDATACOPY RETURNDATASIZE PUSH1 0x0 REVERT JUMPDEST POP POP POP POP PUSH1 0x40 MLOAD RETURNDATASIZE PUSH1 0x1F NOT PUSH1 0x1F DUP3 ADD AND DUP3 ADD DUP1 PUSH1 0x40 MSTORE POP DUP2 ADD SWAP1 PUSH2 0xA9A SWAP2 SWAP1 PUSH2 0x188F JUMP JUMPDEST SWAP1 POP PUSH1 0x0 PUSH8 0xDE0B6B3A7640000 PUSH2 0xAB1 DUP4 DUP6 PUSH2 0x1843 JUMP JUMPDEST PUSH2 0xABB SWAP2 SWAP1 PUSH2 0x185A JUMP JUMPDEST PUSH1 0x40 MLOAD PUSH4 0xF7729D43 PUSH1 0xE0 SHL DUP2 MSTORE PUSH1 0x1 PUSH1 0x1 PUSH1 0xA0 SHL SUB PUSH32 0x0 DUP2 AND PUSH1 0x4 DUP4 ADD MSTORE PUSH32 0x0 DUP2 AND PUSH1 0x24 DUP4 ADD MSTORE PUSH2 0xBB8 PUSH1 0x44 DUP4 ADD MSTORE PUSH1 0x64 DUP3 ADD DUP4 SWAP1 MSTORE PUSH1 0x0 PUSH1 0x84 DUP4 ADD MSTORE SWAP2 SWAP3 POP PUSH32 0x0 SWAP1 SWAP2 AND SWAP1 PUSH4 0xF7729D43 SWAP1 PUSH1 0xA4 ADD PUSH1 0x20 PUSH1 0x40 MLOAD DUP1 DUP4 SUB DUP2 DUP7 GAS STATICCALL SWAP3 POP POP POP DUP1 ISZERO PUSH2 0xBA0 JUMPI POP PUSH1 0x40 DUP1 MLOAD PUSH1 0x1F RETURNDATASIZE SWAP1 DUP2 ADD PUSH1 0x1F NOT AND DUP3 ADD SWAP1 SWAP3 MSTORE PUSH2 0xB9D SWAP2 DUP2 ADD SWAP1 PUSH2 0x188F JUMP JUMPDEST PUSH1 0x1 JUMPDEST PUSH2 0xBEC JUMPI PUSH1 0x40 MLOAD PUSH3 0x461BCD PUSH1 0xE5 SHL DUP2 MSTORE PUSH1 0x20 PUSH1 0x4 DUP3 ADD MSTORE PUSH1 0x1D PUSH1 0x24 DUP3 ADD MSTORE PUSH32 0x43616E6E6F742067657420534841444F5720746F207753207072696365000000 PUSH1 0x44 DUP3 ADD MSTORE PUSH1 0x64 ADD PUSH2 0x5D8 JUMP JUMPDEST SWAP7 SWAP6 POP POP POP POP POP POP JUMP JUMPDEST PUSH1 0x0 PUSH1 0x64 PUSH2 0xC06 PUSH1 0x1F PUSH1 0x45 PUSH2 0x1843 JUMP JUMPDEST PUSH2 0xC10 SWAP2 SWAP1 PUSH2 0x185A JUMP JUMPDEST SWAP1 POP SWAP1 JUMP JUMPDEST PUSH2 0xC1D PUSH2 0x1326 JUMP JUMPDEST PUSH2 0xC31 PUSH1 0x1 PUSH1 0x1 PUSH1 0xA0 SHL SUB DUP5 AND DUP3 DUP5 PUSH2 0x12F6 JUMP JUMPDEST POP POP POP JUMP JUMPDEST PUSH2 0xC3E PUSH2 0x1326 JUMP JUMPDEST PUSH2 0xC48 PUSH1 0x0 PUSH2 0x1380 JUMP JUMPDEST JUMP JUMPDEST PUSH2 0xC52 PUSH2 0x1326 JUMP JUMPDEST PUSH1 0x3 DUP1 SLOAD DUP3 SWAP2 SWAP1 PUSH1 0xFF PUSH1 0xA0 SHL NOT AND PUSH1 0x1 PUSH1 0xA0 SHL DUP4 PUSH1 0x2 DUP2 GT ISZERO PUSH2 0xC77 JUMPI PUSH2 0xC77 PUSH2 0x164D JUMP JUMPDEST MUL OR SWAP1 SSTORE POP POP JUMP JUMPDEST PUSH1 0x40 DUP1 MLOAD PUSH1 0x1 DUP1 DUP3 MSTORE DUP2 DUP4 ADD SWAP1 SWAP3 MSTORE PUSH1 0x60 SWAP2 PUSH1 0x0 SWAP2 SWAP1 PUSH1 0x20 DUP1 DUP4 ADD SWAP1 DUP1 CALLDATASIZE DUP4 CALLDATACOPY ADD SWAP1 POP POP SWAP1 POP PUSH32 0x0 DUP2 PUSH1 0x0 DUP2 MLOAD DUP2 LT PUSH2 0xCD9 JUMPI PUSH2 0xCD9 PUSH2 0x18A8 JUMP JUMPDEST PUSH1 0x1 PUSH1 0x1 PUSH1 0xA0 SHL SUB SWAP1 SWAP3 AND PUSH1 0x20 SWAP3 DUP4 MUL SWAP2 SWAP1 SWAP2 ADD SWAP1 SWAP2 ADD MSTORE SWAP2 SWAP1 POP JUMP JUMPDEST PUSH1 0x0 PUSH1 0x64 PUSH2 0xC06 PUSH1 0x45 DUP1 PUSH2 0x1843 JUMP JUMPDEST PUSH1 0x0 DUP1 PUSH1 0x3 SLOAD PUSH1 0x1 PUSH1 0xA0 SHL SWAP1 DIV PUSH1 0xFF AND PUSH1 0x2 DUP2 GT ISZERO PUSH2 0xD26 JUMPI PUSH2 0xD26 PUSH2 0x164D JUMP JUMPDEST SUB PUSH2 0xD52 JUMPI PUSH8 0xDE0B6B3A7640000 PUSH1 0x4 SLOAD DUP4 PUSH2 0xD42 SWAP2 SWAP1 PUSH2 0x1843 JUMP JUMPDEST PUSH2 0xD4C SWAP2 SWAP1 PUSH2 0x185A JUMP JUMPDEST SWAP3 SWAP2 POP POP JUMP JUMPDEST PUSH1 0x1 PUSH1 0x3 SLOAD PUSH1 0x1 PUSH1 0xA0 SHL SWAP1 DIV PUSH1 0xFF AND PUSH1 0x2 DUP2 GT ISZERO PUSH2 0xD72 JUMPI PUSH2 0xD72 PUSH2 0x164D JUMP JUMPDEST SUB PUSH2 0xDEA JUMPI PUSH1 0x40 MLOAD PUSH4 0x2D96D293 PUSH1 0xE0 SHL DUP2 MSTORE PUSH1 0x4 DUP2 ADD DUP4 SWAP1 MSTORE ADDRESS SWAP1 PUSH4 0x2D96D293 SWAP1 PUSH1 0x24 ADD PUSH1 0x20 PUSH1 0x40 MLOAD DUP1 DUP4 SUB DUP2 DUP7 GAS STATICCALL SWAP3 POP POP POP DUP1 ISZERO PUSH2 0xDCF JUMPI POP PUSH1 0x40 DUP1 MLOAD PUSH1 0x1F RETURNDATASIZE SWAP1 DUP2 ADD PUSH1 0x1F NOT AND DUP3 ADD SWAP1 SWAP3 MSTORE PUSH2 0xDCC SWAP2 DUP2 ADD SWAP1 PUSH2 0x188F JUMP JUMPDEST PUSH1 0x1 JUMPDEST PUSH2 0xD4C JUMPI PUSH8 0xDE0B6B3A7640000 PUSH1 0x4 SLOAD DUP4 PUSH2 0xD42 SWAP2 SWAP1 PUSH2 0x1843 JUMP JUMPDEST PUSH1 0x2 PUSH1 0x3 SLOAD PUSH1 0x1 PUSH1 0xA0 SHL SWAP1 DIV PUSH1 0xFF AND PUSH1 0x2 DUP2 GT ISZERO PUSH2 0xE0A JUMPI PUSH2 0xE0A PUSH2 0x164D JUMP JUMPDEST SUB PUSH2 0xFC5 JUMPI PUSH1 0x40 MLOAD PUSH4 0xF7729D43 PUSH1 0xE0 SHL DUP2 MSTORE PUSH1 0x1 PUSH1 0x1 PUSH1 0xA0 SHL SUB PUSH32 0x0 DUP2 AND PUSH1 0x4 DUP4 ADD MSTORE PUSH32 0x0 DUP2 AND PUSH1 0x24 DUP4 ADD MSTORE PUSH2 0xBB8 PUSH1 0x44 DUP4 ADD MSTORE PUSH1 0x64 DUP3 ADD DUP5 SWAP1 MSTORE PUSH1 0x0 PUSH1 0x84 DUP4 ADD DUP2 SWAP1 MSTORE SWAP2 DUP3 SWAP2 PUSH32 0x0 AND SWAP1 PUSH4 0xF7729D43 SWAP1 PUSH1 0xA4 ADD PUSH1 0x20 PUSH1 0x40 MLOAD DUP1 DUP4 SUB DUP2 DUP7 GAS STATICCALL SWAP3 POP POP POP DUP1 ISZERO PUSH2 0xEF4 JUMPI POP PUSH1 0x40 DUP1 MLOAD PUSH1 0x1F RETURNDATASIZE SWAP1 DUP2 ADD PUSH1 0x1F NOT AND DUP3 ADD SWAP1 SWAP3 MSTORE PUSH2 0xEF1 SWAP2 DUP2 ADD SWAP1 PUSH2 0x188F JUMP JUMPDEST PUSH1 0x1 JUMPDEST ISZERO PUSH2 0xF14 JUMPI PUSH2 0xF03 DUP2 DUP4 PUSH2 0x18BE JUMP JUMPDEST SWAP2 POP DUP3 PUSH2 0xF0F DUP2 PUSH2 0x18D1 JUMP JUMPDEST SWAP4 POP POP POP JUMPDEST PUSH1 0x40 MLOAD PUSH4 0x2D96D293 PUSH1 0xE0 SHL DUP2 MSTORE PUSH1 0x4 DUP2 ADD DUP6 SWAP1 MSTORE ADDRESS SWAP1 PUSH4 0x2D96D293 SWAP1 PUSH1 0x24 ADD PUSH1 0x20 PUSH1 0x40 MLOAD DUP1 DUP4 SUB DUP2 DUP7 GAS STATICCALL SWAP3 POP POP POP DUP1 ISZERO PUSH2 0xF6C JUMPI POP PUSH1 0x40 DUP1 MLOAD PUSH1 0x1F RETURNDATASIZE SWAP1 DUP2 ADD PUSH1 0x1F NOT AND DUP3 ADD SWAP1 SWAP3 MSTORE PUSH2 0xF69 SWAP2 DUP2 ADD SWAP1 PUSH2 0x188F JUMP JUMPDEST PUSH1 0x1 JUMPDEST ISZERO PUSH2 0xF8C JUMPI PUSH2 0xF7B DUP2 DUP4 PUSH2 0x18BE JUMP JUMPDEST SWAP2 POP DUP3 PUSH2 0xF87 DUP2 PUSH2 0x18D1 JUMP JUMPDEST SWAP4 POP POP POP JUMPDEST DUP2 ISZERO PUSH2 0xFA4 JUMPI PUSH2 0xF9C DUP3 DUP3 PUSH2 0x185A JUMP JUMPDEST SWAP5 SWAP4 POP POP POP POP JUMP JUMPDEST PUSH8 0xDE0B6B3A7640000 PUSH1 0x4 SLOAD DUP6 PUSH2 0xFBB SWAP2 SWAP1 PUSH2 0x1843 JUMP JUMPDEST PUSH2 0xF9C SWAP2 SWAP1 PUSH2 0x185A JUMP JUMPDEST PUSH8 0xDE0B6B3A7640000 PUSH1 0x4 SLOAD DUP4 PUSH2 0xD42 SWAP2 SWAP1 PUSH2 0x1843 JUMP JUMPDEST PUSH1 0x0 PUSH32 0x0 PUSH1 0x1 PUSH1 0x1 PUSH1 0xA0 SHL SUB AND DUP4 PUSH1 0x1 PUSH1 0x1 PUSH1 0xA0 SHL SUB AND EQ PUSH2 0x105A JUMPI PUSH1 0x40 MLOAD PUSH3 0x461BCD PUSH1 0xE5 SHL DUP2 MSTORE PUSH1 0x20 PUSH1 0x4 DUP3 ADD MSTORE PUSH1 0x18 PUSH1 0x24 DUP3 ADD MSTORE PUSH24 0x13DB9B1E481E0CCCC81D1BDAD95B881CDD5C1C1BDC9D1959 PUSH1 0x42 SHL PUSH1 0x44 DUP3 ADD MSTORE PUSH1 0x64 ADD PUSH2 0x5D8 JUMP JUMPDEST PUSH1 0x0 PUSH2 0x1065 DUP4 PUSH2 0xD05 JUMP JUMPDEST SWAP1 POP PUSH1 0x64 PUSH2 0xFBB DUP3 PUSH1 0x45 PUSH2 0x1843 JUMP JUMPDEST PUSH2 0x107C PUSH2 0x1326 JUMP JUMPDEST PUSH1 0x0 DUP2 GT PUSH2 0x10CC JUMPI PUSH1 0x40 MLOAD PUSH3 0x461BCD PUSH1 0xE5 SHL DUP2 MSTORE PUSH1 0x20 PUSH1 0x4 DUP3 ADD MSTORE PUSH1 0x1C PUSH1 0x24 DUP3 ADD MSTORE PUSH32 0x526174696F206D7573742062652067726561746572207468616E203000000000 PUSH1 0x44 DUP3 ADD MSTORE PUSH1 0x64 ADD PUSH2 0x5D8 JUMP JUMPDEST PUSH1 0x4 SSTORE JUMP JUMPDEST PUSH2 0x10D9 PUSH2 0x1326 JUMP JUMPDEST PUSH1 0x1 PUSH1 0x1 PUSH1 0xA0 SHL SUB DUP3 AND PUSH2 0x112F JUMPI PUSH1 0x40 MLOAD PUSH3 0x461BCD PUSH1 0xE5 SHL DUP2 MSTORE PUSH1 0x20 PUSH1 0x4 DUP3 ADD MSTORE PUSH1 0x1E PUSH1 0x24 DUP3 ADD MSTORE PUSH32 0x4A61636B706F742063616E6E6F74206265207A65726F20616464726573730000 PUSH1 0x44 DUP3 ADD MSTORE PUSH1 0x64 ADD PUSH2 0x5D8 JUMP JUMPDEST PUSH1 0x1 PUSH1 0x1 PUSH1 0xA0 SHL SUB DUP2 AND PUSH2 0x1185 JUMPI PUSH1 0x40 MLOAD PUSH3 0x461BCD PUSH1 0xE5 SHL DUP2 MSTORE PUSH1 0x20 PUSH1 0x4 DUP3 ADD MSTORE PUSH1 0x1D PUSH1 0x24 DUP3 ADD MSTORE PUSH32 0x766536394C502063616E6E6F74206265207A65726F2061646472657373000000 PUSH1 0x44 DUP3 ADD MSTORE PUSH1 0x64 ADD PUSH2 0x5D8 JUMP JUMPDEST PUSH1 0x2 DUP1 SLOAD PUSH1 0x1 PUSH1 0x1 PUSH1 0xA0 SHL SUB SWAP4 DUP5 AND PUSH1 0x1 PUSH1 0x1 PUSH1 0xA0 SHL SUB NOT SWAP2 DUP3 AND OR SWAP1 SWAP2 SSTORE PUSH1 0x3 DUP1 SLOAD SWAP3 SWAP1 SWAP4 AND SWAP2 AND OR SWAP1 SSTORE JUMP JUMPDEST PUSH2 0x11BB PUSH2 0x1326 JUMP JUMPDEST PUSH1 0x1 PUSH1 0x1 PUSH1 0xA0 SHL SUB DUP2 AND PUSH2 0x1220 JUMPI PUSH1 0x40 MLOAD PUSH3 0x461BCD PUSH1 0xE5 SHL DUP2 MSTORE PUSH1 0x20 PUSH1 0x4 DUP3 ADD MSTORE PUSH1 0x26 PUSH1 0x24 DUP3 ADD MSTORE PUSH32 0x4F776E61626C653A206E6577206F776E657220697320746865207A65726F2061 PUSH1 0x44 DUP3 ADD MSTORE PUSH6 0x646472657373 PUSH1 0xD0 SHL PUSH1 0x64 DUP3 ADD MSTORE PUSH1 0x84 ADD PUSH2 0x5D8 JUMP JUMPDEST PUSH2 0x1229 DUP2 PUSH2 0x1380 JUMP JUMPDEST POP JUMP JUMPDEST PUSH1 0x2 PUSH1 0x1 SLOAD SUB PUSH2 0x127E JUMPI PUSH1 0x40 MLOAD PUSH3 0x461BCD PUSH1 0xE5 SHL DUP2 MSTORE PUSH1 0x20 PUSH1 0x4 DUP3 ADD MSTORE PUSH1 0x1F PUSH1 0x24 DUP3 ADD MSTORE PUSH32 0x5265656E7472616E637947756172643A207265656E7472616E742063616C6C00 PUSH1 0x44 DUP3 ADD MSTORE PUSH1 0x64 ADD PUSH2 0x5D8 JUMP JUMPDEST PUSH1 0x2 PUSH1 0x1 SSTORE JUMP JUMPDEST PUSH1 0x40 MLOAD PUSH1 0x1 PUSH1 0x1 PUSH1 0xA0 SHL SUB DUP1 DUP6 AND PUSH1 0x24 DUP4 ADD MSTORE DUP4 AND PUSH1 0x44 DUP3 ADD MSTORE PUSH1 0x64 DUP2 ADD DUP3 SWAP1 MSTORE PUSH2 0x12F0 SWAP1 DUP6 SWAP1 PUSH4 0x23B872DD PUSH1 0xE0 SHL SWAP1 PUSH1 0x84 ADD JUMPDEST PUSH1 0x40 DUP1 MLOAD PUSH1 0x1F NOT DUP2 DUP5 SUB ADD DUP2 MSTORE SWAP2 SWAP1 MSTORE PUSH1 0x20 DUP2 ADD DUP1 MLOAD PUSH1 0x1 PUSH1 0x1 PUSH1 0xE0 SHL SUB AND PUSH1 0x1 PUSH1 0x1 PUSH1 0xE0 SHL SUB NOT SWAP1 SWAP4 AND SWAP3 SWAP1 SWAP3 OR SWAP1 SWAP2 MSTORE PUSH2 0x13D0 JUMP JUMPDEST POP POP POP POP JUMP JUMPDEST PUSH1 0x40 MLOAD PUSH1 0x1 PUSH1 0x1 PUSH1 0xA0 SHL SUB DUP4 AND PUSH1 0x24 DUP3 ADD MSTORE PUSH1 0x44 DUP2 ADD DUP3 SWAP1 MSTORE PUSH2 0xC31 SWAP1 DUP5 SWAP1 PUSH4 0xA9059CBB PUSH1 0xE0 SHL SWAP1 PUSH1 0x64 ADD PUSH2 0x12B9 JUMP JUMPDEST PUSH1 0x0 SLOAD PUSH1 0x1 PUSH1 0x1 PUSH1 0xA0 SHL SUB AND CALLER EQ PUSH2 0xC48 JUMPI PUSH1 0x40 MLOAD PUSH3 0x461BCD PUSH1 0xE5 SHL DUP2 MSTORE PUSH1 0x20 PUSH1 0x4 DUP3 ADD DUP2 SWAP1 MSTORE PUSH1 0x24 DUP3 ADD MSTORE PUSH32 0x4F776E61626C653A2063616C6C6572206973206E6F7420746865206F776E6572 PUSH1 0x44 DUP3 ADD MSTORE PUSH1 0x64 ADD PUSH2 0x5D8 JUMP JUMPDEST PUSH1 0x0 DUP1 SLOAD PUSH1 0x1 PUSH1 0x1 PUSH1 0xA0 SHL SUB DUP4 DUP2 AND PUSH1 0x1 PUSH1 0x1 PUSH1 0xA0 SHL SUB NOT DUP4 AND DUP2 OR DUP5 SSTORE PUSH1 0x40 MLOAD SWAP2 SWAP1 SWAP3 AND SWAP3 DUP4 SWAP2 PUSH32 0x8BE0079C531659141344CD1FD0A4F28419497F9722A3DAAFE3B4186F6B6457E0 SWAP2 SWAP1 LOG3 POP POP JUMP JUMPDEST PUSH1 0x0 PUSH2 0x1425 DUP3 PUSH1 0x40 MLOAD DUP1 PUSH1 0x40 ADD PUSH1 0x40 MSTORE DUP1 PUSH1 0x20 DUP2 MSTORE PUSH1 0x20 ADD PUSH32 0x5361666545524332303A206C6F772D6C6576656C2063616C6C206661696C6564 DUP2 MSTORE POP DUP6 PUSH1 0x1 PUSH1 0x1 PUSH1 0xA0 SHL SUB AND PUSH2 0x14A5 SWAP1 SWAP3 SWAP2 SWAP1 PUSH4 0xFFFFFFFF AND JUMP JUMPDEST SWAP1 POP DUP1 MLOAD PUSH1 0x0 EQ DUP1 PUSH2 0x1446 JUMPI POP DUP1 DUP1 PUSH1 0x20 ADD SWAP1 MLOAD DUP2 ADD SWAP1 PUSH2 0x1446 SWAP2 SWAP1 PUSH2 0x180B JUMP JUMPDEST PUSH2 0xC31 JUMPI PUSH1 0x40 MLOAD PUSH3 0x461BCD PUSH1 0xE5 SHL DUP2 MSTORE PUSH1 0x20 PUSH1 0x4 DUP3 ADD MSTORE PUSH1 0x2A PUSH1 0x24 DUP3 ADD MSTORE PUSH32 0x5361666545524332303A204552433230206F7065726174696F6E20646964206E PUSH1 0x44 DUP3 ADD MSTORE PUSH10 0x1BDD081CDD58D8D95959 PUSH1 0xB2 SHL PUSH1 0x64 DUP3 ADD MSTORE PUSH1 0x84 ADD PUSH2 0x5D8 JUMP JUMPDEST PUSH1 0x60 PUSH2 0xF9C DUP5 DUP5 PUSH1 0x0 DUP6 DUP6 PUSH1 0x0 DUP1 DUP7 PUSH1 0x1 PUSH1 0x1 PUSH1 0xA0 SHL SUB AND DUP6 DUP8 PUSH1 0x40 MLOAD PUSH2 0x14CC SWAP2 SWAP1 PUSH2 0x18EA JUMP JUMPDEST PUSH1 0x0 PUSH1 0x40 MLOAD DUP1 DUP4 SUB DUP2 DUP6 DUP8 GAS CALL SWAP3 POP POP POP RETURNDATASIZE DUP1 PUSH1 0x0 DUP2 EQ PUSH2 0x1509 JUMPI PUSH1 0x40 MLOAD SWAP2 POP PUSH1 0x1F NOT PUSH1 0x3F RETURNDATASIZE ADD AND DUP3 ADD PUSH1 0x40 MSTORE RETURNDATASIZE DUP3 MSTORE RETURNDATASIZE PUSH1 0x0 PUSH1 0x20 DUP5 ADD RETURNDATACOPY PUSH2 0x150E JUMP JUMPDEST PUSH1 0x60 SWAP2 POP JUMPDEST POP SWAP2 POP SWAP2 POP PUSH2 0x151F DUP8 DUP4 DUP4 DUP8 PUSH2 0x152A JUMP JUMPDEST SWAP8 SWAP7 POP POP POP POP POP POP POP JUMP JUMPDEST PUSH1 0x60 DUP4 ISZERO PUSH2 0x1599 JUMPI DUP3 MLOAD PUSH1 0x0 SUB PUSH2 0x1592 JUMPI PUSH1 0x1 PUSH1 0x1 PUSH1 0xA0 SHL SUB DUP6 AND EXTCODESIZE PUSH2 0x1592 JUMPI PUSH1 0x40 MLOAD PUSH3 0x461BCD PUSH1 0xE5 SHL DUP2 MSTORE PUSH1 0x20 PUSH1 0x4 DUP3 ADD MSTORE PUSH1 0x1D PUSH1 0x24 DUP3 ADD MSTORE PUSH32 0x416464726573733A2063616C6C20746F206E6F6E2D636F6E7472616374000000 PUSH1 0x44 DUP3 ADD MSTORE PUSH1 0x64 ADD PUSH2 0x5D8 JUMP JUMPDEST POP DUP2 PUSH2 0xF9C JUMP JUMPDEST PUSH2 0xF9C DUP4 DUP4 DUP2 MLOAD ISZERO PUSH2 0x15AE JUMPI DUP2 MLOAD DUP1 DUP4 PUSH1 0x20 ADD REVERT JUMPDEST DUP1 PUSH1 0x40 MLOAD PUSH3 0x461BCD PUSH1 0xE5 SHL DUP2 MSTORE PUSH1 0x4 ADD PUSH2 0x5D8 SWAP2 SWAP1 PUSH2 0x178A JUMP JUMPDEST DUP1 CALLDATALOAD PUSH1 0x1 PUSH1 0x1 PUSH1 0xA0 SHL SUB DUP2 AND DUP2 EQ PUSH2 0x15DF JUMPI PUSH1 0x0 DUP1 REVERT JUMPDEST SWAP2 SWAP1 POP JUMP JUMPDEST PUSH1 0x0 DUP1 PUSH1 0x0 DUP1 PUSH1 0x0 PUSH1 0xA0 DUP7 DUP9 SUB SLT ISZERO PUSH2 0x15FC JUMPI PUSH1 0x0 DUP1 REVERT JUMPDEST PUSH2 0x1605 DUP7 PUSH2 0x15C8 JUMP JUMPDEST SWAP5 POP PUSH1 0x20 DUP7 ADD CALLDATALOAD SWAP4 POP PUSH1 0x40 DUP7 ADD CALLDATALOAD SWAP3 POP PUSH1 0x60 DUP7 ADD CALLDATALOAD SWAP2 POP PUSH2 0x1628 PUSH1 0x80 DUP8 ADD PUSH2 0x15C8 JUMP JUMPDEST SWAP1 POP SWAP3 SWAP6 POP SWAP3 SWAP6 SWAP1 SWAP4 POP JUMP JUMPDEST PUSH1 0x0 PUSH1 0x20 DUP3 DUP5 SUB SLT ISZERO PUSH2 0x1646 JUMPI PUSH1 0x0 DUP1 REVERT JUMPDEST POP CALLDATALOAD SWAP2 SWAP1 POP JUMP JUMPDEST PUSH4 0x4E487B71 PUSH1 0xE0 SHL PUSH1 0x0 MSTORE PUSH1 0x21 PUSH1 0x4 MSTORE PUSH1 0x24 PUSH1 0x0 REVERT JUMPDEST PUSH1 0x20 DUP2 ADD PUSH1 0x3 DUP4 LT PUSH2 0x1685 JUMPI PUSH4 0x4E487B71 PUSH1 0xE0 SHL PUSH1 0x0 MSTORE PUSH1 0x21 PUSH1 0x4 MSTORE PUSH1 0x24 PUSH1 0x0 REVERT JUMPDEST SWAP2 SWAP1 MSTORE SWAP1 JUMP JUMPDEST PUSH1 0x0 DUP1 PUSH1 0x0 PUSH1 0x60 DUP5 DUP7 SUB SLT ISZERO PUSH2 0x16A0 JUMPI PUSH1 0x0 DUP1 REVERT JUMPDEST PUSH2 0x16A9 DUP5 PUSH2 0x15C8 JUMP JUMPDEST SWAP3 POP PUSH1 0x20 DUP5 ADD CALLDATALOAD SWAP2 POP PUSH2 0x16BE PUSH1 0x40 DUP6 ADD PUSH2 0x15C8 JUMP JUMPDEST SWAP1 POP SWAP3 POP SWAP3 POP SWAP3 JUMP JUMPDEST PUSH1 0x0 PUSH1 0x20 DUP3 DUP5 SUB SLT ISZERO PUSH2 0x16D9 JUMPI PUSH1 0x0 DUP1 REVERT JUMPDEST DUP2 CALLDATALOAD PUSH1 0x3 DUP2 LT PUSH2 0x16E8 JUMPI PUSH1 0x0 DUP1 REVERT JUMPDEST SWAP4 SWAP3 POP POP POP JUMP JUMPDEST PUSH1 0x20 DUP1 DUP3 MSTORE DUP3 MLOAD DUP3 DUP3 ADD DUP2 SWAP1 MSTORE PUSH1 0x0 SWAP2 SWAP1 DUP5 DUP3 ADD SWAP1 PUSH1 0x40 DUP6 ADD SWAP1 DUP5 JUMPDEST DUP2 DUP2 LT ISZERO PUSH2 0x1730 JUMPI DUP4 MLOAD PUSH1 0x1 PUSH1 0x1 PUSH1 0xA0 SHL SUB AND DUP4 MSTORE SWAP3 DUP5 ADD SWAP3 SWAP2 DUP5 ADD SWAP2 PUSH1 0x1 ADD PUSH2 0x170B JUMP JUMPDEST POP SWAP1 SWAP7 SWAP6 POP POP POP POP POP POP JUMP JUMPDEST PUSH1 0x0 DUP1 PUSH1 0x40 DUP4 DUP6 SUB SLT ISZERO PUSH2 0x174F JUMPI PUSH1 0x0 DUP1 REVERT JUMPDEST PUSH2 0x1758 DUP4 PUSH2 0x15C8 JUMP JUMPDEST SWAP5 PUSH1 0x20 SWAP4 SWAP1 SWAP4 ADD CALLDATALOAD SWAP4 POP POP POP JUMP JUMPDEST PUSH1 0x0 JUMPDEST DUP4 DUP2 LT ISZERO PUSH2 0x1781 JUMPI DUP2 DUP2 ADD MLOAD DUP4 DUP3 ADD MSTORE PUSH1 0x20 ADD PUSH2 0x1769 JUMP JUMPDEST POP POP PUSH1 0x0 SWAP2 ADD MSTORE JUMP JUMPDEST PUSH1 0x20 DUP2 MSTORE PUSH1 0x0 DUP3 MLOAD DUP1 PUSH1 0x20 DUP5 ADD MSTORE PUSH2 0x17A9 DUP2 PUSH1 0x40 DUP6 ADD PUSH1 0x20 DUP8 ADD PUSH2 0x1766 JUMP JUMPDEST PUSH1 0x1F ADD PUSH1 0x1F NOT AND SWAP2 SWAP1 SWAP2 ADD PUSH1 0x40 ADD SWAP3 SWAP2 POP POP JUMP JUMPDEST PUSH1 0x0 DUP1 PUSH1 0x40 DUP4 DUP6 SUB SLT ISZERO PUSH2 0x17D0 JUMPI PUSH1 0x0 DUP1 REVERT JUMPDEST PUSH2 0x17D9 DUP4 PUSH2 0x15C8 JUMP JUMPDEST SWAP2 POP PUSH2 0x17E7 PUSH1 0x20 DUP5 ADD PUSH2 0x15C8 JUMP JUMPDEST SWAP1 POP SWAP3 POP SWAP3 SWAP1 POP JUMP JUMPDEST PUSH1 0x0 PUSH1 0x20 DUP3 DUP5 SUB SLT ISZERO PUSH2 0x1802 JUMPI PUSH1 0x0 DUP1 REVERT JUMPDEST PUSH2 0x16E8 DUP3 PUSH2 0x15C8 JUMP JUMPDEST PUSH1 0x0 PUSH1 0x20 DUP3 DUP5 SUB SLT ISZERO PUSH2 0x181D JUMPI PUSH1 0x0 DUP1 REVERT JUMPDEST DUP2 MLOAD DUP1 ISZERO ISZERO DUP2 EQ PUSH2 0x16E8 JUMPI PUSH1 0x0 DUP1 REVERT JUMPDEST PUSH4 0x4E487B71 PUSH1 0xE0 SHL PUSH1 0x0 MSTORE PUSH1 0x11 PUSH1 0x4 MSTORE PUSH1 0x24 PUSH1 0x0 REVERT JUMPDEST DUP1 DUP3 MUL DUP2 ISZERO DUP3 DUP3 DIV DUP5 EQ OR PUSH2 0xD4C JUMPI PUSH2 0xD4C PUSH2 0x182D JUMP JUMPDEST PUSH1 0x0 DUP3 PUSH2 0x1877 JUMPI PUSH4 0x4E487B71 PUSH1 0xE0 SHL PUSH1 0x0 MSTORE PUSH1 0x12 PUSH1 0x4 MSTORE PUSH1 0x24 PUSH1 0x0 REVERT JUMPDEST POP DIV SWAP1 JUMP JUMPDEST DUP2 DUP2 SUB DUP2 DUP2 GT ISZERO PUSH2 0xD4C JUMPI PUSH2 0xD4C PUSH2 0x182D JUMP JUMPDEST PUSH1 0x0 PUSH1 0x20 DUP3 DUP5 SUB SLT ISZERO PUSH2 0x18A1 JUMPI PUSH1 0x0 DUP1 REVERT JUMPDEST POP MLOAD SWAP2 SWAP1 POP JUMP JUMPDEST PUSH4 0x4E487B71 PUSH1 0xE0 SHL PUSH1 0x0 MSTORE PUSH1 0x32 PUSH1 0x4 MSTORE PUSH1 0x24 PUSH1 0x0 REVERT JUMPDEST DUP1 DUP3 ADD DUP1 DUP3 GT ISZERO PUSH2 0xD4C JUMPI PUSH2 0xD4C PUSH2 0x182D JUMP JUMPDEST PUSH1 0x0 PUSH1 0x1 DUP3 ADD PUSH2 0x18E3 JUMPI PUSH2 0x18E3 PUSH2 0x182D JUMP JUMPDEST POP PUSH1 0x1 ADD SWAP1 JUMP JUMPDEST PUSH1 0x0 DUP3 MLOAD PUSH2 0x18FC DUP2 DUP5 PUSH1 0x20 DUP8 ADD PUSH2 0x1766 JUMP JUMPDEST SWAP2 SWAP1 SWAP2 ADD SWAP3 SWAP2 POP POP JUMP INVALID LOG2 PUSH5 0x6970667358 0x22 SLT KECCAK256 DUP15 NUMBER PUSH26 0x138E846411790EE66C461F40EFEB33B874C34A3F248C54F14AE3 PUSH32 0x51CD64736F6C6343000814003300000000000000000000000000000000000000 "},"methodIdentifiers":{"FEE_DENOMINATOR()":"d73792a9","JACKPOT_SHARE()":"58d276d5","POOL_FEE()":"dd1b9c4a","SHADOW_FEE()":"c64d61f5","SHADOW_WS_POOL()":"35d31d49","VE69LP_SHARE()":"d93879b5","X33_SHADOW_POOL()":"38ceb797","X33_USDC_POOL()":"67b76fac","beetsLpToken()":"286134fa","calculateWSEquivalent(uint256)":"aaae0963","emergencyWithdraw(address,uint256,address)":"551512de","estimateWSEquivalent(address,uint256)":"b241a890","estimateWrappedSonicEquivalent(address,uint256)":"db7863b4","getJackpotFeePercentage()":"a4c24ec6","getPartnerName()":"d8c37032","getPartnerTokens()":"a19d466a","getX33ToWSViaContractRatios(uint256)":"2d96d293","getve69LPFeePercentage()":"43f9430d","jackpot()":"6b31ee01","manualRatio()":"6fcd8207","owner()":"8da5cb5b","priceMethod()":"38f61a5f","quoter()":"c6bbd5a7","renounceOwnership()":"715018a6","router()":"f887ea40","setPriceMethod(uint8)":"7d32bd9a","shadowToken()":"ffc5d97a","swapForJackpotEntry(address,uint256,uint256,uint256,address)":"0d22ce3f","transferOwnership(address)":"f2fde38b","updateFeeRecipients(address,address)":"f1f73620","updateManualRatio(uint256)":"cbe1e7d5","ve69LP()":"2aca8e2b","wsToken()":"ef4907aa","x33Token()":"b9b39e46","xShadowToken()":"f382331f"}}}}}