{"contracts/mocks/MockDragonSwapTrigger.sol":{"MockDragonSwapTrigger":{"abi":[{"inputs":[{"internalType":"address","name":"_wrappedToken","type":"address"},{"internalType":"address","name":"_dragonToken","type":"address"},{"internalType":"address","name":"_vrfConsumer","type":"address"},{"internalType":"uint256","name":"_minSwapAmount","type":"uint256"}],"stateMutability":"nonpayable","type":"constructor"},{"anonymous":false,"inputs":[{"indexed":false,"internalType":"uint256","name":"amount","type":"uint256"},{"indexed":false,"internalType":"uint256","name":"newBalance","type":"uint256"}],"name":"JackpotIncreased","type":"event"},{"anonymous":false,"inputs":[{"indexed":true,"internalType":"uint256","name":"requestId","type":"uint256"},{"indexed":true,"internalType":"address","name":"user","type":"address"}],"name":"RandomnessRequested","type":"event"},{"anonymous":false,"inputs":[{"indexed":true,"internalType":"address","name":"user","type":"address"},{"indexed":false,"internalType":"uint256","name":"amount","type":"uint256"}],"name":"SwapDetected","type":"event"},{"inputs":[{"internalType":"uint256","name":"_amount","type":"uint256"}],"name":"addToJackpot","outputs":[],"stateMutability":"nonpayable","type":"function"},{"inputs":[],"name":"dragonToken","outputs":[{"internalType":"contract IERC20","name":"","type":"address"}],"stateMutability":"view","type":"function"},{"inputs":[{"internalType":"uint256","name":"","type":"uint256"},{"internalType":"uint256","name":"","type":"uint256"}],"name":"fulfillRandomness","outputs":[],"stateMutability":"view","type":"function"},{"inputs":[],"name":"getJackpotBalance","outputs":[{"internalType":"uint256","name":"","type":"uint256"}],"stateMutability":"view","type":"function"},{"inputs":[],"name":"getNativeTokenWrapper","outputs":[{"internalType":"address","name":"","type":"address"}],"stateMutability":"view","type":"function"},{"inputs":[],"name":"jackpotBalance","outputs":[{"internalType":"uint256","name":"","type":"uint256"}],"stateMutability":"view","type":"function"},{"inputs":[],"name":"minSwapAmount","outputs":[{"internalType":"uint256","name":"","type":"uint256"}],"stateMutability":"view","type":"function"},{"inputs":[{"internalType":"address","name":"_user","type":"address"},{"internalType":"uint256","name":"_amount","type":"uint256"}],"name":"onSwapNativeTokenToDragon","outputs":[],"stateMutability":"nonpayable","type":"function"},{"inputs":[{"internalType":"uint256","name":"_minSwapAmount","type":"uint256"}],"name":"setMinSwapAmount","outputs":[],"stateMutability":"nonpayable","type":"function"},{"inputs":[{"internalType":"address","name":"_vrfConsumerAddress","type":"address"}],"name":"setVRFConsumer","outputs":[],"stateMutability":"nonpayable","type":"function"},{"inputs":[{"internalType":"uint256","name":"_winThreshold","type":"uint256"}],"name":"setWinThreshold","outputs":[],"stateMutability":"nonpayable","type":"function"},{"inputs":[],"name":"swapCount","outputs":[{"internalType":"uint256","name":"","type":"uint256"}],"stateMutability":"view","type":"function"},{"inputs":[],"name":"vrfConsumer","outputs":[{"internalType":"address","name":"","type":"address"}],"stateMutability":"view","type":"function"},{"inputs":[],"name":"winThreshold","outputs":[{"internalType":"uint256","name":"","type":"uint256"}],"stateMutability":"view","type":"function"},{"inputs":[],"name":"wrappedToken","outputs":[{"internalType":"contract IERC20","name":"","type":"address"}],"stateMutability":"view","type":"function"}],"evm":{"bytecode":{"linkReferences":{},"object":"60806040526103e860045534801561001657600080fd5b5060405161073238038061073283398101604081905261003591610096565b600080546001600160a01b03199081166001600160a01b03968716179091556001805482169486169490941790935560028054909316919093161790556003556100e1565b80516001600160a01b038116811461009157600080fd5b919050565b600080600080608085870312156100ac57600080fd5b6100b58561007a565b93506100c36020860161007a565b92506100d16040860161007a565b6060959095015193969295505050565b610642806100f06000396000f3fe608060405234801561001057600080fd5b50600436106100f55760003560e01c8063338246e211610097578063998e4d5211610066578063998e4d52146101ce578063b7b50352146101df578063cfd6aa90146101f2578063ed96cc511461022257600080fd5b8063338246e2146101975780637c40a65c146101a05780639509ba0c146101b3578063996c6cc3146101bb57600080fd5b80631ef4d1fd116100d35780631ef4d1fd146101555780632a7e1d06146101685780632eff0d9e1461017b578063320d45341461018457600080fd5b8063040da8f4146100fa5780630695a252146101165780630e42323b1461012a575b600080fd5b61010360065481565b6040519081526020015b60405180910390f35b6101286101243660046104d0565b5050565b005b60015461013d906001600160a01b031681565b6040516001600160a01b03909116815260200161010d565b60025461013d906001600160a01b031681565b6101286101763660046104f2565b600455565b61010360055481565b6101286101923660046104f2565b600355565b61010360035481565b6101286101ae366004610527565b61022b565b600654610103565b60005461013d906001600160a01b031681565b6000546001600160a01b031661013d565b6101286101ed3660046104f2565b6103fd565b610128610200366004610551565b600280546001600160a01b0319166001600160a01b0392909216919091179055565b61010360045481565b600354811015610239575050565b6005805490600061024983610589565b90915550506000546040516323b872dd60e01b81526001600160a01b03848116600483015230602483015260448201849052909116906323b872dd906064016020604051808303816000875af11580156102a7573d6000803e3d6000fd5b505050506040513d601f19601f820116820180604052508101906102cb91906105a2565b50816001600160a01b03167f5590cccd15bf7ebb05ced7d4e11c18447aae5060414fbe666c323e4d18e6df808260405161030791815260200190565b60405180910390a26002546001600160a01b031615610124576002546040516001600160a01b038481166024830152600092169060440160408051601f198184030181529181526020820180516001600160e01b031663ead073c760e01b1790525161037391906105c4565b6000604051808303816000865af19150503d80600081146103b0576040519150601f19603f3d011682016040523d82523d6000602084013e6103b5565b606091505b5050905080156103f8576005546040516001600160a01b03851691907f28f521cf7abd0044cba5bb040c5217ff69a4e5865f5262905018698e68fe7d0090600090a35b505050565b6000546040516323b872dd60e01b8152336004820152306024820152604481018390526001600160a01b03909116906323b872dd906064016020604051808303816000875af1158015610454573d6000803e3d6000fd5b505050506040513d601f19601f8201168201806040525081019061047891906105a2565b50806006600082825461048b91906105f3565b90915550506006546040805183815260208101929092527fb0d06ccaa4821f41669bcc9a049d35783663cd32e846ae89a27dc9835330ce1a910160405180910390a150565b600080604083850312156104e357600080fd5b50508035926020909101359150565b60006020828403121561050457600080fd5b5035919050565b80356001600160a01b038116811461052257600080fd5b919050565b6000806040838503121561053a57600080fd5b6105438361050b565b946020939093013593505050565b60006020828403121561056357600080fd5b61056c8261050b565b9392505050565b634e487b7160e01b600052601160045260246000fd5b60006001820161059b5761059b610573565b5060010190565b6000602082840312156105b457600080fd5b8151801515811461056c57600080fd5b6000825160005b818110156105e557602081860181015185830152016105cb565b506000920191825250919050565b8082018082111561060657610606610573565b9291505056fea26469706673582212200aa7041dd9c1a8e720f7ac2c0307e82c98eda3436c12e73a7dab92bd611415e764736f6c63430008140033","opcodes":"PUSH1 0x80 PUSH1 0x40 MSTORE PUSH2 0x3E8 PUSH1 0x4 SSTORE CALLVALUE DUP1 ISZERO PUSH2 0x16 JUMPI PUSH1 0x0 DUP1 REVERT JUMPDEST POP PUSH1 0x40 MLOAD PUSH2 0x732 CODESIZE SUB DUP1 PUSH2 0x732 DUP4 CODECOPY DUP2 ADD PUSH1 0x40 DUP2 SWAP1 MSTORE PUSH2 0x35 SWAP2 PUSH2 0x96 JUMP JUMPDEST PUSH1 0x0 DUP1 SLOAD PUSH1 0x1 PUSH1 0x1 PUSH1 0xA0 SHL SUB NOT SWAP1 DUP2 AND PUSH1 0x1 PUSH1 0x1 PUSH1 0xA0 SHL SUB SWAP7 DUP8 AND OR SWAP1 SWAP2 SSTORE PUSH1 0x1 DUP1 SLOAD DUP3 AND SWAP5 DUP7 AND SWAP5 SWAP1 SWAP5 OR SWAP1 SWAP4 SSTORE PUSH1 0x2 DUP1 SLOAD SWAP1 SWAP4 AND SWAP2 SWAP1 SWAP4 AND OR SWAP1 SSTORE PUSH1 0x3 SSTORE PUSH2 0xE1 JUMP JUMPDEST DUP1 MLOAD PUSH1 0x1 PUSH1 0x1 PUSH1 0xA0 SHL SUB DUP2 AND DUP2 EQ PUSH2 0x91 JUMPI PUSH1 0x0 DUP1 REVERT JUMPDEST SWAP2 SWAP1 POP JUMP JUMPDEST PUSH1 0x0 DUP1 PUSH1 0x0 DUP1 PUSH1 0x80 DUP6 DUP8 SUB SLT ISZERO PUSH2 0xAC JUMPI PUSH1 0x0 DUP1 REVERT JUMPDEST PUSH2 0xB5 DUP6 PUSH2 0x7A JUMP JUMPDEST SWAP4 POP PUSH2 0xC3 PUSH1 0x20 DUP7 ADD PUSH2 0x7A JUMP JUMPDEST SWAP3 POP PUSH2 0xD1 PUSH1 0x40 DUP7 ADD PUSH2 0x7A JUMP JUMPDEST PUSH1 0x60 SWAP6 SWAP1 SWAP6 ADD MLOAD SWAP4 SWAP7 SWAP3 SWAP6 POP POP POP JUMP JUMPDEST PUSH2 0x642 DUP1 PUSH2 0xF0 PUSH1 0x0 CODECOPY PUSH1 0x0 RETURN INVALID PUSH1 0x80 PUSH1 0x40 MSTORE CALLVALUE DUP1 ISZERO PUSH2 0x10 JUMPI PUSH1 0x0 DUP1 REVERT JUMPDEST POP PUSH1 0x4 CALLDATASIZE LT PUSH2 0xF5 JUMPI PUSH1 0x0 CALLDATALOAD PUSH1 0xE0 SHR DUP1 PUSH4 0x338246E2 GT PUSH2 0x97 JUMPI DUP1 PUSH4 0x998E4D52 GT PUSH2 0x66 JUMPI DUP1 PUSH4 0x998E4D52 EQ PUSH2 0x1CE JUMPI DUP1 PUSH4 0xB7B50352 EQ PUSH2 0x1DF JUMPI DUP1 PUSH4 0xCFD6AA90 EQ PUSH2 0x1F2 JUMPI DUP1 PUSH4 0xED96CC51 EQ PUSH2 0x222 JUMPI PUSH1 0x0 DUP1 REVERT JUMPDEST DUP1 PUSH4 0x338246E2 EQ PUSH2 0x197 JUMPI DUP1 PUSH4 0x7C40A65C EQ PUSH2 0x1A0 JUMPI DUP1 PUSH4 0x9509BA0C EQ PUSH2 0x1B3 JUMPI DUP1 PUSH4 0x996C6CC3 EQ PUSH2 0x1BB JUMPI PUSH1 0x0 DUP1 REVERT JUMPDEST DUP1 PUSH4 0x1EF4D1FD GT PUSH2 0xD3 JUMPI DUP1 PUSH4 0x1EF4D1FD EQ PUSH2 0x155 JUMPI DUP1 PUSH4 0x2A7E1D06 EQ PUSH2 0x168 JUMPI DUP1 PUSH4 0x2EFF0D9E EQ PUSH2 0x17B JUMPI DUP1 PUSH4 0x320D4534 EQ PUSH2 0x184 JUMPI PUSH1 0x0 DUP1 REVERT JUMPDEST DUP1 PUSH4 0x40DA8F4 EQ PUSH2 0xFA JUMPI DUP1 PUSH4 0x695A252 EQ PUSH2 0x116 JUMPI DUP1 PUSH4 0xE42323B EQ PUSH2 0x12A JUMPI JUMPDEST PUSH1 0x0 DUP1 REVERT JUMPDEST PUSH2 0x103 PUSH1 0x6 SLOAD DUP2 JUMP JUMPDEST PUSH1 0x40 MLOAD SWAP1 DUP2 MSTORE PUSH1 0x20 ADD JUMPDEST PUSH1 0x40 MLOAD DUP1 SWAP2 SUB SWAP1 RETURN JUMPDEST PUSH2 0x128 PUSH2 0x124 CALLDATASIZE PUSH1 0x4 PUSH2 0x4D0 JUMP JUMPDEST POP POP JUMP JUMPDEST STOP JUMPDEST PUSH1 0x1 SLOAD PUSH2 0x13D SWAP1 PUSH1 0x1 PUSH1 0x1 PUSH1 0xA0 SHL SUB AND DUP2 JUMP JUMPDEST PUSH1 0x40 MLOAD PUSH1 0x1 PUSH1 0x1 PUSH1 0xA0 SHL SUB SWAP1 SWAP2 AND DUP2 MSTORE PUSH1 0x20 ADD PUSH2 0x10D JUMP JUMPDEST PUSH1 0x2 SLOAD PUSH2 0x13D SWAP1 PUSH1 0x1 PUSH1 0x1 PUSH1 0xA0 SHL SUB AND DUP2 JUMP JUMPDEST PUSH2 0x128 PUSH2 0x176 CALLDATASIZE PUSH1 0x4 PUSH2 0x4F2 JUMP JUMPDEST PUSH1 0x4 SSTORE JUMP JUMPDEST PUSH2 0x103 PUSH1 0x5 SLOAD DUP2 JUMP JUMPDEST PUSH2 0x128 PUSH2 0x192 CALLDATASIZE PUSH1 0x4 PUSH2 0x4F2 JUMP JUMPDEST PUSH1 0x3 SSTORE JUMP JUMPDEST PUSH2 0x103 PUSH1 0x3 SLOAD DUP2 JUMP JUMPDEST PUSH2 0x128 PUSH2 0x1AE CALLDATASIZE PUSH1 0x4 PUSH2 0x527 JUMP JUMPDEST PUSH2 0x22B JUMP JUMPDEST PUSH1 0x6 SLOAD PUSH2 0x103 JUMP JUMPDEST PUSH1 0x0 SLOAD PUSH2 0x13D SWAP1 PUSH1 0x1 PUSH1 0x1 PUSH1 0xA0 SHL SUB AND DUP2 JUMP JUMPDEST PUSH1 0x0 SLOAD PUSH1 0x1 PUSH1 0x1 PUSH1 0xA0 SHL SUB AND PUSH2 0x13D JUMP JUMPDEST PUSH2 0x128 PUSH2 0x1ED CALLDATASIZE PUSH1 0x4 PUSH2 0x4F2 JUMP JUMPDEST PUSH2 0x3FD JUMP JUMPDEST PUSH2 0x128 PUSH2 0x200 CALLDATASIZE PUSH1 0x4 PUSH2 0x551 JUMP JUMPDEST PUSH1 0x2 DUP1 SLOAD PUSH1 0x1 PUSH1 0x1 PUSH1 0xA0 SHL SUB NOT AND PUSH1 0x1 PUSH1 0x1 PUSH1 0xA0 SHL SUB SWAP3 SWAP1 SWAP3 AND SWAP2 SWAP1 SWAP2 OR SWAP1 SSTORE JUMP JUMPDEST PUSH2 0x103 PUSH1 0x4 SLOAD DUP2 JUMP JUMPDEST PUSH1 0x3 SLOAD DUP2 LT ISZERO PUSH2 0x239 JUMPI POP POP JUMP JUMPDEST PUSH1 0x5 DUP1 SLOAD SWAP1 PUSH1 0x0 PUSH2 0x249 DUP4 PUSH2 0x589 JUMP JUMPDEST SWAP1 SWAP2 SSTORE POP POP PUSH1 0x0 SLOAD PUSH1 0x40 MLOAD PUSH4 0x23B872DD PUSH1 0xE0 SHL DUP2 MSTORE PUSH1 0x1 PUSH1 0x1 PUSH1 0xA0 SHL SUB DUP5 DUP2 AND PUSH1 0x4 DUP4 ADD MSTORE ADDRESS PUSH1 0x24 DUP4 ADD MSTORE PUSH1 0x44 DUP3 ADD DUP5 SWAP1 MSTORE SWAP1 SWAP2 AND SWAP1 PUSH4 0x23B872DD SWAP1 PUSH1 0x64 ADD PUSH1 0x20 PUSH1 0x40 MLOAD DUP1 DUP4 SUB DUP2 PUSH1 0x0 DUP8 GAS CALL ISZERO DUP1 ISZERO PUSH2 0x2A7 JUMPI RETURNDATASIZE PUSH1 0x0 DUP1 RETURNDATACOPY RETURNDATASIZE PUSH1 0x0 REVERT JUMPDEST POP POP POP POP PUSH1 0x40 MLOAD RETURNDATASIZE PUSH1 0x1F NOT PUSH1 0x1F DUP3 ADD AND DUP3 ADD DUP1 PUSH1 0x40 MSTORE POP DUP2 ADD SWAP1 PUSH2 0x2CB SWAP2 SWAP1 PUSH2 0x5A2 JUMP JUMPDEST POP DUP2 PUSH1 0x1 PUSH1 0x1 PUSH1 0xA0 SHL SUB AND PUSH32 0x5590CCCD15BF7EBB05CED7D4E11C18447AAE5060414FBE666C323E4D18E6DF80 DUP3 PUSH1 0x40 MLOAD PUSH2 0x307 SWAP2 DUP2 MSTORE PUSH1 0x20 ADD SWAP1 JUMP JUMPDEST PUSH1 0x40 MLOAD DUP1 SWAP2 SUB SWAP1 LOG2 PUSH1 0x2 SLOAD PUSH1 0x1 PUSH1 0x1 PUSH1 0xA0 SHL SUB AND ISZERO PUSH2 0x124 JUMPI PUSH1 0x2 SLOAD PUSH1 0x40 MLOAD PUSH1 0x1 PUSH1 0x1 PUSH1 0xA0 SHL SUB DUP5 DUP2 AND PUSH1 0x24 DUP4 ADD MSTORE PUSH1 0x0 SWAP3 AND SWAP1 PUSH1 0x44 ADD PUSH1 0x40 DUP1 MLOAD PUSH1 0x1F NOT DUP2 DUP5 SUB ADD DUP2 MSTORE SWAP2 DUP2 MSTORE PUSH1 0x20 DUP3 ADD DUP1 MLOAD PUSH1 0x1 PUSH1 0x1 PUSH1 0xE0 SHL SUB AND PUSH4 0xEAD073C7 PUSH1 0xE0 SHL OR SWAP1 MSTORE MLOAD PUSH2 0x373 SWAP2 SWAP1 PUSH2 0x5C4 JUMP JUMPDEST PUSH1 0x0 PUSH1 0x40 MLOAD DUP1 DUP4 SUB DUP2 PUSH1 0x0 DUP7 GAS CALL SWAP2 POP POP RETURNDATASIZE DUP1 PUSH1 0x0 DUP2 EQ PUSH2 0x3B0 JUMPI PUSH1 0x40 MLOAD SWAP2 POP PUSH1 0x1F NOT PUSH1 0x3F RETURNDATASIZE ADD AND DUP3 ADD PUSH1 0x40 MSTORE RETURNDATASIZE DUP3 MSTORE RETURNDATASIZE PUSH1 0x0 PUSH1 0x20 DUP5 ADD RETURNDATACOPY PUSH2 0x3B5 JUMP JUMPDEST PUSH1 0x60 SWAP2 POP JUMPDEST POP POP SWAP1 POP DUP1 ISZERO PUSH2 0x3F8 JUMPI PUSH1 0x5 SLOAD PUSH1 0x40 MLOAD PUSH1 0x1 PUSH1 0x1 PUSH1 0xA0 SHL SUB DUP6 AND SWAP2 SWAP1 PUSH32 0x28F521CF7ABD0044CBA5BB040C5217FF69A4E5865F5262905018698E68FE7D00 SWAP1 PUSH1 0x0 SWAP1 LOG3 JUMPDEST POP POP POP JUMP JUMPDEST PUSH1 0x0 SLOAD PUSH1 0x40 MLOAD PUSH4 0x23B872DD PUSH1 0xE0 SHL DUP2 MSTORE CALLER PUSH1 0x4 DUP3 ADD MSTORE ADDRESS PUSH1 0x24 DUP3 ADD MSTORE PUSH1 0x44 DUP2 ADD DUP4 SWAP1 MSTORE PUSH1 0x1 PUSH1 0x1 PUSH1 0xA0 SHL SUB SWAP1 SWAP2 AND SWAP1 PUSH4 0x23B872DD SWAP1 PUSH1 0x64 ADD PUSH1 0x20 PUSH1 0x40 MLOAD DUP1 DUP4 SUB DUP2 PUSH1 0x0 DUP8 GAS CALL ISZERO DUP1 ISZERO PUSH2 0x454 JUMPI RETURNDATASIZE PUSH1 0x0 DUP1 RETURNDATACOPY RETURNDATASIZE PUSH1 0x0 REVERT JUMPDEST POP POP POP POP PUSH1 0x40 MLOAD RETURNDATASIZE PUSH1 0x1F NOT PUSH1 0x1F DUP3 ADD AND DUP3 ADD DUP1 PUSH1 0x40 MSTORE POP DUP2 ADD SWAP1 PUSH2 0x478 SWAP2 SWAP1 PUSH2 0x5A2 JUMP JUMPDEST POP DUP1 PUSH1 0x6 PUSH1 0x0 DUP3 DUP3 SLOAD PUSH2 0x48B SWAP2 SWAP1 PUSH2 0x5F3 JUMP JUMPDEST SWAP1 SWAP2 SSTORE POP POP PUSH1 0x6 SLOAD PUSH1 0x40 DUP1 MLOAD DUP4 DUP2 MSTORE PUSH1 0x20 DUP2 ADD SWAP3 SWAP1 SWAP3 MSTORE PUSH32 0xB0D06CCAA4821F41669BCC9A049D35783663CD32E846AE89A27DC9835330CE1A SWAP2 ADD PUSH1 0x40 MLOAD DUP1 SWAP2 SUB SWAP1 LOG1 POP JUMP JUMPDEST PUSH1 0x0 DUP1 PUSH1 0x40 DUP4 DUP6 SUB SLT ISZERO PUSH2 0x4E3 JUMPI PUSH1 0x0 DUP1 REVERT JUMPDEST POP POP DUP1 CALLDATALOAD SWAP3 PUSH1 0x20 SWAP1 SWAP2 ADD CALLDATALOAD SWAP2 POP JUMP JUMPDEST PUSH1 0x0 PUSH1 0x20 DUP3 DUP5 SUB SLT ISZERO PUSH2 0x504 JUMPI PUSH1 0x0 DUP1 REVERT JUMPDEST POP CALLDATALOAD SWAP2 SWAP1 POP JUMP JUMPDEST DUP1 CALLDATALOAD PUSH1 0x1 PUSH1 0x1 PUSH1 0xA0 SHL SUB DUP2 AND DUP2 EQ PUSH2 0x522 JUMPI PUSH1 0x0 DUP1 REVERT JUMPDEST SWAP2 SWAP1 POP JUMP JUMPDEST PUSH1 0x0 DUP1 PUSH1 0x40 DUP4 DUP6 SUB SLT ISZERO PUSH2 0x53A JUMPI PUSH1 0x0 DUP1 REVERT JUMPDEST PUSH2 0x543 DUP4 PUSH2 0x50B JUMP JUMPDEST SWAP5 PUSH1 0x20 SWAP4 SWAP1 SWAP4 ADD CALLDATALOAD SWAP4 POP POP POP JUMP JUMPDEST PUSH1 0x0 PUSH1 0x20 DUP3 DUP5 SUB SLT ISZERO PUSH2 0x563 JUMPI PUSH1 0x0 DUP1 REVERT JUMPDEST PUSH2 0x56C DUP3 PUSH2 0x50B JUMP JUMPDEST SWAP4 SWAP3 POP POP POP JUMP JUMPDEST PUSH4 0x4E487B71 PUSH1 0xE0 SHL PUSH1 0x0 MSTORE PUSH1 0x11 PUSH1 0x4 MSTORE PUSH1 0x24 PUSH1 0x0 REVERT JUMPDEST PUSH1 0x0 PUSH1 0x1 DUP3 ADD PUSH2 0x59B JUMPI PUSH2 0x59B PUSH2 0x573 JUMP JUMPDEST POP PUSH1 0x1 ADD SWAP1 JUMP JUMPDEST PUSH1 0x0 PUSH1 0x20 DUP3 DUP5 SUB SLT ISZERO PUSH2 0x5B4 JUMPI PUSH1 0x0 DUP1 REVERT JUMPDEST DUP2 MLOAD DUP1 ISZERO ISZERO DUP2 EQ PUSH2 0x56C JUMPI PUSH1 0x0 DUP1 REVERT JUMPDEST PUSH1 0x0 DUP3 MLOAD PUSH1 0x0 JUMPDEST DUP2 DUP2 LT ISZERO PUSH2 0x5E5 JUMPI PUSH1 0x20 DUP2 DUP7 ADD DUP2 ADD MLOAD DUP6 DUP4 ADD MSTORE ADD PUSH2 0x5CB JUMP JUMPDEST POP PUSH1 0x0 SWAP3 ADD SWAP2 DUP3 MSTORE POP SWAP2 SWAP1 POP JUMP JUMPDEST DUP1 DUP3 ADD DUP1 DUP3 GT ISZERO PUSH2 0x606 JUMPI PUSH2 0x606 PUSH2 0x573 JUMP JUMPDEST SWAP3 SWAP2 POP POP JUMP INVALID LOG2 PUSH5 0x6970667358 0x22 SLT KECCAK256 EXP 0xA7 DIV SAR 0xD9 0xC1 0xA8 0xE7 KECCAK256 0xF7 0xAC 0x2C SUB SMOD 0xE8 0x2C SWAP9 0xED LOG3 NUMBER PUSH13 0x12E73A7DAB92BD611415E76473 PUSH16 0x6C634300081400330000000000000000 "},"methodIdentifiers":{"addToJackpot(uint256)":"b7b50352","dragonToken()":"0e42323b","fulfillRandomness(uint256,uint256)":"0695a252","getJackpotBalance()":"9509ba0c","getNativeTokenWrapper()":"998e4d52","jackpotBalance()":"040da8f4","minSwapAmount()":"338246e2","onSwapNativeTokenToDragon(address,uint256)":"7c40a65c","setMinSwapAmount(uint256)":"320d4534","setVRFConsumer(address)":"cfd6aa90","setWinThreshold(uint256)":"2a7e1d06","swapCount()":"2eff0d9e","vrfConsumer()":"1ef4d1fd","winThreshold()":"ed96cc51","wrappedToken()":"996c6cc3"}}}}}