{"contracts/mocks/DragonProbabilityHelper.sol":{"DragonProbabilityHelper":{"abi":[{"inputs":[{"internalType":"uint256","name":"_maxVotingPower","type":"uint256"}],"stateMutability":"nonpayable","type":"constructor"},{"inputs":[],"name":"BPS_SCALE","outputs":[{"internalType":"uint256","name":"","type":"uint256"}],"stateMutability":"view","type":"function"},{"inputs":[],"name":"MAX_BOOST_BPS","outputs":[{"internalType":"uint256","name":"","type":"uint256"}],"stateMutability":"view","type":"function"},{"inputs":[],"name":"MAX_PROBABILITY","outputs":[{"internalType":"uint256","name":"","type":"uint256"}],"stateMutability":"view","type":"function"},{"inputs":[],"name":"MAX_USD_AMOUNT","outputs":[{"internalType":"uint256","name":"","type":"uint256"}],"stateMutability":"view","type":"function"},{"inputs":[],"name":"MIN_PROBABILITY","outputs":[{"internalType":"uint256","name":"","type":"uint256"}],"stateMutability":"view","type":"function"},{"inputs":[],"name":"MIN_USD_AMOUNT","outputs":[{"internalType":"uint256","name":"","type":"uint256"}],"stateMutability":"view","type":"function"},{"inputs":[],"name":"PROBABILITY_SCALE","outputs":[{"internalType":"uint256","name":"","type":"uint256"}],"stateMutability":"view","type":"function"},{"inputs":[{"internalType":"uint256","name":"_usdAmount","type":"uint256"}],"name":"calculateBaseProbability","outputs":[{"internalType":"uint256","name":"","type":"uint256"}],"stateMutability":"pure","type":"function"},{"inputs":[{"internalType":"uint256","name":"_votingPower","type":"uint256"}],"name":"calculateBoost","outputs":[{"internalType":"uint256","name":"","type":"uint256"}],"stateMutability":"view","type":"function"},{"inputs":[{"internalType":"uint256","name":"_usdAmount","type":"uint256"},{"internalType":"uint256","name":"_votingPower","type":"uint256"}],"name":"calculateWinProbability","outputs":[{"internalType":"uint256","name":"","type":"uint256"}],"stateMutability":"view","type":"function"},{"inputs":[{"internalType":"uint256","name":"_x","type":"uint256"}],"name":"computeCubeRoot","outputs":[{"internalType":"uint256","name":"","type":"uint256"}],"stateMutability":"pure","type":"function"},{"inputs":[{"internalType":"uint256","name":"_randomness","type":"uint256"},{"internalType":"uint256","name":"_usdAmount","type":"uint256"},{"internalType":"uint256","name":"_votingPower","type":"uint256"}],"name":"isWinner","outputs":[{"internalType":"bool","name":"","type":"bool"}],"stateMutability":"view","type":"function"},{"inputs":[],"name":"maxVotingPower","outputs":[{"internalType":"uint256","name":"","type":"uint256"}],"stateMutability":"view","type":"function"},{"inputs":[{"internalType":"uint256","name":"_maxVotingPower","type":"uint256"}],"name":"setMaxVotingPower","outputs":[],"stateMutability":"nonpayable","type":"function"}],"evm":{"bytecode":{"linkReferences":{},"object":"608060405234801561001057600080fd5b5060405161087338038061087383398101604081905261002f91610095565b6000811161008d5760405162461bcd60e51b815260206004820152602160248201527f4d617820766f74696e6720706f776572206d75737420626520706f73697469766044820152606560f81b606482015260840160405180910390fd5b6000556100ae565b6000602082840312156100a757600080fd5b5051919050565b6107b6806100bd6000396000f3fe608060405234801561001057600080fd5b50600436106100ea5760003560e01c806390960d571161008c578063b94c940611610066578063b94c9406146101a2578063cc40a8ca146101b5578063f6af258c146101be578063f8b9f4f0146101d357600080fd5b806390960d571461017c578063972a04ed146101865780639ef0fb851461019957600080fd5b8063439185a3116100c8578063439185a3146101365780634b276742146101475780635ed45c101461015a578063854a1f041461016d57600080fd5b806316342d37146100ef57806333521bba1461010a5780633d9a581a1461012d575b600080fd5b6100f7600481565b6040519081526020015b60405180910390f35b61011d610118366004610656565b6101dc565b6040519015158152602001610101565b6100f76161a881565b6100f769021e19e0c9bab240000081565b6100f7610155366004610682565b610265565b6100f7610168366004610682565b610301565b6100f7670de0b6b3a764000081565b6100f7620f424081565b6100f7610194366004610682565b610501565b6100f760005481565b6100f76101b036600461069b565b6105b6565b6100f7619c4081565b6101d16101cc366004610682565b6105f3565b005b6100f761271081565b6000806101ec620f4240866106d3565b604051635ca64a0360e11b81526004810186905260248101859052909150600090309063b94c940690604401602060405180830381865afa158015610235573d6000803e3d6000fd5b505050506040513d601f19601f8201168201806040525081019061025991906106e7565b90911095945050505050565b60008115806102745750600054155b156102825750612710919050565b6000805483116102ab5760005461029c620f424085610716565b6102a6919061072d565b6102b0565b620f42405b905060006102bd82610301565b90506000620f42406102d36127106161a8610741565b6102dd9084610716565b6102e7919061072d565b905060006102f782612710610754565b9695505050505050565b60008160000361031357506000919050565b620f424082036103275750620f4240919050565b620f424082116103f15761033f6064620f424061072d565b820361034f57506207151f919050565b61035d6014620f424061072d565b820361036d5750620a9471919050565b61037b600a620f424061072d565b820361038b5750620c1ed8919050565b6103996004620f424061072d565b82036103a95750620e2a0c919050565b6103b76002620f424061072d565b82036103c75750620c19a8919050565b60046103d7620f42406003610716565b6103e1919061072d565b82036103f15750620ddae0919050565b60006003610403620f42406002610716565b61040d9085610754565b610417919061072d565b90506000805b600a8110801561042d5750818314155b156104f8578291506000620f42406104458480610716565b61044f919061072d565b90506000620f42406104618684610716565b61046b919061072d565b9050600087821115610488576104818883610741565b905061048c565b5060005b6000610499846003610716565b9050806000036104ac57505050506104f8565b60006104b8828461072d565b90508781106104d3576104cc60028961072d565b97506104e0565b6104dd8189610741565b97505b505050505080806104f090610767565b91505061041d565b50909392505050565b600081670de0b6b3a76400008110156105235750670de0b6b3a7640000610542565b69021e19e0c9bab2400000811115610542575069021e19e0c9bab24000005b6000610560670de0b6b3a764000069021e19e0c9bab2400000610741565b905060006105716004619c40610741565b90506000610587670de0b6b3a764000085610741565b90506000836105968484610716565b6105a0919061072d565b6105ab906004610754565b979650505050505050565b6000806105c284610501565b905060006105cf84610265565b90506127106105de8284610716565b6105e8919061072d565b925050505b92915050565b600081116106515760405162461bcd60e51b815260206004820152602160248201527f4d617820766f74696e6720706f776572206d75737420626520706f73697469766044820152606560f81b606482015260840160405180910390fd5b600055565b60008060006060848603121561066b57600080fd5b505081359360208301359350604090920135919050565b60006020828403121561069457600080fd5b5035919050565b600080604083850312156106ae57600080fd5b50508035926020909101359150565b634e487b7160e01b600052601260045260246000fd5b6000826106e2576106e26106bd565b500690565b6000602082840312156106f957600080fd5b5051919050565b634e487b7160e01b600052601160045260246000fd5b80820281158282048414176105ed576105ed610700565b60008261073c5761073c6106bd565b500490565b818103818111156105ed576105ed610700565b808201808211156105ed576105ed610700565b60006001820161077957610779610700565b506001019056fea264697066735822122055085304529d1d1f66c7b2f19818ea9468bc903a9585d055f33ccb4a9d73a54f64736f6c63430008140033","opcodes":"PUSH1 0x80 PUSH1 0x40 MSTORE CALLVALUE DUP1 ISZERO PUSH2 0x10 JUMPI PUSH1 0x0 DUP1 REVERT JUMPDEST POP PUSH1 0x40 MLOAD PUSH2 0x873 CODESIZE SUB DUP1 PUSH2 0x873 DUP4 CODECOPY DUP2 ADD PUSH1 0x40 DUP2 SWAP1 MSTORE PUSH2 0x2F SWAP2 PUSH2 0x95 JUMP JUMPDEST PUSH1 0x0 DUP2 GT PUSH2 0x8D JUMPI PUSH1 0x40 MLOAD PUSH3 0x461BCD PUSH1 0xE5 SHL DUP2 MSTORE PUSH1 0x20 PUSH1 0x4 DUP3 ADD MSTORE PUSH1 0x21 PUSH1 0x24 DUP3 ADD MSTORE PUSH32 0x4D617820766F74696E6720706F776572206D75737420626520706F7369746976 PUSH1 0x44 DUP3 ADD MSTORE PUSH1 0x65 PUSH1 0xF8 SHL PUSH1 0x64 DUP3 ADD MSTORE PUSH1 0x84 ADD PUSH1 0x40 MLOAD DUP1 SWAP2 SUB SWAP1 REVERT JUMPDEST PUSH1 0x0 SSTORE PUSH2 0xAE JUMP JUMPDEST PUSH1 0x0 PUSH1 0x20 DUP3 DUP5 SUB SLT ISZERO PUSH2 0xA7 JUMPI PUSH1 0x0 DUP1 REVERT JUMPDEST POP MLOAD SWAP2 SWAP1 POP JUMP JUMPDEST PUSH2 0x7B6 DUP1 PUSH2 0xBD PUSH1 0x0 CODECOPY PUSH1 0x0 RETURN INVALID PUSH1 0x80 PUSH1 0x40 MSTORE CALLVALUE DUP1 ISZERO PUSH2 0x10 JUMPI PUSH1 0x0 DUP1 REVERT JUMPDEST POP PUSH1 0x4 CALLDATASIZE LT PUSH2 0xEA JUMPI PUSH1 0x0 CALLDATALOAD PUSH1 0xE0 SHR DUP1 PUSH4 0x90960D57 GT PUSH2 0x8C JUMPI DUP1 PUSH4 0xB94C9406 GT PUSH2 0x66 JUMPI DUP1 PUSH4 0xB94C9406 EQ PUSH2 0x1A2 JUMPI DUP1 PUSH4 0xCC40A8CA EQ PUSH2 0x1B5 JUMPI DUP1 PUSH4 0xF6AF258C EQ PUSH2 0x1BE JUMPI DUP1 PUSH4 0xF8B9F4F0 EQ PUSH2 0x1D3 JUMPI PUSH1 0x0 DUP1 REVERT JUMPDEST DUP1 PUSH4 0x90960D57 EQ PUSH2 0x17C JUMPI DUP1 PUSH4 0x972A04ED EQ PUSH2 0x186 JUMPI DUP1 PUSH4 0x9EF0FB85 EQ PUSH2 0x199 JUMPI PUSH1 0x0 DUP1 REVERT JUMPDEST DUP1 PUSH4 0x439185A3 GT PUSH2 0xC8 JUMPI DUP1 PUSH4 0x439185A3 EQ PUSH2 0x136 JUMPI DUP1 PUSH4 0x4B276742 EQ PUSH2 0x147 JUMPI DUP1 PUSH4 0x5ED45C10 EQ PUSH2 0x15A JUMPI DUP1 PUSH4 0x854A1F04 EQ PUSH2 0x16D JUMPI PUSH1 0x0 DUP1 REVERT JUMPDEST DUP1 PUSH4 0x16342D37 EQ PUSH2 0xEF JUMPI DUP1 PUSH4 0x33521BBA EQ PUSH2 0x10A JUMPI DUP1 PUSH4 0x3D9A581A EQ PUSH2 0x12D JUMPI JUMPDEST PUSH1 0x0 DUP1 REVERT JUMPDEST PUSH2 0xF7 PUSH1 0x4 DUP2 JUMP JUMPDEST PUSH1 0x40 MLOAD SWAP1 DUP2 MSTORE PUSH1 0x20 ADD JUMPDEST PUSH1 0x40 MLOAD DUP1 SWAP2 SUB SWAP1 RETURN JUMPDEST PUSH2 0x11D PUSH2 0x118 CALLDATASIZE PUSH1 0x4 PUSH2 0x656 JUMP JUMPDEST PUSH2 0x1DC JUMP JUMPDEST PUSH1 0x40 MLOAD SWAP1 ISZERO ISZERO DUP2 MSTORE PUSH1 0x20 ADD PUSH2 0x101 JUMP JUMPDEST PUSH2 0xF7 PUSH2 0x61A8 DUP2 JUMP JUMPDEST PUSH2 0xF7 PUSH10 0x21E19E0C9BAB2400000 DUP2 JUMP JUMPDEST PUSH2 0xF7 PUSH2 0x155 CALLDATASIZE PUSH1 0x4 PUSH2 0x682 JUMP JUMPDEST PUSH2 0x265 JUMP JUMPDEST PUSH2 0xF7 PUSH2 0x168 CALLDATASIZE PUSH1 0x4 PUSH2 0x682 JUMP JUMPDEST PUSH2 0x301 JUMP JUMPDEST PUSH2 0xF7 PUSH8 0xDE0B6B3A7640000 DUP2 JUMP JUMPDEST PUSH2 0xF7 PUSH3 0xF4240 DUP2 JUMP JUMPDEST PUSH2 0xF7 PUSH2 0x194 CALLDATASIZE PUSH1 0x4 PUSH2 0x682 JUMP JUMPDEST PUSH2 0x501 JUMP JUMPDEST PUSH2 0xF7 PUSH1 0x0 SLOAD DUP2 JUMP JUMPDEST PUSH2 0xF7 PUSH2 0x1B0 CALLDATASIZE PUSH1 0x4 PUSH2 0x69B JUMP JUMPDEST PUSH2 0x5B6 JUMP JUMPDEST PUSH2 0xF7 PUSH2 0x9C40 DUP2 JUMP JUMPDEST PUSH2 0x1D1 PUSH2 0x1CC CALLDATASIZE PUSH1 0x4 PUSH2 0x682 JUMP JUMPDEST PUSH2 0x5F3 JUMP JUMPDEST STOP JUMPDEST PUSH2 0xF7 PUSH2 0x2710 DUP2 JUMP JUMPDEST PUSH1 0x0 DUP1 PUSH2 0x1EC PUSH3 0xF4240 DUP7 PUSH2 0x6D3 JUMP JUMPDEST PUSH1 0x40 MLOAD PUSH4 0x5CA64A03 PUSH1 0xE1 SHL DUP2 MSTORE PUSH1 0x4 DUP2 ADD DUP7 SWAP1 MSTORE PUSH1 0x24 DUP2 ADD DUP6 SWAP1 MSTORE SWAP1 SWAP2 POP PUSH1 0x0 SWAP1 ADDRESS SWAP1 PUSH4 0xB94C9406 SWAP1 PUSH1 0x44 ADD PUSH1 0x20 PUSH1 0x40 MLOAD DUP1 DUP4 SUB DUP2 DUP7 GAS STATICCALL ISZERO DUP1 ISZERO PUSH2 0x235 JUMPI RETURNDATASIZE PUSH1 0x0 DUP1 RETURNDATACOPY RETURNDATASIZE PUSH1 0x0 REVERT JUMPDEST POP POP POP POP PUSH1 0x40 MLOAD RETURNDATASIZE PUSH1 0x1F NOT PUSH1 0x1F DUP3 ADD AND DUP3 ADD DUP1 PUSH1 0x40 MSTORE POP DUP2 ADD SWAP1 PUSH2 0x259 SWAP2 SWAP1 PUSH2 0x6E7 JUMP JUMPDEST SWAP1 SWAP2 LT SWAP6 SWAP5 POP POP POP POP POP JUMP JUMPDEST PUSH1 0x0 DUP2 ISZERO DUP1 PUSH2 0x274 JUMPI POP PUSH1 0x0 SLOAD ISZERO JUMPDEST ISZERO PUSH2 0x282 JUMPI POP PUSH2 0x2710 SWAP2 SWAP1 POP JUMP JUMPDEST PUSH1 0x0 DUP1 SLOAD DUP4 GT PUSH2 0x2AB JUMPI PUSH1 0x0 SLOAD PUSH2 0x29C PUSH3 0xF4240 DUP6 PUSH2 0x716 JUMP JUMPDEST PUSH2 0x2A6 SWAP2 SWAP1 PUSH2 0x72D JUMP JUMPDEST PUSH2 0x2B0 JUMP JUMPDEST PUSH3 0xF4240 JUMPDEST SWAP1 POP PUSH1 0x0 PUSH2 0x2BD DUP3 PUSH2 0x301 JUMP JUMPDEST SWAP1 POP PUSH1 0x0 PUSH3 0xF4240 PUSH2 0x2D3 PUSH2 0x2710 PUSH2 0x61A8 PUSH2 0x741 JUMP JUMPDEST PUSH2 0x2DD SWAP1 DUP5 PUSH2 0x716 JUMP JUMPDEST PUSH2 0x2E7 SWAP2 SWAP1 PUSH2 0x72D JUMP JUMPDEST SWAP1 POP PUSH1 0x0 PUSH2 0x2F7 DUP3 PUSH2 0x2710 PUSH2 0x754 JUMP JUMPDEST SWAP7 SWAP6 POP POP POP POP POP POP JUMP JUMPDEST PUSH1 0x0 DUP2 PUSH1 0x0 SUB PUSH2 0x313 JUMPI POP PUSH1 0x0 SWAP2 SWAP1 POP JUMP JUMPDEST PUSH3 0xF4240 DUP3 SUB PUSH2 0x327 JUMPI POP PUSH3 0xF4240 SWAP2 SWAP1 POP JUMP JUMPDEST PUSH3 0xF4240 DUP3 GT PUSH2 0x3F1 JUMPI PUSH2 0x33F PUSH1 0x64 PUSH3 0xF4240 PUSH2 0x72D JUMP JUMPDEST DUP3 SUB PUSH2 0x34F JUMPI POP PUSH3 0x7151F SWAP2 SWAP1 POP JUMP JUMPDEST PUSH2 0x35D PUSH1 0x14 PUSH3 0xF4240 PUSH2 0x72D JUMP JUMPDEST DUP3 SUB PUSH2 0x36D JUMPI POP PUSH3 0xA9471 SWAP2 SWAP1 POP JUMP JUMPDEST PUSH2 0x37B PUSH1 0xA PUSH3 0xF4240 PUSH2 0x72D JUMP JUMPDEST DUP3 SUB PUSH2 0x38B JUMPI POP PUSH3 0xC1ED8 SWAP2 SWAP1 POP JUMP JUMPDEST PUSH2 0x399 PUSH1 0x4 PUSH3 0xF4240 PUSH2 0x72D JUMP JUMPDEST DUP3 SUB PUSH2 0x3A9 JUMPI POP PUSH3 0xE2A0C SWAP2 SWAP1 POP JUMP JUMPDEST PUSH2 0x3B7 PUSH1 0x2 PUSH3 0xF4240 PUSH2 0x72D JUMP JUMPDEST DUP3 SUB PUSH2 0x3C7 JUMPI POP PUSH3 0xC19A8 SWAP2 SWAP1 POP JUMP JUMPDEST PUSH1 0x4 PUSH2 0x3D7 PUSH3 0xF4240 PUSH1 0x3 PUSH2 0x716 JUMP JUMPDEST PUSH2 0x3E1 SWAP2 SWAP1 PUSH2 0x72D JUMP JUMPDEST DUP3 SUB PUSH2 0x3F1 JUMPI POP PUSH3 0xDDAE0 SWAP2 SWAP1 POP JUMP JUMPDEST PUSH1 0x0 PUSH1 0x3 PUSH2 0x403 PUSH3 0xF4240 PUSH1 0x2 PUSH2 0x716 JUMP JUMPDEST PUSH2 0x40D SWAP1 DUP6 PUSH2 0x754 JUMP JUMPDEST PUSH2 0x417 SWAP2 SWAP1 PUSH2 0x72D JUMP JUMPDEST SWAP1 POP PUSH1 0x0 DUP1 JUMPDEST PUSH1 0xA DUP2 LT DUP1 ISZERO PUSH2 0x42D JUMPI POP DUP2 DUP4 EQ ISZERO JUMPDEST ISZERO PUSH2 0x4F8 JUMPI DUP3 SWAP2 POP PUSH1 0x0 PUSH3 0xF4240 PUSH2 0x445 DUP5 DUP1 PUSH2 0x716 JUMP JUMPDEST PUSH2 0x44F SWAP2 SWAP1 PUSH2 0x72D JUMP JUMPDEST SWAP1 POP PUSH1 0x0 PUSH3 0xF4240 PUSH2 0x461 DUP7 DUP5 PUSH2 0x716 JUMP JUMPDEST PUSH2 0x46B SWAP2 SWAP1 PUSH2 0x72D JUMP JUMPDEST SWAP1 POP PUSH1 0x0 DUP8 DUP3 GT ISZERO PUSH2 0x488 JUMPI PUSH2 0x481 DUP9 DUP4 PUSH2 0x741 JUMP JUMPDEST SWAP1 POP PUSH2 0x48C JUMP JUMPDEST POP PUSH1 0x0 JUMPDEST PUSH1 0x0 PUSH2 0x499 DUP5 PUSH1 0x3 PUSH2 0x716 JUMP JUMPDEST SWAP1 POP DUP1 PUSH1 0x0 SUB PUSH2 0x4AC JUMPI POP POP POP POP PUSH2 0x4F8 JUMP JUMPDEST PUSH1 0x0 PUSH2 0x4B8 DUP3 DUP5 PUSH2 0x72D JUMP JUMPDEST SWAP1 POP DUP8 DUP2 LT PUSH2 0x4D3 JUMPI PUSH2 0x4CC PUSH1 0x2 DUP10 PUSH2 0x72D JUMP JUMPDEST SWAP8 POP PUSH2 0x4E0 JUMP JUMPDEST PUSH2 0x4DD DUP2 DUP10 PUSH2 0x741 JUMP JUMPDEST SWAP8 POP JUMPDEST POP POP POP POP POP DUP1 DUP1 PUSH2 0x4F0 SWAP1 PUSH2 0x767 JUMP JUMPDEST SWAP2 POP POP PUSH2 0x41D JUMP JUMPDEST POP SWAP1 SWAP4 SWAP3 POP POP POP JUMP JUMPDEST PUSH1 0x0 DUP2 PUSH8 0xDE0B6B3A7640000 DUP2 LT ISZERO PUSH2 0x523 JUMPI POP PUSH8 0xDE0B6B3A7640000 PUSH2 0x542 JUMP JUMPDEST PUSH10 0x21E19E0C9BAB2400000 DUP2 GT ISZERO PUSH2 0x542 JUMPI POP PUSH10 0x21E19E0C9BAB2400000 JUMPDEST PUSH1 0x0 PUSH2 0x560 PUSH8 0xDE0B6B3A7640000 PUSH10 0x21E19E0C9BAB2400000 PUSH2 0x741 JUMP JUMPDEST SWAP1 POP PUSH1 0x0 PUSH2 0x571 PUSH1 0x4 PUSH2 0x9C40 PUSH2 0x741 JUMP JUMPDEST SWAP1 POP PUSH1 0x0 PUSH2 0x587 PUSH8 0xDE0B6B3A7640000 DUP6 PUSH2 0x741 JUMP JUMPDEST SWAP1 POP PUSH1 0x0 DUP4 PUSH2 0x596 DUP5 DUP5 PUSH2 0x716 JUMP JUMPDEST PUSH2 0x5A0 SWAP2 SWAP1 PUSH2 0x72D JUMP JUMPDEST PUSH2 0x5AB SWAP1 PUSH1 0x4 PUSH2 0x754 JUMP JUMPDEST SWAP8 SWAP7 POP POP POP POP POP POP POP JUMP JUMPDEST PUSH1 0x0 DUP1 PUSH2 0x5C2 DUP5 PUSH2 0x501 JUMP JUMPDEST SWAP1 POP PUSH1 0x0 PUSH2 0x5CF DUP5 PUSH2 0x265 JUMP JUMPDEST SWAP1 POP PUSH2 0x2710 PUSH2 0x5DE DUP3 DUP5 PUSH2 0x716 JUMP JUMPDEST PUSH2 0x5E8 SWAP2 SWAP1 PUSH2 0x72D JUMP JUMPDEST SWAP3 POP POP POP JUMPDEST SWAP3 SWAP2 POP POP JUMP JUMPDEST PUSH1 0x0 DUP2 GT PUSH2 0x651 JUMPI PUSH1 0x40 MLOAD PUSH3 0x461BCD PUSH1 0xE5 SHL DUP2 MSTORE PUSH1 0x20 PUSH1 0x4 DUP3 ADD MSTORE PUSH1 0x21 PUSH1 0x24 DUP3 ADD MSTORE PUSH32 0x4D617820766F74696E6720706F776572206D75737420626520706F7369746976 PUSH1 0x44 DUP3 ADD MSTORE PUSH1 0x65 PUSH1 0xF8 SHL PUSH1 0x64 DUP3 ADD MSTORE PUSH1 0x84 ADD PUSH1 0x40 MLOAD DUP1 SWAP2 SUB SWAP1 REVERT JUMPDEST PUSH1 0x0 SSTORE JUMP JUMPDEST PUSH1 0x0 DUP1 PUSH1 0x0 PUSH1 0x60 DUP5 DUP7 SUB SLT ISZERO PUSH2 0x66B JUMPI PUSH1 0x0 DUP1 REVERT JUMPDEST POP POP DUP2 CALLDATALOAD SWAP4 PUSH1 0x20 DUP4 ADD CALLDATALOAD SWAP4 POP PUSH1 0x40 SWAP1 SWAP3 ADD CALLDATALOAD SWAP2 SWAP1 POP JUMP JUMPDEST PUSH1 0x0 PUSH1 0x20 DUP3 DUP5 SUB SLT ISZERO PUSH2 0x694 JUMPI PUSH1 0x0 DUP1 REVERT JUMPDEST POP CALLDATALOAD SWAP2 SWAP1 POP JUMP JUMPDEST PUSH1 0x0 DUP1 PUSH1 0x40 DUP4 DUP6 SUB SLT ISZERO PUSH2 0x6AE JUMPI PUSH1 0x0 DUP1 REVERT JUMPDEST POP POP DUP1 CALLDATALOAD SWAP3 PUSH1 0x20 SWAP1 SWAP2 ADD CALLDATALOAD SWAP2 POP JUMP JUMPDEST PUSH4 0x4E487B71 PUSH1 0xE0 SHL PUSH1 0x0 MSTORE PUSH1 0x12 PUSH1 0x4 MSTORE PUSH1 0x24 PUSH1 0x0 REVERT JUMPDEST PUSH1 0x0 DUP3 PUSH2 0x6E2 JUMPI PUSH2 0x6E2 PUSH2 0x6BD JUMP JUMPDEST POP MOD SWAP1 JUMP JUMPDEST PUSH1 0x0 PUSH1 0x20 DUP3 DUP5 SUB SLT ISZERO PUSH2 0x6F9 JUMPI PUSH1 0x0 DUP1 REVERT JUMPDEST POP MLOAD SWAP2 SWAP1 POP JUMP JUMPDEST PUSH4 0x4E487B71 PUSH1 0xE0 SHL PUSH1 0x0 MSTORE PUSH1 0x11 PUSH1 0x4 MSTORE PUSH1 0x24 PUSH1 0x0 REVERT JUMPDEST DUP1 DUP3 MUL DUP2 ISZERO DUP3 DUP3 DIV DUP5 EQ OR PUSH2 0x5ED JUMPI PUSH2 0x5ED PUSH2 0x700 JUMP JUMPDEST PUSH1 0x0 DUP3 PUSH2 0x73C JUMPI PUSH2 0x73C PUSH2 0x6BD JUMP JUMPDEST POP DIV SWAP1 JUMP JUMPDEST DUP2 DUP2 SUB DUP2 DUP2 GT ISZERO PUSH2 0x5ED JUMPI PUSH2 0x5ED PUSH2 0x700 JUMP JUMPDEST DUP1 DUP3 ADD DUP1 DUP3 GT ISZERO PUSH2 0x5ED JUMPI PUSH2 0x5ED PUSH2 0x700 JUMP JUMPDEST PUSH1 0x0 PUSH1 0x1 DUP3 ADD PUSH2 0x779 JUMPI PUSH2 0x779 PUSH2 0x700 JUMP JUMPDEST POP PUSH1 0x1 ADD SWAP1 JUMP INVALID LOG2 PUSH5 0x6970667358 0x22 SLT KECCAK256 SSTORE ADDMOD MSTORE8 DIV MSTORE SWAP14 SAR 0x1F PUSH7 0xC7B2F19818EA94 PUSH9 0xBC903A9585D055F33C 0xCB 0x4A SWAP14 PUSH20 0xA54F64736F6C6343000814003300000000000000 "},"methodIdentifiers":{"BPS_SCALE()":"f8b9f4f0","MAX_BOOST_BPS()":"3d9a581a","MAX_PROBABILITY()":"cc40a8ca","MAX_USD_AMOUNT()":"439185a3","MIN_PROBABILITY()":"16342d37","MIN_USD_AMOUNT()":"854a1f04","PROBABILITY_SCALE()":"90960d57","calculateBaseProbability(uint256)":"972a04ed","calculateBoost(uint256)":"4b276742","calculateWinProbability(uint256,uint256)":"b94c9406","computeCubeRoot(uint256)":"5ed45c10","isWinner(uint256,uint256,uint256)":"33521bba","maxVotingPower()":"9ef0fb85","setMaxVotingPower(uint256)":"f6af258c"}}}}}