{"contracts/mocks/MockSonicVRFConsumer.sol":{"MockSonicVRFConsumer":{"abi":[{"anonymous":false,"inputs":[{"indexed":true,"internalType":"uint64","name":"requestId","type":"uint64"},{"indexed":true,"internalType":"address","name":"user","type":"address"},{"indexed":false,"internalType":"uint256","name":"randomness","type":"uint256"}],"name":"RandomnessProcessingFailed","type":"event"},{"anonymous":false,"inputs":[{"indexed":true,"internalType":"uint64","name":"requestId","type":"uint64"},{"indexed":true,"internalType":"address","name":"user","type":"address"},{"indexed":false,"internalType":"uint256","name":"randomness","type":"uint256"}],"name":"RandomnessReceived","type":"event"},{"anonymous":false,"inputs":[{"indexed":true,"internalType":"uint64","name":"requestId","type":"uint64"},{"indexed":true,"internalType":"address","name":"user","type":"address"}],"name":"RandomnessRequested","type":"event"},{"inputs":[],"name":"arbitrumChainId","outputs":[{"internalType":"uint32","name":"","type":"uint32"}],"stateMutability":"view","type":"function"},{"inputs":[],"name":"arbitrumVRFRequester","outputs":[{"internalType":"address","name":"","type":"address"}],"stateMutability":"view","type":"function"},{"inputs":[],"name":"getLatestRequestId","outputs":[{"internalType":"uint64","name":"","type":"uint64"}],"stateMutability":"view","type":"function"},{"inputs":[],"name":"getRequestCount","outputs":[{"internalType":"uint256","name":"","type":"uint256"}],"stateMutability":"view","type":"function"},{"inputs":[{"internalType":"address","name":"_user","type":"address"}],"name":"getUserRequestCount","outputs":[{"internalType":"uint256","name":"","type":"uint256"}],"stateMutability":"view","type":"function"},{"inputs":[{"internalType":"address","name":"_lzEndpoint","type":"address"},{"internalType":"uint32","name":"_arbitrumChainId","type":"uint32"},{"internalType":"address","name":"_arbitrumVRFRequester","type":"address"}],"name":"initialize","outputs":[],"stateMutability":"nonpayable","type":"function"},{"inputs":[],"name":"lotteryContract","outputs":[{"internalType":"address","name":"","type":"address"}],"stateMutability":"view","type":"function"},{"inputs":[],"name":"lzEndpoint","outputs":[{"internalType":"address","name":"","type":"address"}],"stateMutability":"view","type":"function"},{"inputs":[{"internalType":"uint16","name":"_srcChainId","type":"uint16"},{"internalType":"bytes","name":"_srcAddress","type":"bytes"},{"internalType":"uint64","name":"","type":"uint64"},{"internalType":"bytes","name":"_payload","type":"bytes"}],"name":"lzReceive","outputs":[],"stateMutability":"nonpayable","type":"function"},{"inputs":[],"name":"nonce","outputs":[{"internalType":"uint64","name":"","type":"uint64"}],"stateMutability":"view","type":"function"},{"inputs":[],"name":"requestCount","outputs":[{"internalType":"uint256","name":"","type":"uint256"}],"stateMutability":"view","type":"function"},{"inputs":[{"internalType":"address","name":"_user","type":"address"}],"name":"requestRandomness","outputs":[{"internalType":"uint64","name":"","type":"uint64"}],"stateMutability":"nonpayable","type":"function"},{"inputs":[{"internalType":"uint64","name":"","type":"uint64"}],"name":"requestToUser","outputs":[{"internalType":"address","name":"","type":"address"}],"stateMutability":"view","type":"function"},{"inputs":[{"internalType":"address","name":"_lotteryContract","type":"address"}],"name":"setLotteryContract","outputs":[],"stateMutability":"nonpayable","type":"function"},{"inputs":[{"internalType":"uint64","name":"_requestId","type":"uint64"},{"internalType":"address","name":"_user","type":"address"},{"internalType":"uint256","name":"_randomness","type":"uint256"}],"name":"simulateReceiveRandomness","outputs":[],"stateMutability":"nonpayable","type":"function"}],"evm":{"bytecode":{"linkReferences":{},"object":"608060405234801561001057600080fd5b50610b2b806100206000396000f3fe608060405234801561001057600080fd5b50600436106100f45760003560e01c80639f392c2b11610097578063b353aaa711610066578063b353aaa71461023e578063c1554a4b14610251578063c166c458146102aa578063ead073c7146102bd57600080fd5b80639f392c2b146101c8578063affed0e0146101f1578063b190d8a314610223578063b29c662a1461022b57600080fd5b8063263de2b5116100d3578063263de2b51461016f5780633fad18341461019a5780635badbe4c146101ac5780638c1bde26146101b557600080fd5b80621d3567146100f95780631590a04f1461010e5780631c61621e1461013e575b600080fd5b61010c6101073660046108ac565b6102d0565b005b61010c61011c366004610960565b600480546001600160a01b0319166001600160a01b0392909216919091179055565b60005461015590600160a01b900463ffffffff1681565b60405163ffffffff90911681526020015b60405180910390f35b600154610182906001600160a01b031681565b6040516001600160a01b039091168152602001610166565b6003545b604051908152602001610166565b61019e60035481565b61010c6101c3366004610984565b61042a565b6101826101d63660046109c3565b6002602052600090815260409020546001600160a01b031681565b60015461020b90600160a01b90046001600160401b031681565b6040516001600160401b039091168152602001610166565b61020b61043a565b600454610182906001600160a01b031681565b600054610182906001600160a01b031681565b61010c61025f3660046109de565b6000805463ffffffff909316600160a01b026001600160c01b03199093166001600160a01b03948516179290921790915560018054919092166001600160a01b031991909116179055565b61019e6102b8366004610960565b61047d565b61020b6102cb366004610960565b6104f2565b6000546001600160a01b0316331461032f5760405162461bcd60e51b815260206004820152601c60248201527f4f6e6c792066726f6d204c617965725a65726f20656e64706f696e740000000060448201526064015b60405180910390fd5b600054600160a01b900463ffffffff1661ffff8716146103915760405162461bcd60e51b815260206004820152601760248201527f4e6f742066726f6d20417262697472756d20636861696e0000000000000000006044820152606401610326565b600061039d8587610a32565b6001549091506001600160a01b038083169116146103fd5760405162461bcd60e51b815260206004820152601a60248201527f4e6f742066726f6d20617574686f72697a656420736f757263650000000000006044820152606401610326565b6000808061040d85870187610984565b92509250925061041e83838361060f565b50505050505050505050565b61043583838361060f565b505050565b600154600090600160a01b90046001600160401b031661045a5750600090565b600180546104789190600160a01b90046001600160401b0316610a67565b905090565b600080805b6001546001600160401b03600160a01b909104811690821610156104eb576001600160401b0381166000908152600260205260409020546001600160a01b038086169116036104d957816104d581610a87565b9250505b806104e381610aa0565b915050610482565b5092915050565b6004546000906001600160a01b031633146105475760405162461bcd60e51b815260206004820152601560248201527413db9b1e481b1bdd1d195c9e4818dbdb9d1c9858dd605a1b6044820152606401610326565b60018054600091600160a01b9091046001600160401b031690601461056b83610aa0565b82546101009290920a6001600160401b038181021990931691831602179091558116600090815260026020526040812080546001600160a01b0319166001600160a01b03871617905560038054929350906105c583610a87565b90915550506040516001600160a01b038416906001600160401b038316907ff09a63f9e06f8e96ec8e1be5bdfdb17d52cf919bcfe025e59cf8e5c0bd65d35a90600090a392915050565b6001600160401b0383166000908152600260205260409020546001600160a01b0316806106735760405162461bcd60e51b8152602060048201526012602482015271155b9adb9bdddb881c995c5d595cdd08125160721b6044820152606401610326565b826001600160a01b0316816001600160a01b0316146106c45760405162461bcd60e51b815260206004820152600d60248201526c0aae6cae440dad2e6dac2e8c6d609b1b6044820152606401610326565b826001600160a01b0316846001600160401b03167f4aa9e0f248f6c96da29c00ab96c2d21ab4f40afb34d049557a56089bfb7c4bad8460405161070991815260200190565b60405180910390a36004546001600160a01b03161561081e576004546040516001600160401b0386166024820152604481018490526000916001600160a01b03169060640160408051601f198184030181529181526020820180516001600160e01b031663034ad12960e11b179052516107839190610ac6565b6000604051808303816000865af19150503d80600081146107c0576040519150601f19603f3d011682016040523d82523d6000602084013e6107c5565b606091505b505090508061081c57836001600160a01b0316856001600160401b03167fdbed2dec459d7d081bb7f458a7a9a865640acc283b6a0fc313e4856ea660a4258560405161081391815260200190565b60405180910390a35b505b5050506001600160401b0316600090815260026020526040902080546001600160a01b0319169055565b60008083601f84011261085a57600080fd5b5081356001600160401b0381111561087157600080fd5b60208301915083602082850101111561088957600080fd5b9250929050565b80356001600160401b03811681146108a757600080fd5b919050565b600080600080600080608087890312156108c557600080fd5b863561ffff811681146108d757600080fd5b955060208701356001600160401b03808211156108f357600080fd5b6108ff8a838b01610848565b909750955085915061091360408a01610890565b9450606089013591508082111561092957600080fd5b5061093689828a01610848565b979a9699509497509295939492505050565b6001600160a01b038116811461095d57600080fd5b50565b60006020828403121561097257600080fd5b813561097d81610948565b9392505050565b60008060006060848603121561099957600080fd5b6109a284610890565b925060208401356109b281610948565b929592945050506040919091013590565b6000602082840312156109d557600080fd5b61097d82610890565b6000806000606084860312156109f357600080fd5b83356109fe81610948565b9250602084013563ffffffff81168114610a1757600080fd5b91506040840135610a2781610948565b809150509250925092565b80356020831015610a4b57600019602084900360031b1b165b92915050565b634e487b7160e01b600052601160045260246000fd5b6001600160401b038281168282160390808211156104eb576104eb610a51565b600060018201610a9957610a99610a51565b5060010190565b60006001600160401b03808316818103610abc57610abc610a51565b6001019392505050565b6000825160005b81811015610ae75760208186018101518583015201610acd565b50600092019182525091905056fea264697066735822122031086a18cb0688148b120475f77bf7927797b02d89d8a8a17f7fa3a667b2876a64736f6c63430008140033","opcodes":"PUSH1 0x80 PUSH1 0x40 MSTORE CALLVALUE DUP1 ISZERO PUSH2 0x10 JUMPI PUSH1 0x0 DUP1 REVERT JUMPDEST POP PUSH2 0xB2B DUP1 PUSH2 0x20 PUSH1 0x0 CODECOPY PUSH1 0x0 RETURN INVALID PUSH1 0x80 PUSH1 0x40 MSTORE CALLVALUE DUP1 ISZERO PUSH2 0x10 JUMPI PUSH1 0x0 DUP1 REVERT JUMPDEST POP PUSH1 0x4 CALLDATASIZE LT PUSH2 0xF4 JUMPI PUSH1 0x0 CALLDATALOAD PUSH1 0xE0 SHR DUP1 PUSH4 0x9F392C2B GT PUSH2 0x97 JUMPI DUP1 PUSH4 0xB353AAA7 GT PUSH2 0x66 JUMPI DUP1 PUSH4 0xB353AAA7 EQ PUSH2 0x23E JUMPI DUP1 PUSH4 0xC1554A4B EQ PUSH2 0x251 JUMPI DUP1 PUSH4 0xC166C458 EQ PUSH2 0x2AA JUMPI DUP1 PUSH4 0xEAD073C7 EQ PUSH2 0x2BD JUMPI PUSH1 0x0 DUP1 REVERT JUMPDEST DUP1 PUSH4 0x9F392C2B EQ PUSH2 0x1C8 JUMPI DUP1 PUSH4 0xAFFED0E0 EQ PUSH2 0x1F1 JUMPI DUP1 PUSH4 0xB190D8A3 EQ PUSH2 0x223 JUMPI DUP1 PUSH4 0xB29C662A EQ PUSH2 0x22B JUMPI PUSH1 0x0 DUP1 REVERT JUMPDEST DUP1 PUSH4 0x263DE2B5 GT PUSH2 0xD3 JUMPI DUP1 PUSH4 0x263DE2B5 EQ PUSH2 0x16F JUMPI DUP1 PUSH4 0x3FAD1834 EQ PUSH2 0x19A JUMPI DUP1 PUSH4 0x5BADBE4C EQ PUSH2 0x1AC JUMPI DUP1 PUSH4 0x8C1BDE26 EQ PUSH2 0x1B5 JUMPI PUSH1 0x0 DUP1 REVERT JUMPDEST DUP1 PUSH3 0x1D3567 EQ PUSH2 0xF9 JUMPI DUP1 PUSH4 0x1590A04F EQ PUSH2 0x10E JUMPI DUP1 PUSH4 0x1C61621E EQ PUSH2 0x13E JUMPI JUMPDEST PUSH1 0x0 DUP1 REVERT JUMPDEST PUSH2 0x10C PUSH2 0x107 CALLDATASIZE PUSH1 0x4 PUSH2 0x8AC JUMP JUMPDEST PUSH2 0x2D0 JUMP JUMPDEST STOP JUMPDEST PUSH2 0x10C PUSH2 0x11C CALLDATASIZE PUSH1 0x4 PUSH2 0x960 JUMP JUMPDEST PUSH1 0x4 DUP1 SLOAD PUSH1 0x1 PUSH1 0x1 PUSH1 0xA0 SHL SUB NOT AND PUSH1 0x1 PUSH1 0x1 PUSH1 0xA0 SHL SUB SWAP3 SWAP1 SWAP3 AND SWAP2 SWAP1 SWAP2 OR SWAP1 SSTORE JUMP JUMPDEST PUSH1 0x0 SLOAD PUSH2 0x155 SWAP1 PUSH1 0x1 PUSH1 0xA0 SHL SWAP1 DIV PUSH4 0xFFFFFFFF AND DUP2 JUMP JUMPDEST PUSH1 0x40 MLOAD PUSH4 0xFFFFFFFF SWAP1 SWAP2 AND DUP2 MSTORE PUSH1 0x20 ADD JUMPDEST PUSH1 0x40 MLOAD DUP1 SWAP2 SUB SWAP1 RETURN JUMPDEST PUSH1 0x1 SLOAD PUSH2 0x182 SWAP1 PUSH1 0x1 PUSH1 0x1 PUSH1 0xA0 SHL SUB AND DUP2 JUMP JUMPDEST PUSH1 0x40 MLOAD PUSH1 0x1 PUSH1 0x1 PUSH1 0xA0 SHL SUB SWAP1 SWAP2 AND DUP2 MSTORE PUSH1 0x20 ADD PUSH2 0x166 JUMP JUMPDEST PUSH1 0x3 SLOAD JUMPDEST PUSH1 0x40 MLOAD SWAP1 DUP2 MSTORE PUSH1 0x20 ADD PUSH2 0x166 JUMP JUMPDEST PUSH2 0x19E PUSH1 0x3 SLOAD DUP2 JUMP JUMPDEST PUSH2 0x10C PUSH2 0x1C3 CALLDATASIZE PUSH1 0x4 PUSH2 0x984 JUMP JUMPDEST PUSH2 0x42A JUMP JUMPDEST PUSH2 0x182 PUSH2 0x1D6 CALLDATASIZE PUSH1 0x4 PUSH2 0x9C3 JUMP JUMPDEST PUSH1 0x2 PUSH1 0x20 MSTORE PUSH1 0x0 SWAP1 DUP2 MSTORE PUSH1 0x40 SWAP1 KECCAK256 SLOAD PUSH1 0x1 PUSH1 0x1 PUSH1 0xA0 SHL SUB AND DUP2 JUMP JUMPDEST PUSH1 0x1 SLOAD PUSH2 0x20B SWAP1 PUSH1 0x1 PUSH1 0xA0 SHL SWAP1 DIV PUSH1 0x1 PUSH1 0x1 PUSH1 0x40 SHL SUB AND DUP2 JUMP JUMPDEST PUSH1 0x40 MLOAD PUSH1 0x1 PUSH1 0x1 PUSH1 0x40 SHL SUB SWAP1 SWAP2 AND DUP2 MSTORE PUSH1 0x20 ADD PUSH2 0x166 JUMP JUMPDEST PUSH2 0x20B PUSH2 0x43A JUMP JUMPDEST PUSH1 0x4 SLOAD PUSH2 0x182 SWAP1 PUSH1 0x1 PUSH1 0x1 PUSH1 0xA0 SHL SUB AND DUP2 JUMP JUMPDEST PUSH1 0x0 SLOAD PUSH2 0x182 SWAP1 PUSH1 0x1 PUSH1 0x1 PUSH1 0xA0 SHL SUB AND DUP2 JUMP JUMPDEST PUSH2 0x10C PUSH2 0x25F CALLDATASIZE PUSH1 0x4 PUSH2 0x9DE JUMP JUMPDEST PUSH1 0x0 DUP1 SLOAD PUSH4 0xFFFFFFFF SWAP1 SWAP4 AND PUSH1 0x1 PUSH1 0xA0 SHL MUL PUSH1 0x1 PUSH1 0x1 PUSH1 0xC0 SHL SUB NOT SWAP1 SWAP4 AND PUSH1 0x1 PUSH1 0x1 PUSH1 0xA0 SHL SUB SWAP5 DUP6 AND OR SWAP3 SWAP1 SWAP3 OR SWAP1 SWAP2 SSTORE PUSH1 0x1 DUP1 SLOAD SWAP2 SWAP1 SWAP3 AND PUSH1 0x1 PUSH1 0x1 PUSH1 0xA0 SHL SUB NOT SWAP2 SWAP1 SWAP2 AND OR SWAP1 SSTORE JUMP JUMPDEST PUSH2 0x19E PUSH2 0x2B8 CALLDATASIZE PUSH1 0x4 PUSH2 0x960 JUMP JUMPDEST PUSH2 0x47D JUMP JUMPDEST PUSH2 0x20B PUSH2 0x2CB CALLDATASIZE PUSH1 0x4 PUSH2 0x960 JUMP JUMPDEST PUSH2 0x4F2 JUMP JUMPDEST PUSH1 0x0 SLOAD PUSH1 0x1 PUSH1 0x1 PUSH1 0xA0 SHL SUB AND CALLER EQ PUSH2 0x32F JUMPI PUSH1 0x40 MLOAD PUSH3 0x461BCD PUSH1 0xE5 SHL DUP2 MSTORE PUSH1 0x20 PUSH1 0x4 DUP3 ADD MSTORE PUSH1 0x1C PUSH1 0x24 DUP3 ADD MSTORE PUSH32 0x4F6E6C792066726F6D204C617965725A65726F20656E64706F696E7400000000 PUSH1 0x44 DUP3 ADD MSTORE PUSH1 0x64 ADD JUMPDEST PUSH1 0x40 MLOAD DUP1 SWAP2 SUB SWAP1 REVERT JUMPDEST PUSH1 0x0 SLOAD PUSH1 0x1 PUSH1 0xA0 SHL SWAP1 DIV PUSH4 0xFFFFFFFF AND PUSH2 0xFFFF DUP8 AND EQ PUSH2 0x391 JUMPI PUSH1 0x40 MLOAD PUSH3 0x461BCD PUSH1 0xE5 SHL DUP2 MSTORE PUSH1 0x20 PUSH1 0x4 DUP3 ADD MSTORE PUSH1 0x17 PUSH1 0x24 DUP3 ADD MSTORE PUSH32 0x4E6F742066726F6D20417262697472756D20636861696E000000000000000000 PUSH1 0x44 DUP3 ADD MSTORE PUSH1 0x64 ADD PUSH2 0x326 JUMP JUMPDEST PUSH1 0x0 PUSH2 0x39D DUP6 DUP8 PUSH2 0xA32 JUMP JUMPDEST PUSH1 0x1 SLOAD SWAP1 SWAP2 POP PUSH1 0x1 PUSH1 0x1 PUSH1 0xA0 SHL SUB DUP1 DUP4 AND SWAP2 AND EQ PUSH2 0x3FD JUMPI PUSH1 0x40 MLOAD PUSH3 0x461BCD PUSH1 0xE5 SHL DUP2 MSTORE PUSH1 0x20 PUSH1 0x4 DUP3 ADD MSTORE PUSH1 0x1A PUSH1 0x24 DUP3 ADD MSTORE PUSH32 0x4E6F742066726F6D20617574686F72697A656420736F75726365000000000000 PUSH1 0x44 DUP3 ADD MSTORE PUSH1 0x64 ADD PUSH2 0x326 JUMP JUMPDEST PUSH1 0x0 DUP1 DUP1 PUSH2 0x40D DUP6 DUP8 ADD DUP8 PUSH2 0x984 JUMP JUMPDEST SWAP3 POP SWAP3 POP SWAP3 POP PUSH2 0x41E DUP4 DUP4 DUP4 PUSH2 0x60F JUMP JUMPDEST POP POP POP POP POP POP POP POP POP POP JUMP JUMPDEST PUSH2 0x435 DUP4 DUP4 DUP4 PUSH2 0x60F JUMP JUMPDEST POP POP POP JUMP JUMPDEST PUSH1 0x1 SLOAD PUSH1 0x0 SWAP1 PUSH1 0x1 PUSH1 0xA0 SHL SWAP1 DIV PUSH1 0x1 PUSH1 0x1 PUSH1 0x40 SHL SUB AND PUSH2 0x45A JUMPI POP PUSH1 0x0 SWAP1 JUMP JUMPDEST PUSH1 0x1 DUP1 SLOAD PUSH2 0x478 SWAP2 SWAP1 PUSH1 0x1 PUSH1 0xA0 SHL SWAP1 DIV PUSH1 0x1 PUSH1 0x1 PUSH1 0x40 SHL SUB AND PUSH2 0xA67 JUMP JUMPDEST SWAP1 POP SWAP1 JUMP JUMPDEST PUSH1 0x0 DUP1 DUP1 JUMPDEST PUSH1 0x1 SLOAD PUSH1 0x1 PUSH1 0x1 PUSH1 0x40 SHL SUB PUSH1 0x1 PUSH1 0xA0 SHL SWAP1 SWAP2 DIV DUP2 AND SWAP1 DUP3 AND LT ISZERO PUSH2 0x4EB JUMPI PUSH1 0x1 PUSH1 0x1 PUSH1 0x40 SHL SUB DUP2 AND PUSH1 0x0 SWAP1 DUP2 MSTORE PUSH1 0x2 PUSH1 0x20 MSTORE PUSH1 0x40 SWAP1 KECCAK256 SLOAD PUSH1 0x1 PUSH1 0x1 PUSH1 0xA0 SHL SUB DUP1 DUP7 AND SWAP2 AND SUB PUSH2 0x4D9 JUMPI DUP2 PUSH2 0x4D5 DUP2 PUSH2 0xA87 JUMP JUMPDEST SWAP3 POP POP JUMPDEST DUP1 PUSH2 0x4E3 DUP2 PUSH2 0xAA0 JUMP JUMPDEST SWAP2 POP POP PUSH2 0x482 JUMP JUMPDEST POP SWAP3 SWAP2 POP POP JUMP JUMPDEST PUSH1 0x4 SLOAD PUSH1 0x0 SWAP1 PUSH1 0x1 PUSH1 0x1 PUSH1 0xA0 SHL SUB AND CALLER EQ PUSH2 0x547 JUMPI PUSH1 0x40 MLOAD PUSH3 0x461BCD PUSH1 0xE5 SHL DUP2 MSTORE PUSH1 0x20 PUSH1 0x4 DUP3 ADD MSTORE PUSH1 0x15 PUSH1 0x24 DUP3 ADD MSTORE PUSH21 0x13DB9B1E481B1BDD1D195C9E4818DBDB9D1C9858DD PUSH1 0x5A SHL PUSH1 0x44 DUP3 ADD MSTORE PUSH1 0x64 ADD PUSH2 0x326 JUMP JUMPDEST PUSH1 0x1 DUP1 SLOAD PUSH1 0x0 SWAP2 PUSH1 0x1 PUSH1 0xA0 SHL SWAP1 SWAP2 DIV PUSH1 0x1 PUSH1 0x1 PUSH1 0x40 SHL SUB AND SWAP1 PUSH1 0x14 PUSH2 0x56B DUP4 PUSH2 0xAA0 JUMP JUMPDEST DUP3 SLOAD PUSH2 0x100 SWAP3 SWAP1 SWAP3 EXP PUSH1 0x1 PUSH1 0x1 PUSH1 0x40 SHL SUB DUP2 DUP2 MUL NOT SWAP1 SWAP4 AND SWAP2 DUP4 AND MUL OR SWAP1 SWAP2 SSTORE DUP2 AND PUSH1 0x0 SWAP1 DUP2 MSTORE PUSH1 0x2 PUSH1 0x20 MSTORE PUSH1 0x40 DUP2 KECCAK256 DUP1 SLOAD PUSH1 0x1 PUSH1 0x1 PUSH1 0xA0 SHL SUB NOT AND PUSH1 0x1 PUSH1 0x1 PUSH1 0xA0 SHL SUB DUP8 AND OR SWAP1 SSTORE PUSH1 0x3 DUP1 SLOAD SWAP3 SWAP4 POP SWAP1 PUSH2 0x5C5 DUP4 PUSH2 0xA87 JUMP JUMPDEST SWAP1 SWAP2 SSTORE POP POP PUSH1 0x40 MLOAD PUSH1 0x1 PUSH1 0x1 PUSH1 0xA0 SHL SUB DUP5 AND SWAP1 PUSH1 0x1 PUSH1 0x1 PUSH1 0x40 SHL SUB DUP4 AND SWAP1 PUSH32 0xF09A63F9E06F8E96EC8E1BE5BDFDB17D52CF919BCFE025E59CF8E5C0BD65D35A SWAP1 PUSH1 0x0 SWAP1 LOG3 SWAP3 SWAP2 POP POP JUMP JUMPDEST PUSH1 0x1 PUSH1 0x1 PUSH1 0x40 SHL SUB DUP4 AND PUSH1 0x0 SWAP1 DUP2 MSTORE PUSH1 0x2 PUSH1 0x20 MSTORE PUSH1 0x40 SWAP1 KECCAK256 SLOAD PUSH1 0x1 PUSH1 0x1 PUSH1 0xA0 SHL SUB AND DUP1 PUSH2 0x673 JUMPI PUSH1 0x40 MLOAD PUSH3 0x461BCD PUSH1 0xE5 SHL DUP2 MSTORE PUSH1 0x20 PUSH1 0x4 DUP3 ADD MSTORE PUSH1 0x12 PUSH1 0x24 DUP3 ADD MSTORE PUSH18 0x155B9ADB9BDDDB881C995C5D595CDD081251 PUSH1 0x72 SHL PUSH1 0x44 DUP3 ADD MSTORE PUSH1 0x64 ADD PUSH2 0x326 JUMP JUMPDEST DUP3 PUSH1 0x1 PUSH1 0x1 PUSH1 0xA0 SHL SUB AND DUP2 PUSH1 0x1 PUSH1 0x1 PUSH1 0xA0 SHL SUB AND EQ PUSH2 0x6C4 JUMPI PUSH1 0x40 MLOAD PUSH3 0x461BCD PUSH1 0xE5 SHL DUP2 MSTORE PUSH1 0x20 PUSH1 0x4 DUP3 ADD MSTORE PUSH1 0xD PUSH1 0x24 DUP3 ADD MSTORE PUSH13 0xAAE6CAE440DAD2E6DAC2E8C6D PUSH1 0x9B SHL PUSH1 0x44 DUP3 ADD MSTORE PUSH1 0x64 ADD PUSH2 0x326 JUMP JUMPDEST DUP3 PUSH1 0x1 PUSH1 0x1 PUSH1 0xA0 SHL SUB AND DUP5 PUSH1 0x1 PUSH1 0x1 PUSH1 0x40 SHL SUB AND PUSH32 0x4AA9E0F248F6C96DA29C00AB96C2D21AB4F40AFB34D049557A56089BFB7C4BAD DUP5 PUSH1 0x40 MLOAD PUSH2 0x709 SWAP2 DUP2 MSTORE PUSH1 0x20 ADD SWAP1 JUMP JUMPDEST PUSH1 0x40 MLOAD DUP1 SWAP2 SUB SWAP1 LOG3 PUSH1 0x4 SLOAD PUSH1 0x1 PUSH1 0x1 PUSH1 0xA0 SHL SUB AND ISZERO PUSH2 0x81E JUMPI PUSH1 0x4 SLOAD PUSH1 0x40 MLOAD PUSH1 0x1 PUSH1 0x1 PUSH1 0x40 SHL SUB DUP7 AND PUSH1 0x24 DUP3 ADD MSTORE PUSH1 0x44 DUP2 ADD DUP5 SWAP1 MSTORE PUSH1 0x0 SWAP2 PUSH1 0x1 PUSH1 0x1 PUSH1 0xA0 SHL SUB AND SWAP1 PUSH1 0x64 ADD PUSH1 0x40 DUP1 MLOAD PUSH1 0x1F NOT DUP2 DUP5 SUB ADD DUP2 MSTORE SWAP2 DUP2 MSTORE PUSH1 0x20 DUP3 ADD DUP1 MLOAD PUSH1 0x1 PUSH1 0x1 PUSH1 0xE0 SHL SUB AND PUSH4 0x34AD129 PUSH1 0xE1 SHL OR SWAP1 MSTORE MLOAD PUSH2 0x783 SWAP2 SWAP1 PUSH2 0xAC6 JUMP JUMPDEST PUSH1 0x0 PUSH1 0x40 MLOAD DUP1 DUP4 SUB DUP2 PUSH1 0x0 DUP7 GAS CALL SWAP2 POP POP RETURNDATASIZE DUP1 PUSH1 0x0 DUP2 EQ PUSH2 0x7C0 JUMPI PUSH1 0x40 MLOAD SWAP2 POP PUSH1 0x1F NOT PUSH1 0x3F RETURNDATASIZE ADD AND DUP3 ADD PUSH1 0x40 MSTORE RETURNDATASIZE DUP3 MSTORE RETURNDATASIZE PUSH1 0x0 PUSH1 0x20 DUP5 ADD RETURNDATACOPY PUSH2 0x7C5 JUMP JUMPDEST PUSH1 0x60 SWAP2 POP JUMPDEST POP POP SWAP1 POP DUP1 PUSH2 0x81C JUMPI DUP4 PUSH1 0x1 PUSH1 0x1 PUSH1 0xA0 SHL SUB AND DUP6 PUSH1 0x1 PUSH1 0x1 PUSH1 0x40 SHL SUB AND PUSH32 0xDBED2DEC459D7D081BB7F458A7A9A865640ACC283B6A0FC313E4856EA660A425 DUP6 PUSH1 0x40 MLOAD PUSH2 0x813 SWAP2 DUP2 MSTORE PUSH1 0x20 ADD SWAP1 JUMP JUMPDEST PUSH1 0x40 MLOAD DUP1 SWAP2 SUB SWAP1 LOG3 JUMPDEST POP JUMPDEST POP POP POP PUSH1 0x1 PUSH1 0x1 PUSH1 0x40 SHL SUB AND PUSH1 0x0 SWAP1 DUP2 MSTORE PUSH1 0x2 PUSH1 0x20 MSTORE PUSH1 0x40 SWAP1 KECCAK256 DUP1 SLOAD PUSH1 0x1 PUSH1 0x1 PUSH1 0xA0 SHL SUB NOT AND SWAP1 SSTORE JUMP JUMPDEST PUSH1 0x0 DUP1 DUP4 PUSH1 0x1F DUP5 ADD SLT PUSH2 0x85A JUMPI PUSH1 0x0 DUP1 REVERT JUMPDEST POP DUP2 CALLDATALOAD PUSH1 0x1 PUSH1 0x1 PUSH1 0x40 SHL SUB DUP2 GT ISZERO PUSH2 0x871 JUMPI PUSH1 0x0 DUP1 REVERT JUMPDEST PUSH1 0x20 DUP4 ADD SWAP2 POP DUP4 PUSH1 0x20 DUP3 DUP6 ADD ADD GT ISZERO PUSH2 0x889 JUMPI PUSH1 0x0 DUP1 REVERT JUMPDEST SWAP3 POP SWAP3 SWAP1 POP JUMP JUMPDEST DUP1 CALLDATALOAD PUSH1 0x1 PUSH1 0x1 PUSH1 0x40 SHL SUB DUP2 AND DUP2 EQ PUSH2 0x8A7 JUMPI PUSH1 0x0 DUP1 REVERT JUMPDEST SWAP2 SWAP1 POP JUMP JUMPDEST PUSH1 0x0 DUP1 PUSH1 0x0 DUP1 PUSH1 0x0 DUP1 PUSH1 0x80 DUP8 DUP10 SUB SLT ISZERO PUSH2 0x8C5 JUMPI PUSH1 0x0 DUP1 REVERT JUMPDEST DUP7 CALLDATALOAD PUSH2 0xFFFF DUP2 AND DUP2 EQ PUSH2 0x8D7 JUMPI PUSH1 0x0 DUP1 REVERT JUMPDEST SWAP6 POP PUSH1 0x20 DUP8 ADD CALLDATALOAD PUSH1 0x1 PUSH1 0x1 PUSH1 0x40 SHL SUB DUP1 DUP3 GT ISZERO PUSH2 0x8F3 JUMPI PUSH1 0x0 DUP1 REVERT JUMPDEST PUSH2 0x8FF DUP11 DUP4 DUP12 ADD PUSH2 0x848 JUMP JUMPDEST SWAP1 SWAP8 POP SWAP6 POP DUP6 SWAP2 POP PUSH2 0x913 PUSH1 0x40 DUP11 ADD PUSH2 0x890 JUMP JUMPDEST SWAP5 POP PUSH1 0x60 DUP10 ADD CALLDATALOAD SWAP2 POP DUP1 DUP3 GT ISZERO PUSH2 0x929 JUMPI PUSH1 0x0 DUP1 REVERT JUMPDEST POP PUSH2 0x936 DUP10 DUP3 DUP11 ADD PUSH2 0x848 JUMP JUMPDEST SWAP8 SWAP11 SWAP7 SWAP10 POP SWAP5 SWAP8 POP SWAP3 SWAP6 SWAP4 SWAP5 SWAP3 POP POP POP JUMP JUMPDEST PUSH1 0x1 PUSH1 0x1 PUSH1 0xA0 SHL SUB DUP2 AND DUP2 EQ PUSH2 0x95D JUMPI PUSH1 0x0 DUP1 REVERT JUMPDEST POP JUMP JUMPDEST PUSH1 0x0 PUSH1 0x20 DUP3 DUP5 SUB SLT ISZERO PUSH2 0x972 JUMPI PUSH1 0x0 DUP1 REVERT JUMPDEST DUP2 CALLDATALOAD PUSH2 0x97D DUP2 PUSH2 0x948 JUMP JUMPDEST SWAP4 SWAP3 POP POP POP JUMP JUMPDEST PUSH1 0x0 DUP1 PUSH1 0x0 PUSH1 0x60 DUP5 DUP7 SUB SLT ISZERO PUSH2 0x999 JUMPI PUSH1 0x0 DUP1 REVERT JUMPDEST PUSH2 0x9A2 DUP5 PUSH2 0x890 JUMP JUMPDEST SWAP3 POP PUSH1 0x20 DUP5 ADD CALLDATALOAD PUSH2 0x9B2 DUP2 PUSH2 0x948 JUMP JUMPDEST SWAP3 SWAP6 SWAP3 SWAP5 POP POP POP PUSH1 0x40 SWAP2 SWAP1 SWAP2 ADD CALLDATALOAD SWAP1 JUMP JUMPDEST PUSH1 0x0 PUSH1 0x20 DUP3 DUP5 SUB SLT ISZERO PUSH2 0x9D5 JUMPI PUSH1 0x0 DUP1 REVERT JUMPDEST PUSH2 0x97D DUP3 PUSH2 0x890 JUMP JUMPDEST PUSH1 0x0 DUP1 PUSH1 0x0 PUSH1 0x60 DUP5 DUP7 SUB SLT ISZERO PUSH2 0x9F3 JUMPI PUSH1 0x0 DUP1 REVERT JUMPDEST DUP4 CALLDATALOAD PUSH2 0x9FE DUP2 PUSH2 0x948 JUMP JUMPDEST SWAP3 POP PUSH1 0x20 DUP5 ADD CALLDATALOAD PUSH4 0xFFFFFFFF DUP2 AND DUP2 EQ PUSH2 0xA17 JUMPI PUSH1 0x0 DUP1 REVERT JUMPDEST SWAP2 POP PUSH1 0x40 DUP5 ADD CALLDATALOAD PUSH2 0xA27 DUP2 PUSH2 0x948 JUMP JUMPDEST DUP1 SWAP2 POP POP SWAP3 POP SWAP3 POP SWAP3 JUMP JUMPDEST DUP1 CALLDATALOAD PUSH1 0x20 DUP4 LT ISZERO PUSH2 0xA4B JUMPI PUSH1 0x0 NOT PUSH1 0x20 DUP5 SWAP1 SUB PUSH1 0x3 SHL SHL AND JUMPDEST SWAP3 SWAP2 POP POP JUMP JUMPDEST PUSH4 0x4E487B71 PUSH1 0xE0 SHL PUSH1 0x0 MSTORE PUSH1 0x11 PUSH1 0x4 MSTORE PUSH1 0x24 PUSH1 0x0 REVERT JUMPDEST PUSH1 0x1 PUSH1 0x1 PUSH1 0x40 SHL SUB DUP3 DUP2 AND DUP3 DUP3 AND SUB SWAP1 DUP1 DUP3 GT ISZERO PUSH2 0x4EB JUMPI PUSH2 0x4EB PUSH2 0xA51 JUMP JUMPDEST PUSH1 0x0 PUSH1 0x1 DUP3 ADD PUSH2 0xA99 JUMPI PUSH2 0xA99 PUSH2 0xA51 JUMP JUMPDEST POP PUSH1 0x1 ADD SWAP1 JUMP JUMPDEST PUSH1 0x0 PUSH1 0x1 PUSH1 0x1 PUSH1 0x40 SHL SUB DUP1 DUP4 AND DUP2 DUP2 SUB PUSH2 0xABC JUMPI PUSH2 0xABC PUSH2 0xA51 JUMP JUMPDEST PUSH1 0x1 ADD SWAP4 SWAP3 POP POP POP JUMP JUMPDEST PUSH1 0x0 DUP3 MLOAD PUSH1 0x0 JUMPDEST DUP2 DUP2 LT ISZERO PUSH2 0xAE7 JUMPI PUSH1 0x20 DUP2 DUP7 ADD DUP2 ADD MLOAD DUP6 DUP4 ADD MSTORE ADD PUSH2 0xACD JUMP JUMPDEST POP PUSH1 0x0 SWAP3 ADD SWAP2 DUP3 MSTORE POP SWAP2 SWAP1 POP JUMP INVALID LOG2 PUSH5 0x6970667358 0x22 SLT KECCAK256 BALANCE ADDMOD PUSH11 0x18CB0688148B120475F77B 0xF7 SWAP3 PUSH24 0x97B02D89D8A8A17F7FA3A667B2876A64736F6C6343000814 STOP CALLER "},"methodIdentifiers":{"arbitrumChainId()":"1c61621e","arbitrumVRFRequester()":"263de2b5","getLatestRequestId()":"b190d8a3","getRequestCount()":"3fad1834","getUserRequestCount(address)":"c166c458","initialize(address,uint32,address)":"c1554a4b","lotteryContract()":"b29c662a","lzEndpoint()":"b353aaa7","lzReceive(uint16,bytes,uint64,bytes)":"001d3567","nonce()":"affed0e0","requestCount()":"5badbe4c","requestRandomness(address)":"ead073c7","requestToUser(uint64)":"9f392c2b","setLotteryContract(address)":"1590a04f","simulateReceiveRandomness(uint64,address,uint256)":"8c1bde26"}}}}}