{"contracts/mocks/MockLzEndpoint.sol":{"MockLzEndpoint":{"abi":[{"anonymous":false,"inputs":[{"indexed":false,"internalType":"uint32","name":"srcEid","type":"uint32"},{"indexed":false,"internalType":"bytes32","name":"sender","type":"bytes32"},{"indexed":false,"internalType":"bytes","name":"payload","type":"bytes"}],"name":"MessageReceived","type":"event"},{"anonymous":false,"inputs":[{"indexed":false,"internalType":"uint32","name":"dstEid","type":"uint32"},{"indexed":false,"internalType":"bytes","name":"receiver","type":"bytes"},{"indexed":false,"internalType":"bytes","name":"payload","type":"bytes"}],"name":"MessageSent","type":"event"},{"inputs":[],"name":"lastDstEid","outputs":[{"internalType":"uint32","name":"","type":"uint32"}],"stateMutability":"view","type":"function"},{"inputs":[],"name":"lastSender","outputs":[{"internalType":"address","name":"","type":"address"}],"stateMutability":"view","type":"function"},{"inputs":[],"name":"lastSentPayload","outputs":[{"internalType":"bytes","name":"","type":"bytes"}],"stateMutability":"view","type":"function"},{"inputs":[{"internalType":"uint32","name":"_srcEid","type":"uint32"},{"internalType":"bytes","name":"_sender","type":"bytes"},{"internalType":"bytes","name":"_message","type":"bytes"}],"name":"mockLzReceive","outputs":[],"stateMutability":"nonpayable","type":"function"},{"inputs":[{"components":[{"internalType":"uint32","name":"dstEid","type":"uint32"},{"internalType":"bytes","name":"receiver","type":"bytes"},{"internalType":"bytes","name":"message","type":"bytes"},{"internalType":"bytes","name":"options","type":"bytes"},{"internalType":"bool","name":"payInLzToken","type":"bool"}],"internalType":"struct ILayerZeroEndpointV2Mock.MessagingParams","name":"","type":"tuple"}],"name":"quoteFee","outputs":[{"components":[{"internalType":"uint256","name":"nativeFee","type":"uint256"},{"internalType":"uint256","name":"lzTokenFee","type":"uint256"}],"internalType":"struct ILayerZeroEndpointV2Mock.MessagingFee","name":"","type":"tuple"}],"stateMutability":"pure","type":"function"},{"inputs":[{"components":[{"internalType":"uint32","name":"dstEid","type":"uint32"},{"internalType":"bytes","name":"receiver","type":"bytes"},{"internalType":"bytes","name":"message","type":"bytes"},{"internalType":"bytes","name":"options","type":"bytes"},{"internalType":"bool","name":"payInLzToken","type":"bool"}],"internalType":"struct ILayerZeroEndpointV2Mock.MessagingParams","name":"_params","type":"tuple"}],"name":"send","outputs":[{"components":[{"internalType":"uint256","name":"nativeFee","type":"uint256"},{"internalType":"uint256","name":"lzTokenFee","type":"uint256"}],"internalType":"struct ILayerZeroEndpointV2Mock.MessagingFee","name":"","type":"tuple"},{"internalType":"bytes32","name":"","type":"bytes32"}],"stateMutability":"payable","type":"function"}],"evm":{"bytecode":{"linkReferences":{},"object":"608060405234801561001057600080fd5b5061099a806100206000396000f3fe6080604052600436106100555760003560e01c806321cbdb0d1461005a578063245875be1461007c578063256fec88146100b45780633c961a12146100f457806347351226146101165780638c2267411461017c575b600080fd5b34801561006657600080fd5b5061007a610075366004610545565b6101ae565b005b61008f61008a3660046105b9565b61030d565b6040805183518152602093840151938101939093528201526060015b60405180910390f35b3480156100c057600080fd5b506001546100dc9064010000000090046001600160a01b031681565b6040516001600160a01b0390911681526020016100ab565b34801561010057600080fd5b506101096103fb565b6040516100ab919061064b565b34801561012257600080fd5b506101616101313660046105b9565b50604080518082018252600080825260209182018190528251808401909352662386f26fc1000083529082015290565b604080518251815260209283015192810192909252016100ab565b34801561018857600080fd5b506001546101999063ffffffff1681565b60405163ffffffff90911681526020016100ab565b60208201516040517f20ec2e9153d350858cf45e0bcfc7d7676dea5ce5dd308668b1ed11244123fd02906101e79086908490869061065e565b60405180910390a160006101fa8461068c565b604080516060818101835263ffffffff89168252602080830187905260008385018190528451918201855280825293519490911c94509092849161024891859185918a9133916024016106c8565b60408051601f198184030181529181526020820180516001600160e01b031663197bea5f60e21b1790525161027d9190610739565b6000604051808303816000865af19150503d80600081146102ba576040519150601f19603f3d011682016040523d82523d6000602084013e6102bf565b606091505b5050905080610304577f20ec2e9153d350858cf45e0bcfc7d7676dea5ce5dd308668b1ed11244123fd028785876040516102fb9392919061065e565b60405180910390a15b50505050505050565b604080518082019091526000808252602082015260006103306040840184610755565b60009161033e91908361082c565b5061034c60208401846108ed565b6001805463ffffffff929092166001600160c01b03199092169190911733640100000000021790557f25d97817907adc7df592f6c64fd7806e1c4546540d84179224edc1b1bc359f756103a260208501856108ed565b6103af6020860186610755565b6103bc6040880188610755565b6040516103cd959493929190610931565b60405180910390a1505060408051808201909152662386f26fc1000081526000602082018190529092909150565b60008054610408906107a3565b80601f0160208091040260200160405190810160405280929190818152602001828054610434906107a3565b80156104815780601f1061045657610100808354040283529160200191610481565b820191906000526020600020905b81548152906001019060200180831161046457829003601f168201915b505050505081565b803563ffffffff8116811461049d57600080fd5b919050565b634e487b7160e01b600052604160045260246000fd5b600082601f8301126104c957600080fd5b813567ffffffffffffffff808211156104e4576104e46104a2565b604051601f8301601f19908116603f0116810190828211818310171561050c5761050c6104a2565b8160405283815286602085880101111561052557600080fd5b836020870160208301376000602085830101528094505050505092915050565b60008060006060848603121561055a57600080fd5b61056384610489565b9250602084013567ffffffffffffffff8082111561058057600080fd5b61058c878388016104b8565b935060408601359150808211156105a257600080fd5b506105af868287016104b8565b9150509250925092565b6000602082840312156105cb57600080fd5b813567ffffffffffffffff8111156105e257600080fd5b820160a081850312156105f457600080fd5b9392505050565b60005b838110156106165781810151838201526020016105fe565b50506000910152565b600081518084526106378160208601602086016105fb565b601f01601f19169290920160200192915050565b6020815260006105f4602083018461061f565b63ffffffff84168152826020820152606060408201526000610683606083018461061f565b95945050505050565b805160208201516bffffffffffffffffffffffff1980821692919060148310156106c05780818460140360031b1b83161693505b505050919050565b63ffffffff86511681526020860151602082015267ffffffffffffffff604087015116604082015284606082015260e06080820152600061070c60e083018661061f565b6001600160a01b03851660a084015282810360c084015261072d818561061f565b98975050505050505050565b6000825161074b8184602087016105fb565b9190910192915050565b6000808335601e1984360301811261076c57600080fd5b83018035915067ffffffffffffffff82111561078757600080fd5b60200191503681900382131561079c57600080fd5b9250929050565b600181811c908216806107b757607f821691505b6020821081036107d757634e487b7160e01b600052602260045260246000fd5b50919050565b601f82111561082757600081815260208120601f850160051c810160208610156108045750805b601f850160051c820191505b8181101561082357828155600101610810565b5050505b505050565b67ffffffffffffffff831115610844576108446104a2565b6108588361085283546107a3565b836107dd565b6000601f84116001811461088c57600085156108745750838201355b600019600387901b1c1916600186901b1783556108e6565b600083815260209020601f19861690835b828110156108bd578685013582556020948501946001909201910161089d565b50868210156108da5760001960f88860031b161c19848701351681555b505060018560011b0183555b5050505050565b6000602082840312156108ff57600080fd5b6105f482610489565b81835281816020850137506000828201602090810191909152601f909101601f19169091010190565b63ffffffff86168152606060208201526000610951606083018688610908565b828103604084015261072d81858761090856fea26469706673582212205c677524c519db873a9efd0d5ded2a8cf36744cf714ab5dd7d7b2dcf117ff60864736f6c63430008140033","opcodes":"PUSH1 0x80 PUSH1 0x40 MSTORE CALLVALUE DUP1 ISZERO PUSH2 0x10 JUMPI PUSH1 0x0 DUP1 REVERT JUMPDEST POP PUSH2 0x99A DUP1 PUSH2 0x20 PUSH1 0x0 CODECOPY PUSH1 0x0 RETURN INVALID PUSH1 0x80 PUSH1 0x40 MSTORE PUSH1 0x4 CALLDATASIZE LT PUSH2 0x55 JUMPI PUSH1 0x0 CALLDATALOAD PUSH1 0xE0 SHR DUP1 PUSH4 0x21CBDB0D EQ PUSH2 0x5A JUMPI DUP1 PUSH4 0x245875BE EQ PUSH2 0x7C JUMPI DUP1 PUSH4 0x256FEC88 EQ PUSH2 0xB4 JUMPI DUP1 PUSH4 0x3C961A12 EQ PUSH2 0xF4 JUMPI DUP1 PUSH4 0x47351226 EQ PUSH2 0x116 JUMPI DUP1 PUSH4 0x8C226741 EQ PUSH2 0x17C JUMPI JUMPDEST PUSH1 0x0 DUP1 REVERT JUMPDEST CALLVALUE DUP1 ISZERO PUSH2 0x66 JUMPI PUSH1 0x0 DUP1 REVERT JUMPDEST POP PUSH2 0x7A PUSH2 0x75 CALLDATASIZE PUSH1 0x4 PUSH2 0x545 JUMP JUMPDEST PUSH2 0x1AE JUMP JUMPDEST STOP JUMPDEST PUSH2 0x8F PUSH2 0x8A CALLDATASIZE PUSH1 0x4 PUSH2 0x5B9 JUMP JUMPDEST PUSH2 0x30D JUMP JUMPDEST PUSH1 0x40 DUP1 MLOAD DUP4 MLOAD DUP2 MSTORE PUSH1 0x20 SWAP4 DUP5 ADD MLOAD SWAP4 DUP2 ADD SWAP4 SWAP1 SWAP4 MSTORE DUP3 ADD MSTORE PUSH1 0x60 ADD JUMPDEST PUSH1 0x40 MLOAD DUP1 SWAP2 SUB SWAP1 RETURN JUMPDEST CALLVALUE DUP1 ISZERO PUSH2 0xC0 JUMPI PUSH1 0x0 DUP1 REVERT JUMPDEST POP PUSH1 0x1 SLOAD PUSH2 0xDC SWAP1 PUSH5 0x100000000 SWAP1 DIV PUSH1 0x1 PUSH1 0x1 PUSH1 0xA0 SHL SUB AND DUP2 JUMP JUMPDEST PUSH1 0x40 MLOAD PUSH1 0x1 PUSH1 0x1 PUSH1 0xA0 SHL SUB SWAP1 SWAP2 AND DUP2 MSTORE PUSH1 0x20 ADD PUSH2 0xAB JUMP JUMPDEST CALLVALUE DUP1 ISZERO PUSH2 0x100 JUMPI PUSH1 0x0 DUP1 REVERT JUMPDEST POP PUSH2 0x109 PUSH2 0x3FB JUMP JUMPDEST PUSH1 0x40 MLOAD PUSH2 0xAB SWAP2 SWAP1 PUSH2 0x64B JUMP JUMPDEST CALLVALUE DUP1 ISZERO PUSH2 0x122 JUMPI PUSH1 0x0 DUP1 REVERT JUMPDEST POP PUSH2 0x161 PUSH2 0x131 CALLDATASIZE PUSH1 0x4 PUSH2 0x5B9 JUMP JUMPDEST POP PUSH1 0x40 DUP1 MLOAD DUP1 DUP3 ADD DUP3 MSTORE PUSH1 0x0 DUP1 DUP3 MSTORE PUSH1 0x20 SWAP2 DUP3 ADD DUP2 SWAP1 MSTORE DUP3 MLOAD DUP1 DUP5 ADD SWAP1 SWAP4 MSTORE PUSH7 0x2386F26FC10000 DUP4 MSTORE SWAP1 DUP3 ADD MSTORE SWAP1 JUMP JUMPDEST PUSH1 0x40 DUP1 MLOAD DUP3 MLOAD DUP2 MSTORE PUSH1 0x20 SWAP3 DUP4 ADD MLOAD SWAP3 DUP2 ADD SWAP3 SWAP1 SWAP3 MSTORE ADD PUSH2 0xAB JUMP JUMPDEST CALLVALUE DUP1 ISZERO PUSH2 0x188 JUMPI PUSH1 0x0 DUP1 REVERT JUMPDEST POP PUSH1 0x1 SLOAD PUSH2 0x199 SWAP1 PUSH4 0xFFFFFFFF AND DUP2 JUMP JUMPDEST PUSH1 0x40 MLOAD PUSH4 0xFFFFFFFF SWAP1 SWAP2 AND DUP2 MSTORE PUSH1 0x20 ADD PUSH2 0xAB JUMP JUMPDEST PUSH1 0x20 DUP3 ADD MLOAD PUSH1 0x40 MLOAD PUSH32 0x20EC2E9153D350858CF45E0BCFC7D7676DEA5CE5DD308668B1ED11244123FD02 SWAP1 PUSH2 0x1E7 SWAP1 DUP7 SWAP1 DUP5 SWAP1 DUP7 SWAP1 PUSH2 0x65E JUMP JUMPDEST PUSH1 0x40 MLOAD DUP1 SWAP2 SUB SWAP1 LOG1 PUSH1 0x0 PUSH2 0x1FA DUP5 PUSH2 0x68C JUMP JUMPDEST PUSH1 0x40 DUP1 MLOAD PUSH1 0x60 DUP2 DUP2 ADD DUP4 MSTORE PUSH4 0xFFFFFFFF DUP10 AND DUP3 MSTORE PUSH1 0x20 DUP1 DUP4 ADD DUP8 SWAP1 MSTORE PUSH1 0x0 DUP4 DUP6 ADD DUP2 SWAP1 MSTORE DUP5 MLOAD SWAP2 DUP3 ADD DUP6 MSTORE DUP1 DUP3 MSTORE SWAP4 MLOAD SWAP5 SWAP1 SWAP2 SHR SWAP5 POP SWAP1 SWAP3 DUP5 SWAP2 PUSH2 0x248 SWAP2 DUP6 SWAP2 DUP6 SWAP2 DUP11 SWAP2 CALLER SWAP2 PUSH1 0x24 ADD PUSH2 0x6C8 JUMP JUMPDEST PUSH1 0x40 DUP1 MLOAD PUSH1 0x1F NOT DUP2 DUP5 SUB ADD DUP2 MSTORE SWAP2 DUP2 MSTORE PUSH1 0x20 DUP3 ADD DUP1 MLOAD PUSH1 0x1 PUSH1 0x1 PUSH1 0xE0 SHL SUB AND PUSH4 0x197BEA5F PUSH1 0xE2 SHL OR SWAP1 MSTORE MLOAD PUSH2 0x27D SWAP2 SWAP1 PUSH2 0x739 JUMP JUMPDEST PUSH1 0x0 PUSH1 0x40 MLOAD DUP1 DUP4 SUB DUP2 PUSH1 0x0 DUP7 GAS CALL SWAP2 POP POP RETURNDATASIZE DUP1 PUSH1 0x0 DUP2 EQ PUSH2 0x2BA JUMPI PUSH1 0x40 MLOAD SWAP2 POP PUSH1 0x1F NOT PUSH1 0x3F RETURNDATASIZE ADD AND DUP3 ADD PUSH1 0x40 MSTORE RETURNDATASIZE DUP3 MSTORE RETURNDATASIZE PUSH1 0x0 PUSH1 0x20 DUP5 ADD RETURNDATACOPY PUSH2 0x2BF JUMP JUMPDEST PUSH1 0x60 SWAP2 POP JUMPDEST POP POP SWAP1 POP DUP1 PUSH2 0x304 JUMPI PUSH32 0x20EC2E9153D350858CF45E0BCFC7D7676DEA5CE5DD308668B1ED11244123FD02 DUP8 DUP6 DUP8 PUSH1 0x40 MLOAD PUSH2 0x2FB SWAP4 SWAP3 SWAP2 SWAP1 PUSH2 0x65E JUMP JUMPDEST PUSH1 0x40 MLOAD DUP1 SWAP2 SUB SWAP1 LOG1 JUMPDEST POP POP POP POP POP POP POP JUMP JUMPDEST PUSH1 0x40 DUP1 MLOAD DUP1 DUP3 ADD SWAP1 SWAP2 MSTORE PUSH1 0x0 DUP1 DUP3 MSTORE PUSH1 0x20 DUP3 ADD MSTORE PUSH1 0x0 PUSH2 0x330 PUSH1 0x40 DUP5 ADD DUP5 PUSH2 0x755 JUMP JUMPDEST PUSH1 0x0 SWAP2 PUSH2 0x33E SWAP2 SWAP1 DUP4 PUSH2 0x82C JUMP JUMPDEST POP PUSH2 0x34C PUSH1 0x20 DUP5 ADD DUP5 PUSH2 0x8ED JUMP JUMPDEST PUSH1 0x1 DUP1 SLOAD PUSH4 0xFFFFFFFF SWAP3 SWAP1 SWAP3 AND PUSH1 0x1 PUSH1 0x1 PUSH1 0xC0 SHL SUB NOT SWAP1 SWAP3 AND SWAP2 SWAP1 SWAP2 OR CALLER PUSH5 0x100000000 MUL OR SWAP1 SSTORE PUSH32 0x25D97817907ADC7DF592F6C64FD7806E1C4546540D84179224EDC1B1BC359F75 PUSH2 0x3A2 PUSH1 0x20 DUP6 ADD DUP6 PUSH2 0x8ED JUMP JUMPDEST PUSH2 0x3AF PUSH1 0x20 DUP7 ADD DUP7 PUSH2 0x755 JUMP JUMPDEST PUSH2 0x3BC PUSH1 0x40 DUP9 ADD DUP9 PUSH2 0x755 JUMP JUMPDEST PUSH1 0x40 MLOAD PUSH2 0x3CD SWAP6 SWAP5 SWAP4 SWAP3 SWAP2 SWAP1 PUSH2 0x931 JUMP JUMPDEST PUSH1 0x40 MLOAD DUP1 SWAP2 SUB SWAP1 LOG1 POP POP PUSH1 0x40 DUP1 MLOAD DUP1 DUP3 ADD SWAP1 SWAP2 MSTORE PUSH7 0x2386F26FC10000 DUP2 MSTORE PUSH1 0x0 PUSH1 0x20 DUP3 ADD DUP2 SWAP1 MSTORE SWAP1 SWAP3 SWAP1 SWAP2 POP JUMP JUMPDEST PUSH1 0x0 DUP1 SLOAD PUSH2 0x408 SWAP1 PUSH2 0x7A3 JUMP JUMPDEST DUP1 PUSH1 0x1F ADD PUSH1 0x20 DUP1 SWAP2 DIV MUL PUSH1 0x20 ADD PUSH1 0x40 MLOAD SWAP1 DUP2 ADD PUSH1 0x40 MSTORE DUP1 SWAP3 SWAP2 SWAP1 DUP2 DUP2 MSTORE PUSH1 0x20 ADD DUP3 DUP1 SLOAD PUSH2 0x434 SWAP1 PUSH2 0x7A3 JUMP JUMPDEST DUP1 ISZERO PUSH2 0x481 JUMPI DUP1 PUSH1 0x1F LT PUSH2 0x456 JUMPI PUSH2 0x100 DUP1 DUP4 SLOAD DIV MUL DUP4 MSTORE SWAP2 PUSH1 0x20 ADD SWAP2 PUSH2 0x481 JUMP JUMPDEST DUP3 ADD SWAP2 SWAP1 PUSH1 0x0 MSTORE PUSH1 0x20 PUSH1 0x0 KECCAK256 SWAP1 JUMPDEST DUP2 SLOAD DUP2 MSTORE SWAP1 PUSH1 0x1 ADD SWAP1 PUSH1 0x20 ADD DUP1 DUP4 GT PUSH2 0x464 JUMPI DUP3 SWAP1 SUB PUSH1 0x1F AND DUP3 ADD SWAP2 JUMPDEST POP POP POP POP POP DUP2 JUMP JUMPDEST DUP1 CALLDATALOAD PUSH4 0xFFFFFFFF DUP2 AND DUP2 EQ PUSH2 0x49D JUMPI PUSH1 0x0 DUP1 REVERT JUMPDEST SWAP2 SWAP1 POP JUMP JUMPDEST PUSH4 0x4E487B71 PUSH1 0xE0 SHL PUSH1 0x0 MSTORE PUSH1 0x41 PUSH1 0x4 MSTORE PUSH1 0x24 PUSH1 0x0 REVERT JUMPDEST PUSH1 0x0 DUP3 PUSH1 0x1F DUP4 ADD SLT PUSH2 0x4C9 JUMPI PUSH1 0x0 DUP1 REVERT JUMPDEST DUP2 CALLDATALOAD PUSH8 0xFFFFFFFFFFFFFFFF DUP1 DUP3 GT ISZERO PUSH2 0x4E4 JUMPI PUSH2 0x4E4 PUSH2 0x4A2 JUMP JUMPDEST PUSH1 0x40 MLOAD PUSH1 0x1F DUP4 ADD PUSH1 0x1F NOT SWAP1 DUP2 AND PUSH1 0x3F ADD AND DUP2 ADD SWAP1 DUP3 DUP3 GT DUP2 DUP4 LT OR ISZERO PUSH2 0x50C JUMPI PUSH2 0x50C PUSH2 0x4A2 JUMP JUMPDEST DUP2 PUSH1 0x40 MSTORE DUP4 DUP2 MSTORE DUP7 PUSH1 0x20 DUP6 DUP9 ADD ADD GT ISZERO PUSH2 0x525 JUMPI PUSH1 0x0 DUP1 REVERT JUMPDEST DUP4 PUSH1 0x20 DUP8 ADD PUSH1 0x20 DUP4 ADD CALLDATACOPY PUSH1 0x0 PUSH1 0x20 DUP6 DUP4 ADD ADD MSTORE DUP1 SWAP5 POP POP POP POP POP SWAP3 SWAP2 POP POP JUMP JUMPDEST PUSH1 0x0 DUP1 PUSH1 0x0 PUSH1 0x60 DUP5 DUP7 SUB SLT ISZERO PUSH2 0x55A JUMPI PUSH1 0x0 DUP1 REVERT JUMPDEST PUSH2 0x563 DUP5 PUSH2 0x489 JUMP JUMPDEST SWAP3 POP PUSH1 0x20 DUP5 ADD CALLDATALOAD PUSH8 0xFFFFFFFFFFFFFFFF DUP1 DUP3 GT ISZERO PUSH2 0x580 JUMPI PUSH1 0x0 DUP1 REVERT JUMPDEST PUSH2 0x58C DUP8 DUP4 DUP9 ADD PUSH2 0x4B8 JUMP JUMPDEST SWAP4 POP PUSH1 0x40 DUP7 ADD CALLDATALOAD SWAP2 POP DUP1 DUP3 GT ISZERO PUSH2 0x5A2 JUMPI PUSH1 0x0 DUP1 REVERT JUMPDEST POP PUSH2 0x5AF DUP7 DUP3 DUP8 ADD PUSH2 0x4B8 JUMP JUMPDEST SWAP2 POP POP SWAP3 POP SWAP3 POP SWAP3 JUMP JUMPDEST PUSH1 0x0 PUSH1 0x20 DUP3 DUP5 SUB SLT ISZERO PUSH2 0x5CB JUMPI PUSH1 0x0 DUP1 REVERT JUMPDEST DUP2 CALLDATALOAD PUSH8 0xFFFFFFFFFFFFFFFF DUP2 GT ISZERO PUSH2 0x5E2 JUMPI PUSH1 0x0 DUP1 REVERT JUMPDEST DUP3 ADD PUSH1 0xA0 DUP2 DUP6 SUB SLT ISZERO PUSH2 0x5F4 JUMPI PUSH1 0x0 DUP1 REVERT JUMPDEST SWAP4 SWAP3 POP POP POP JUMP JUMPDEST PUSH1 0x0 JUMPDEST DUP4 DUP2 LT ISZERO PUSH2 0x616 JUMPI DUP2 DUP2 ADD MLOAD DUP4 DUP3 ADD MSTORE PUSH1 0x20 ADD PUSH2 0x5FE JUMP JUMPDEST POP POP PUSH1 0x0 SWAP2 ADD MSTORE JUMP JUMPDEST PUSH1 0x0 DUP2 MLOAD DUP1 DUP5 MSTORE PUSH2 0x637 DUP2 PUSH1 0x20 DUP7 ADD PUSH1 0x20 DUP7 ADD PUSH2 0x5FB JUMP JUMPDEST PUSH1 0x1F ADD PUSH1 0x1F NOT AND SWAP3 SWAP1 SWAP3 ADD PUSH1 0x20 ADD SWAP3 SWAP2 POP POP JUMP JUMPDEST PUSH1 0x20 DUP2 MSTORE PUSH1 0x0 PUSH2 0x5F4 PUSH1 0x20 DUP4 ADD DUP5 PUSH2 0x61F JUMP JUMPDEST PUSH4 0xFFFFFFFF DUP5 AND DUP2 MSTORE DUP3 PUSH1 0x20 DUP3 ADD MSTORE PUSH1 0x60 PUSH1 0x40 DUP3 ADD MSTORE PUSH1 0x0 PUSH2 0x683 PUSH1 0x60 DUP4 ADD DUP5 PUSH2 0x61F JUMP JUMPDEST SWAP6 SWAP5 POP POP POP POP POP JUMP JUMPDEST DUP1 MLOAD PUSH1 0x20 DUP3 ADD MLOAD PUSH12 0xFFFFFFFFFFFFFFFFFFFFFFFF NOT DUP1 DUP3 AND SWAP3 SWAP2 SWAP1 PUSH1 0x14 DUP4 LT ISZERO PUSH2 0x6C0 JUMPI DUP1 DUP2 DUP5 PUSH1 0x14 SUB PUSH1 0x3 SHL SHL DUP4 AND AND SWAP4 POP JUMPDEST POP POP POP SWAP2 SWAP1 POP JUMP JUMPDEST PUSH4 0xFFFFFFFF DUP7 MLOAD AND DUP2 MSTORE PUSH1 0x20 DUP7 ADD MLOAD PUSH1 0x20 DUP3 ADD MSTORE PUSH8 0xFFFFFFFFFFFFFFFF PUSH1 0x40 DUP8 ADD MLOAD AND PUSH1 0x40 DUP3 ADD MSTORE DUP5 PUSH1 0x60 DUP3 ADD MSTORE PUSH1 0xE0 PUSH1 0x80 DUP3 ADD MSTORE PUSH1 0x0 PUSH2 0x70C PUSH1 0xE0 DUP4 ADD DUP7 PUSH2 0x61F JUMP JUMPDEST PUSH1 0x1 PUSH1 0x1 PUSH1 0xA0 SHL SUB DUP6 AND PUSH1 0xA0 DUP5 ADD MSTORE DUP3 DUP2 SUB PUSH1 0xC0 DUP5 ADD MSTORE PUSH2 0x72D DUP2 DUP6 PUSH2 0x61F JUMP JUMPDEST SWAP9 SWAP8 POP POP POP POP POP POP POP POP JUMP JUMPDEST PUSH1 0x0 DUP3 MLOAD PUSH2 0x74B DUP2 DUP5 PUSH1 0x20 DUP8 ADD PUSH2 0x5FB JUMP JUMPDEST SWAP2 SWAP1 SWAP2 ADD SWAP3 SWAP2 POP POP JUMP JUMPDEST PUSH1 0x0 DUP1 DUP4 CALLDATALOAD PUSH1 0x1E NOT DUP5 CALLDATASIZE SUB ADD DUP2 SLT PUSH2 0x76C JUMPI PUSH1 0x0 DUP1 REVERT JUMPDEST DUP4 ADD DUP1 CALLDATALOAD SWAP2 POP PUSH8 0xFFFFFFFFFFFFFFFF DUP3 GT ISZERO PUSH2 0x787 JUMPI PUSH1 0x0 DUP1 REVERT JUMPDEST PUSH1 0x20 ADD SWAP2 POP CALLDATASIZE DUP2 SWAP1 SUB DUP3 SGT ISZERO PUSH2 0x79C JUMPI PUSH1 0x0 DUP1 REVERT JUMPDEST SWAP3 POP SWAP3 SWAP1 POP JUMP JUMPDEST PUSH1 0x1 DUP2 DUP2 SHR SWAP1 DUP3 AND DUP1 PUSH2 0x7B7 JUMPI PUSH1 0x7F DUP3 AND SWAP2 POP JUMPDEST PUSH1 0x20 DUP3 LT DUP2 SUB PUSH2 0x7D7 JUMPI PUSH4 0x4E487B71 PUSH1 0xE0 SHL PUSH1 0x0 MSTORE PUSH1 0x22 PUSH1 0x4 MSTORE PUSH1 0x24 PUSH1 0x0 REVERT JUMPDEST POP SWAP2 SWAP1 POP JUMP JUMPDEST PUSH1 0x1F DUP3 GT ISZERO PUSH2 0x827 JUMPI PUSH1 0x0 DUP2 DUP2 MSTORE PUSH1 0x20 DUP2 KECCAK256 PUSH1 0x1F DUP6 ADD PUSH1 0x5 SHR DUP2 ADD PUSH1 0x20 DUP7 LT ISZERO PUSH2 0x804 JUMPI POP DUP1 JUMPDEST PUSH1 0x1F DUP6 ADD PUSH1 0x5 SHR DUP3 ADD SWAP2 POP JUMPDEST DUP2 DUP2 LT ISZERO PUSH2 0x823 JUMPI DUP3 DUP2 SSTORE PUSH1 0x1 ADD PUSH2 0x810 JUMP JUMPDEST POP POP POP JUMPDEST POP POP POP JUMP JUMPDEST PUSH8 0xFFFFFFFFFFFFFFFF DUP4 GT ISZERO PUSH2 0x844 JUMPI PUSH2 0x844 PUSH2 0x4A2 JUMP JUMPDEST PUSH2 0x858 DUP4 PUSH2 0x852 DUP4 SLOAD PUSH2 0x7A3 JUMP JUMPDEST DUP4 PUSH2 0x7DD JUMP JUMPDEST PUSH1 0x0 PUSH1 0x1F DUP5 GT PUSH1 0x1 DUP2 EQ PUSH2 0x88C JUMPI PUSH1 0x0 DUP6 ISZERO PUSH2 0x874 JUMPI POP DUP4 DUP3 ADD CALLDATALOAD JUMPDEST PUSH1 0x0 NOT PUSH1 0x3 DUP8 SWAP1 SHL SHR NOT AND PUSH1 0x1 DUP7 SWAP1 SHL OR DUP4 SSTORE PUSH2 0x8E6 JUMP JUMPDEST PUSH1 0x0 DUP4 DUP2 MSTORE PUSH1 0x20 SWAP1 KECCAK256 PUSH1 0x1F NOT DUP7 AND SWAP1 DUP4 JUMPDEST DUP3 DUP2 LT ISZERO PUSH2 0x8BD JUMPI DUP7 DUP6 ADD CALLDATALOAD DUP3 SSTORE PUSH1 0x20 SWAP5 DUP6 ADD SWAP5 PUSH1 0x1 SWAP1 SWAP3 ADD SWAP2 ADD PUSH2 0x89D JUMP JUMPDEST POP DUP7 DUP3 LT ISZERO PUSH2 0x8DA JUMPI PUSH1 0x0 NOT PUSH1 0xF8 DUP9 PUSH1 0x3 SHL AND SHR NOT DUP5 DUP8 ADD CALLDATALOAD AND DUP2 SSTORE JUMPDEST POP POP PUSH1 0x1 DUP6 PUSH1 0x1 SHL ADD DUP4 SSTORE JUMPDEST POP POP POP POP POP JUMP JUMPDEST PUSH1 0x0 PUSH1 0x20 DUP3 DUP5 SUB SLT ISZERO PUSH2 0x8FF JUMPI PUSH1 0x0 DUP1 REVERT JUMPDEST PUSH2 0x5F4 DUP3 PUSH2 0x489 JUMP JUMPDEST DUP2 DUP4 MSTORE DUP2 DUP2 PUSH1 0x20 DUP6 ADD CALLDATACOPY POP PUSH1 0x0 DUP3 DUP3 ADD PUSH1 0x20 SWAP1 DUP2 ADD SWAP2 SWAP1 SWAP2 MSTORE PUSH1 0x1F SWAP1 SWAP2 ADD PUSH1 0x1F NOT AND SWAP1 SWAP2 ADD ADD SWAP1 JUMP JUMPDEST PUSH4 0xFFFFFFFF DUP7 AND DUP2 MSTORE PUSH1 0x60 PUSH1 0x20 DUP3 ADD MSTORE PUSH1 0x0 PUSH2 0x951 PUSH1 0x60 DUP4 ADD DUP7 DUP9 PUSH2 0x908 JUMP JUMPDEST DUP3 DUP2 SUB PUSH1 0x40 DUP5 ADD MSTORE PUSH2 0x72D DUP2 DUP6 DUP8 PUSH2 0x908 JUMP INVALID LOG2 PUSH5 0x6970667358 0x22 SLT KECCAK256 0x5C PUSH8 0x7524C519DB873A9E REVERT 0xD 0x5D 0xED 0x2A DUP13 RETURN PUSH8 0x44CF714AB5DD7D7B 0x2D 0xCF GT PUSH32 0xF60864736F6C6343000814003300000000000000000000000000000000000000 "},"methodIdentifiers":{"lastDstEid()":"8c226741","lastSender()":"256fec88","lastSentPayload()":"3c961a12","mockLzReceive(uint32,bytes,bytes)":"21cbdb0d","quoteFee((uint32,bytes,bytes,bytes,bool))":"47351226","send((uint32,bytes,bytes,bytes,bool))":"245875be"}}}}}