{"contracts/mocks/MockArbitrumVRFRequester.sol":{"MockArbitrumVRFRequester":{"abi":[{"inputs":[],"stateMutability":"nonpayable","type":"constructor"},{"anonymous":false,"inputs":[{"indexed":false,"internalType":"uint64","name":"subscriptionId","type":"uint64"},{"indexed":false,"internalType":"bytes32","name":"keyHash","type":"bytes32"},{"indexed":false,"internalType":"uint16","name":"confirmations","type":"uint16"},{"indexed":false,"internalType":"uint32","name":"gasLimit","type":"uint32"}],"name":"ConfigUpdated","type":"event"},{"anonymous":false,"inputs":[{"indexed":true,"internalType":"uint64","name":"requestId","type":"uint64"},{"indexed":false,"internalType":"uint256","name":"randomWord","type":"uint256"}],"name":"RandomnessFulfilled","type":"event"},{"anonymous":false,"inputs":[{"indexed":true,"internalType":"uint64","name":"requestId","type":"uint64"},{"indexed":true,"internalType":"address","name":"user","type":"address"}],"name":"RandomnessRequested","type":"event"},{"inputs":[],"name":"callbackGasLimit","outputs":[{"internalType":"uint32","name":"","type":"uint32"}],"stateMutability":"view","type":"function"},{"inputs":[],"name":"getLatestRequest","outputs":[{"internalType":"uint64","name":"","type":"uint64"},{"internalType":"address","name":"","type":"address"}],"stateMutability":"view","type":"function"},{"inputs":[{"internalType":"uint64","name":"_requestId","type":"uint64"}],"name":"getRequest","outputs":[{"internalType":"bool","name":"","type":"bool"},{"internalType":"address","name":"","type":"address"}],"stateMutability":"view","type":"function"},{"inputs":[],"name":"hasRequest","outputs":[{"internalType":"bool","name":"","type":"bool"}],"stateMutability":"view","type":"function"},{"inputs":[],"name":"keyHash","outputs":[{"internalType":"bytes32","name":"","type":"bytes32"}],"stateMutability":"view","type":"function"},{"inputs":[],"name":"latestRequestId","outputs":[{"internalType":"uint64","name":"","type":"uint64"}],"stateMutability":"view","type":"function"},{"inputs":[],"name":"latestRequestUser","outputs":[{"internalType":"address","name":"","type":"address"}],"stateMutability":"view","type":"function"},{"inputs":[],"name":"lzEndpoint","outputs":[{"internalType":"address","name":"","type":"address"}],"stateMutability":"view","type":"function"},{"inputs":[{"internalType":"uint16","name":"_srcChainId","type":"uint16"},{"internalType":"bytes","name":"","type":"bytes"},{"internalType":"uint64","name":"","type":"uint64"},{"internalType":"bytes","name":"_payload","type":"bytes"}],"name":"lzReceive","outputs":[],"stateMutability":"nonpayable","type":"function"},{"inputs":[],"name":"numWords","outputs":[{"internalType":"uint32","name":"","type":"uint32"}],"stateMutability":"view","type":"function"},{"inputs":[],"name":"requestConfirmations","outputs":[{"internalType":"uint16","name":"","type":"uint16"}],"stateMutability":"view","type":"function"},{"inputs":[{"internalType":"uint64","name":"","type":"uint64"}],"name":"requests","outputs":[{"internalType":"address","name":"","type":"address"}],"stateMutability":"view","type":"function"},{"inputs":[{"internalType":"address","name":"_lzEndpoint","type":"address"}],"name":"setLzEndpoint","outputs":[],"stateMutability":"nonpayable","type":"function"},{"inputs":[{"internalType":"address","name":"_sonicVRFConsumer","type":"address"},{"internalType":"uint16","name":"_sonicChainId","type":"uint16"}],"name":"setSonicVRFConsumer","outputs":[],"stateMutability":"nonpayable","type":"function"},{"inputs":[{"internalType":"uint64","name":"_subscriptionId","type":"uint64"},{"internalType":"bytes32","name":"_keyHash","type":"bytes32"},{"internalType":"uint16","name":"_confirmations","type":"uint16"},{"internalType":"uint32","name":"_callbackGasLimit","type":"uint32"}],"name":"setVRFConfig","outputs":[],"stateMutability":"nonpayable","type":"function"},{"inputs":[{"internalType":"uint64","name":"_requestId","type":"uint64"},{"internalType":"uint256","name":"_randomWord","type":"uint256"}],"name":"simulateFulfillRandomness","outputs":[],"stateMutability":"nonpayable","type":"function"},{"inputs":[],"name":"sonicChainId","outputs":[{"internalType":"uint16","name":"","type":"uint16"}],"stateMutability":"view","type":"function"},{"inputs":[],"name":"sonicVRFConsumer","outputs":[{"internalType":"address","name":"","type":"address"}],"stateMutability":"view","type":"function"},{"inputs":[{"internalType":"uint64","name":"_requestId","type":"uint64"},{"internalType":"address","name":"_user","type":"address"}],"name":"storeRequest","outputs":[],"stateMutability":"nonpayable","type":"function"},{"inputs":[],"name":"subscriptionId","outputs":[{"internalType":"uint64","name":"","type":"uint64"}],"stateMutability":"view","type":"function"}],"evm":{"bytecode":{"linkReferences":{},"object":"6080604052600080546001600160401b0319168155600155600280546001600160501b03191666010007a12000031790556005805460ff60e01b1916905534801561004957600080fd5b50610c95806100596000396000f3fe608060405234801561001057600080fd5b506004361061012b5760003560e01c806375beaf51116100ad578063b353aaa711610071578063b353aaa71461033f578063c283597114610359578063cbbf67ec1461036e578063d9331a11146103c2578063ed2ab31a1461041157600080fd5b806375beaf511461028b578063796be3161461029e5780637ccfd7fc146102f1578063902a1ee21461030b578063b0fb162f1461031e57600080fd5b8063411010ec116100f4578063411010ec146101e25780634923f5a61461022357806361728f391461023d5780636a9feffd1461025457806373bc9dcf1461026757600080fd5b80621d35671461013057806303ef56621461014557806309c1ba2e146101795780631aa46f59146101a457806324f74697146101b7575b600080fd5b61014361013e3660046109d8565b610424565b005b61014d610588565b604080516001600160401b0390931683526001600160a01b039091166020830152015b60405180910390f35b60005461018c906001600160401b031681565b6040516001600160401b039091168152602001610170565b60055461018c906001600160401b031681565b6002546101cd9062010000900463ffffffff1681565b60405163ffffffff9091168152602001610170565b61020b6101f0366004610a6b565b6004602052600090815260409020546001600160a01b031681565b6040516001600160a01b039091168152602001610170565b60055461020b90600160401b90046001600160a01b031681565b61024660015481565b604051908152602001610170565b610143610262366004610a8d565b6105fc565b60055461027b90600160e01b900460ff1681565b6040519015158152602001610170565b610143610299366004610ab7565b610840565b6101436102ac366004610b27565b600380546001600160a01b039093166001600160a01b0319909316929092179091556002805461ffff909216600160f01b026001600160f01b03909216919091179055565b6002546101cd906601000000000000900463ffffffff1681565b60035461020b906001600160a01b031681565b60025461032c9061ffff1681565b60405161ffff9091168152602001610170565b60025461020b90600160501b90046001600160a01b031681565b60025461032c90600160f01b900461ffff1681565b6103a361037c366004610a6b565b6001600160401b03166000908152600460205260409020546001600160a01b031680151591565b6040805192151583526001600160a01b03909116602083015201610170565b6101436103d0366004610b5c565b600280546001600160a01b03909216600160501b027fffff0000000000000000000000000000000000000000ffffffffffffffffffff909216919091179055565b61014361041f366004610b79565b6108d8565b600254600160501b90046001600160a01b031633146104835760405162461bcd60e51b815260206004820152601660248201527513db9b1e48195b991c1bda5b9d0818d85b8818d85b1b60521b60448201526064015b60405180910390fd5b60025461ffff878116600160f01b90920416146104e25760405162461bcd60e51b815260206004820152601a60248201527f536f75726365206d75737420626520536f6e696320636861696e000000000000604482015260640161047a565b6000806104f183850185610b79565b6001600160401b03821660008181526004602052604080822080546001600160a01b0319166001600160a01b03861690811790915560058054600160e01b6001600160e01b03199091168617600160401b84021760ff60e01b19161790559051949650929450919290917ff09a63f9e06f8e96ec8e1be5bdfdb17d52cf919bcfe025e59cf8e5c0bd65d35a91a35050505050505050565b6005546000908190600160e01b900460ff166105d85760405162461bcd60e51b815260206004820152600f60248201526e139bc81c995c5d595cdd1cc81e595d608a1b604482015260640161047a565b50506005546001600160401b03811691600160401b9091046001600160a01b031690565b6001600160401b0382166000908152600460205260409020546001600160a01b0316806106605760405162461bcd60e51b8152602060048201526012602482015271155b9adb9bdddb881c995c5d595cdd08125160721b604482015260640161047a565b600254600160501b90046001600160a01b03161580159061068b57506003546001600160a01b031615155b156107f857604080516001600160401b03851660208201526001600160a01b038381168284015260608083018690528351808403820181526080840185526002543090921b6bffffffffffffffffffffffff191660a08501528451609481860301815260b4850190955293600093600160501b8304909316926107229261ffff600160f01b9091041691908590879060d801610c00565b60408051601f198184030181529181526020820180516001600160e01b031663243e1e6760e01b179052516107579190610c43565b6000604051808303816000865af19150503d8060008114610794576040519150601f19603f3d011682016040523d82523d6000602084013e610799565b606091505b50509050806107f55760405162461bcd60e51b815260206004820152602260248201527f4661696c656420746f2073656e642063726f73732d636861696e206d65737361604482015261676560f01b606482015260840161047a565b50505b826001600160401b03167f27a63df837e5cbe7a78dfc6b69a2a47e9ba4c1d88f4ba0f9534df652fcfba3608360405161083391815260200190565b60405180910390a2505050565b6000805467ffffffffffffffff19166001600160401b03861690811790915560018490556002805461ffff851665ffffffffffff1990911681176201000063ffffffff861690810291909117909255604080519384526020840187905283015260608201527f9eecbde1c3ccea349424f9daf100c58c90c4af33b7f8f8e1bef739591a5d6ec59060800160405180910390a150505050565b6001600160401b03821660008181526004602052604080822080546001600160a01b0319166001600160a01b03861690811790915560058054600160e01b6001600160e01b03199091168617600160401b84021760ff60e01b191617905590519092917ff09a63f9e06f8e96ec8e1be5bdfdb17d52cf919bcfe025e59cf8e5c0bd65d35a91a35050565b803561ffff8116811461097457600080fd5b919050565b60008083601f84011261098b57600080fd5b5081356001600160401b038111156109a257600080fd5b6020830191508360208285010111156109ba57600080fd5b9250929050565b80356001600160401b038116811461097457600080fd5b600080600080600080608087890312156109f157600080fd5b6109fa87610962565b955060208701356001600160401b0380821115610a1657600080fd5b610a228a838b01610979565b9097509550859150610a3660408a016109c1565b94506060890135915080821115610a4c57600080fd5b50610a5989828a01610979565b979a9699509497509295939492505050565b600060208284031215610a7d57600080fd5b610a86826109c1565b9392505050565b60008060408385031215610aa057600080fd5b610aa9836109c1565b946020939093013593505050565b60008060008060808587031215610acd57600080fd5b610ad6856109c1565b935060208501359250610aeb60408601610962565b9150606085013563ffffffff81168114610b0457600080fd5b939692955090935050565b6001600160a01b0381168114610b2457600080fd5b50565b60008060408385031215610b3a57600080fd5b8235610b4581610b0f565b9150610b5360208401610962565b90509250929050565b600060208284031215610b6e57600080fd5b8135610a8681610b0f565b60008060408385031215610b8c57600080fd5b610b95836109c1565b91506020830135610ba581610b0f565b809150509250929050565b60005b83811015610bcb578181015183820152602001610bb3565b50506000910152565b60008151808452610bec816020860160208601610bb0565b601f01601f19169290920160200192915050565b61ffff85168152608060208201526000610c1d6080830186610bd4565b60ff851660408401528281036060840152610c388185610bd4565b979650505050505050565b60008251610c55818460208701610bb0565b919091019291505056fea264697066735822122021f96798811724e6af31e0e859e87f2e995fcadb48804f3ac254f66586aada7964736f6c63430008140033","opcodes":"PUSH1 0x80 PUSH1 0x40 MSTORE PUSH1 0x0 DUP1 SLOAD PUSH1 0x1 PUSH1 0x1 PUSH1 0x40 SHL SUB NOT AND DUP2 SSTORE PUSH1 0x1 SSTORE PUSH1 0x2 DUP1 SLOAD PUSH1 0x1 PUSH1 0x1 PUSH1 0x50 SHL SUB NOT AND PUSH7 0x10007A1200003 OR SWAP1 SSTORE PUSH1 0x5 DUP1 SLOAD PUSH1 0xFF PUSH1 0xE0 SHL NOT AND SWAP1 SSTORE CALLVALUE DUP1 ISZERO PUSH2 0x49 JUMPI PUSH1 0x0 DUP1 REVERT JUMPDEST POP PUSH2 0xC95 DUP1 PUSH2 0x59 PUSH1 0x0 CODECOPY PUSH1 0x0 RETURN INVALID PUSH1 0x80 PUSH1 0x40 MSTORE CALLVALUE DUP1 ISZERO PUSH2 0x10 JUMPI PUSH1 0x0 DUP1 REVERT JUMPDEST POP PUSH1 0x4 CALLDATASIZE LT PUSH2 0x12B JUMPI PUSH1 0x0 CALLDATALOAD PUSH1 0xE0 SHR DUP1 PUSH4 0x75BEAF51 GT PUSH2 0xAD JUMPI DUP1 PUSH4 0xB353AAA7 GT PUSH2 0x71 JUMPI DUP1 PUSH4 0xB353AAA7 EQ PUSH2 0x33F JUMPI DUP1 PUSH4 0xC2835971 EQ PUSH2 0x359 JUMPI DUP1 PUSH4 0xCBBF67EC EQ PUSH2 0x36E JUMPI DUP1 PUSH4 0xD9331A11 EQ PUSH2 0x3C2 JUMPI DUP1 PUSH4 0xED2AB31A EQ PUSH2 0x411 JUMPI PUSH1 0x0 DUP1 REVERT JUMPDEST DUP1 PUSH4 0x75BEAF51 EQ PUSH2 0x28B JUMPI DUP1 PUSH4 0x796BE316 EQ PUSH2 0x29E JUMPI DUP1 PUSH4 0x7CCFD7FC EQ PUSH2 0x2F1 JUMPI DUP1 PUSH4 0x902A1EE2 EQ PUSH2 0x30B JUMPI DUP1 PUSH4 0xB0FB162F EQ PUSH2 0x31E JUMPI PUSH1 0x0 DUP1 REVERT JUMPDEST DUP1 PUSH4 0x411010EC GT PUSH2 0xF4 JUMPI DUP1 PUSH4 0x411010EC EQ PUSH2 0x1E2 JUMPI DUP1 PUSH4 0x4923F5A6 EQ PUSH2 0x223 JUMPI DUP1 PUSH4 0x61728F39 EQ PUSH2 0x23D JUMPI DUP1 PUSH4 0x6A9FEFFD EQ PUSH2 0x254 JUMPI DUP1 PUSH4 0x73BC9DCF EQ PUSH2 0x267 JUMPI PUSH1 0x0 DUP1 REVERT JUMPDEST DUP1 PUSH3 0x1D3567 EQ PUSH2 0x130 JUMPI DUP1 PUSH4 0x3EF5662 EQ PUSH2 0x145 JUMPI DUP1 PUSH4 0x9C1BA2E EQ PUSH2 0x179 JUMPI DUP1 PUSH4 0x1AA46F59 EQ PUSH2 0x1A4 JUMPI DUP1 PUSH4 0x24F74697 EQ PUSH2 0x1B7 JUMPI JUMPDEST PUSH1 0x0 DUP1 REVERT JUMPDEST PUSH2 0x143 PUSH2 0x13E CALLDATASIZE PUSH1 0x4 PUSH2 0x9D8 JUMP JUMPDEST PUSH2 0x424 JUMP JUMPDEST STOP JUMPDEST PUSH2 0x14D PUSH2 0x588 JUMP JUMPDEST PUSH1 0x40 DUP1 MLOAD PUSH1 0x1 PUSH1 0x1 PUSH1 0x40 SHL SUB SWAP1 SWAP4 AND DUP4 MSTORE PUSH1 0x1 PUSH1 0x1 PUSH1 0xA0 SHL SUB SWAP1 SWAP2 AND PUSH1 0x20 DUP4 ADD MSTORE ADD JUMPDEST PUSH1 0x40 MLOAD DUP1 SWAP2 SUB SWAP1 RETURN JUMPDEST PUSH1 0x0 SLOAD PUSH2 0x18C SWAP1 PUSH1 0x1 PUSH1 0x1 PUSH1 0x40 SHL SUB AND DUP2 JUMP JUMPDEST PUSH1 0x40 MLOAD PUSH1 0x1 PUSH1 0x1 PUSH1 0x40 SHL SUB SWAP1 SWAP2 AND DUP2 MSTORE PUSH1 0x20 ADD PUSH2 0x170 JUMP JUMPDEST PUSH1 0x5 SLOAD PUSH2 0x18C SWAP1 PUSH1 0x1 PUSH1 0x1 PUSH1 0x40 SHL SUB AND DUP2 JUMP JUMPDEST PUSH1 0x2 SLOAD PUSH2 0x1CD SWAP1 PUSH3 0x10000 SWAP1 DIV PUSH4 0xFFFFFFFF AND DUP2 JUMP JUMPDEST PUSH1 0x40 MLOAD PUSH4 0xFFFFFFFF SWAP1 SWAP2 AND DUP2 MSTORE PUSH1 0x20 ADD PUSH2 0x170 JUMP JUMPDEST PUSH2 0x20B PUSH2 0x1F0 CALLDATASIZE PUSH1 0x4 PUSH2 0xA6B JUMP JUMPDEST PUSH1 0x4 PUSH1 0x20 MSTORE PUSH1 0x0 SWAP1 DUP2 MSTORE PUSH1 0x40 SWAP1 KECCAK256 SLOAD PUSH1 0x1 PUSH1 0x1 PUSH1 0xA0 SHL SUB AND DUP2 JUMP JUMPDEST PUSH1 0x40 MLOAD PUSH1 0x1 PUSH1 0x1 PUSH1 0xA0 SHL SUB SWAP1 SWAP2 AND DUP2 MSTORE PUSH1 0x20 ADD PUSH2 0x170 JUMP JUMPDEST PUSH1 0x5 SLOAD PUSH2 0x20B SWAP1 PUSH1 0x1 PUSH1 0x40 SHL SWAP1 DIV PUSH1 0x1 PUSH1 0x1 PUSH1 0xA0 SHL SUB AND DUP2 JUMP JUMPDEST PUSH2 0x246 PUSH1 0x1 SLOAD DUP2 JUMP JUMPDEST PUSH1 0x40 MLOAD SWAP1 DUP2 MSTORE PUSH1 0x20 ADD PUSH2 0x170 JUMP JUMPDEST PUSH2 0x143 PUSH2 0x262 CALLDATASIZE PUSH1 0x4 PUSH2 0xA8D JUMP JUMPDEST PUSH2 0x5FC JUMP JUMPDEST PUSH1 0x5 SLOAD PUSH2 0x27B SWAP1 PUSH1 0x1 PUSH1 0xE0 SHL SWAP1 DIV PUSH1 0xFF AND DUP2 JUMP JUMPDEST PUSH1 0x40 MLOAD SWAP1 ISZERO ISZERO DUP2 MSTORE PUSH1 0x20 ADD PUSH2 0x170 JUMP JUMPDEST PUSH2 0x143 PUSH2 0x299 CALLDATASIZE PUSH1 0x4 PUSH2 0xAB7 JUMP JUMPDEST PUSH2 0x840 JUMP JUMPDEST PUSH2 0x143 PUSH2 0x2AC CALLDATASIZE PUSH1 0x4 PUSH2 0xB27 JUMP JUMPDEST PUSH1 0x3 DUP1 SLOAD PUSH1 0x1 PUSH1 0x1 PUSH1 0xA0 SHL SUB SWAP1 SWAP4 AND PUSH1 0x1 PUSH1 0x1 PUSH1 0xA0 SHL SUB NOT SWAP1 SWAP4 AND SWAP3 SWAP1 SWAP3 OR SWAP1 SWAP2 SSTORE PUSH1 0x2 DUP1 SLOAD PUSH2 0xFFFF SWAP1 SWAP3 AND PUSH1 0x1 PUSH1 0xF0 SHL MUL PUSH1 0x1 PUSH1 0x1 PUSH1 0xF0 SHL SUB SWAP1 SWAP3 AND SWAP2 SWAP1 SWAP2 OR SWAP1 SSTORE JUMP JUMPDEST PUSH1 0x2 SLOAD PUSH2 0x1CD SWAP1 PUSH7 0x1000000000000 SWAP1 DIV PUSH4 0xFFFFFFFF AND DUP2 JUMP JUMPDEST PUSH1 0x3 SLOAD PUSH2 0x20B SWAP1 PUSH1 0x1 PUSH1 0x1 PUSH1 0xA0 SHL SUB AND DUP2 JUMP JUMPDEST PUSH1 0x2 SLOAD PUSH2 0x32C SWAP1 PUSH2 0xFFFF AND DUP2 JUMP JUMPDEST PUSH1 0x40 MLOAD PUSH2 0xFFFF SWAP1 SWAP2 AND DUP2 MSTORE PUSH1 0x20 ADD PUSH2 0x170 JUMP JUMPDEST PUSH1 0x2 SLOAD PUSH2 0x20B SWAP1 PUSH1 0x1 PUSH1 0x50 SHL SWAP1 DIV PUSH1 0x1 PUSH1 0x1 PUSH1 0xA0 SHL SUB AND DUP2 JUMP JUMPDEST PUSH1 0x2 SLOAD PUSH2 0x32C SWAP1 PUSH1 0x1 PUSH1 0xF0 SHL SWAP1 DIV PUSH2 0xFFFF AND DUP2 JUMP JUMPDEST PUSH2 0x3A3 PUSH2 0x37C CALLDATASIZE PUSH1 0x4 PUSH2 0xA6B JUMP JUMPDEST PUSH1 0x1 PUSH1 0x1 PUSH1 0x40 SHL SUB AND PUSH1 0x0 SWAP1 DUP2 MSTORE PUSH1 0x4 PUSH1 0x20 MSTORE PUSH1 0x40 SWAP1 KECCAK256 SLOAD PUSH1 0x1 PUSH1 0x1 PUSH1 0xA0 SHL SUB AND DUP1 ISZERO ISZERO SWAP2 JUMP JUMPDEST PUSH1 0x40 DUP1 MLOAD SWAP3 ISZERO ISZERO DUP4 MSTORE PUSH1 0x1 PUSH1 0x1 PUSH1 0xA0 SHL SUB SWAP1 SWAP2 AND PUSH1 0x20 DUP4 ADD MSTORE ADD PUSH2 0x170 JUMP JUMPDEST PUSH2 0x143 PUSH2 0x3D0 CALLDATASIZE PUSH1 0x4 PUSH2 0xB5C JUMP JUMPDEST PUSH1 0x2 DUP1 SLOAD PUSH1 0x1 PUSH1 0x1 PUSH1 0xA0 SHL SUB SWAP1 SWAP3 AND PUSH1 0x1 PUSH1 0x50 SHL MUL PUSH32 0xFFFF0000000000000000000000000000000000000000FFFFFFFFFFFFFFFFFFFF SWAP1 SWAP3 AND SWAP2 SWAP1 SWAP2 OR SWAP1 SSTORE JUMP JUMPDEST PUSH2 0x143 PUSH2 0x41F CALLDATASIZE PUSH1 0x4 PUSH2 0xB79 JUMP JUMPDEST PUSH2 0x8D8 JUMP JUMPDEST PUSH1 0x2 SLOAD PUSH1 0x1 PUSH1 0x50 SHL SWAP1 DIV PUSH1 0x1 PUSH1 0x1 PUSH1 0xA0 SHL SUB AND CALLER EQ PUSH2 0x483 JUMPI PUSH1 0x40 MLOAD PUSH3 0x461BCD PUSH1 0xE5 SHL DUP2 MSTORE PUSH1 0x20 PUSH1 0x4 DUP3 ADD MSTORE PUSH1 0x16 PUSH1 0x24 DUP3 ADD MSTORE PUSH22 0x13DB9B1E48195B991C1BDA5B9D0818D85B8818D85B1B PUSH1 0x52 SHL PUSH1 0x44 DUP3 ADD MSTORE PUSH1 0x64 ADD JUMPDEST PUSH1 0x40 MLOAD DUP1 SWAP2 SUB SWAP1 REVERT JUMPDEST PUSH1 0x2 SLOAD PUSH2 0xFFFF DUP8 DUP2 AND PUSH1 0x1 PUSH1 0xF0 SHL SWAP1 SWAP3 DIV AND EQ PUSH2 0x4E2 JUMPI PUSH1 0x40 MLOAD PUSH3 0x461BCD PUSH1 0xE5 SHL DUP2 MSTORE PUSH1 0x20 PUSH1 0x4 DUP3 ADD MSTORE PUSH1 0x1A PUSH1 0x24 DUP3 ADD MSTORE PUSH32 0x536F75726365206D75737420626520536F6E696320636861696E000000000000 PUSH1 0x44 DUP3 ADD MSTORE PUSH1 0x64 ADD PUSH2 0x47A JUMP JUMPDEST PUSH1 0x0 DUP1 PUSH2 0x4F1 DUP4 DUP6 ADD DUP6 PUSH2 0xB79 JUMP JUMPDEST PUSH1 0x1 PUSH1 0x1 PUSH1 0x40 SHL SUB DUP3 AND PUSH1 0x0 DUP2 DUP2 MSTORE PUSH1 0x4 PUSH1 0x20 MSTORE PUSH1 0x40 DUP1 DUP3 KECCAK256 DUP1 SLOAD PUSH1 0x1 PUSH1 0x1 PUSH1 0xA0 SHL SUB NOT AND PUSH1 0x1 PUSH1 0x1 PUSH1 0xA0 SHL SUB DUP7 AND SWAP1 DUP2 OR SWAP1 SWAP2 SSTORE PUSH1 0x5 DUP1 SLOAD PUSH1 0x1 PUSH1 0xE0 SHL PUSH1 0x1 PUSH1 0x1 PUSH1 0xE0 SHL SUB NOT SWAP1 SWAP2 AND DUP7 OR PUSH1 0x1 PUSH1 0x40 SHL DUP5 MUL OR PUSH1 0xFF PUSH1 0xE0 SHL NOT AND OR SWAP1 SSTORE SWAP1 MLOAD SWAP5 SWAP7 POP SWAP3 SWAP5 POP SWAP2 SWAP3 SWAP1 SWAP2 PUSH32 0xF09A63F9E06F8E96EC8E1BE5BDFDB17D52CF919BCFE025E59CF8E5C0BD65D35A SWAP2 LOG3 POP POP POP POP POP POP POP POP JUMP JUMPDEST PUSH1 0x5 SLOAD PUSH1 0x0 SWAP1 DUP2 SWAP1 PUSH1 0x1 PUSH1 0xE0 SHL SWAP1 DIV PUSH1 0xFF AND PUSH2 0x5D8 JUMPI PUSH1 0x40 MLOAD PUSH3 0x461BCD PUSH1 0xE5 SHL DUP2 MSTORE PUSH1 0x20 PUSH1 0x4 DUP3 ADD MSTORE PUSH1 0xF PUSH1 0x24 DUP3 ADD MSTORE PUSH15 0x139BC81C995C5D595CDD1CC81E595D PUSH1 0x8A SHL PUSH1 0x44 DUP3 ADD MSTORE PUSH1 0x64 ADD PUSH2 0x47A JUMP JUMPDEST POP POP PUSH1 0x5 SLOAD PUSH1 0x1 PUSH1 0x1 PUSH1 0x40 SHL SUB DUP2 AND SWAP2 PUSH1 0x1 PUSH1 0x40 SHL SWAP1 SWAP2 DIV PUSH1 0x1 PUSH1 0x1 PUSH1 0xA0 SHL SUB AND SWAP1 JUMP JUMPDEST PUSH1 0x1 PUSH1 0x1 PUSH1 0x40 SHL SUB DUP3 AND PUSH1 0x0 SWAP1 DUP2 MSTORE PUSH1 0x4 PUSH1 0x20 MSTORE PUSH1 0x40 SWAP1 KECCAK256 SLOAD PUSH1 0x1 PUSH1 0x1 PUSH1 0xA0 SHL SUB AND DUP1 PUSH2 0x660 JUMPI PUSH1 0x40 MLOAD PUSH3 0x461BCD PUSH1 0xE5 SHL DUP2 MSTORE PUSH1 0x20 PUSH1 0x4 DUP3 ADD MSTORE PUSH1 0x12 PUSH1 0x24 DUP3 ADD MSTORE PUSH18 0x155B9ADB9BDDDB881C995C5D595CDD081251 PUSH1 0x72 SHL PUSH1 0x44 DUP3 ADD MSTORE PUSH1 0x64 ADD PUSH2 0x47A JUMP JUMPDEST PUSH1 0x2 SLOAD PUSH1 0x1 PUSH1 0x50 SHL SWAP1 DIV PUSH1 0x1 PUSH1 0x1 PUSH1 0xA0 SHL SUB AND ISZERO DUP1 ISZERO SWAP1 PUSH2 0x68B JUMPI POP PUSH1 0x3 SLOAD PUSH1 0x1 PUSH1 0x1 PUSH1 0xA0 SHL SUB AND ISZERO ISZERO JUMPDEST ISZERO PUSH2 0x7F8 JUMPI PUSH1 0x40 DUP1 MLOAD PUSH1 0x1 PUSH1 0x1 PUSH1 0x40 SHL SUB DUP6 AND PUSH1 0x20 DUP3 ADD MSTORE PUSH1 0x1 PUSH1 0x1 PUSH1 0xA0 SHL SUB DUP4 DUP2 AND DUP3 DUP5 ADD MSTORE PUSH1 0x60 DUP1 DUP4 ADD DUP7 SWAP1 MSTORE DUP4 MLOAD DUP1 DUP5 SUB DUP3 ADD DUP2 MSTORE PUSH1 0x80 DUP5 ADD DUP6 MSTORE PUSH1 0x2 SLOAD ADDRESS SWAP1 SWAP3 SHL PUSH12 0xFFFFFFFFFFFFFFFFFFFFFFFF NOT AND PUSH1 0xA0 DUP6 ADD MSTORE DUP5 MLOAD PUSH1 0x94 DUP2 DUP7 SUB ADD DUP2 MSTORE PUSH1 0xB4 DUP6 ADD SWAP1 SWAP6 MSTORE SWAP4 PUSH1 0x0 SWAP4 PUSH1 0x1 PUSH1 0x50 SHL DUP4 DIV SWAP1 SWAP4 AND SWAP3 PUSH2 0x722 SWAP3 PUSH2 0xFFFF PUSH1 0x1 PUSH1 0xF0 SHL SWAP1 SWAP2 DIV AND SWAP2 SWAP1 DUP6 SWAP1 DUP8 SWAP1 PUSH1 0xD8 ADD PUSH2 0xC00 JUMP JUMPDEST PUSH1 0x40 DUP1 MLOAD PUSH1 0x1F NOT DUP2 DUP5 SUB ADD DUP2 MSTORE SWAP2 DUP2 MSTORE PUSH1 0x20 DUP3 ADD DUP1 MLOAD PUSH1 0x1 PUSH1 0x1 PUSH1 0xE0 SHL SUB AND PUSH4 0x243E1E67 PUSH1 0xE0 SHL OR SWAP1 MSTORE MLOAD PUSH2 0x757 SWAP2 SWAP1 PUSH2 0xC43 JUMP JUMPDEST PUSH1 0x0 PUSH1 0x40 MLOAD DUP1 DUP4 SUB DUP2 PUSH1 0x0 DUP7 GAS CALL SWAP2 POP POP RETURNDATASIZE DUP1 PUSH1 0x0 DUP2 EQ PUSH2 0x794 JUMPI PUSH1 0x40 MLOAD SWAP2 POP PUSH1 0x1F NOT PUSH1 0x3F RETURNDATASIZE ADD AND DUP3 ADD PUSH1 0x40 MSTORE RETURNDATASIZE DUP3 MSTORE RETURNDATASIZE PUSH1 0x0 PUSH1 0x20 DUP5 ADD RETURNDATACOPY PUSH2 0x799 JUMP JUMPDEST PUSH1 0x60 SWAP2 POP JUMPDEST POP POP SWAP1 POP DUP1 PUSH2 0x7F5 JUMPI PUSH1 0x40 MLOAD PUSH3 0x461BCD PUSH1 0xE5 SHL DUP2 MSTORE PUSH1 0x20 PUSH1 0x4 DUP3 ADD MSTORE PUSH1 0x22 PUSH1 0x24 DUP3 ADD MSTORE PUSH32 0x4661696C656420746F2073656E642063726F73732D636861696E206D65737361 PUSH1 0x44 DUP3 ADD MSTORE PUSH2 0x6765 PUSH1 0xF0 SHL PUSH1 0x64 DUP3 ADD MSTORE PUSH1 0x84 ADD PUSH2 0x47A JUMP JUMPDEST POP POP JUMPDEST DUP3 PUSH1 0x1 PUSH1 0x1 PUSH1 0x40 SHL SUB AND PUSH32 0x27A63DF837E5CBE7A78DFC6B69A2A47E9BA4C1D88F4BA0F9534DF652FCFBA360 DUP4 PUSH1 0x40 MLOAD PUSH2 0x833 SWAP2 DUP2 MSTORE PUSH1 0x20 ADD SWAP1 JUMP JUMPDEST PUSH1 0x40 MLOAD DUP1 SWAP2 SUB SWAP1 LOG2 POP POP POP JUMP JUMPDEST PUSH1 0x0 DUP1 SLOAD PUSH8 0xFFFFFFFFFFFFFFFF NOT AND PUSH1 0x1 PUSH1 0x1 PUSH1 0x40 SHL SUB DUP7 AND SWAP1 DUP2 OR SWAP1 SWAP2 SSTORE PUSH1 0x1 DUP5 SWAP1 SSTORE PUSH1 0x2 DUP1 SLOAD PUSH2 0xFFFF DUP6 AND PUSH6 0xFFFFFFFFFFFF NOT SWAP1 SWAP2 AND DUP2 OR PUSH3 0x10000 PUSH4 0xFFFFFFFF DUP7 AND SWAP1 DUP2 MUL SWAP2 SWAP1 SWAP2 OR SWAP1 SWAP3 SSTORE PUSH1 0x40 DUP1 MLOAD SWAP4 DUP5 MSTORE PUSH1 0x20 DUP5 ADD DUP8 SWAP1 MSTORE DUP4 ADD MSTORE PUSH1 0x60 DUP3 ADD MSTORE PUSH32 0x9EECBDE1C3CCEA349424F9DAF100C58C90C4AF33B7F8F8E1BEF739591A5D6EC5 SWAP1 PUSH1 0x80 ADD PUSH1 0x40 MLOAD DUP1 SWAP2 SUB SWAP1 LOG1 POP POP POP POP JUMP JUMPDEST PUSH1 0x1 PUSH1 0x1 PUSH1 0x40 SHL SUB DUP3 AND PUSH1 0x0 DUP2 DUP2 MSTORE PUSH1 0x4 PUSH1 0x20 MSTORE PUSH1 0x40 DUP1 DUP3 KECCAK256 DUP1 SLOAD PUSH1 0x1 PUSH1 0x1 PUSH1 0xA0 SHL SUB NOT AND PUSH1 0x1 PUSH1 0x1 PUSH1 0xA0 SHL SUB DUP7 AND SWAP1 DUP2 OR SWAP1 SWAP2 SSTORE PUSH1 0x5 DUP1 SLOAD PUSH1 0x1 PUSH1 0xE0 SHL PUSH1 0x1 PUSH1 0x1 PUSH1 0xE0 SHL SUB NOT SWAP1 SWAP2 AND DUP7 OR PUSH1 0x1 PUSH1 0x40 SHL DUP5 MUL OR PUSH1 0xFF PUSH1 0xE0 SHL NOT AND OR SWAP1 SSTORE SWAP1 MLOAD SWAP1 SWAP3 SWAP2 PUSH32 0xF09A63F9E06F8E96EC8E1BE5BDFDB17D52CF919BCFE025E59CF8E5C0BD65D35A SWAP2 LOG3 POP POP JUMP JUMPDEST DUP1 CALLDATALOAD PUSH2 0xFFFF DUP2 AND DUP2 EQ PUSH2 0x974 JUMPI PUSH1 0x0 DUP1 REVERT JUMPDEST SWAP2 SWAP1 POP JUMP JUMPDEST PUSH1 0x0 DUP1 DUP4 PUSH1 0x1F DUP5 ADD SLT PUSH2 0x98B JUMPI PUSH1 0x0 DUP1 REVERT JUMPDEST POP DUP2 CALLDATALOAD PUSH1 0x1 PUSH1 0x1 PUSH1 0x40 SHL SUB DUP2 GT ISZERO PUSH2 0x9A2 JUMPI PUSH1 0x0 DUP1 REVERT JUMPDEST PUSH1 0x20 DUP4 ADD SWAP2 POP DUP4 PUSH1 0x20 DUP3 DUP6 ADD ADD GT ISZERO PUSH2 0x9BA JUMPI PUSH1 0x0 DUP1 REVERT JUMPDEST SWAP3 POP SWAP3 SWAP1 POP JUMP JUMPDEST DUP1 CALLDATALOAD PUSH1 0x1 PUSH1 0x1 PUSH1 0x40 SHL SUB DUP2 AND DUP2 EQ PUSH2 0x974 JUMPI PUSH1 0x0 DUP1 REVERT JUMPDEST PUSH1 0x0 DUP1 PUSH1 0x0 DUP1 PUSH1 0x0 DUP1 PUSH1 0x80 DUP8 DUP10 SUB SLT ISZERO PUSH2 0x9F1 JUMPI PUSH1 0x0 DUP1 REVERT JUMPDEST PUSH2 0x9FA DUP8 PUSH2 0x962 JUMP JUMPDEST SWAP6 POP PUSH1 0x20 DUP8 ADD CALLDATALOAD PUSH1 0x1 PUSH1 0x1 PUSH1 0x40 SHL SUB DUP1 DUP3 GT ISZERO PUSH2 0xA16 JUMPI PUSH1 0x0 DUP1 REVERT JUMPDEST PUSH2 0xA22 DUP11 DUP4 DUP12 ADD PUSH2 0x979 JUMP JUMPDEST SWAP1 SWAP8 POP SWAP6 POP DUP6 SWAP2 POP PUSH2 0xA36 PUSH1 0x40 DUP11 ADD PUSH2 0x9C1 JUMP JUMPDEST SWAP5 POP PUSH1 0x60 DUP10 ADD CALLDATALOAD SWAP2 POP DUP1 DUP3 GT ISZERO PUSH2 0xA4C JUMPI PUSH1 0x0 DUP1 REVERT JUMPDEST POP PUSH2 0xA59 DUP10 DUP3 DUP11 ADD PUSH2 0x979 JUMP JUMPDEST SWAP8 SWAP11 SWAP7 SWAP10 POP SWAP5 SWAP8 POP SWAP3 SWAP6 SWAP4 SWAP5 SWAP3 POP POP POP JUMP JUMPDEST PUSH1 0x0 PUSH1 0x20 DUP3 DUP5 SUB SLT ISZERO PUSH2 0xA7D JUMPI PUSH1 0x0 DUP1 REVERT JUMPDEST PUSH2 0xA86 DUP3 PUSH2 0x9C1 JUMP JUMPDEST SWAP4 SWAP3 POP POP POP JUMP JUMPDEST PUSH1 0x0 DUP1 PUSH1 0x40 DUP4 DUP6 SUB SLT ISZERO PUSH2 0xAA0 JUMPI PUSH1 0x0 DUP1 REVERT JUMPDEST PUSH2 0xAA9 DUP4 PUSH2 0x9C1 JUMP JUMPDEST SWAP5 PUSH1 0x20 SWAP4 SWAP1 SWAP4 ADD CALLDATALOAD SWAP4 POP POP POP JUMP JUMPDEST PUSH1 0x0 DUP1 PUSH1 0x0 DUP1 PUSH1 0x80 DUP6 DUP8 SUB SLT ISZERO PUSH2 0xACD JUMPI PUSH1 0x0 DUP1 REVERT JUMPDEST PUSH2 0xAD6 DUP6 PUSH2 0x9C1 JUMP JUMPDEST SWAP4 POP PUSH1 0x20 DUP6 ADD CALLDATALOAD SWAP3 POP PUSH2 0xAEB PUSH1 0x40 DUP7 ADD PUSH2 0x962 JUMP JUMPDEST SWAP2 POP PUSH1 0x60 DUP6 ADD CALLDATALOAD PUSH4 0xFFFFFFFF DUP2 AND DUP2 EQ PUSH2 0xB04 JUMPI PUSH1 0x0 DUP1 REVERT JUMPDEST SWAP4 SWAP7 SWAP3 SWAP6 POP SWAP1 SWAP4 POP POP JUMP JUMPDEST PUSH1 0x1 PUSH1 0x1 PUSH1 0xA0 SHL SUB DUP2 AND DUP2 EQ PUSH2 0xB24 JUMPI PUSH1 0x0 DUP1 REVERT JUMPDEST POP JUMP JUMPDEST PUSH1 0x0 DUP1 PUSH1 0x40 DUP4 DUP6 SUB SLT ISZERO PUSH2 0xB3A JUMPI PUSH1 0x0 DUP1 REVERT JUMPDEST DUP3 CALLDATALOAD PUSH2 0xB45 DUP2 PUSH2 0xB0F JUMP JUMPDEST SWAP2 POP PUSH2 0xB53 PUSH1 0x20 DUP5 ADD PUSH2 0x962 JUMP JUMPDEST SWAP1 POP SWAP3 POP SWAP3 SWAP1 POP JUMP JUMPDEST PUSH1 0x0 PUSH1 0x20 DUP3 DUP5 SUB SLT ISZERO PUSH2 0xB6E JUMPI PUSH1 0x0 DUP1 REVERT JUMPDEST DUP2 CALLDATALOAD PUSH2 0xA86 DUP2 PUSH2 0xB0F JUMP JUMPDEST PUSH1 0x0 DUP1 PUSH1 0x40 DUP4 DUP6 SUB SLT ISZERO PUSH2 0xB8C JUMPI PUSH1 0x0 DUP1 REVERT JUMPDEST PUSH2 0xB95 DUP4 PUSH2 0x9C1 JUMP JUMPDEST SWAP2 POP PUSH1 0x20 DUP4 ADD CALLDATALOAD PUSH2 0xBA5 DUP2 PUSH2 0xB0F JUMP JUMPDEST DUP1 SWAP2 POP POP SWAP3 POP SWAP3 SWAP1 POP JUMP JUMPDEST PUSH1 0x0 JUMPDEST DUP4 DUP2 LT ISZERO PUSH2 0xBCB JUMPI DUP2 DUP2 ADD MLOAD DUP4 DUP3 ADD MSTORE PUSH1 0x20 ADD PUSH2 0xBB3 JUMP JUMPDEST POP POP PUSH1 0x0 SWAP2 ADD MSTORE JUMP JUMPDEST PUSH1 0x0 DUP2 MLOAD DUP1 DUP5 MSTORE PUSH2 0xBEC DUP2 PUSH1 0x20 DUP7 ADD PUSH1 0x20 DUP7 ADD PUSH2 0xBB0 JUMP JUMPDEST PUSH1 0x1F ADD PUSH1 0x1F NOT AND SWAP3 SWAP1 SWAP3 ADD PUSH1 0x20 ADD SWAP3 SWAP2 POP POP JUMP JUMPDEST PUSH2 0xFFFF DUP6 AND DUP2 MSTORE PUSH1 0x80 PUSH1 0x20 DUP3 ADD MSTORE PUSH1 0x0 PUSH2 0xC1D PUSH1 0x80 DUP4 ADD DUP7 PUSH2 0xBD4 JUMP JUMPDEST PUSH1 0xFF DUP6 AND PUSH1 0x40 DUP5 ADD MSTORE DUP3 DUP2 SUB PUSH1 0x60 DUP5 ADD MSTORE PUSH2 0xC38 DUP2 DUP6 PUSH2 0xBD4 JUMP JUMPDEST SWAP8 SWAP7 POP POP POP POP POP POP POP JUMP JUMPDEST PUSH1 0x0 DUP3 MLOAD PUSH2 0xC55 DUP2 DUP5 PUSH1 0x20 DUP8 ADD PUSH2 0xBB0 JUMP JUMPDEST SWAP2 SWAP1 SWAP2 ADD SWAP3 SWAP2 POP POP JUMP INVALID LOG2 PUSH5 0x6970667358 0x22 SLT KECCAK256 0x21 0xF9 PUSH8 0x98811724E6AF31E0 0xE8 MSIZE 0xE8 PUSH32 0x2E995FCADB48804F3AC254F66586AADA7964736F6C6343000814003300000000 "},"methodIdentifiers":{"callbackGasLimit()":"24f74697","getLatestRequest()":"03ef5662","getRequest(uint64)":"cbbf67ec","hasRequest()":"73bc9dcf","keyHash()":"61728f39","latestRequestId()":"1aa46f59","latestRequestUser()":"4923f5a6","lzEndpoint()":"b353aaa7","lzReceive(uint16,bytes,uint64,bytes)":"001d3567","numWords()":"7ccfd7fc","requestConfirmations()":"b0fb162f","requests(uint64)":"411010ec","setLzEndpoint(address)":"d9331a11","setSonicVRFConsumer(address,uint16)":"796be316","setVRFConfig(uint64,bytes32,uint16,uint32)":"75beaf51","simulateFulfillRandomness(uint64,uint256)":"6a9feffd","sonicChainId()":"c2835971","sonicVRFConsumer()":"902a1ee2","storeRequest(uint64,address)":"ed2ab31a","subscriptionId()":"09c1ba2e"}}}}}