{
  "_format": "hh-sol-artifact-1",
  "contractName": "Simplifiedve69LPFeeDistributor",
  "sourceName": "contracts/test/Simplifiedve69LPFeeDistributor.sol",
  "abi": [
    {
      "inputs": [
        {
          "internalType": "address",
          "name": "_ve69LPToken",
          "type": "address"
        },
        {
          "internalType": "address",
          "name": "_wrappedSonic",
          "type": "address"
        }
      ],
      "stateMutability": "nonpayable",
      "type": "constructor"
    },
    {
      "anonymous": false,
      "inputs": [
        {
          "indexed": true,
          "internalType": "address",
          "name": "previousOwner",
          "type": "address"
        },
        {
          "indexed": true,
          "internalType": "address",
          "name": "newOwner",
          "type": "address"
        }
      ],
      "name": "OwnershipTransferred",
      "type": "event"
    },
    {
      "anonymous": false,
      "inputs": [
        {
          "indexed": true,
          "internalType": "address",
          "name": "user",
          "type": "address"
        },
        {
          "indexed": false,
          "internalType": "uint256",
          "name": "amount",
          "type": "uint256"
        },
        {
          "indexed": false,
          "internalType": "uint256",
          "name": "fromEpoch",
          "type": "uint256"
        },
        {
          "indexed": false,
          "internalType": "uint256",
          "name": "toEpoch",
          "type": "uint256"
        }
      ],
      "name": "RewardsClaimed",
      "type": "event"
    },
    {
      "anonymous": false,
      "inputs": [
        {
          "indexed": false,
          "internalType": "uint256",
          "name": "amount",
          "type": "uint256"
        },
        {
          "indexed": false,
          "internalType": "uint256",
          "name": "epoch",
          "type": "uint256"
        }
      ],
      "name": "RewardsDistributed",
      "type": "event"
    },
    {
      "inputs": [],
      "name": "advanceEpoch",
      "outputs": [],
      "stateMutability": "nonpayable",
      "type": "function"
    },
    {
      "inputs": [
        {
          "internalType": "address",
          "name": "_user",
          "type": "address"
        },
        {
          "internalType": "uint256",
          "name": "_epoch",
          "type": "uint256"
        }
      ],
      "name": "calculateUserReward",
      "outputs": [
        {
          "internalType": "uint256",
          "name": "",
          "type": "uint256"
        }
      ],
      "stateMutability": "view",
      "type": "function"
    },
    {
      "inputs": [
        {
          "internalType": "address",
          "name": "_user",
          "type": "address"
        }
      ],
      "name": "claimRewards",
      "outputs": [],
      "stateMutability": "nonpayable",
      "type": "function"
    },
    {
      "inputs": [],
      "name": "epoch",
      "outputs": [
        {
          "internalType": "uint256",
          "name": "",
          "type": "uint256"
        }
      ],
      "stateMutability": "view",
      "type": "function"
    },
    {
      "inputs": [
        {
          "internalType": "uint256",
          "name": "",
          "type": "uint256"
        }
      ],
      "name": "epochRewards",
      "outputs": [
        {
          "internalType": "uint256",
          "name": "",
          "type": "uint256"
        }
      ],
      "stateMutability": "view",
      "type": "function"
    },
    {
      "inputs": [
        {
          "internalType": "address",
          "name": "",
          "type": "address"
        }
      ],
      "name": "lastClaimedEpoch",
      "outputs": [
        {
          "internalType": "uint256",
          "name": "",
          "type": "uint256"
        }
      ],
      "stateMutability": "view",
      "type": "function"
    },
    {
      "inputs": [],
      "name": "owner",
      "outputs": [
        {
          "internalType": "address",
          "name": "",
          "type": "address"
        }
      ],
      "stateMutability": "view",
      "type": "function"
    },
    {
      "inputs": [
        {
          "internalType": "uint256",
          "name": "_amount",
          "type": "uint256"
        }
      ],
      "name": "receiveRewards",
      "outputs": [],
      "stateMutability": "nonpayable",
      "type": "function"
    },
    {
      "inputs": [],
      "name": "renounceOwnership",
      "outputs": [],
      "stateMutability": "nonpayable",
      "type": "function"
    },
    {
      "inputs": [],
      "name": "totalDistributed",
      "outputs": [
        {
          "internalType": "uint256",
          "name": "",
          "type": "uint256"
        }
      ],
      "stateMutability": "view",
      "type": "function"
    },
    {
      "inputs": [
        {
          "internalType": "address",
          "name": "newOwner",
          "type": "address"
        }
      ],
      "name": "transferOwnership",
      "outputs": [],
      "stateMutability": "nonpayable",
      "type": "function"
    },
    {
      "inputs": [],
      "name": "ve69LPToken",
      "outputs": [
        {
          "internalType": "address",
          "name": "",
          "type": "address"
        }
      ],
      "stateMutability": "view",
      "type": "function"
    },
    {
      "inputs": [],
      "name": "wrappedSonic",
      "outputs": [
        {
          "internalType": "address",
          "name": "",
          "type": "address"
        }
      ],
      "stateMutability": "view",
      "type": "function"
    }
  ],
  "bytecode": "0x608060405234801561001057600080fd5b50604051610c7a380380610c7a83398101604081905261002f91610181565b61003833610115565b6001600160a01b0382166100935760405162461bcd60e51b815260206004820152601660248201527f496e76616c696420766536394c5020616464726573730000000000000000000060448201526064015b60405180910390fd5b6001600160a01b0381166100de5760405162461bcd60e51b8152602060048201526012602482015271496e76616c6964207753206164647265737360701b604482015260640161008a565b600180546001600160a01b039384166001600160a01b031991821617825560028054939094169216919091179091556004556101b4565b600080546001600160a01b038381166001600160a01b0319831681178455604051919092169283917f8be0079c531659141344cd1fd0a4f28419497f9722a3daafe3b4186f6b6457e09190a35050565b80516001600160a01b038116811461017c57600080fd5b919050565b6000806040838503121561019457600080fd5b61019d83610165565b91506101ab60208401610165565b90509250929050565b610ab7806101c36000396000f3fe608060405234801561001057600080fd5b50600436106100cf5760003560e01c8063c69b20851161008c578063ef5cfb8c11610066578063ef5cfb8c14610193578063efca2eed146101a6578063f2fde38b146101af578063f41c33e9146101c257600080fd5b8063c69b20851461015a578063ce75d5651461016d578063d77868da1461018057600080fd5b80633cf80e6c146100d45780634dc47d34146100de578063715018a61461011157806386798f76146101195780638da5cb5b1461012c578063900cf0cf14610151575b600080fd5b6100dc6101e2565b005b6100fe6100ec3660046108f4565b60056020526000908152604090205481565b6040519081526020015b60405180910390f35b6100dc610204565b6100fe610127366004610929565b610218565b6000546001600160a01b03165b6040516001600160a01b039091168152602001610108565b6100fe60045481565b600154610139906001600160a01b031681565b600254610139906001600160a01b031681565b6100dc61018e3660046108f4565b610259565b6100dc6101a1366004610953565b610345565b6100fe60035481565b6100dc6101bd366004610953565b6104c6565b6100fe6101d0366004610953565b60066020526000908152604090205481565b6101ea61053f565b6001600460008282546101fd9190610984565b9091555050565b61020c61053f565b6102166000610599565b565b600081815260056020526040812054810361023557506000610253565b60008281526005602052604090205461025090600a90610997565b90505b92915050565b600081116102ae5760405162461bcd60e51b815260206004820152601d60248201527f416d6f756e74206d7573742062652067726561746572207468616e203000000060448201526064015b60405180910390fd5b6002546102c6906001600160a01b03163330846105e9565b600454600090815260056020526040812080548392906102e7908490610984565b9250508190555080600360008282546103009190610984565b90915550506004546040805183815260208101929092527f29e98ba00d07f171959c4ddcd2f3020debc7c52cf537a034d7e664340d098c6c910160405180910390a150565b6001600160a01b0381166000908152600660205260408120549081900361036a575060015b60045481106103bb5760405162461bcd60e51b815260206004820152601760248201527f4e6f206e6577207265776172647320746f20636c61696d00000000000000000060448201526064016102a5565b6000815b6004548110156103f1576103d38482610218565b6103dd9083610984565b9150806103e9816109b9565b9150506103bf565b50600081116104385760405162461bcd60e51b81526020600482015260136024820152724e6f207265776172647320746f20636c61696d60681b60448201526064016102a5565b6004546001600160a01b038085166000908152600660205260409020919091556002546104679116848361065a565b826001600160a01b03167f56253d287efacdb2c4cd76dd03624a4821c1ce721d1152e8f5f5718f6087c9bf828460016004546104a391906109d2565b6040805193845260208401929092529082015260600160405180910390a2505050565b6104ce61053f565b6001600160a01b0381166105335760405162461bcd60e51b815260206004820152602660248201527f4f776e61626c653a206e6577206f776e657220697320746865207a65726f206160448201526564647265737360d01b60648201526084016102a5565b61053c81610599565b50565b6000546001600160a01b031633146102165760405162461bcd60e51b815260206004820181905260248201527f4f776e61626c653a2063616c6c6572206973206e6f7420746865206f776e657260448201526064016102a5565b600080546001600160a01b038381166001600160a01b0319831681178455604051919092169283917f8be0079c531659141344cd1fd0a4f28419497f9722a3daafe3b4186f6b6457e09190a35050565b6040516001600160a01b03808516602483015283166044820152606481018290526106549085906323b872dd60e01b906084015b60408051601f198184030181529190526020810180516001600160e01b03166001600160e01b03199093169290921790915261068f565b50505050565b6040516001600160a01b03831660248201526044810182905261068a90849063a9059cbb60e01b9060640161061d565b505050565b60006106e4826040518060400160405280602081526020017f5361666545524332303a206c6f772d6c6576656c2063616c6c206661696c6564815250856001600160a01b03166107649092919063ffffffff16565b905080516000148061070557508080602001905181019061070591906109e5565b61068a5760405162461bcd60e51b815260206004820152602a60248201527f5361666545524332303a204552433230206f7065726174696f6e20646964206e6044820152691bdd081cdd58d8d9595960b21b60648201526084016102a5565b6060610773848460008561077b565b949350505050565b6060824710156107dc5760405162461bcd60e51b815260206004820152602660248201527f416464726573733a20696e73756666696369656e742062616c616e636520666f6044820152651c8818d85b1b60d21b60648201526084016102a5565b600080866001600160a01b031685876040516107f89190610a32565b60006040518083038185875af1925050503d8060008114610835576040519150601f19603f3d011682016040523d82523d6000602084013e61083a565b606091505b509150915061084b87838387610856565b979650505050505050565b606083156108c55782516000036108be576001600160a01b0385163b6108be5760405162461bcd60e51b815260206004820152601d60248201527f416464726573733a2063616c6c20746f206e6f6e2d636f6e747261637400000060448201526064016102a5565b5081610773565b61077383838151156108da5781518083602001fd5b8060405162461bcd60e51b81526004016102a59190610a4e565b60006020828403121561090657600080fd5b5035919050565b80356001600160a01b038116811461092457600080fd5b919050565b6000806040838503121561093c57600080fd5b6109458361090d565b946020939093013593505050565b60006020828403121561096557600080fd5b6102508261090d565b634e487b7160e01b600052601160045260246000fd5b808201808211156102535761025361096e565b6000826109b457634e487b7160e01b600052601260045260246000fd5b500490565b6000600182016109cb576109cb61096e565b5060010190565b818103818111156102535761025361096e565b6000602082840312156109f757600080fd5b81518015158114610a0757600080fd5b9392505050565b60005b83811015610a29578181015183820152602001610a11565b50506000910152565b60008251610a44818460208701610a0e565b9190910192915050565b6020815260008251806020840152610a6d816040850160208701610a0e565b601f01601f1916919091016040019291505056fea264697066735822122073c18178b4307558df8eb3e316be8d5c9c502eee864ff392b878a746fc54ca9264736f6c63430008140033",
  "linkReferences": {},
  "deployedLinkReferences": {}
}