{
  "_format": "hh-sol-artifact-1",
  "contractName": "SimplifiedJackpotVault",
  "sourceName": "contracts/test/SimplifiedJackpotVault.sol",
  "abi": [
    {
      "inputs": [
        {
          "internalType": "address",
          "name": "_wrappedSonic",
          "type": "address"
        },
        {
          "internalType": "address",
          "name": "_owner",
          "type": "address"
        }
      ],
      "stateMutability": "nonpayable",
      "type": "constructor"
    },
    {
      "anonymous": false,
      "inputs": [
        {
          "indexed": true,
          "internalType": "address",
          "name": "winner",
          "type": "address"
        },
        {
          "indexed": false,
          "internalType": "uint256",
          "name": "amount",
          "type": "uint256"
        }
      ],
      "name": "JackpotAwarded",
      "type": "event"
    },
    {
      "anonymous": false,
      "inputs": [
        {
          "indexed": false,
          "internalType": "uint256",
          "name": "amount",
          "type": "uint256"
        },
        {
          "indexed": false,
          "internalType": "uint256",
          "name": "newTotal",
          "type": "uint256"
        }
      ],
      "name": "JackpotIncreased",
      "type": "event"
    },
    {
      "anonymous": false,
      "inputs": [
        {
          "indexed": true,
          "internalType": "address",
          "name": "previousOwner",
          "type": "address"
        },
        {
          "indexed": true,
          "internalType": "address",
          "name": "newOwner",
          "type": "address"
        }
      ],
      "name": "OwnershipTransferred",
      "type": "event"
    },
    {
      "anonymous": false,
      "inputs": [
        {
          "indexed": false,
          "internalType": "address",
          "name": "tokenAddress",
          "type": "address"
        }
      ],
      "name": "TokenAddressSet",
      "type": "event"
    },
    {
      "inputs": [
        {
          "internalType": "uint256",
          "name": "_amount",
          "type": "uint256"
        }
      ],
      "name": "addToJackpot",
      "outputs": [],
      "stateMutability": "nonpayable",
      "type": "function"
    },
    {
      "inputs": [
        {
          "internalType": "address",
          "name": "_winner",
          "type": "address"
        },
        {
          "internalType": "uint256",
          "name": "_amount",
          "type": "uint256"
        }
      ],
      "name": "awardJackpot",
      "outputs": [],
      "stateMutability": "nonpayable",
      "type": "function"
    },
    {
      "inputs": [],
      "name": "dragonToken",
      "outputs": [
        {
          "internalType": "address",
          "name": "",
          "type": "address"
        }
      ],
      "stateMutability": "view",
      "type": "function"
    },
    {
      "inputs": [],
      "name": "getJackpotAmount",
      "outputs": [
        {
          "internalType": "uint256",
          "name": "",
          "type": "uint256"
        }
      ],
      "stateMutability": "view",
      "type": "function"
    },
    {
      "inputs": [],
      "name": "jackpotAmount",
      "outputs": [
        {
          "internalType": "uint256",
          "name": "",
          "type": "uint256"
        }
      ],
      "stateMutability": "view",
      "type": "function"
    },
    {
      "inputs": [],
      "name": "owner",
      "outputs": [
        {
          "internalType": "address",
          "name": "",
          "type": "address"
        }
      ],
      "stateMutability": "view",
      "type": "function"
    },
    {
      "inputs": [],
      "name": "renounceOwnership",
      "outputs": [],
      "stateMutability": "nonpayable",
      "type": "function"
    },
    {
      "inputs": [
        {
          "internalType": "address",
          "name": "_tokenAddress",
          "type": "address"
        }
      ],
      "name": "setTokenAddress",
      "outputs": [],
      "stateMutability": "nonpayable",
      "type": "function"
    },
    {
      "inputs": [
        {
          "internalType": "address",
          "name": "newOwner",
          "type": "address"
        }
      ],
      "name": "transferOwnership",
      "outputs": [],
      "stateMutability": "nonpayable",
      "type": "function"
    },
    {
      "inputs": [],
      "name": "wrappedSonic",
      "outputs": [
        {
          "internalType": "address",
          "name": "",
          "type": "address"
        }
      ],
      "stateMutability": "view",
      "type": "function"
    }
  ],
  "bytecode": "0x608060405234801561001057600080fd5b50604051610c49380380610c4983398101604081905261002f916101f4565b610038336100b3565b6001600160a01b0382166100885760405162461bcd60e51b8152602060048201526012602482015271496e76616c6964207753206164647265737360701b60448201526064015b60405180910390fd5b600180546001600160a01b0319166001600160a01b0384161790556100ac81610103565b5050610227565b600080546001600160a01b038381166001600160a01b0319831681178455604051919092169283917f8be0079c531659141344cd1fd0a4f28419497f9722a3daafe3b4186f6b6457e09190a35050565b61010b61017c565b6001600160a01b0381166101705760405162461bcd60e51b815260206004820152602660248201527f4f776e61626c653a206e6577206f776e657220697320746865207a65726f206160448201526564647265737360d01b606482015260840161007f565b610179816100b3565b50565b6000546001600160a01b031633146101d65760405162461bcd60e51b815260206004820181905260248201527f4f776e61626c653a2063616c6c6572206973206e6f7420746865206f776e6572604482015260640161007f565b565b80516001600160a01b03811681146101ef57600080fd5b919050565b6000806040838503121561020757600080fd5b610210836101d8565b915061021e602084016101d8565b90509250929050565b610a13806102366000396000f3fe608060405234801561001057600080fd5b506004361061009e5760003560e01c8063b1eac37e11610066578063b1eac37e14610114578063b7b503521461012b578063ce75d5651461013e578063ed8b655614610151578063f2fde38b1461015957600080fd5b80630e42323b146100a357806326a4e8d2146100d3578063684e786f146100e8578063715018a6146100fb5780638da5cb5b14610103575b600080fd5b6002546100b6906001600160a01b031681565b6040516001600160a01b0390911681526020015b60405180910390f35b6100e66100e13660046108a1565b61016c565b005b6100e66100f63660046108c3565b61021c565b6100e661038a565b6000546001600160a01b03166100b6565b61011d60035481565b6040519081526020016100ca565b6100e66101393660046108ed565b61039e565b6001546100b6906001600160a01b031681565b60035461011d565b6100e66101673660046108a1565b610457565b6101746104d0565b6001600160a01b0381166101c75760405162461bcd60e51b8152602060048201526015602482015274496e76616c696420746f6b656e206164647265737360581b60448201526064015b60405180910390fd5b600280546001600160a01b0319166001600160a01b0383169081179091556040519081527fd82cad5fdc98633445b90f806f2e1a61a5409f92187ee9cd87f1da18c9069266906020015b60405180910390a150565b6102246104d0565b6001600160a01b0382166102735760405162461bcd60e51b8152602060048201526016602482015275496e76616c69642077696e6e6572206164647265737360501b60448201526064016101be565b600081116102c35760405162461bcd60e51b815260206004820152601d60248201527f416d6f756e74206d7573742062652067726561746572207468616e203000000060448201526064016101be565b6003548111156103155760405162461bcd60e51b815260206004820152601a60248201527f496e73756666696369656e74206a61636b706f742066756e647300000000000060448201526064016101be565b8060036000828254610327919061091c565b9091555050600154610343906001600160a01b0316838361052a565b816001600160a01b03167fc42c61c2d12c0229e818b1c076309b970ff23983d35fe17fa50b702be1e0c73e8260405161037e91815260200190565b60405180910390a25050565b6103926104d0565b61039c6000610592565b565b600081116103ee5760405162461bcd60e51b815260206004820152601d60248201527f416d6f756e74206d7573742062652067726561746572207468616e203000000060448201526064016101be565b600154610406906001600160a01b03163330846105e2565b80600360008282546104189190610935565b90915550506003546040805183815260208101929092527fb0d06ccaa4821f41669bcc9a049d35783663cd32e846ae89a27dc9835330ce1a9101610211565b61045f6104d0565b6001600160a01b0381166104c45760405162461bcd60e51b815260206004820152602660248201527f4f776e61626c653a206e6577206f776e657220697320746865207a65726f206160448201526564647265737360d01b60648201526084016101be565b6104cd81610592565b50565b6000546001600160a01b0316331461039c5760405162461bcd60e51b815260206004820181905260248201527f4f776e61626c653a2063616c6c6572206973206e6f7420746865206f776e657260448201526064016101be565b6040516001600160a01b03831660248201526044810182905261058d90849063a9059cbb60e01b906064015b60408051601f198184030181529190526020810180516001600160e01b03166001600160e01b031990931692909217909152610620565b505050565b600080546001600160a01b038381166001600160a01b0319831681178455604051919092169283917f8be0079c531659141344cd1fd0a4f28419497f9722a3daafe3b4186f6b6457e09190a35050565b6040516001600160a01b038085166024830152831660448201526064810182905261061a9085906323b872dd60e01b90608401610556565b50505050565b6000610675826040518060400160405280602081526020017f5361666545524332303a206c6f772d6c6576656c2063616c6c206661696c6564815250856001600160a01b03166106f59092919063ffffffff16565b90508051600014806106965750808060200190518101906106969190610948565b61058d5760405162461bcd60e51b815260206004820152602a60248201527f5361666545524332303a204552433230206f7065726174696f6e20646964206e6044820152691bdd081cdd58d8d9595960b21b60648201526084016101be565b6060610704848460008561070c565b949350505050565b60608247101561076d5760405162461bcd60e51b815260206004820152602660248201527f416464726573733a20696e73756666696369656e742062616c616e636520666f6044820152651c8818d85b1b60d21b60648201526084016101be565b600080866001600160a01b03168587604051610789919061098e565b60006040518083038185875af1925050503d80600081146107c6576040519150601f19603f3d011682016040523d82523d6000602084013e6107cb565b606091505b50915091506107dc878383876107e7565b979650505050505050565b6060831561085657825160000361084f576001600160a01b0385163b61084f5760405162461bcd60e51b815260206004820152601d60248201527f416464726573733a2063616c6c20746f206e6f6e2d636f6e747261637400000060448201526064016101be565b5081610704565b610704838381511561086b5781518083602001fd5b8060405162461bcd60e51b81526004016101be91906109aa565b80356001600160a01b038116811461089c57600080fd5b919050565b6000602082840312156108b357600080fd5b6108bc82610885565b9392505050565b600080604083850312156108d657600080fd5b6108df83610885565b946020939093013593505050565b6000602082840312156108ff57600080fd5b5035919050565b634e487b7160e01b600052601160045260246000fd5b8181038181111561092f5761092f610906565b92915050565b8082018082111561092f5761092f610906565b60006020828403121561095a57600080fd5b815180151581146108bc57600080fd5b60005b8381101561098557818101518382015260200161096d565b50506000910152565b600082516109a081846020870161096a565b9190910192915050565b60208152600082518060208401526109c981604085016020870161096a565b601f01601f1916919091016040019291505056fea2646970667358221220e3591aed33b6135c5d04863d62140ab00075d8106d861c0bbf00aa9c74cecb0e64736f6c63430008140033",
  "linkReferences": {},
  "deployedLinkReferences": {}
}