{
  "_format": "hh-sol-artifact-1",
  "contractName": "DragonPartnerRegistry",
  "sourceName": "contracts_temp/DragonPartnerRegistry.sol",
  "abi": [
    {
      "anonymous": false,
      "inputs": [
        {
          "indexed": true,
          "internalType": "address",
          "name": "distributor",
          "type": "address"
        },
        {
          "indexed": false,
          "internalType": "bool",
          "name": "isAuthorized",
          "type": "bool"
        }
      ],
      "name": "DistributorAuthorized",
      "type": "event"
    },
    {
      "anonymous": false,
      "inputs": [
        {
          "indexed": false,
          "internalType": "uint256",
          "name": "newMaxFeeShare",
          "type": "uint256"
        }
      ],
      "name": "MaxFeeShareUpdated",
      "type": "event"
    },
    {
      "anonymous": false,
      "inputs": [
        {
          "indexed": true,
          "internalType": "address",
          "name": "previousOwner",
          "type": "address"
        },
        {
          "indexed": true,
          "internalType": "address",
          "name": "newOwner",
          "type": "address"
        }
      ],
      "name": "OwnershipTransferred",
      "type": "event"
    },
    {
      "anonymous": false,
      "inputs": [
        {
          "indexed": true,
          "internalType": "uint256",
          "name": "partnerId",
          "type": "uint256"
        },
        {
          "indexed": true,
          "internalType": "address",
          "name": "partnerAddress",
          "type": "address"
        },
        {
          "indexed": false,
          "internalType": "string",
          "name": "name",
          "type": "string"
        },
        {
          "indexed": false,
          "internalType": "uint256",
          "name": "feeShare",
          "type": "uint256"
        }
      ],
      "name": "PartnerAdded",
      "type": "event"
    },
    {
      "anonymous": false,
      "inputs": [
        {
          "indexed": true,
          "internalType": "uint256",
          "name": "partnerId",
          "type": "uint256"
        },
        {
          "indexed": true,
          "internalType": "address",
          "name": "token",
          "type": "address"
        },
        {
          "indexed": false,
          "internalType": "uint256",
          "name": "amount",
          "type": "uint256"
        }
      ],
      "name": "PartnerFeeDistributed",
      "type": "event"
    },
    {
      "anonymous": false,
      "inputs": [
        {
          "indexed": true,
          "internalType": "uint256",
          "name": "partnerId",
          "type": "uint256"
        },
        {
          "indexed": false,
          "internalType": "uint256",
          "name": "feeShare",
          "type": "uint256"
        },
        {
          "indexed": false,
          "internalType": "bool",
          "name": "isActive",
          "type": "bool"
        }
      ],
      "name": "PartnerUpdated",
      "type": "event"
    },
    {
      "inputs": [
        {
          "internalType": "address",
          "name": "_partnerAddress",
          "type": "address"
        },
        {
          "internalType": "string",
          "name": "_name",
          "type": "string"
        },
        {
          "internalType": "uint256",
          "name": "_feeShare",
          "type": "uint256"
        }
      ],
      "name": "addPartner",
      "outputs": [
        {
          "internalType": "uint256",
          "name": "partnerId",
          "type": "uint256"
        }
      ],
      "stateMutability": "nonpayable",
      "type": "function"
    },
    {
      "inputs": [
        {
          "internalType": "address",
          "name": "",
          "type": "address"
        }
      ],
      "name": "authorizedDistributors",
      "outputs": [
        {
          "internalType": "bool",
          "name": "",
          "type": "bool"
        }
      ],
      "stateMutability": "view",
      "type": "function"
    },
    {
      "inputs": [
        {
          "internalType": "uint256",
          "name": "_partnerId",
          "type": "uint256"
        }
      ],
      "name": "getPartner",
      "outputs": [
        {
          "internalType": "address",
          "name": "partnerAddress",
          "type": "address"
        },
        {
          "internalType": "string",
          "name": "name",
          "type": "string"
        },
        {
          "internalType": "uint256",
          "name": "feeShare",
          "type": "uint256"
        },
        {
          "internalType": "bool",
          "name": "isActive",
          "type": "bool"
        },
        {
          "internalType": "uint256",
          "name": "totalFeesEarned",
          "type": "uint256"
        }
      ],
      "stateMutability": "view",
      "type": "function"
    },
    {
      "inputs": [
        {
          "internalType": "address",
          "name": "_address",
          "type": "address"
        }
      ],
      "name": "getPartnerFeeShare",
      "outputs": [
        {
          "internalType": "uint256",
          "name": "",
          "type": "uint256"
        }
      ],
      "stateMutability": "view",
      "type": "function"
    },
    {
      "inputs": [
        {
          "internalType": "address",
          "name": "_address",
          "type": "address"
        }
      ],
      "name": "getPartnerIdByAddress",
      "outputs": [
        {
          "internalType": "uint256",
          "name": "",
          "type": "uint256"
        }
      ],
      "stateMutability": "view",
      "type": "function"
    },
    {
      "inputs": [
        {
          "internalType": "address",
          "name": "_address",
          "type": "address"
        }
      ],
      "name": "isApprovedPartner",
      "outputs": [
        {
          "internalType": "bool",
          "name": "",
          "type": "bool"
        }
      ],
      "stateMutability": "view",
      "type": "function"
    },
    {
      "inputs": [],
      "name": "maxFeeShare",
      "outputs": [
        {
          "internalType": "uint256",
          "name": "",
          "type": "uint256"
        }
      ],
      "stateMutability": "view",
      "type": "function"
    },
    {
      "inputs": [],
      "name": "nextPartnerId",
      "outputs": [
        {
          "internalType": "uint256",
          "name": "",
          "type": "uint256"
        }
      ],
      "stateMutability": "view",
      "type": "function"
    },
    {
      "inputs": [],
      "name": "owner",
      "outputs": [
        {
          "internalType": "address",
          "name": "",
          "type": "address"
        }
      ],
      "stateMutability": "view",
      "type": "function"
    },
    {
      "inputs": [
        {
          "internalType": "address",
          "name": "",
          "type": "address"
        }
      ],
      "name": "partnerIdByAddress",
      "outputs": [
        {
          "internalType": "uint256",
          "name": "",
          "type": "uint256"
        }
      ],
      "stateMutability": "view",
      "type": "function"
    },
    {
      "inputs": [
        {
          "internalType": "uint256",
          "name": "",
          "type": "uint256"
        }
      ],
      "name": "partners",
      "outputs": [
        {
          "internalType": "address",
          "name": "partnerAddress",
          "type": "address"
        },
        {
          "internalType": "string",
          "name": "name",
          "type": "string"
        },
        {
          "internalType": "uint256",
          "name": "feeShare",
          "type": "uint256"
        },
        {
          "internalType": "bool",
          "name": "isActive",
          "type": "bool"
        },
        {
          "internalType": "uint256",
          "name": "totalFeesEarned",
          "type": "uint256"
        },
        {
          "internalType": "uint256",
          "name": "createdAt",
          "type": "uint256"
        }
      ],
      "stateMutability": "view",
      "type": "function"
    },
    {
      "inputs": [
        {
          "internalType": "uint256",
          "name": "_partnerId",
          "type": "uint256"
        },
        {
          "internalType": "address",
          "name": "_token",
          "type": "address"
        },
        {
          "internalType": "uint256",
          "name": "_amount",
          "type": "uint256"
        }
      ],
      "name": "recordFeeDistribution",
      "outputs": [],
      "stateMutability": "nonpayable",
      "type": "function"
    },
    {
      "inputs": [],
      "name": "renounceOwnership",
      "outputs": [],
      "stateMutability": "nonpayable",
      "type": "function"
    },
    {
      "inputs": [
        {
          "internalType": "address",
          "name": "_distributor",
          "type": "address"
        },
        {
          "internalType": "bool",
          "name": "_isAuthorized",
          "type": "bool"
        }
      ],
      "name": "setDistributorAuthorization",
      "outputs": [],
      "stateMutability": "nonpayable",
      "type": "function"
    },
    {
      "inputs": [
        {
          "internalType": "uint256",
          "name": "_maxFeeShare",
          "type": "uint256"
        }
      ],
      "name": "setMaxFeeShare",
      "outputs": [],
      "stateMutability": "nonpayable",
      "type": "function"
    },
    {
      "inputs": [
        {
          "internalType": "address",
          "name": "newOwner",
          "type": "address"
        }
      ],
      "name": "transferOwnership",
      "outputs": [],
      "stateMutability": "nonpayable",
      "type": "function"
    },
    {
      "inputs": [
        {
          "internalType": "uint256",
          "name": "_partnerId",
          "type": "uint256"
        },
        {
          "internalType": "uint256",
          "name": "_feeShare",
          "type": "uint256"
        },
        {
          "internalType": "bool",
          "name": "_isActive",
          "type": "bool"
        }
      ],
      "name": "updatePartner",
      "outputs": [],
      "stateMutability": "nonpayable",
      "type": "function"
    }
  ],
  "bytecode": "0x6080604052600160035561138860055534801561001b57600080fd5b506100253361002a565b61007a565b600080546001600160a01b038381166001600160a01b0319831681178455604051919092169283917f8be0079c531659141344cd1fd0a4f28419497f9722a3daafe3b4186f6b6457e09190a35050565b611070806100896000396000f3fe608060405234801561001057600080fd5b506004361061010b5760003560e01c80638da5cb5b116100a2578063ad7cb6b911610071578063ad7cb6b914610243578063c3b49d0414610256578063e0370d2c1461027b578063e718232c1461029b578063f2fde38b146102a457600080fd5b80638da5cb5b146101ef578063929ad6331461020a5780639b0919501461021d578063ad2daf7d1461023057600080fd5b806368b0f714116100de57806368b0f71414610177578063715018a6146101a05780637fc96619146101a85780638d1696c9146101cc57600080fd5b80630d7d72411461011057806312845c921461012557806332391f4d1461014d5780634d80045514610160575b600080fd5b61012361011e366004610b8c565b6102b7565b005b610138610133366004610bc1565b610351565b60405190151581526020015b60405180910390f35b61012361015b366004610bf3565b610395565b61016960035481565b604051908152602001610144565b610169610185366004610bc1565b6001600160a01b031660009081526002602052604090205490565b610123610459565b6101bb6101b6366004610b8c565b61046d565b604051610144959493929190610c6e565b6101386101da366004610bc1565b60046020526000908152604090205460ff1681565b6000546040516001600160a01b039091168152602001610144565b610123610218366004610caf565b610575565b61016961022b366004610bc1565b6105dc565b61016961023e366004610ce2565b61063a565b610123610251366004610d6b565b610898565b610269610264366004610b8c565b61099c565b60405161014496959493929190610da0565b610169610289366004610bc1565b60026020526000908152604090205481565b61016960055481565b6101236102b2366004610bc1565b610a69565b6102bf610ae2565b6127108111156103165760405162461bcd60e51b815260206004820181905260248201527f4d6178206665652073686172652063616e6e6f7420657863656564203130302560448201526064015b60405180910390fd5b60058190556040518181527f0a260f13c1c737283ccbf940cf3ef1be5b65ede1eaa5ce607572ee0175e972599060200160405180910390a150565b6001600160a01b03811660009081526002602052604081205480820361037a5750600092915050565b60009081526001602052604090206003015460ff1692915050565b61039d610ae2565b6000838152600160205260409020546001600160a01b03166103d15760405162461bcd60e51b815260040161030d90610de9565b6005548211156103f35760405162461bcd60e51b815260040161030d90610e19565b60008381526001602090815260409182902060028101859055600301805460ff191684151590811790915582518581529182015284917fd4394f614406b115e003ed7edd3a2e6ef354f247f9ee97382f1cd2659186550b910160405180910390a2505050565b610461610ae2565b61046b6000610b3c565b565b600081815260016020526040812080546060918391829182916001600160a01b03166104ab5760405162461bcd60e51b815260040161030d90610de9565b80546002820154600383015460048401546001850180546001600160a01b039095169490939260ff16919084906104e190610e5a565b80601f016020809104026020016040519081016040528092919081815260200182805461050d90610e5a565b801561055a5780601f1061052f5761010080835404028352916020019161055a565b820191906000526020600020905b81548152906001019060200180831161053d57829003601f168201915b50505050509350955095509550955095505091939590929450565b61057d610ae2565b6001600160a01b038216600081815260046020908152604091829020805460ff191685151590811790915591519182527f3bfd3629c8447b9a1f24b8192c2691dd632d637b6376b59829ede197d3bfadcb910160405180910390a25050565b6001600160a01b038116600090815260026020526040812054801580610614575060008181526001602052604090206003015460ff16155b156106225750600092915050565b60009081526001602052604090206002015492915050565b6000610644610ae2565b6001600160a01b03851661069a5760405162461bcd60e51b815260206004820152601e60248201527f506172746e657220616464726573732063616e6e6f74206265207a65726f0000604482015260640161030d565b6005548211156106bc5760405162461bcd60e51b815260040161030d90610e19565b6001600160a01b038516600090815260026020526040902054156107335760405162461bcd60e51b815260206004820152602860248201527f506172746e657220776974682074686973206164647265737320616c72656164604482015267792065786973747360c01b606482015260840161030d565b6003805490600061074383610eaa565b9190505590506040518060c00160405280866001600160a01b0316815260200185858080601f0160208091040260200160405190810160405280939291908181526020018383808284376000920182905250938552505050602080830186905260016040808501829052606085018490524260809095019490945285835280825292909120835181546001600160a01b0319166001600160a01b039091161781559083015190918201906107f79082610f28565b50604082810151600283810191909155606084015160038401805460ff19169115159190911790556080840151600484015560a0909301516005909201919091556001600160a01b0387166000818152602093909352918190208390555182907f045db55fa1bd68de20fed4b3a63c879fc470c0a8b461a163043f2bcf9d35cfa19061088890889088908890610fe8565b60405180910390a3949350505050565b6000546001600160a01b03163314806108c057503360009081526004602052604090205460ff165b6108fd5760405162461bcd60e51b815260206004820152600e60248201526d139bdd08185d5d1a1bdc9a5e995960921b604482015260640161030d565b6000838152600160205260409020546001600160a01b03166109315760405162461bcd60e51b815260040161030d90610de9565b60008381526001602052604081206004018054839290610952908490611021565b90915550506040518181526001600160a01b0383169084907fa0261153b69e62ec90df1cf79e143193b3262c21ebe293315d555715e9b83de09060200160405180910390a3505050565b6001602081905260009182526040909120805491810180546001600160a01b03909316926109c990610e5a565b80601f01602080910402602001604051908101604052809291908181526020018280546109f590610e5a565b8015610a425780601f10610a1757610100808354040283529160200191610a42565b820191906000526020600020905b815481529060010190602001808311610a2557829003601f168201915b505050506002830154600384015460048501546005909501549394919360ff909116925086565b610a71610ae2565b6001600160a01b038116610ad65760405162461bcd60e51b815260206004820152602660248201527f4f776e61626c653a206e6577206f776e657220697320746865207a65726f206160448201526564647265737360d01b606482015260840161030d565b610adf81610b3c565b50565b6000546001600160a01b0316331461046b5760405162461bcd60e51b815260206004820181905260248201527f4f776e61626c653a2063616c6c6572206973206e6f7420746865206f776e6572604482015260640161030d565b600080546001600160a01b038381166001600160a01b0319831681178455604051919092169283917f8be0079c531659141344cd1fd0a4f28419497f9722a3daafe3b4186f6b6457e09190a35050565b600060208284031215610b9e57600080fd5b5035919050565b80356001600160a01b0381168114610bbc57600080fd5b919050565b600060208284031215610bd357600080fd5b610bdc82610ba5565b9392505050565b80358015158114610bbc57600080fd5b600080600060608486031215610c0857600080fd5b8335925060208401359150610c1f60408501610be3565b90509250925092565b6000815180845260005b81811015610c4e57602081850181015186830182015201610c32565b506000602082860101526020601f19601f83011685010191505092915050565b6001600160a01b038616815260a060208201819052600090610c9290830187610c28565b604083019590955250911515606083015260809091015292915050565b60008060408385031215610cc257600080fd5b610ccb83610ba5565b9150610cd960208401610be3565b90509250929050565b60008060008060608587031215610cf857600080fd5b610d0185610ba5565b9350602085013567ffffffffffffffff80821115610d1e57600080fd5b818701915087601f830112610d3257600080fd5b813581811115610d4157600080fd5b886020828501011115610d5357600080fd5b95986020929092019750949560400135945092505050565b600080600060608486031215610d8057600080fd5b83359250610d9060208501610ba5565b9150604084013590509250925092565b6001600160a01b038716815260c060208201819052600090610dc490830188610c28565b6040830196909652509215156060840152608083019190915260a09091015292915050565b60208082526016908201527514185c9d1b995c88191bd95cc81b9bdd08195e1a5cdd60521b604082015260600190565b60208082526021908201527f4665652073686172652065786365656473206d6178696d756d20616c6c6f77656040820152601960fa1b606082015260800190565b600181811c90821680610e6e57607f821691505b602082108103610e8e57634e487b7160e01b600052602260045260246000fd5b50919050565b634e487b7160e01b600052601160045260246000fd5b600060018201610ebc57610ebc610e94565b5060010190565b634e487b7160e01b600052604160045260246000fd5b601f821115610f2357600081815260208120601f850160051c81016020861015610f005750805b601f850160051c820191505b81811015610f1f57828155600101610f0c565b5050505b505050565b815167ffffffffffffffff811115610f4257610f42610ec3565b610f5681610f508454610e5a565b84610ed9565b602080601f831160018114610f8b5760008415610f735750858301515b600019600386901b1c1916600185901b178555610f1f565b600085815260208120601f198616915b82811015610fba57888601518255948401946001909101908401610f9b565b5085821015610fd85787850151600019600388901b60f8161c191681555b5050505050600190811b01905550565b604081528260408201528284606083013760006060848301015260006060601f19601f8601168301019050826020830152949350505050565b8082018082111561103457611034610e94565b9291505056fea2646970667358221220c435d90b73a1a994870c0fa8a090cc1ecc5b854af3fcb6a36676c9d8fc64a7f064736f6c63430008140033",
  "linkReferences": {},
  "deployedLinkReferences": {}
}