{
  "_format": "hh-sol-artifact-1",
  "contractName": "UniswapV3PriceUtils",
  "sourceName": "contracts/utils/UniswapV3PriceUtils.sol",
  "abi": [
    {
      "inputs": [],
      "name": "MAX_TICK",
      "outputs": [
        {
          "internalType": "int24",
          "name": "",
          "type": "int24"
        }
      ],
      "stateMutability": "view",
      "type": "function"
    },
    {
      "inputs": [],
      "name": "MIN_TICK",
      "outputs": [
        {
          "internalType": "int24",
          "name": "",
          "type": "int24"
        }
      ],
      "stateMutability": "view",
      "type": "function"
    },
    {
      "inputs": [],
      "name": "Q96",
      "outputs": [
        {
          "internalType": "uint256",
          "name": "",
          "type": "uint256"
        }
      ],
      "stateMutability": "view",
      "type": "function"
    },
    {
      "inputs": [],
      "name": "TICK_BASE",
      "outputs": [
        {
          "internalType": "uint256",
          "name": "",
          "type": "uint256"
        }
      ],
      "stateMutability": "view",
      "type": "function"
    }
  ],
  "bytecode": "0x60dc610039600b82828239805160001a60731461002c57634e487b7160e01b600052600060045260246000fd5b30600052607381538281f3fe730000000000000000000000000000000000000000301460806040526004361060515760003560e01c8063407924651460565780636882a8881460735780636ea8153614608e578063a1634b1414609c575b600080fd5b6060600160601b81565b6040519081526020015b60405180910390f35b607c620d89e881565b60405160029190910b8152602001606a565b6060670de111a6b7de400081565b607c620d89e7198156fea2646970667358221220565fb66d995c191542209985fa7b8718a9d22fb33624b51f760f7d80cecf06f364736f6c63430008140033",
  "linkReferences": {},
  "deployedLinkReferences": {}
}