{
  "_format": "hh-sol-artifact-1",
  "contractName": "SimplifiedDragon",
  "sourceName": "contracts/test/SimplifiedDragon.sol",
  "abi": [
    {
      "inputs": [
        {
          "internalType": "string",
          "name": "name_",
          "type": "string"
        },
        {
          "internalType": "string",
          "name": "symbol_",
          "type": "string"
        },
        {
          "internalType": "uint256",
          "name": "initialSupply",
          "type": "uint256"
        },
        {
          "internalType": "address",
          "name": "_jackpotVault",
          "type": "address"
        },
        {
          "internalType": "address",
          "name": "_ve69LPFeeDistributor",
          "type": "address"
        },
        {
          "internalType": "address",
          "name": "_wrappedSonicAddress",
          "type": "address"
        }
      ],
      "stateMutability": "nonpayable",
      "type": "constructor"
    },
    {
      "anonymous": false,
      "inputs": [
        {
          "indexed": true,
          "internalType": "address",
          "name": "owner",
          "type": "address"
        },
        {
          "indexed": true,
          "internalType": "address",
          "name": "spender",
          "type": "address"
        },
        {
          "indexed": false,
          "internalType": "uint256",
          "name": "value",
          "type": "uint256"
        }
      ],
      "name": "Approval",
      "type": "event"
    },
    {
      "anonymous": false,
      "inputs": [
        {
          "indexed": true,
          "internalType": "address",
          "name": "recipient",
          "type": "address"
        },
        {
          "indexed": false,
          "internalType": "uint256",
          "name": "amount",
          "type": "uint256"
        },
        {
          "indexed": false,
          "internalType": "string",
          "name": "feeType",
          "type": "string"
        }
      ],
      "name": "FeeTransferred",
      "type": "event"
    },
    {
      "anonymous": false,
      "inputs": [
        {
          "indexed": false,
          "internalType": "string",
          "name": "feeType",
          "type": "string"
        },
        {
          "indexed": false,
          "internalType": "uint256",
          "name": "jackpotFee",
          "type": "uint256"
        },
        {
          "indexed": false,
          "internalType": "uint256",
          "name": "ve69LPFee",
          "type": "uint256"
        },
        {
          "indexed": false,
          "internalType": "uint256",
          "name": "burnFee",
          "type": "uint256"
        },
        {
          "indexed": false,
          "internalType": "uint256",
          "name": "totalFee",
          "type": "uint256"
        }
      ],
      "name": "FeesUpdated",
      "type": "event"
    },
    {
      "anonymous": false,
      "inputs": [
        {
          "indexed": true,
          "internalType": "address",
          "name": "previousOwner",
          "type": "address"
        },
        {
          "indexed": true,
          "internalType": "address",
          "name": "newOwner",
          "type": "address"
        }
      ],
      "name": "OwnershipTransferred",
      "type": "event"
    },
    {
      "anonymous": false,
      "inputs": [
        {
          "indexed": true,
          "internalType": "address",
          "name": "from",
          "type": "address"
        },
        {
          "indexed": true,
          "internalType": "address",
          "name": "to",
          "type": "address"
        },
        {
          "indexed": false,
          "internalType": "uint256",
          "name": "value",
          "type": "uint256"
        }
      ],
      "name": "Transfer",
      "type": "event"
    },
    {
      "inputs": [
        {
          "internalType": "address",
          "name": "owner",
          "type": "address"
        },
        {
          "internalType": "address",
          "name": "spender",
          "type": "address"
        }
      ],
      "name": "allowance",
      "outputs": [
        {
          "internalType": "uint256",
          "name": "",
          "type": "uint256"
        }
      ],
      "stateMutability": "view",
      "type": "function"
    },
    {
      "inputs": [
        {
          "internalType": "address",
          "name": "spender",
          "type": "address"
        },
        {
          "internalType": "uint256",
          "name": "amount",
          "type": "uint256"
        }
      ],
      "name": "approve",
      "outputs": [
        {
          "internalType": "bool",
          "name": "",
          "type": "bool"
        }
      ],
      "stateMutability": "nonpayable",
      "type": "function"
    },
    {
      "inputs": [
        {
          "internalType": "address",
          "name": "account",
          "type": "address"
        }
      ],
      "name": "balanceOf",
      "outputs": [
        {
          "internalType": "uint256",
          "name": "",
          "type": "uint256"
        }
      ],
      "stateMutability": "view",
      "type": "function"
    },
    {
      "inputs": [
        {
          "internalType": "uint256",
          "name": "amount",
          "type": "uint256"
        }
      ],
      "name": "burn",
      "outputs": [],
      "stateMutability": "nonpayable",
      "type": "function"
    },
    {
      "inputs": [],
      "name": "buyFees",
      "outputs": [
        {
          "internalType": "uint256",
          "name": "jackpotFee",
          "type": "uint256"
        },
        {
          "internalType": "uint256",
          "name": "ve69LPFee",
          "type": "uint256"
        },
        {
          "internalType": "uint256",
          "name": "burnFee",
          "type": "uint256"
        },
        {
          "internalType": "uint256",
          "name": "totalFee",
          "type": "uint256"
        }
      ],
      "stateMutability": "view",
      "type": "function"
    },
    {
      "inputs": [],
      "name": "decimals",
      "outputs": [
        {
          "internalType": "uint8",
          "name": "",
          "type": "uint8"
        }
      ],
      "stateMutability": "view",
      "type": "function"
    },
    {
      "inputs": [
        {
          "internalType": "address",
          "name": "spender",
          "type": "address"
        },
        {
          "internalType": "uint256",
          "name": "subtractedValue",
          "type": "uint256"
        }
      ],
      "name": "decreaseAllowance",
      "outputs": [
        {
          "internalType": "bool",
          "name": "",
          "type": "bool"
        }
      ],
      "stateMutability": "nonpayable",
      "type": "function"
    },
    {
      "inputs": [
        {
          "internalType": "address",
          "name": "account",
          "type": "address"
        },
        {
          "internalType": "bool",
          "name": "excluded",
          "type": "bool"
        }
      ],
      "name": "excludeFromFees",
      "outputs": [],
      "stateMutability": "nonpayable",
      "type": "function"
    },
    {
      "inputs": [],
      "name": "getBuyFees",
      "outputs": [
        {
          "internalType": "uint256",
          "name": "jackpotFee",
          "type": "uint256"
        },
        {
          "internalType": "uint256",
          "name": "ve69LPFee",
          "type": "uint256"
        },
        {
          "internalType": "uint256",
          "name": "burnFee",
          "type": "uint256"
        },
        {
          "internalType": "uint256",
          "name": "totalFee",
          "type": "uint256"
        }
      ],
      "stateMutability": "view",
      "type": "function"
    },
    {
      "inputs": [],
      "name": "getSellFees",
      "outputs": [
        {
          "internalType": "uint256",
          "name": "jackpotFee",
          "type": "uint256"
        },
        {
          "internalType": "uint256",
          "name": "ve69LPFee",
          "type": "uint256"
        },
        {
          "internalType": "uint256",
          "name": "burnFee",
          "type": "uint256"
        },
        {
          "internalType": "uint256",
          "name": "totalFee",
          "type": "uint256"
        }
      ],
      "stateMutability": "view",
      "type": "function"
    },
    {
      "inputs": [
        {
          "internalType": "address",
          "name": "spender",
          "type": "address"
        },
        {
          "internalType": "uint256",
          "name": "addedValue",
          "type": "uint256"
        }
      ],
      "name": "increaseAllowance",
      "outputs": [
        {
          "internalType": "bool",
          "name": "",
          "type": "bool"
        }
      ],
      "stateMutability": "nonpayable",
      "type": "function"
    },
    {
      "inputs": [
        {
          "internalType": "address",
          "name": "",
          "type": "address"
        }
      ],
      "name": "isExcludedFromFees",
      "outputs": [
        {
          "internalType": "bool",
          "name": "",
          "type": "bool"
        }
      ],
      "stateMutability": "view",
      "type": "function"
    },
    {
      "inputs": [],
      "name": "jackpotVault",
      "outputs": [
        {
          "internalType": "address",
          "name": "",
          "type": "address"
        }
      ],
      "stateMutability": "view",
      "type": "function"
    },
    {
      "inputs": [
        {
          "internalType": "address",
          "name": "to",
          "type": "address"
        },
        {
          "internalType": "uint256",
          "name": "amount",
          "type": "uint256"
        }
      ],
      "name": "mint",
      "outputs": [],
      "stateMutability": "nonpayable",
      "type": "function"
    },
    {
      "inputs": [],
      "name": "name",
      "outputs": [
        {
          "internalType": "string",
          "name": "",
          "type": "string"
        }
      ],
      "stateMutability": "view",
      "type": "function"
    },
    {
      "inputs": [],
      "name": "owner",
      "outputs": [
        {
          "internalType": "address",
          "name": "",
          "type": "address"
        }
      ],
      "stateMutability": "view",
      "type": "function"
    },
    {
      "inputs": [],
      "name": "renounceOwnership",
      "outputs": [],
      "stateMutability": "nonpayable",
      "type": "function"
    },
    {
      "inputs": [],
      "name": "sellFees",
      "outputs": [
        {
          "internalType": "uint256",
          "name": "jackpotFee",
          "type": "uint256"
        },
        {
          "internalType": "uint256",
          "name": "ve69LPFee",
          "type": "uint256"
        },
        {
          "internalType": "uint256",
          "name": "burnFee",
          "type": "uint256"
        },
        {
          "internalType": "uint256",
          "name": "totalFee",
          "type": "uint256"
        }
      ],
      "stateMutability": "view",
      "type": "function"
    },
    {
      "inputs": [
        {
          "internalType": "uint256",
          "name": "_jackpotFee",
          "type": "uint256"
        },
        {
          "internalType": "uint256",
          "name": "_ve69LPFee",
          "type": "uint256"
        },
        {
          "internalType": "uint256",
          "name": "_burnFee",
          "type": "uint256"
        }
      ],
      "name": "setBuyFees",
      "outputs": [],
      "stateMutability": "nonpayable",
      "type": "function"
    },
    {
      "inputs": [
        {
          "internalType": "uint256",
          "name": "_jackpotFee",
          "type": "uint256"
        },
        {
          "internalType": "uint256",
          "name": "_ve69LPFee",
          "type": "uint256"
        },
        {
          "internalType": "uint256",
          "name": "_burnFee",
          "type": "uint256"
        }
      ],
      "name": "setSellFees",
      "outputs": [],
      "stateMutability": "nonpayable",
      "type": "function"
    },
    {
      "inputs": [],
      "name": "symbol",
      "outputs": [
        {
          "internalType": "string",
          "name": "",
          "type": "string"
        }
      ],
      "stateMutability": "view",
      "type": "function"
    },
    {
      "inputs": [],
      "name": "totalSupply",
      "outputs": [
        {
          "internalType": "uint256",
          "name": "",
          "type": "uint256"
        }
      ],
      "stateMutability": "view",
      "type": "function"
    },
    {
      "inputs": [
        {
          "internalType": "address",
          "name": "to",
          "type": "address"
        },
        {
          "internalType": "uint256",
          "name": "amount",
          "type": "uint256"
        }
      ],
      "name": "transfer",
      "outputs": [
        {
          "internalType": "bool",
          "name": "",
          "type": "bool"
        }
      ],
      "stateMutability": "nonpayable",
      "type": "function"
    },
    {
      "inputs": [
        {
          "internalType": "address",
          "name": "from",
          "type": "address"
        },
        {
          "internalType": "address",
          "name": "to",
          "type": "address"
        },
        {
          "internalType": "uint256",
          "name": "amount",
          "type": "uint256"
        }
      ],
      "name": "transferFrom",
      "outputs": [
        {
          "internalType": "bool",
          "name": "",
          "type": "bool"
        }
      ],
      "stateMutability": "nonpayable",
      "type": "function"
    },
    {
      "inputs": [
        {
          "internalType": "address",
          "name": "newOwner",
          "type": "address"
        }
      ],
      "name": "transferOwnership",
      "outputs": [],
      "stateMutability": "nonpayable",
      "type": "function"
    },
    {
      "inputs": [],
      "name": "ve69LPFeeDistributor",
      "outputs": [
        {
          "internalType": "address",
          "name": "",
          "type": "address"
        }
      ],
      "stateMutability": "view",
      "type": "function"
    },
    {
      "inputs": [],
      "name": "wrappedSonicAddress",
      "outputs": [
        {
          "internalType": "address",
          "name": "",
          "type": "address"
        }
      ],
      "stateMutability": "view",
      "type": "function"
    }
  ],
  "bytecode": "0x6102b2608081905260f160a0819052604560c08190526103e860e08190526009849055600a839055600b829055600c819055610180604052610100849052610120839052610140829052610160819052600d93909355600e91909155600f556010553480156200006e57600080fd5b5060405162001796380380620017968339810160408190526200009191620004b3565b85856003620000a18382620005eb565b506004620000b08282620005eb565b505050620000cd620000c7620002b360201b60201c565b620002b7565b6001600160a01b038316620001355760405162461bcd60e51b8152602060048201526024808201527f4a61636b706f74207661756c742063616e6e6f74206265207a65726f206164646044820152637265737360e01b60648201526084015b60405180910390fd5b6001600160a01b038216620001a35760405162461bcd60e51b815260206004820152602d60248201527f766536394c5020666565206469737472696275746f722063616e6e6f7420626560448201526c207a65726f206164647265737360981b60648201526084016200012c565b6001600160a01b038116620002105760405162461bcd60e51b815260206004820152602c60248201527f5772617070656420536f6e696320616464726573732063616e6e6f742062652060448201526b7a65726f206164647265737360a01b60648201526084016200012c565b600680546001600160a01b038581166001600160a01b0319928316811790935560078054868316908416811790915560088054928616929093169190911790915530600090815260116020526040808220805460ff199081166001908117909255338085528385208054831684179055958452828420805482168317905593835291208054909216179055620002a7908562000309565b505050505050620006df565b3390565b600580546001600160a01b038381166001600160a01b0319831681179093556040519116919082907f8be0079c531659141344cd1fd0a4f28419497f9722a3daafe3b4186f6b6457e090600090a35050565b6001600160a01b038216620003615760405162461bcd60e51b815260206004820152601f60248201527f45524332303a206d696e7420746f20746865207a65726f20616464726573730060448201526064016200012c565b8060026000828254620003759190620006b7565b90915550506001600160a01b038216600081815260208181526040808320805486019055518481527fddf252ad1be2c89b69c2b068fc378daa952ba7f163c4a11628f55a4df523b3ef910160405180910390a35050565b505050565b634e487b7160e01b600052604160045260246000fd5b600082601f830112620003f957600080fd5b81516001600160401b0380821115620004165762000416620003d1565b604051601f8301601f19908116603f01168101908282118183101715620004415762000441620003d1565b816040528381526020925086838588010111156200045e57600080fd5b600091505b8382101562000482578582018301518183018401529082019062000463565b600093810190920192909252949350505050565b80516001600160a01b0381168114620004ae57600080fd5b919050565b60008060008060008060c08789031215620004cd57600080fd5b86516001600160401b0380821115620004e557600080fd5b620004f38a838b01620003e7565b975060208901519150808211156200050a57600080fd5b506200051989828a01620003e7565b95505060408701519350620005316060880162000496565b9250620005416080880162000496565b91506200055160a0880162000496565b90509295509295509295565b600181811c908216806200057257607f821691505b6020821081036200059357634e487b7160e01b600052602260045260246000fd5b50919050565b601f821115620003cc57600081815260208120601f850160051c81016020861015620005c25750805b601f850160051c820191505b81811015620005e357828155600101620005ce565b505050505050565b81516001600160401b03811115620006075762000607620003d1565b6200061f816200061884546200055d565b8462000599565b602080601f8311600181146200065757600084156200063e5750858301515b600019600386901b1c1916600185901b178555620005e3565b600085815260208120601f198616915b82811015620006885788860151825594840194600190910190840162000667565b5085821015620006a75787850151600019600388901b60f8161c191681555b5050505050600190811b01905550565b80820180821115620006d957634e487b7160e01b600052601160045260246000fd5b92915050565b6110a780620006ef6000396000f3fe608060405234801561001057600080fd5b50600436106101a95760003560e01c8063685fc568116100f9578063ac22b93911610097578063dd62ed3e11610071578063dd62ed3e146103b5578063e0f3ccf5146103c8578063e4748b9e146103de578063f2fde38b146103f457600080fd5b8063ac22b9391461037c578063c02466681461038f578063c078606f146103a257600080fd5b80638da5cb5b116100d35780638da5cb5b1461033d57806395d89b411461034e578063a457c2d714610356578063a9059cbb1461036957600080fd5b8063685fc568146102fb57806370a082311461030c578063715018a61461033557600080fd5b806323b872dd1161016657806340c10f191161014057806340c10f191461028757806342966c681461029a5780634454a9b1146102ad5780634fbee193146102d857600080fd5b806323b872dd14610252578063313ce56714610265578063395093511461027457600080fd5b80630644e757146101ae57806306fdde03146101e0578063095ea7b3146101f55780630d075d9c146102185780630f683e901461022d57806318160ddd14610240575b600080fd5b600954600a54600b54600c545b6040805194855260208501939093529183015260608201526080015b60405180910390f35b6101e8610407565b6040516101d79190610e70565b610208610203366004610eda565b610499565b60405190151581526020016101d7565b61022b610226366004610f04565b6104b3565b005b61022b61023b366004610f04565b6105b9565b6002545b6040519081526020016101d7565b610208610260366004610f30565b6106b2565b604051601281526020016101d7565b610208610282366004610eda565b6106d6565b61022b610295366004610eda565b6106f8565b61022b6102a8366004610f6c565b61070e565b6006546102c0906001600160a01b031681565b6040516001600160a01b0390911681526020016101d7565b6102086102e6366004610f85565b60116020526000908152604090205460ff1681565b600d54600e54600f546010546101bb565b61024461031a366004610f85565b6001600160a01b031660009081526020819052604090205490565b61022b61071b565b6005546001600160a01b03166102c0565b6101e861072f565b610208610364366004610eda565b61073e565b610208610377366004610eda565b6107b9565b6007546102c0906001600160a01b031681565b61022b61039d366004610fa7565b6107c7565b6008546102c0906001600160a01b031681565b6102446103c3366004610fe3565b6107f7565b600d54600e54600f546010546101bb9392919084565b600954600a54600b54600c546101bb9392919084565b61022b610402366004610f85565b610822565b60606003805461041690611016565b80601f016020809104026020016040519081016040528092919081815260200182805461044290611016565b801561048f5780601f106104645761010080835404028352916020019161048f565b820191906000526020600020905b81548152906001019060200180831161047257829003601f168201915b5050505050905090565b6000336104a7818585610898565b60019150505b92915050565b6104bb6109bd565b6107d0816104c98486611050565b6104d39190611050565b11156105265760405162461bcd60e51b815260206004820152601b60248201527f546f74616c206665652063616e6e6f742065786365656420323025000000000060448201526064015b60405180910390fd5b6009839055600a829055600b819055806105408385611050565b61054a9190611050565b600c8190556040805160a08082526003908201526242757960e81b60c0820152602081018690529081018490526060810183905260808101919091527fcc7d769aab9b1bae358245f28bed902ff6c01f19981c2f315c2289966ae76f5b9060e0015b60405180910390a1505050565b6105c16109bd565b6107d0816105cf8486611050565b6105d99190611050565b11156106275760405162461bcd60e51b815260206004820152601b60248201527f546f74616c206665652063616e6e6f7420657863656564203230250000000000604482015260640161051d565b600d839055600e829055600f819055806106418385611050565b61064b9190611050565b60108190556040805160a08082526004908201526314d95b1b60e21b60c0820152602081018690529081018490526060810183905260808101919091527fcc7d769aab9b1bae358245f28bed902ff6c01f19981c2f315c2289966ae76f5b9060e0016105ac565b6000336106c0858285610a17565b6106cb858585610a91565b506001949350505050565b6000336104a78185856106e983836107f7565b6106f39190611050565b610898565b6107006109bd565b61070a8282610c35565b5050565b6107183382610cf4565b50565b6107236109bd565b61072d6000610e1e565b565b60606004805461041690611016565b6000338161074c82866107f7565b9050838110156107ac5760405162461bcd60e51b815260206004820152602560248201527f45524332303a2064656372656173656420616c6c6f77616e63652062656c6f77604482015264207a65726f60d81b606482015260840161051d565b6106cb8286868403610898565b6000336104a7818585610a91565b6107cf6109bd565b6001600160a01b0382166000908152601160205260409020805460ff19168215151790555050565b6001600160a01b03918216600090815260016020908152604080832093909416825291909152205490565b61082a6109bd565b6001600160a01b03811661088f5760405162461bcd60e51b815260206004820152602660248201527f4f776e61626c653a206e6577206f776e657220697320746865207a65726f206160448201526564647265737360d01b606482015260840161051d565b61071881610e1e565b6001600160a01b0383166108fa5760405162461bcd60e51b8152602060048201526024808201527f45524332303a20617070726f76652066726f6d20746865207a65726f206164646044820152637265737360e01b606482015260840161051d565b6001600160a01b03821661095b5760405162461bcd60e51b815260206004820152602260248201527f45524332303a20617070726f766520746f20746865207a65726f206164647265604482015261737360f01b606482015260840161051d565b6001600160a01b0383811660008181526001602090815260408083209487168084529482529182902085905590518481527f8c5be1e5ebec7d5bd14f71427d1e84f3dd0314c0f7b2291e5b200ac8c7c3b92591015b60405180910390a3505050565b6005546001600160a01b0316331461072d5760405162461bcd60e51b815260206004820181905260248201527f4f776e61626c653a2063616c6c6572206973206e6f7420746865206f776e6572604482015260640161051d565b6000610a2384846107f7565b90506000198114610a8b5781811015610a7e5760405162461bcd60e51b815260206004820152601d60248201527f45524332303a20696e73756666696369656e7420616c6c6f77616e6365000000604482015260640161051d565b610a8b8484848403610898565b50505050565b6001600160a01b038316610af55760405162461bcd60e51b815260206004820152602560248201527f45524332303a207472616e736665722066726f6d20746865207a65726f206164604482015264647265737360d81b606482015260840161051d565b6001600160a01b038216610b575760405162461bcd60e51b815260206004820152602360248201527f45524332303a207472616e7366657220746f20746865207a65726f206164647260448201526265737360e81b606482015260840161051d565b6001600160a01b03831660009081526020819052604090205481811015610bcf5760405162461bcd60e51b815260206004820152602660248201527f45524332303a207472616e7366657220616d6f756e7420657863656564732062604482015265616c616e636560d01b606482015260840161051d565b6001600160a01b03848116600081815260208181526040808320878703905593871680835291849020805487019055925185815290927fddf252ad1be2c89b69c2b068fc378daa952ba7f163c4a11628f55a4df523b3ef910160405180910390a3610a8b565b6001600160a01b038216610c8b5760405162461bcd60e51b815260206004820152601f60248201527f45524332303a206d696e7420746f20746865207a65726f206164647265737300604482015260640161051d565b8060026000828254610c9d9190611050565b90915550506001600160a01b038216600081815260208181526040808320805486019055518481527fddf252ad1be2c89b69c2b068fc378daa952ba7f163c4a11628f55a4df523b3ef910160405180910390a35050565b6001600160a01b038216610d545760405162461bcd60e51b815260206004820152602160248201527f45524332303a206275726e2066726f6d20746865207a65726f206164647265736044820152607360f81b606482015260840161051d565b6001600160a01b03821660009081526020819052604090205481811015610dc85760405162461bcd60e51b815260206004820152602260248201527f45524332303a206275726e20616d6f756e7420657863656564732062616c616e604482015261636560f01b606482015260840161051d565b6001600160a01b0383166000818152602081815260408083208686039055600280548790039055518581529192917fddf252ad1be2c89b69c2b068fc378daa952ba7f163c4a11628f55a4df523b3ef91016109b0565b600580546001600160a01b038381166001600160a01b0319831681179093556040519116919082907f8be0079c531659141344cd1fd0a4f28419497f9722a3daafe3b4186f6b6457e090600090a35050565b600060208083528351808285015260005b81811015610e9d57858101830151858201604001528201610e81565b506000604082860101526040601f19601f8301168501019250505092915050565b80356001600160a01b0381168114610ed557600080fd5b919050565b60008060408385031215610eed57600080fd5b610ef683610ebe565b946020939093013593505050565b600080600060608486031215610f1957600080fd5b505081359360208301359350604090920135919050565b600080600060608486031215610f4557600080fd5b610f4e84610ebe565b9250610f5c60208501610ebe565b9150604084013590509250925092565b600060208284031215610f7e57600080fd5b5035919050565b600060208284031215610f9757600080fd5b610fa082610ebe565b9392505050565b60008060408385031215610fba57600080fd5b610fc383610ebe565b915060208301358015158114610fd857600080fd5b809150509250929050565b60008060408385031215610ff657600080fd5b610fff83610ebe565b915061100d60208401610ebe565b90509250929050565b600181811c9082168061102a57607f821691505b60208210810361104a57634e487b7160e01b600052602260045260246000fd5b50919050565b808201808211156104ad57634e487b7160e01b600052601160045260246000fdfea264697066735822122041e7ec2ac5a42ad0e9d52ff48cd0094f26e74e57e7101fe598645892a2cf665664736f6c63430008140033",
  "linkReferences": {},
  "deployedLinkReferences": {}
}