{
  "_format": "hh-sol-artifact-1",
  "contractName": "ShadowDEXAdapter",
  "sourceName": "contracts_temp/ShadowDEXAdapter.sol",
  "abi": [
    {
      "inputs": [
        {
          "internalType": "address",
          "name": "_router",
          "type": "address"
        },
        {
          "internalType": "address",
          "name": "_quoter",
          "type": "address"
        },
        {
          "internalType": "address",
          "name": "_x33Token",
          "type": "address"
        },
        {
          "internalType": "address",
          "name": "_beetsLpToken",
          "type": "address"
        },
        {
          "internalType": "address",
          "name": "_wsToken",
          "type": "address"
        },
        {
          "internalType": "address",
          "name": "_jackpot",
          "type": "address"
        },
        {
          "internalType": "address",
          "name": "_ve69LP",
          "type": "address"
        }
      ],
      "stateMutability": "nonpayable",
      "type": "constructor"
    },
    {
      "anonymous": false,
      "inputs": [
        {
          "indexed": false,
          "internalType": "uint256",
          "name": "jackpotAmount",
          "type": "uint256"
        },
        {
          "indexed": false,
          "internalType": "uint256",
          "name": "ve69LPAmount",
          "type": "uint256"
        }
      ],
      "name": "FeeDistributed",
      "type": "event"
    },
    {
      "anonymous": false,
      "inputs": [
        {
          "indexed": true,
          "internalType": "address",
          "name": "previousOwner",
          "type": "address"
        },
        {
          "indexed": true,
          "internalType": "address",
          "name": "newOwner",
          "type": "address"
        }
      ],
      "name": "OwnershipTransferred",
      "type": "event"
    },
    {
      "anonymous": false,
      "inputs": [
        {
          "indexed": true,
          "internalType": "address",
          "name": "user",
          "type": "address"
        },
        {
          "indexed": false,
          "internalType": "uint256",
          "name": "x33Amount",
          "type": "uint256"
        },
        {
          "indexed": false,
          "internalType": "uint256",
          "name": "beetsLpReceived",
          "type": "uint256"
        },
        {
          "indexed": false,
          "internalType": "uint256",
          "name": "wsEquivalent",
          "type": "uint256"
        },
        {
          "indexed": false,
          "internalType": "uint256",
          "name": "feeAmount",
          "type": "uint256"
        }
      ],
      "name": "SwapExecuted",
      "type": "event"
    },
    {
      "inputs": [],
      "name": "FEE_DENOMINATOR",
      "outputs": [
        {
          "internalType": "uint256",
          "name": "",
          "type": "uint256"
        }
      ],
      "stateMutability": "view",
      "type": "function"
    },
    {
      "inputs": [],
      "name": "JACKPOT_SHARE",
      "outputs": [
        {
          "internalType": "uint256",
          "name": "",
          "type": "uint256"
        }
      ],
      "stateMutability": "view",
      "type": "function"
    },
    {
      "inputs": [],
      "name": "POOL_FEE",
      "outputs": [
        {
          "internalType": "uint24",
          "name": "",
          "type": "uint24"
        }
      ],
      "stateMutability": "view",
      "type": "function"
    },
    {
      "inputs": [],
      "name": "SHADOW_FEE",
      "outputs": [
        {
          "internalType": "uint256",
          "name": "",
          "type": "uint256"
        }
      ],
      "stateMutability": "view",
      "type": "function"
    },
    {
      "inputs": [],
      "name": "SHADOW_WS_POOL",
      "outputs": [
        {
          "internalType": "address",
          "name": "",
          "type": "address"
        }
      ],
      "stateMutability": "view",
      "type": "function"
    },
    {
      "inputs": [],
      "name": "VE69LP_SHARE",
      "outputs": [
        {
          "internalType": "uint256",
          "name": "",
          "type": "uint256"
        }
      ],
      "stateMutability": "view",
      "type": "function"
    },
    {
      "inputs": [],
      "name": "X33_SHADOW_POOL",
      "outputs": [
        {
          "internalType": "address",
          "name": "",
          "type": "address"
        }
      ],
      "stateMutability": "view",
      "type": "function"
    },
    {
      "inputs": [],
      "name": "X33_USDC_POOL",
      "outputs": [
        {
          "internalType": "address",
          "name": "",
          "type": "address"
        }
      ],
      "stateMutability": "view",
      "type": "function"
    },
    {
      "inputs": [],
      "name": "beetsLpToken",
      "outputs": [
        {
          "internalType": "address",
          "name": "",
          "type": "address"
        }
      ],
      "stateMutability": "view",
      "type": "function"
    },
    {
      "inputs": [
        {
          "internalType": "uint256",
          "name": "x33Amount",
          "type": "uint256"
        }
      ],
      "name": "calculateWSEquivalent",
      "outputs": [
        {
          "internalType": "uint256",
          "name": "",
          "type": "uint256"
        }
      ],
      "stateMutability": "view",
      "type": "function"
    },
    {
      "inputs": [
        {
          "internalType": "address",
          "name": "token",
          "type": "address"
        },
        {
          "internalType": "uint256",
          "name": "amount",
          "type": "uint256"
        },
        {
          "internalType": "address",
          "name": "to",
          "type": "address"
        }
      ],
      "name": "emergencyWithdraw",
      "outputs": [],
      "stateMutability": "nonpayable",
      "type": "function"
    },
    {
      "inputs": [
        {
          "internalType": "address",
          "name": "tokenIn",
          "type": "address"
        },
        {
          "internalType": "uint256",
          "name": "amountIn",
          "type": "uint256"
        }
      ],
      "name": "estimateWSEquivalent",
      "outputs": [
        {
          "internalType": "uint256",
          "name": "",
          "type": "uint256"
        }
      ],
      "stateMutability": "view",
      "type": "function"
    },
    {
      "inputs": [
        {
          "internalType": "address",
          "name": "tokenIn",
          "type": "address"
        },
        {
          "internalType": "uint256",
          "name": "amountIn",
          "type": "uint256"
        }
      ],
      "name": "estimateWrappedSonicEquivalent",
      "outputs": [
        {
          "internalType": "uint256",
          "name": "",
          "type": "uint256"
        }
      ],
      "stateMutability": "view",
      "type": "function"
    },
    {
      "inputs": [],
      "name": "getJackpotFeePercentage",
      "outputs": [
        {
          "internalType": "uint256",
          "name": "",
          "type": "uint256"
        }
      ],
      "stateMutability": "pure",
      "type": "function"
    },
    {
      "inputs": [],
      "name": "getPartnerName",
      "outputs": [
        {
          "internalType": "string",
          "name": "",
          "type": "string"
        }
      ],
      "stateMutability": "pure",
      "type": "function"
    },
    {
      "inputs": [],
      "name": "getPartnerTokens",
      "outputs": [
        {
          "internalType": "address[]",
          "name": "",
          "type": "address[]"
        }
      ],
      "stateMutability": "view",
      "type": "function"
    },
    {
      "inputs": [
        {
          "internalType": "uint256",
          "name": "x33Amount",
          "type": "uint256"
        }
      ],
      "name": "getX33ToWSViaContractRatios",
      "outputs": [
        {
          "internalType": "uint256",
          "name": "wsAmount",
          "type": "uint256"
        }
      ],
      "stateMutability": "view",
      "type": "function"
    },
    {
      "inputs": [],
      "name": "getve69LPFeePercentage",
      "outputs": [
        {
          "internalType": "uint256",
          "name": "",
          "type": "uint256"
        }
      ],
      "stateMutability": "pure",
      "type": "function"
    },
    {
      "inputs": [],
      "name": "jackpot",
      "outputs": [
        {
          "internalType": "address",
          "name": "",
          "type": "address"
        }
      ],
      "stateMutability": "view",
      "type": "function"
    },
    {
      "inputs": [],
      "name": "manualRatio",
      "outputs": [
        {
          "internalType": "uint256",
          "name": "",
          "type": "uint256"
        }
      ],
      "stateMutability": "view",
      "type": "function"
    },
    {
      "inputs": [],
      "name": "owner",
      "outputs": [
        {
          "internalType": "address",
          "name": "",
          "type": "address"
        }
      ],
      "stateMutability": "view",
      "type": "function"
    },
    {
      "inputs": [],
      "name": "priceMethod",
      "outputs": [
        {
          "internalType": "enum ShadowDEXAdapter.PriceMethod",
          "name": "",
          "type": "uint8"
        }
      ],
      "stateMutability": "view",
      "type": "function"
    },
    {
      "inputs": [],
      "name": "quoter",
      "outputs": [
        {
          "internalType": "contract IShadowQuoter",
          "name": "",
          "type": "address"
        }
      ],
      "stateMutability": "view",
      "type": "function"
    },
    {
      "inputs": [],
      "name": "renounceOwnership",
      "outputs": [],
      "stateMutability": "nonpayable",
      "type": "function"
    },
    {
      "inputs": [],
      "name": "router",
      "outputs": [
        {
          "internalType": "contract IShadowSwapRouter",
          "name": "",
          "type": "address"
        }
      ],
      "stateMutability": "view",
      "type": "function"
    },
    {
      "inputs": [
        {
          "internalType": "enum ShadowDEXAdapter.PriceMethod",
          "name": "_method",
          "type": "uint8"
        }
      ],
      "name": "setPriceMethod",
      "outputs": [],
      "stateMutability": "nonpayable",
      "type": "function"
    },
    {
      "inputs": [],
      "name": "shadowToken",
      "outputs": [
        {
          "internalType": "address",
          "name": "",
          "type": "address"
        }
      ],
      "stateMutability": "view",
      "type": "function"
    },
    {
      "inputs": [
        {
          "internalType": "address",
          "name": "tokenIn",
          "type": "address"
        },
        {
          "internalType": "uint256",
          "name": "amountIn",
          "type": "uint256"
        },
        {
          "internalType": "uint256",
          "name": "minAmountOut",
          "type": "uint256"
        },
        {
          "internalType": "uint256",
          "name": "deadline",
          "type": "uint256"
        },
        {
          "internalType": "address",
          "name": "recipient",
          "type": "address"
        }
      ],
      "name": "swapForJackpotEntry",
      "outputs": [
        {
          "internalType": "uint256",
          "name": "amountOut",
          "type": "uint256"
        },
        {
          "internalType": "uint256",
          "name": "wsEquivalent",
          "type": "uint256"
        }
      ],
      "stateMutability": "nonpayable",
      "type": "function"
    },
    {
      "inputs": [
        {
          "internalType": "address",
          "name": "newOwner",
          "type": "address"
        }
      ],
      "name": "transferOwnership",
      "outputs": [],
      "stateMutability": "nonpayable",
      "type": "function"
    },
    {
      "inputs": [
        {
          "internalType": "address",
          "name": "_jackpot",
          "type": "address"
        },
        {
          "internalType": "address",
          "name": "_ve69LP",
          "type": "address"
        }
      ],
      "name": "updateFeeRecipients",
      "outputs": [],
      "stateMutability": "nonpayable",
      "type": "function"
    },
    {
      "inputs": [
        {
          "internalType": "uint256",
          "name": "_newRatio",
          "type": "uint256"
        }
      ],
      "name": "updateManualRatio",
      "outputs": [],
      "stateMutability": "nonpayable",
      "type": "function"
    },
    {
      "inputs": [],
      "name": "ve69LP",
      "outputs": [
        {
          "internalType": "address",
          "name": "",
          "type": "address"
        }
      ],
      "stateMutability": "view",
      "type": "function"
    },
    {
      "inputs": [],
      "name": "wsToken",
      "outputs": [
        {
          "internalType": "address",
          "name": "",
          "type": "address"
        }
      ],
      "stateMutability": "view",
      "type": "function"
    },
    {
      "inputs": [],
      "name": "x33Token",
      "outputs": [
        {
          "internalType": "address",
          "name": "",
          "type": "address"
        }
      ],
      "stateMutability": "view",
      "type": "function"
    },
    {
      "inputs": [],
      "name": "xShadowToken",
      "outputs": [
        {
          "internalType": "address",
          "name": "",
          "type": "address"
        }
      ],
      "stateMutability": "view",
      "type": "function"
    }
  ],
  "bytecode": "0x6101606040526003805460ff60a01b1916600160a01b179055670de0b6b3a76400006004553480156200003157600080fd5b5060405162002152380380620021528339810160408190526200005491620005e8565b6200005f33620001b0565b600180556001600160a01b0380881660805286811660a0528581166101008190528582166101205290841661014052604080516338d52e0f60e01b815290516338d52e0f916004808201926020929091908290030181865afa158015620000ca573d6000803e3d6000fd5b505050506040513d601f19601f82011682018060405250810190620000f091906200067d565b6001600160a01b031660e081905260408051631e49236560e21b815290516379248d94916004808201926020929091908290030181865afa1580156200013a573d6000803e3d6000fd5b505050506040513d601f19601f820116820180604052508101906200016091906200067d565b6001600160a01b0390811660c052600280546001600160a01b03199081168584161790915560038054909116838316179055620001a39086168860001962000200565b5050505050505062000759565b600080546001600160a01b038381166001600160a01b0319831681178455604051919092169283917f8be0079c531659141344cd1fd0a4f28419497f9722a3daafe3b4186f6b6457e09190a35050565b8015806200027e5750604051636eb1769f60e11b81523060048201526001600160a01b03838116602483015284169063dd62ed3e90604401602060405180830381865afa15801562000256573d6000803e3d6000fd5b505050506040513d601f19601f820116820180604052508101906200027c9190620006a2565b155b620002f65760405162461bcd60e51b815260206004820152603660248201527f5361666545524332303a20617070726f76652066726f6d206e6f6e2d7a65726f60448201527f20746f206e6f6e2d7a65726f20616c6c6f77616e63650000000000000000000060648201526084015b60405180910390fd5b604080516001600160a01b038416602482015260448082018490528251808303909101815260649091019091526020810180516001600160e01b0390811663095ea7b360e01b179091526200034e9185916200035316565b505050565b6040805180820190915260208082527f5361666545524332303a206c6f772d6c6576656c2063616c6c206661696c656490820152600090620003a2906001600160a01b03851690849062000427565b9050805160001480620003c6575080806020019051810190620003c69190620006bc565b6200034e5760405162461bcd60e51b815260206004820152602a60248201527f5361666545524332303a204552433230206f7065726174696f6e20646964206e6044820152691bdd081cdd58d8d9595960b21b6064820152608401620002ed565b606062000438848460008562000440565b949350505050565b606082471015620004a35760405162461bcd60e51b815260206004820152602660248201527f416464726573733a20696e73756666696369656e742062616c616e636520666f6044820152651c8818d85b1b60d21b6064820152608401620002ed565b600080866001600160a01b03168587604051620004c1919062000706565b60006040518083038185875af1925050503d806000811462000500576040519150601f19603f3d011682016040523d82523d6000602084013e62000505565b606091505b509092509050620005198783838762000524565b979650505050505050565b606083156200059857825160000362000590576001600160a01b0385163b620005905760405162461bcd60e51b815260206004820152601d60248201527f416464726573733a2063616c6c20746f206e6f6e2d636f6e74726163740000006044820152606401620002ed565b508162000438565b620004388383815115620005af5781518083602001fd5b8060405162461bcd60e51b8152600401620002ed919062000724565b80516001600160a01b0381168114620005e357600080fd5b919050565b600080600080600080600060e0888a0312156200060457600080fd5b6200060f88620005cb565b96506200061f60208901620005cb565b95506200062f60408901620005cb565b94506200063f60608901620005cb565b93506200064f60808901620005cb565b92506200065f60a08901620005cb565b91506200066f60c08901620005cb565b905092959891949750929550565b6000602082840312156200069057600080fd5b6200069b82620005cb565b9392505050565b600060208284031215620006b557600080fd5b5051919050565b600060208284031215620006cf57600080fd5b815180151581146200069b57600080fd5b60005b83811015620006fd578181015183820152602001620006e3565b50506000910152565b600082516200071a818460208701620006e0565b9190910192915050565b602081526000825180602084015262000745816040850160208701620006e0565b601f01601f19169190910160400192915050565b60805160a05160c05160e05161010051610120516101405161193c620008166000396000818161049801528181610afa0152610e4e015260008181610248015261079f0152600081816103dd01528181610562015281816105e30152818161097301528181610ca701528181610e260152610fe00152600081816104e50152610a1a0152600081816105330152610ad201526000818161040401528181610b3b0152610e9101526000818161050c0152610800015261193c6000f3fe608060405234801561001057600080fd5b50600436106102115760003560e01c8063a4c24ec611610125578063d93879b5116100ad578063f1f736201161007c578063f1f73620146104ba578063f2fde38b146104cd578063f382331f146104e0578063f887ea4014610507578063ffc5d97a1461052e57600080fd5b8063d93879b51461046e578063db7863b4146103c5578063dd1b9c4a14610476578063ef4907aa1461049357600080fd5b8063c64d61f5116100f4578063c64d61f51461032a578063c6bbd5a7146103ff578063cbe1e7d514610426578063d73792a914610439578063d8c370321461044257600080fd5b8063a4c24ec6146103aa578063aaae0963146103b2578063b241a890146103c5578063b9b39e46146103d857600080fd5b8063551512de116101a85780636fcd8207116101775780636fcd820714610360578063715018a6146103695780637d32bd9a146103715780638da5cb5b14610384578063a19d466a1461039557600080fd5b8063551512de1461031557806358d276d51461032a57806367b76fac146103325780636b31ee011461034d57600080fd5b806335d31d49116101e457806335d31d49146102b657806338ceb797146102d157806338f61a5f146102ec57806343f9430d1461030d57600080fd5b80630d22ce3f14610216578063286134fa146102435780632aca8e2b146102825780632d96d29314610295575b600080fd5b6102296102243660046115e4565b610555565b604080519283526020830191909152015b60405180910390f35b61026a7f000000000000000000000000000000000000000000000000000000000000000081565b6040516001600160a01b03909116815260200161023a565b60035461026a906001600160a01b031681565b6102a86102a3366004611634565b61096e565b60405190815260200161023a565b61026a73f19748a0e269c6965a84f8c98ca8c47a064d4dd081565b61026a73e076acf0c028ac2ba1ec4807d592bfb2c524fdb081565b60035461030090600160a01b900460ff1681565b60405161023a9190611663565b6102a8610bf6565b61032861032336600461168b565b610c15565b005b6102a8604581565b61026a73e8b696fb500c2a3b1faa5e0fce4d53d6ad26765f81565b60025461026a906001600160a01b031681565b6102a860045481565b610328610c36565b61032861037f3660046116c7565b610c4a565b6000546001600160a01b031661026a565b61039d610c7f565b60405161023a91906116ef565b6102a8610cf6565b6102a86103c0366004611634565b610d05565b6102a86103d336600461173c565b610fdc565b61026a7f000000000000000000000000000000000000000000000000000000000000000081565b61026a7f000000000000000000000000000000000000000000000000000000000000000081565b610328610434366004611634565b611074565b6102a86103e881565b604080518082018252600a8152690a6d0c2c8deee40888ab60b31b6020820152905161023a919061178a565b6102a8601f81565b61047f610bb881565b60405162ffffff909116815260200161023a565b61026a7f000000000000000000000000000000000000000000000000000000000000000081565b6103286104c83660046117bd565b6110d1565b6103286104db3660046117f0565b6111b3565b61026a7f000000000000000000000000000000000000000000000000000000000000000081565b61026a7f000000000000000000000000000000000000000000000000000000000000000081565b61026a7f000000000000000000000000000000000000000000000000000000000000000081565b60008061056061122c565b7f00000000000000000000000000000000000000000000000000000000000000006001600160a01b0316876001600160a01b0316146105e15760405162461bcd60e51b815260206004820152601860248201527713db9b1e481e0cccc81d1bdad95b881cdd5c1c1bdc9d195960421b60448201526064015b60405180910390fd5b7f00000000000000000000000000000000000000000000000000000000000000006001600160a01b0316638380edb76040518163ffffffff1660e01b8152600401602060405180830381865afa15801561063f573d6000803e3d6000fd5b505050506040513d601f19601f82011682018060405250810190610663919061180b565b6106af5760405162461bcd60e51b815260206004820152601760248201527f7833332069732063757272656e746c79206c6f636b656400000000000000000060448201526064016105d8565b6106c46001600160a01b038816333089611285565b60006103e86106d4604589611843565b6106de919061185a565b905060006106ec828961187c565b9050600060646106fd604585611843565b610707919061185a565b90506000610715828561187c565b600254909150610732906001600160a01b038d81169116846112f6565b60035461074c906001600160a01b038d81169116836112f6565b60408051838152602081018390527f61930a6c1553eab59d5766da6e1bab8eba982aec848ae7683452f4a6423b6e4a910160405180910390a160408051610100810182526001600160a01b03808e1682527f000000000000000000000000000000000000000000000000000000000000000081166020830152610bb8828401528981166060830152608082018b905260a0820186905260c082018c9052600060e0830152915163414bf38960e01b815290917f0000000000000000000000000000000000000000000000000000000000000000169063414bf3899061089990849060040181516001600160a01b03908116825260208084015182169083015260408084015162ffffff16908301526060808401518216908301526080808401519083015260a0838101519083015260c0808401519083015260e09283015116918101919091526101000190565b6020604051808303816000875af11580156108b8573d6000803e3d6000fd5b505050506040513d601f19601f820116820180604052508101906108dc919061188f565b96506108e78b610d05565b955060646108f6876045611843565b610900919061185a565b604080518d8152602081018a9052908101829052606081018790529096506001600160a01b038916907f6e897e83b2ea962118c2abaeb4ffb85a1a63da2c8f1880660079b88983900d849060800160405180910390a2505050505061096460018055565b9550959350505050565b6000807f00000000000000000000000000000000000000000000000000000000000000006001600160a01b03166371ca337d6040518163ffffffff1660e01b8152600401602060405180830381865afa1580156109cf573d6000803e3d6000fd5b505050506040513d601f19601f820116820180604052508101906109f3919061188f565b90506000670de0b6b3a7640000610a0a8386611843565b610a14919061185a565b905060007f00000000000000000000000000000000000000000000000000000000000000006001600160a01b03166371ca337d6040518163ffffffff1660e01b8152600401602060405180830381865afa158015610a76573d6000803e3d6000fd5b505050506040513d601f19601f82011682018060405250810190610a9a919061188f565b90506000670de0b6b3a7640000610ab18385611843565b610abb919061185a565b60405163f7729d4360e01b81526001600160a01b037f0000000000000000000000000000000000000000000000000000000000000000811660048301527f000000000000000000000000000000000000000000000000000000000000000081166024830152610bb8604483015260648201839052600060848301529192507f00000000000000000000000000000000000000000000000000000000000000009091169063f7729d439060a401602060405180830381865afa925050508015610ba0575060408051601f3d908101601f19168201909252610b9d9181019061188f565b60015b610bec5760405162461bcd60e51b815260206004820152601d60248201527f43616e6e6f742067657420534841444f5720746f20775320707269636500000060448201526064016105d8565b9695505050505050565b60006064610c06601f6045611843565b610c10919061185a565b905090565b610c1d611326565b610c316001600160a01b03841682846112f6565b505050565b610c3e611326565b610c486000611380565b565b610c52611326565b6003805482919060ff60a01b1916600160a01b836002811115610c7757610c7761164d565b021790555050565b60408051600180825281830190925260609160009190602080830190803683370190505090507f000000000000000000000000000000000000000000000000000000000000000081600081518110610cd957610cd96118a8565b6001600160a01b0390921660209283029190910190910152919050565b60006064610c06604580611843565b600080600354600160a01b900460ff166002811115610d2657610d2661164d565b03610d5257670de0b6b3a764000060045483610d429190611843565b610d4c919061185a565b92915050565b6001600354600160a01b900460ff166002811115610d7257610d7261164d565b03610dea57604051632d96d29360e01b8152600481018390523090632d96d29390602401602060405180830381865afa925050508015610dcf575060408051601f3d908101601f19168201909252610dcc9181019061188f565b60015b610d4c57670de0b6b3a764000060045483610d429190611843565b6002600354600160a01b900460ff166002811115610e0a57610e0a61164d565b03610fc55760405163f7729d4360e01b81526001600160a01b037f0000000000000000000000000000000000000000000000000000000000000000811660048301527f000000000000000000000000000000000000000000000000000000000000000081166024830152610bb86044830152606482018490526000608483018190529182917f0000000000000000000000000000000000000000000000000000000000000000169063f7729d439060a401602060405180830381865afa925050508015610ef4575060408051601f3d908101601f19168201909252610ef19181019061188f565b60015b15610f1457610f0381836118be565b915082610f0f816118d1565b935050505b604051632d96d29360e01b8152600481018590523090632d96d29390602401602060405180830381865afa925050508015610f6c575060408051601f3d908101601f19168201909252610f699181019061188f565b60015b15610f8c57610f7b81836118be565b915082610f87816118d1565b935050505b8115610fa457610f9c828261185a565b949350505050565b670de0b6b3a764000060045485610fbb9190611843565b610f9c919061185a565b670de0b6b3a764000060045483610d429190611843565b60007f00000000000000000000000000000000000000000000000000000000000000006001600160a01b0316836001600160a01b03161461105a5760405162461bcd60e51b815260206004820152601860248201527713db9b1e481e0cccc81d1bdad95b881cdd5c1c1bdc9d195960421b60448201526064016105d8565b600061106583610d05565b90506064610fbb826045611843565b61107c611326565b600081116110cc5760405162461bcd60e51b815260206004820152601c60248201527f526174696f206d7573742062652067726561746572207468616e20300000000060448201526064016105d8565b600455565b6110d9611326565b6001600160a01b03821661112f5760405162461bcd60e51b815260206004820152601e60248201527f4a61636b706f742063616e6e6f74206265207a65726f2061646472657373000060448201526064016105d8565b6001600160a01b0381166111855760405162461bcd60e51b815260206004820152601d60248201527f766536394c502063616e6e6f74206265207a65726f206164647265737300000060448201526064016105d8565b600280546001600160a01b039384166001600160a01b03199182161790915560038054929093169116179055565b6111bb611326565b6001600160a01b0381166112205760405162461bcd60e51b815260206004820152602660248201527f4f776e61626c653a206e6577206f776e657220697320746865207a65726f206160448201526564647265737360d01b60648201526084016105d8565b61122981611380565b50565b60026001540361127e5760405162461bcd60e51b815260206004820152601f60248201527f5265656e7472616e637947756172643a207265656e7472616e742063616c6c0060448201526064016105d8565b6002600155565b6040516001600160a01b03808516602483015283166044820152606481018290526112f09085906323b872dd60e01b906084015b60408051601f198184030181529190526020810180516001600160e01b03166001600160e01b0319909316929092179091526113d0565b50505050565b6040516001600160a01b038316602482015260448101829052610c3190849063a9059cbb60e01b906064016112b9565b6000546001600160a01b03163314610c485760405162461bcd60e51b815260206004820181905260248201527f4f776e61626c653a2063616c6c6572206973206e6f7420746865206f776e657260448201526064016105d8565b600080546001600160a01b038381166001600160a01b0319831681178455604051919092169283917f8be0079c531659141344cd1fd0a4f28419497f9722a3daafe3b4186f6b6457e09190a35050565b6000611425826040518060400160405280602081526020017f5361666545524332303a206c6f772d6c6576656c2063616c6c206661696c6564815250856001600160a01b03166114a59092919063ffffffff16565b9050805160001480611446575080806020019051810190611446919061180b565b610c315760405162461bcd60e51b815260206004820152602a60248201527f5361666545524332303a204552433230206f7065726174696f6e20646964206e6044820152691bdd081cdd58d8d9595960b21b60648201526084016105d8565b6060610f9c848460008585600080866001600160a01b031685876040516114cc91906118ea565b60006040518083038185875af1925050503d8060008114611509576040519150601f19603f3d011682016040523d82523d6000602084013e61150e565b606091505b509150915061151f8783838761152a565b979650505050505050565b60608315611599578251600003611592576001600160a01b0385163b6115925760405162461bcd60e51b815260206004820152601d60248201527f416464726573733a2063616c6c20746f206e6f6e2d636f6e747261637400000060448201526064016105d8565b5081610f9c565b610f9c83838151156115ae5781518083602001fd5b8060405162461bcd60e51b81526004016105d8919061178a565b80356001600160a01b03811681146115df57600080fd5b919050565b600080600080600060a086880312156115fc57600080fd5b611605866115c8565b9450602086013593506040860135925060608601359150611628608087016115c8565b90509295509295909350565b60006020828403121561164657600080fd5b5035919050565b634e487b7160e01b600052602160045260246000fd5b602081016003831061168557634e487b7160e01b600052602160045260246000fd5b91905290565b6000806000606084860312156116a057600080fd5b6116a9846115c8565b9250602084013591506116be604085016115c8565b90509250925092565b6000602082840312156116d957600080fd5b8135600381106116e857600080fd5b9392505050565b6020808252825182820181905260009190848201906040850190845b818110156117305783516001600160a01b03168352928401929184019160010161170b565b50909695505050505050565b6000806040838503121561174f57600080fd5b611758836115c8565b946020939093013593505050565b60005b83811015611781578181015183820152602001611769565b50506000910152565b60208152600082518060208401526117a9816040850160208701611766565b601f01601f19169190910160400192915050565b600080604083850312156117d057600080fd5b6117d9836115c8565b91506117e7602084016115c8565b90509250929050565b60006020828403121561180257600080fd5b6116e8826115c8565b60006020828403121561181d57600080fd5b815180151581146116e857600080fd5b634e487b7160e01b600052601160045260246000fd5b8082028115828204841417610d4c57610d4c61182d565b60008261187757634e487b7160e01b600052601260045260246000fd5b500490565b81810381811115610d4c57610d4c61182d565b6000602082840312156118a157600080fd5b5051919050565b634e487b7160e01b600052603260045260246000fd5b80820180821115610d4c57610d4c61182d565b6000600182016118e3576118e361182d565b5060010190565b600082516118fc818460208701611766565b919091019291505056fea26469706673582212208e4379138e846411790ee66c461f40efeb33b874c34a3f248c54f14ae37f51cd64736f6c63430008140033",
  "linkReferences": {},
  "deployedLinkReferences": {}
}