{
  "_format": "hh-sol-artifact-1",
  "contractName": "UniswapV3PriceUtilsTest",
  "sourceName": "contracts/test/UniswapV3PriceUtilsTest.sol",
  "abi": [
    {
      "inputs": [
        {
          "internalType": "uint256",
          "name": "amountUSD",
          "type": "uint256"
        },
        {
          "internalType": "uint256",
          "name": "dailyVolumeUSD",
          "type": "uint256"
        },
        {
          "internalType": "uint24",
          "name": "feeTier",
          "type": "uint24"
        }
      ],
      "name": "testCalculateAPR",
      "outputs": [
        {
          "internalType": "uint256",
          "name": "apr",
          "type": "uint256"
        }
      ],
      "stateMutability": "pure",
      "type": "function"
    },
    {
      "inputs": [
        {
          "internalType": "int24",
          "name": "lowerTick",
          "type": "int24"
        },
        {
          "internalType": "int24",
          "name": "upperTick",
          "type": "int24"
        }
      ],
      "name": "testCalculateLiquidityRange",
      "outputs": [
        {
          "internalType": "uint256",
          "name": "rangePercentage",
          "type": "uint256"
        }
      ],
      "stateMutability": "pure",
      "type": "function"
    },
    {
      "inputs": [
        {
          "internalType": "int24",
          "name": "currentTick",
          "type": "int24"
        },
        {
          "internalType": "int24",
          "name": "lowerTick",
          "type": "int24"
        },
        {
          "internalType": "int24",
          "name": "upperTick",
          "type": "int24"
        }
      ],
      "name": "testCalculateTokenRatios",
      "outputs": [
        {
          "internalType": "uint8",
          "name": "token0Percent",
          "type": "uint8"
        },
        {
          "internalType": "uint8",
          "name": "token1Percent",
          "type": "uint8"
        }
      ],
      "stateMutability": "pure",
      "type": "function"
    },
    {
      "inputs": [
        {
          "internalType": "uint160",
          "name": "sqrtPriceX96",
          "type": "uint160"
        },
        {
          "internalType": "uint160",
          "name": "sqrtPriceX96A",
          "type": "uint160"
        },
        {
          "internalType": "uint160",
          "name": "sqrtPriceX96B",
          "type": "uint160"
        }
      ],
      "name": "testCalculateTokenRatiosFromSqrtPrice",
      "outputs": [
        {
          "internalType": "uint8",
          "name": "token0Percent",
          "type": "uint8"
        },
        {
          "internalType": "uint8",
          "name": "token1Percent",
          "type": "uint8"
        }
      ],
      "stateMutability": "pure",
      "type": "function"
    },
    {
      "inputs": [
        {
          "internalType": "uint256",
          "name": "x",
          "type": "uint256"
        }
      ],
      "name": "testSqrt",
      "outputs": [
        {
          "internalType": "uint256",
          "name": "y",
          "type": "uint256"
        }
      ],
      "stateMutability": "pure",
      "type": "function"
    },
    {
      "inputs": [
        {
          "internalType": "uint160",
          "name": "sqrtPriceX96",
          "type": "uint160"
        }
      ],
      "name": "testSqrtPriceX96ToPrice",
      "outputs": [
        {
          "internalType": "uint256",
          "name": "price",
          "type": "uint256"
        }
      ],
      "stateMutability": "pure",
      "type": "function"
    },
    {
      "inputs": [
        {
          "internalType": "int24",
          "name": "tick",
          "type": "int24"
        }
      ],
      "name": "testTickToPrice",
      "outputs": [
        {
          "internalType": "uint256",
          "name": "price",
          "type": "uint256"
        }
      ],
      "stateMutability": "pure",
      "type": "function"
    },
    {
      "inputs": [
        {
          "internalType": "int24",
          "name": "tick",
          "type": "int24"
        }
      ],
      "name": "testTickToSqrtPriceX96",
      "outputs": [
        {
          "internalType": "uint160",
          "name": "sqrtPriceX96",
          "type": "uint160"
        }
      ],
      "stateMutability": "pure",
      "type": "function"
    }
  ],
  "bytecode": "0x608060405234801561001057600080fd5b50610838806100206000396000f3fe608060405234801561001057600080fd5b50600436106100885760003560e01c8063866f24d21161005b578063866f24d2146100ec57806398f82cdc14610119578063a9acdc3b1461012c578063c9cf17191461015757600080fd5b80630de4eb161461008d5780633df0a485146100b35780634866ed27146100c65780636183978f146100d9575b600080fd5b6100a061009b3660046105e9565b61016a565b6040519081526020015b60405180910390f35b6100a06100c1366004610614565b61017b565b6100a06100d4366004610647565b61018e565b6100a06100e736600461069f565b6101a3565b6100ff6100fa3660046106ba565b6101ae565b6040805160ff9384168152929091166020830152016100aa565b6100a06101273660046106fd565b6101c9565b61013f61013a3660046106fd565b6101d4565b6040516001600160a01b0390911681526020016100aa565b6100ff610165366004610718565b6101df565b6000610175826101ed565b92915050565b60006101878383610257565b9392505050565b600061019b84848461029c565b949350505050565b600061017582610311565b6000806101bc858585610353565b915091505b935093915050565b6000610175826103c6565b6000610175826103ea565b6000806101bc858585610437565b6000816000036101ff57506000919050565b6000600261020e846001610768565b610218919061077b565b90508291505b8181101561025157905080600281610236818661077b565b6102409190610768565b61024a919061077b565b905061021e565b50919050565b600080610263846103c6565b90506000610270846103c6565b90508161027d818361079d565b610289906127106107b0565b610293919061077b565b95945050505050565b6000836000036102ae57506000610187565b6000620f42406102c362ffffff8516866107b0565b6102cd919061077b565b905060006102dd8261016d6107b0565b9050856102ec826127106107b0565b6102f6919061077b565b92506127108311156103085761271092505b50509392505050565b6000806103276001600160a01b038416806107b0565b9050610337600160601b806107b0565b61034982670de0b6b3a76400006107b0565b610187919061077b565b6000808360020b8560020b1361036f57506064905060006101c1565b8260020b8560020b1261038857506000905060646101c1565b6000610393866103ea565b905060006103a0866103ea565b905060006103ad866103ea565b90506103ba838383610437565b945094505050506101c1565b6000808260020b12156103dc5761017582610504565b6101758261054a565b919050565b6000806103f6836103c6565b9050600061041461040f83670de0b6b3a76400006107b0565b6101ed565b9050670de0b6b3a764000061042d600160601b836107b0565b61019b919061077b565b600080836001600160a01b0316856001600160a01b03161161045f57506064905060006101c1565b826001600160a01b0316856001600160a01b03161061048457506000905060646101c1565b600061048f86610311565b9050600061049c86610311565b905060006104a986610311565b905060006104b7838361079d565b6104c1848661079d565b6104cc9060646107b0565b6104d6919061077b565b9050606481116104e657806104e9565b60645b94506104f68560646107c7565b955050505050935093915050565b60008060008360020b136105205761051b836107e0565b610522565b825b9050600061052f8261054a565b905061019b816ec097ce7bc90715b34b9f100000000061077b565b6000670de0b6b3a7640000600283900b82121561017557670de111a6b7de4000835b60008160020b13156105e1578060011660020b6001036105a657670de0b6b3a764000061059983856107b0565b6105a3919061077b565b92505b60018160020b901d905060008160020b13156105dc57670de0b6b3a76400006105cf83806107b0565b6105d9919061077b565b91505b61056c565b505092915050565b6000602082840312156105fb57600080fd5b5035919050565b8035600281900b81146103e557600080fd5b6000806040838503121561062757600080fd5b61063083610602565b915061063e60208401610602565b90509250929050565b60008060006060848603121561065c57600080fd5b8335925060208401359150604084013562ffffff8116811461067d57600080fd5b809150509250925092565b80356001600160a01b03811681146103e557600080fd5b6000602082840312156106b157600080fd5b61018782610688565b6000806000606084860312156106cf57600080fd5b6106d884610602565b92506106e660208501610602565b91506106f460408501610602565b90509250925092565b60006020828403121561070f57600080fd5b61018782610602565b60008060006060848603121561072d57600080fd5b61073684610688565b925061074460208501610688565b91506106f460408501610688565b634e487b7160e01b600052601160045260246000fd5b8082018082111561017557610175610752565b60008261079857634e487b7160e01b600052601260045260246000fd5b500490565b8181038181111561017557610175610752565b808202811582820484141761017557610175610752565b60ff828116828216039081111561017557610175610752565b60008160020b627fffff1981036107f9576107f9610752565b6000039291505056fea264697066735822122050f1748a258d349ef8b850916e84aea58cf3e082cb3da9295d87b6637979a8f064736f6c63430008140033",
  "linkReferences": {},
  "deployedLinkReferences": {}
}