{
  "_format": "hh-sol-artifact-1",
  "contractName": "VRFTestHelper",
  "sourceName": "contracts/mocks/VRFTestHelper.sol",
  "abi": [
    {
      "inputs": [],
      "stateMutability": "nonpayable",
      "type": "constructor"
    },
    {
      "anonymous": false,
      "inputs": [
        {
          "indexed": true,
          "internalType": "address",
          "name": "previousOwner",
          "type": "address"
        },
        {
          "indexed": true,
          "internalType": "address",
          "name": "newOwner",
          "type": "address"
        }
      ],
      "name": "OwnershipTransferred",
      "type": "event"
    },
    {
      "anonymous": false,
      "inputs": [
        {
          "indexed": true,
          "internalType": "uint64",
          "name": "requestId",
          "type": "uint64"
        },
        {
          "indexed": true,
          "internalType": "address",
          "name": "user",
          "type": "address"
        },
        {
          "indexed": false,
          "internalType": "uint256",
          "name": "randomness",
          "type": "uint256"
        }
      ],
      "name": "RandomnessReceived",
      "type": "event"
    },
    {
      "anonymous": false,
      "inputs": [
        {
          "indexed": true,
          "internalType": "uint64",
          "name": "requestId",
          "type": "uint64"
        },
        {
          "indexed": true,
          "internalType": "address",
          "name": "user",
          "type": "address"
        }
      ],
      "name": "RandomnessRequested",
      "type": "event"
    },
    {
      "anonymous": false,
      "inputs": [
        {
          "indexed": false,
          "internalType": "uint64",
          "name": "subscriptionId",
          "type": "uint64"
        },
        {
          "indexed": false,
          "internalType": "bytes32",
          "name": "keyHash",
          "type": "bytes32"
        },
        {
          "indexed": false,
          "internalType": "uint16",
          "name": "confirmations",
          "type": "uint16"
        },
        {
          "indexed": false,
          "internalType": "uint32",
          "name": "callbackGasLimit",
          "type": "uint32"
        },
        {
          "indexed": false,
          "internalType": "uint32",
          "name": "numWords",
          "type": "uint32"
        }
      ],
      "name": "VRFStateQueried",
      "type": "event"
    },
    {
      "inputs": [],
      "name": "arbitrumChainId",
      "outputs": [
        {
          "internalType": "uint32",
          "name": "",
          "type": "uint32"
        }
      ],
      "stateMutability": "view",
      "type": "function"
    },
    {
      "inputs": [],
      "name": "callbackGasLimit",
      "outputs": [
        {
          "internalType": "uint32",
          "name": "",
          "type": "uint32"
        }
      ],
      "stateMutability": "view",
      "type": "function"
    },
    {
      "inputs": [
        {
          "internalType": "uint256",
          "name": "_vrfRequestId",
          "type": "uint256"
        },
        {
          "internalType": "uint256",
          "name": "_randomness",
          "type": "uint256"
        }
      ],
      "name": "fulfillRandomness",
      "outputs": [],
      "stateMutability": "nonpayable",
      "type": "function"
    },
    {
      "inputs": [],
      "name": "getChainId",
      "outputs": [
        {
          "internalType": "uint32",
          "name": "",
          "type": "uint32"
        }
      ],
      "stateMutability": "view",
      "type": "function"
    },
    {
      "inputs": [
        {
          "internalType": "uint64",
          "name": "_requestId",
          "type": "uint64"
        }
      ],
      "name": "getResponse",
      "outputs": [
        {
          "internalType": "uint256",
          "name": "",
          "type": "uint256"
        }
      ],
      "stateMutability": "view",
      "type": "function"
    },
    {
      "inputs": [],
      "name": "keyHash",
      "outputs": [
        {
          "internalType": "bytes32",
          "name": "",
          "type": "bytes32"
        }
      ],
      "stateMutability": "view",
      "type": "function"
    },
    {
      "inputs": [],
      "name": "lastQueriedCallbackGasLimit",
      "outputs": [
        {
          "internalType": "uint32",
          "name": "",
          "type": "uint32"
        }
      ],
      "stateMutability": "view",
      "type": "function"
    },
    {
      "inputs": [],
      "name": "lastQueriedConfirmations",
      "outputs": [
        {
          "internalType": "uint16",
          "name": "",
          "type": "uint16"
        }
      ],
      "stateMutability": "view",
      "type": "function"
    },
    {
      "inputs": [],
      "name": "lastQueriedKeyHash",
      "outputs": [
        {
          "internalType": "bytes32",
          "name": "",
          "type": "bytes32"
        }
      ],
      "stateMutability": "view",
      "type": "function"
    },
    {
      "inputs": [],
      "name": "lastQueriedNumWords",
      "outputs": [
        {
          "internalType": "uint32",
          "name": "",
          "type": "uint32"
        }
      ],
      "stateMutability": "view",
      "type": "function"
    },
    {
      "inputs": [],
      "name": "lastQueriedSubscriptionId",
      "outputs": [
        {
          "internalType": "uint64",
          "name": "",
          "type": "uint64"
        }
      ],
      "stateMutability": "view",
      "type": "function"
    },
    {
      "inputs": [],
      "name": "lastQueriedTimestamp",
      "outputs": [
        {
          "internalType": "uint64",
          "name": "",
          "type": "uint64"
        }
      ],
      "stateMutability": "view",
      "type": "function"
    },
    {
      "inputs": [],
      "name": "nonce",
      "outputs": [
        {
          "internalType": "uint64",
          "name": "",
          "type": "uint64"
        }
      ],
      "stateMutability": "view",
      "type": "function"
    },
    {
      "inputs": [],
      "name": "numWords",
      "outputs": [
        {
          "internalType": "uint32",
          "name": "",
          "type": "uint32"
        }
      ],
      "stateMutability": "view",
      "type": "function"
    },
    {
      "inputs": [],
      "name": "owner",
      "outputs": [
        {
          "internalType": "address",
          "name": "",
          "type": "address"
        }
      ],
      "stateMutability": "view",
      "type": "function"
    },
    {
      "inputs": [],
      "name": "queryVRFState",
      "outputs": [],
      "stateMutability": "nonpayable",
      "type": "function"
    },
    {
      "inputs": [
        {
          "internalType": "uint64",
          "name": "_requestId",
          "type": "uint64"
        },
        {
          "internalType": "address",
          "name": "_user",
          "type": "address"
        },
        {
          "internalType": "uint256",
          "name": "_randomness",
          "type": "uint256"
        }
      ],
      "name": "receiveRandomness",
      "outputs": [],
      "stateMutability": "nonpayable",
      "type": "function"
    },
    {
      "inputs": [],
      "name": "renounceOwnership",
      "outputs": [],
      "stateMutability": "nonpayable",
      "type": "function"
    },
    {
      "inputs": [],
      "name": "requestConfirmations",
      "outputs": [
        {
          "internalType": "uint16",
          "name": "",
          "type": "uint16"
        }
      ],
      "stateMutability": "view",
      "type": "function"
    },
    {
      "inputs": [
        {
          "internalType": "address",
          "name": "_user",
          "type": "address"
        }
      ],
      "name": "requestRandomness",
      "outputs": [
        {
          "internalType": "uint64",
          "name": "",
          "type": "uint64"
        }
      ],
      "stateMutability": "nonpayable",
      "type": "function"
    },
    {
      "inputs": [
        {
          "internalType": "uint64",
          "name": "",
          "type": "uint64"
        }
      ],
      "name": "requestToUser",
      "outputs": [
        {
          "internalType": "address",
          "name": "",
          "type": "address"
        }
      ],
      "stateMutability": "view",
      "type": "function"
    },
    {
      "inputs": [
        {
          "internalType": "uint64",
          "name": "",
          "type": "uint64"
        }
      ],
      "name": "responseByRequestId",
      "outputs": [
        {
          "internalType": "uint256",
          "name": "",
          "type": "uint256"
        }
      ],
      "stateMutability": "view",
      "type": "function"
    },
    {
      "inputs": [
        {
          "internalType": "uint64",
          "name": "_requestId",
          "type": "uint64"
        },
        {
          "internalType": "uint256",
          "name": "_randomness",
          "type": "uint256"
        }
      ],
      "name": "retryRandomness",
      "outputs": [],
      "stateMutability": "nonpayable",
      "type": "function"
    },
    {
      "inputs": [
        {
          "internalType": "uint64",
          "name": "_requestId",
          "type": "uint64"
        },
        {
          "internalType": "address",
          "name": "_user",
          "type": "address"
        }
      ],
      "name": "simulateArbitrumVRFRequest",
      "outputs": [
        {
          "internalType": "uint256",
          "name": "",
          "type": "uint256"
        }
      ],
      "stateMutability": "view",
      "type": "function"
    },
    {
      "inputs": [],
      "name": "sonicChainId",
      "outputs": [
        {
          "internalType": "uint32",
          "name": "",
          "type": "uint32"
        }
      ],
      "stateMutability": "view",
      "type": "function"
    },
    {
      "inputs": [],
      "name": "subscriptionId",
      "outputs": [
        {
          "internalType": "uint64",
          "name": "",
          "type": "uint64"
        }
      ],
      "stateMutability": "view",
      "type": "function"
    },
    {
      "inputs": [
        {
          "internalType": "address",
          "name": "newOwner",
          "type": "address"
        }
      ],
      "name": "transferOwnership",
      "outputs": [],
      "stateMutability": "nonpayable",
      "type": "function"
    },
    {
      "inputs": [
        {
          "internalType": "uint64",
          "name": "_subscriptionId",
          "type": "uint64"
        },
        {
          "internalType": "bytes32",
          "name": "_keyHash",
          "type": "bytes32"
        },
        {
          "internalType": "uint16",
          "name": "_requestConfirmations",
          "type": "uint16"
        },
        {
          "internalType": "uint32",
          "name": "_callbackGasLimit",
          "type": "uint32"
        },
        {
          "internalType": "uint32",
          "name": "_numWords",
          "type": "uint32"
        }
      ],
      "name": "updateVRFParams",
      "outputs": [],
      "stateMutability": "nonpayable",
      "type": "function"
    }
  ],
  "bytecode": "0x608060405260028054600160401b600160801b03191669303900000000000000001790556201e240600355600480546001600160501b03191666010007a1200003179055600680546001600160401b031916646e0000000117905534801561006657600080fd5b5061007033610075565b6100c5565b600080546001600160a01b038381166001600160a01b0319831681178455604051919092169283917f8be0079c531659141344cd1fd0a4f28419497f9722a3daafe3b4186f6b6457e09190a35050565b610ce7806100d46000396000f3fe608060405234801561001057600080fd5b50600436106101c45760003560e01c80638da5cb5b116100f9578063d18468ff11610097578063f105057411610071578063f105057414610412578063f2fde38b14610425578063f657590114610438578063fa6657f11461046157600080fd5b8063d18468ff146103d5578063e29814de146103e8578063ead073c7146103ff57600080fd5b8063affed0e0116100d3578063affed0e014610384578063b0fb162f14610397578063bb5df086146103a5578063c2835971146103c557600080fd5b80638da5cb5b146103205780638eb96891146103455780639f392c2b1461035b57600080fd5b80633408e4701161016657806366df03611161014057806366df0361146102d45780636ff8fc68146102e7578063715018a6146103015780637ccfd7fc1461030957600080fd5b80633408e470146102aa57806361728f39146102b857806363414d51146102c157600080fd5b806318184fe2116101a257806318184fe2146102365780631c61621e1461025057806324f746971461027d5780633136eca01461029357600080fd5b80630695a252146101c957806306d7e8db146101de57806309c1ba2e14610204575b600080fd5b6101dc6101d7366004610ad7565b610469565b005b6008546101ec9061ffff1681565b60405161ffff90911681526020015b60405180910390f35b60025461021e90600160401b90046001600160401b031681565b6040516001600160401b0390911681526020016101fb565b60085461021e90600160501b90046001600160401b031681565b60065461026890640100000000900463ffffffff1681565b60405163ffffffff90911681526020016101fb565b6004546102689062010000900463ffffffff1681565b61029c60075481565b6040519081526020016101fb565b60065463ffffffff16610268565b61029c60035481565b6101dc6102cf366004610b29565b6104d7565b6101dc6102e2366004610ba7565b61055a565b60065461021e90600160401b90046001600160401b031681565b6101dc61069f565b60045461026890600160301b900463ffffffff1681565b6000546001600160a01b03165b6040516001600160a01b0390911681526020016101fb565b6008546102689062010000900463ffffffff1681565b61032d610369366004610be3565b6001602052600090815260409020546001600160a01b031681565b60025461021e906001600160401b031681565b6004546101ec9061ffff1681565b61029c6103b3366004610be3565b60056020526000908152604090205481565b6006546102689063ffffffff1681565b6101dc6103e3366004610c05565b6106b3565b60085461026890600160301b900463ffffffff1681565b61021e61040d366004610c2f565b6107a1565b61029c610420366004610c4a565b61083b565b6101dc610433366004610c2f565b6108ae565b61029c610446366004610be3565b6001600160401b031660009081526005602052604090205490565b6101dc610927565b6001600160401b03821660008181526001602090815260408083205460058352928190208590555184815285936001600160a01b0390931692839290917f4aa9e0f248f6c96da29c00ab96c2d21ab4f40afb34d049557a56089bfb7c4bad910160405180910390a350505050565b6104df610a2d565b600280546001600160401b03909616600160401b0267ffffffffffffffff60401b19909616959095179094556003929092556004805463ffffffff948516600160301b0269ffffffff0000000000001995909416620100000265ffffffffffff1990911661ffff909316929092179190911792909216179055565b6001600160401b0383166000908152600160205260409020546001600160a01b0316806105c35760405162461bcd60e51b8152602060048201526012602482015271155b9adb9bdddb881c995c5d595cdd08125160721b60448201526064015b60405180910390fd5b826001600160a01b0316816001600160a01b0316146106145760405162461bcd60e51b815260206004820152600d60248201526c0aae6cae440dad2e6dac2e8c6d609b1b60448201526064016105ba565b6001600160401b03841660008181526005602052604090819020849055516001600160a01b03851691907f4aa9e0f248f6c96da29c00ab96c2d21ab4f40afb34d049557a56089bfb7c4bad9061066d9086815260200190565b60405180910390a35050506001600160401b0316600090815260016020526040902080546001600160a01b0319169055565b6106a7610a2d565b6106b16000610a87565b565b6001600160401b0382166000908152600160205260409020546001600160a01b0316806107175760405162461bcd60e51b8152602060048201526012602482015271155b9adb9bdddb881c995c5d595cdd08125160721b60448201526064016105ba565b6001600160401b03831660008181526005602052604090819020849055516001600160a01b03831691907f4aa9e0f248f6c96da29c00ab96c2d21ab4f40afb34d049557a56089bfb7c4bad906107709086815260200190565b60405180910390a350506001600160401b0316600090815260016020526040902080546001600160a01b0319169055565b6002805460009182916001600160401b031690826107be83610c7d565b82546101009290920a6001600160401b03818102199093169183160217909155811660008181526001602052604080822080546001600160a01b0319166001600160a01b0389169081179091559051939450927ff09a63f9e06f8e96ec8e1be5bdfdb17d52cf919bcfe025e59cf8e5c0bd65d35a9190a392915050565b6001600160401b0382166000908152600160205260408120546001600160a01b038381169116146108a05760405162461bcd60e51b815260206004820152600f60248201526e125b9d985b1a59081c995c5d595cdd608a1b60448201526064016105ba565b50506001600160401b031690565b6108b6610a2d565b6001600160a01b03811661091b5760405162461bcd60e51b815260206004820152602660248201527f4f776e61626c653a206e6577206f776e657220697320746865207a65726f206160448201526564647265737360d01b60648201526084016105ba565b61092481610a87565b50565b600254600680546001600160401b03600160401b93849004811693840267ffffffffffffffff60401b199092169190911790915560035460078190556004546008805442909416600160501b0267ffffffffffffffff60501b19600160301b80850463ffffffff9081169182029290921671ffffffffffffffffffffffff00000000000019620100008088049490941693840265ffffffffffff1990991661ffff9097169687179890981797909716969096179190911790915560408051958652602086019390935291840152606083015260808201527f99d2ee6642086a50c540b07b645259f3e26a0857d8ccc1129cf023cd2ad1276d9060a00160405180910390a1565b6000546001600160a01b031633146106b15760405162461bcd60e51b815260206004820181905260248201527f4f776e61626c653a2063616c6c6572206973206e6f7420746865206f776e657260448201526064016105ba565b600080546001600160a01b038381166001600160a01b0319831681178455604051919092169283917f8be0079c531659141344cd1fd0a4f28419497f9722a3daafe3b4186f6b6457e09190a35050565b60008060408385031215610aea57600080fd5b50508035926020909101359150565b80356001600160401b0381168114610b1057600080fd5b919050565b803563ffffffff81168114610b1057600080fd5b600080600080600060a08688031215610b4157600080fd5b610b4a86610af9565b945060208601359350604086013561ffff81168114610b6857600080fd5b9250610b7660608701610b15565b9150610b8460808701610b15565b90509295509295909350565b80356001600160a01b0381168114610b1057600080fd5b600080600060608486031215610bbc57600080fd5b610bc584610af9565b9250610bd360208501610b90565b9150604084013590509250925092565b600060208284031215610bf557600080fd5b610bfe82610af9565b9392505050565b60008060408385031215610c1857600080fd5b610c2183610af9565b946020939093013593505050565b600060208284031215610c4157600080fd5b610bfe82610b90565b60008060408385031215610c5d57600080fd5b610c6683610af9565b9150610c7460208401610b90565b90509250929050565b60006001600160401b03808316818103610ca757634e487b7160e01b600052601160045260246000fd5b600101939250505056fea264697066735822122088f05180185187be8847d05ccb9cf75a991a165ae19502e5a1905f3cc8854f3a64736f6c63430008140033",
  "linkReferences": {},
  "deployedLinkReferences": {}
}