{
  "_format": "hh-sol-artifact-1",
  "contractName": "MockLzEndpoint",
  "sourceName": "contracts/mocks/MockLzEndpoint.sol",
  "abi": [
    {
      "anonymous": false,
      "inputs": [
        {
          "indexed": false,
          "internalType": "uint32",
          "name": "srcEid",
          "type": "uint32"
        },
        {
          "indexed": false,
          "internalType": "bytes32",
          "name": "sender",
          "type": "bytes32"
        },
        {
          "indexed": false,
          "internalType": "bytes",
          "name": "payload",
          "type": "bytes"
        }
      ],
      "name": "MessageReceived",
      "type": "event"
    },
    {
      "anonymous": false,
      "inputs": [
        {
          "indexed": false,
          "internalType": "uint32",
          "name": "dstEid",
          "type": "uint32"
        },
        {
          "indexed": false,
          "internalType": "bytes",
          "name": "receiver",
          "type": "bytes"
        },
        {
          "indexed": false,
          "internalType": "bytes",
          "name": "payload",
          "type": "bytes"
        }
      ],
      "name": "MessageSent",
      "type": "event"
    },
    {
      "inputs": [],
      "name": "lastDstEid",
      "outputs": [
        {
          "internalType": "uint32",
          "name": "",
          "type": "uint32"
        }
      ],
      "stateMutability": "view",
      "type": "function"
    },
    {
      "inputs": [],
      "name": "lastSender",
      "outputs": [
        {
          "internalType": "address",
          "name": "",
          "type": "address"
        }
      ],
      "stateMutability": "view",
      "type": "function"
    },
    {
      "inputs": [],
      "name": "lastSentPayload",
      "outputs": [
        {
          "internalType": "bytes",
          "name": "",
          "type": "bytes"
        }
      ],
      "stateMutability": "view",
      "type": "function"
    },
    {
      "inputs": [
        {
          "internalType": "uint32",
          "name": "_srcEid",
          "type": "uint32"
        },
        {
          "internalType": "bytes",
          "name": "_sender",
          "type": "bytes"
        },
        {
          "internalType": "bytes",
          "name": "_message",
          "type": "bytes"
        }
      ],
      "name": "mockLzReceive",
      "outputs": [],
      "stateMutability": "nonpayable",
      "type": "function"
    },
    {
      "inputs": [
        {
          "components": [
            {
              "internalType": "uint32",
              "name": "dstEid",
              "type": "uint32"
            },
            {
              "internalType": "bytes",
              "name": "receiver",
              "type": "bytes"
            },
            {
              "internalType": "bytes",
              "name": "message",
              "type": "bytes"
            },
            {
              "internalType": "bytes",
              "name": "options",
              "type": "bytes"
            },
            {
              "internalType": "bool",
              "name": "payInLzToken",
              "type": "bool"
            }
          ],
          "internalType": "struct ILayerZeroEndpointV2Mock.MessagingParams",
          "name": "_params",
          "type": "tuple"
        }
      ],
      "name": "quoteFee",
      "outputs": [
        {
          "components": [
            {
              "internalType": "uint256",
              "name": "nativeFee",
              "type": "uint256"
            },
            {
              "internalType": "uint256",
              "name": "lzTokenFee",
              "type": "uint256"
            }
          ],
          "internalType": "struct ILayerZeroEndpointV2Mock.MessagingFee",
          "name": "",
          "type": "tuple"
        }
      ],
      "stateMutability": "pure",
      "type": "function"
    },
    {
      "inputs": [
        {
          "components": [
            {
              "internalType": "uint32",
              "name": "dstEid",
              "type": "uint32"
            },
            {
              "internalType": "bytes",
              "name": "receiver",
              "type": "bytes"
            },
            {
              "internalType": "bytes",
              "name": "message",
              "type": "bytes"
            },
            {
              "internalType": "bytes",
              "name": "options",
              "type": "bytes"
            },
            {
              "internalType": "bool",
              "name": "payInLzToken",
              "type": "bool"
            }
          ],
          "internalType": "struct ILayerZeroEndpointV2Mock.MessagingParams",
          "name": "_params",
          "type": "tuple"
        }
      ],
      "name": "send",
      "outputs": [
        {
          "components": [
            {
              "internalType": "uint256",
              "name": "nativeFee",
              "type": "uint256"
            },
            {
              "internalType": "uint256",
              "name": "lzTokenFee",
              "type": "uint256"
            }
          ],
          "internalType": "struct ILayerZeroEndpointV2Mock.MessagingFee",
          "name": "",
          "type": "tuple"
        },
        {
          "internalType": "bytes32",
          "name": "",
          "type": "bytes32"
        }
      ],
      "stateMutability": "payable",
      "type": "function"
    }
  ],
  "bytecode": "0x608060405234801561001057600080fd5b5061099a806100206000396000f3fe6080604052600436106100555760003560e01c806321cbdb0d1461005a578063245875be1461007c578063256fec88146100b45780633c961a12146100f457806347351226146101165780638c2267411461017c575b600080fd5b34801561006657600080fd5b5061007a610075366004610545565b6101ae565b005b61008f61008a3660046105b9565b61030d565b6040805183518152602093840151938101939093528201526060015b60405180910390f35b3480156100c057600080fd5b506001546100dc9064010000000090046001600160a01b031681565b6040516001600160a01b0390911681526020016100ab565b34801561010057600080fd5b506101096103fb565b6040516100ab919061064b565b34801561012257600080fd5b506101616101313660046105b9565b50604080518082018252600080825260209182018190528251808401909352662386f26fc1000083529082015290565b604080518251815260209283015192810192909252016100ab565b34801561018857600080fd5b506001546101999063ffffffff1681565b60405163ffffffff90911681526020016100ab565b60208201516040517f20ec2e9153d350858cf45e0bcfc7d7676dea5ce5dd308668b1ed11244123fd02906101e79086908490869061065e565b60405180910390a160006101fa8461068c565b604080516060818101835263ffffffff89168252602080830187905260008385018190528451918201855280825293519490911c94509092849161024891859185918a9133916024016106c8565b60408051601f198184030181529181526020820180516001600160e01b031663197bea5f60e21b1790525161027d9190610739565b6000604051808303816000865af19150503d80600081146102ba576040519150601f19603f3d011682016040523d82523d6000602084013e6102bf565b606091505b5050905080610304577f20ec2e9153d350858cf45e0bcfc7d7676dea5ce5dd308668b1ed11244123fd028785876040516102fb9392919061065e565b60405180910390a15b50505050505050565b604080518082019091526000808252602082015260006103306040840184610755565b60009161033e91908361082c565b5061034c60208401846108ed565b6001805463ffffffff929092166001600160c01b03199092169190911733640100000000021790557f25d97817907adc7df592f6c64fd7806e1c4546540d84179224edc1b1bc359f756103a260208501856108ed565b6103af6020860186610755565b6103bc6040880188610755565b6040516103cd959493929190610931565b60405180910390a1505060408051808201909152662386f26fc1000081526000602082018190529092909150565b60008054610408906107a3565b80601f0160208091040260200160405190810160405280929190818152602001828054610434906107a3565b80156104815780601f1061045657610100808354040283529160200191610481565b820191906000526020600020905b81548152906001019060200180831161046457829003601f168201915b505050505081565b803563ffffffff8116811461049d57600080fd5b919050565b634e487b7160e01b600052604160045260246000fd5b600082601f8301126104c957600080fd5b813567ffffffffffffffff808211156104e4576104e46104a2565b604051601f8301601f19908116603f0116810190828211818310171561050c5761050c6104a2565b8160405283815286602085880101111561052557600080fd5b836020870160208301376000602085830101528094505050505092915050565b60008060006060848603121561055a57600080fd5b61056384610489565b9250602084013567ffffffffffffffff8082111561058057600080fd5b61058c878388016104b8565b935060408601359150808211156105a257600080fd5b506105af868287016104b8565b9150509250925092565b6000602082840312156105cb57600080fd5b813567ffffffffffffffff8111156105e257600080fd5b820160a081850312156105f457600080fd5b9392505050565b60005b838110156106165781810151838201526020016105fe565b50506000910152565b600081518084526106378160208601602086016105fb565b601f01601f19169290920160200192915050565b6020815260006105f4602083018461061f565b63ffffffff84168152826020820152606060408201526000610683606083018461061f565b95945050505050565b805160208201516bffffffffffffffffffffffff1980821692919060148310156106c05780818460140360031b1b83161693505b505050919050565b63ffffffff86511681526020860151602082015267ffffffffffffffff604087015116604082015284606082015260e06080820152600061070c60e083018661061f565b6001600160a01b03851660a084015282810360c084015261072d818561061f565b98975050505050505050565b6000825161074b8184602087016105fb565b9190910192915050565b6000808335601e1984360301811261076c57600080fd5b83018035915067ffffffffffffffff82111561078757600080fd5b60200191503681900382131561079c57600080fd5b9250929050565b600181811c908216806107b757607f821691505b6020821081036107d757634e487b7160e01b600052602260045260246000fd5b50919050565b601f82111561082757600081815260208120601f850160051c810160208610156108045750805b601f850160051c820191505b8181101561082357828155600101610810565b5050505b505050565b67ffffffffffffffff831115610844576108446104a2565b6108588361085283546107a3565b836107dd565b6000601f84116001811461088c57600085156108745750838201355b600019600387901b1c1916600186901b1783556108e6565b600083815260209020601f19861690835b828110156108bd578685013582556020948501946001909201910161089d565b50868210156108da5760001960f88860031b161c19848701351681555b505060018560011b0183555b5050505050565b6000602082840312156108ff57600080fd5b6105f482610489565b81835281816020850137506000828201602090810191909152601f909101601f19169091010190565b63ffffffff86168152606060208201526000610951606083018688610908565b828103604084015261072d81858761090856fea2646970667358221220982af41e35247ab5b3ce57357fc23a69538ce76183b6420c7daa8ea4c7c43acd64736f6c63430008140033",
  "linkReferences": {},
  "deployedLinkReferences": {}
}