{
  "_format": "hh-sol-artifact-1",
  "contractName": "MockArbitrumVRFRequester",
  "sourceName": "contracts/mocks/MockArbitrumVRFRequester.sol",
  "abi": [
    {
      "inputs": [],
      "stateMutability": "nonpayable",
      "type": "constructor"
    },
    {
      "anonymous": false,
      "inputs": [
        {
          "indexed": false,
          "internalType": "uint64",
          "name": "subscriptionId",
          "type": "uint64"
        },
        {
          "indexed": false,
          "internalType": "bytes32",
          "name": "keyHash",
          "type": "bytes32"
        },
        {
          "indexed": false,
          "internalType": "uint16",
          "name": "confirmations",
          "type": "uint16"
        },
        {
          "indexed": false,
          "internalType": "uint32",
          "name": "gasLimit",
          "type": "uint32"
        }
      ],
      "name": "ConfigUpdated",
      "type": "event"
    },
    {
      "anonymous": false,
      "inputs": [
        {
          "indexed": true,
          "internalType": "uint64",
          "name": "requestId",
          "type": "uint64"
        },
        {
          "indexed": false,
          "internalType": "uint256",
          "name": "randomWord",
          "type": "uint256"
        }
      ],
      "name": "RandomnessFulfilled",
      "type": "event"
    },
    {
      "anonymous": false,
      "inputs": [
        {
          "indexed": true,
          "internalType": "uint64",
          "name": "requestId",
          "type": "uint64"
        },
        {
          "indexed": true,
          "internalType": "address",
          "name": "user",
          "type": "address"
        }
      ],
      "name": "RandomnessRequested",
      "type": "event"
    },
    {
      "inputs": [],
      "name": "callbackGasLimit",
      "outputs": [
        {
          "internalType": "uint32",
          "name": "",
          "type": "uint32"
        }
      ],
      "stateMutability": "view",
      "type": "function"
    },
    {
      "inputs": [],
      "name": "getLatestRequest",
      "outputs": [
        {
          "internalType": "uint64",
          "name": "",
          "type": "uint64"
        },
        {
          "internalType": "address",
          "name": "",
          "type": "address"
        }
      ],
      "stateMutability": "view",
      "type": "function"
    },
    {
      "inputs": [
        {
          "internalType": "uint64",
          "name": "_requestId",
          "type": "uint64"
        }
      ],
      "name": "getRequest",
      "outputs": [
        {
          "internalType": "bool",
          "name": "",
          "type": "bool"
        },
        {
          "internalType": "address",
          "name": "",
          "type": "address"
        }
      ],
      "stateMutability": "view",
      "type": "function"
    },
    {
      "inputs": [],
      "name": "hasRequest",
      "outputs": [
        {
          "internalType": "bool",
          "name": "",
          "type": "bool"
        }
      ],
      "stateMutability": "view",
      "type": "function"
    },
    {
      "inputs": [],
      "name": "keyHash",
      "outputs": [
        {
          "internalType": "bytes32",
          "name": "",
          "type": "bytes32"
        }
      ],
      "stateMutability": "view",
      "type": "function"
    },
    {
      "inputs": [],
      "name": "latestRequestId",
      "outputs": [
        {
          "internalType": "uint64",
          "name": "",
          "type": "uint64"
        }
      ],
      "stateMutability": "view",
      "type": "function"
    },
    {
      "inputs": [],
      "name": "latestRequestUser",
      "outputs": [
        {
          "internalType": "address",
          "name": "",
          "type": "address"
        }
      ],
      "stateMutability": "view",
      "type": "function"
    },
    {
      "inputs": [],
      "name": "lzEndpoint",
      "outputs": [
        {
          "internalType": "address",
          "name": "",
          "type": "address"
        }
      ],
      "stateMutability": "view",
      "type": "function"
    },
    {
      "inputs": [
        {
          "internalType": "uint16",
          "name": "_srcChainId",
          "type": "uint16"
        },
        {
          "internalType": "bytes",
          "name": "",
          "type": "bytes"
        },
        {
          "internalType": "uint64",
          "name": "",
          "type": "uint64"
        },
        {
          "internalType": "bytes",
          "name": "_payload",
          "type": "bytes"
        }
      ],
      "name": "lzReceive",
      "outputs": [],
      "stateMutability": "nonpayable",
      "type": "function"
    },
    {
      "inputs": [],
      "name": "numWords",
      "outputs": [
        {
          "internalType": "uint32",
          "name": "",
          "type": "uint32"
        }
      ],
      "stateMutability": "view",
      "type": "function"
    },
    {
      "inputs": [],
      "name": "requestConfirmations",
      "outputs": [
        {
          "internalType": "uint16",
          "name": "",
          "type": "uint16"
        }
      ],
      "stateMutability": "view",
      "type": "function"
    },
    {
      "inputs": [
        {
          "internalType": "uint64",
          "name": "",
          "type": "uint64"
        }
      ],
      "name": "requests",
      "outputs": [
        {
          "internalType": "address",
          "name": "",
          "type": "address"
        }
      ],
      "stateMutability": "view",
      "type": "function"
    },
    {
      "inputs": [
        {
          "internalType": "address",
          "name": "_lzEndpoint",
          "type": "address"
        }
      ],
      "name": "setLzEndpoint",
      "outputs": [],
      "stateMutability": "nonpayable",
      "type": "function"
    },
    {
      "inputs": [
        {
          "internalType": "address",
          "name": "_sonicVRFConsumer",
          "type": "address"
        },
        {
          "internalType": "uint16",
          "name": "_sonicChainId",
          "type": "uint16"
        }
      ],
      "name": "setSonicVRFConsumer",
      "outputs": [],
      "stateMutability": "nonpayable",
      "type": "function"
    },
    {
      "inputs": [
        {
          "internalType": "uint64",
          "name": "_subscriptionId",
          "type": "uint64"
        },
        {
          "internalType": "bytes32",
          "name": "_keyHash",
          "type": "bytes32"
        },
        {
          "internalType": "uint16",
          "name": "_confirmations",
          "type": "uint16"
        },
        {
          "internalType": "uint32",
          "name": "_callbackGasLimit",
          "type": "uint32"
        }
      ],
      "name": "setVRFConfig",
      "outputs": [],
      "stateMutability": "nonpayable",
      "type": "function"
    },
    {
      "inputs": [
        {
          "internalType": "uint64",
          "name": "_requestId",
          "type": "uint64"
        },
        {
          "internalType": "uint256",
          "name": "_randomWord",
          "type": "uint256"
        }
      ],
      "name": "simulateFulfillRandomness",
      "outputs": [],
      "stateMutability": "nonpayable",
      "type": "function"
    },
    {
      "inputs": [],
      "name": "sonicChainId",
      "outputs": [
        {
          "internalType": "uint16",
          "name": "",
          "type": "uint16"
        }
      ],
      "stateMutability": "view",
      "type": "function"
    },
    {
      "inputs": [],
      "name": "sonicVRFConsumer",
      "outputs": [
        {
          "internalType": "address",
          "name": "",
          "type": "address"
        }
      ],
      "stateMutability": "view",
      "type": "function"
    },
    {
      "inputs": [
        {
          "internalType": "uint64",
          "name": "_requestId",
          "type": "uint64"
        },
        {
          "internalType": "address",
          "name": "_user",
          "type": "address"
        }
      ],
      "name": "storeRequest",
      "outputs": [],
      "stateMutability": "nonpayable",
      "type": "function"
    },
    {
      "inputs": [],
      "name": "subscriptionId",
      "outputs": [
        {
          "internalType": "uint64",
          "name": "",
          "type": "uint64"
        }
      ],
      "stateMutability": "view",
      "type": "function"
    }
  ],
  "bytecode": "0x6080604052600080546001600160401b0319168155600155600280546001600160501b03191666010007a12000031790556005805460ff60e01b1916905534801561004957600080fd5b50610c95806100596000396000f3fe608060405234801561001057600080fd5b506004361061012b5760003560e01c806375beaf51116100ad578063b353aaa711610071578063b353aaa71461033f578063c283597114610359578063cbbf67ec1461036e578063d9331a11146103c2578063ed2ab31a1461041157600080fd5b806375beaf511461028b578063796be3161461029e5780637ccfd7fc146102f1578063902a1ee21461030b578063b0fb162f1461031e57600080fd5b8063411010ec116100f4578063411010ec146101e25780634923f5a61461022357806361728f391461023d5780636a9feffd1461025457806373bc9dcf1461026757600080fd5b80621d35671461013057806303ef56621461014557806309c1ba2e146101795780631aa46f59146101a457806324f74697146101b7575b600080fd5b61014361013e3660046109d8565b610424565b005b61014d610588565b604080516001600160401b0390931683526001600160a01b039091166020830152015b60405180910390f35b60005461018c906001600160401b031681565b6040516001600160401b039091168152602001610170565b60055461018c906001600160401b031681565b6002546101cd9062010000900463ffffffff1681565b60405163ffffffff9091168152602001610170565b61020b6101f0366004610a6b565b6004602052600090815260409020546001600160a01b031681565b6040516001600160a01b039091168152602001610170565b60055461020b90600160401b90046001600160a01b031681565b61024660015481565b604051908152602001610170565b610143610262366004610a8d565b6105fc565b60055461027b90600160e01b900460ff1681565b6040519015158152602001610170565b610143610299366004610ab7565b610840565b6101436102ac366004610b27565b600380546001600160a01b039093166001600160a01b0319909316929092179091556002805461ffff909216600160f01b026001600160f01b03909216919091179055565b6002546101cd906601000000000000900463ffffffff1681565b60035461020b906001600160a01b031681565b60025461032c9061ffff1681565b60405161ffff9091168152602001610170565b60025461020b90600160501b90046001600160a01b031681565b60025461032c90600160f01b900461ffff1681565b6103a361037c366004610a6b565b6001600160401b03166000908152600460205260409020546001600160a01b031680151591565b6040805192151583526001600160a01b03909116602083015201610170565b6101436103d0366004610b5c565b600280546001600160a01b03909216600160501b027fffff0000000000000000000000000000000000000000ffffffffffffffffffff909216919091179055565b61014361041f366004610b79565b6108d8565b600254600160501b90046001600160a01b031633146104835760405162461bcd60e51b815260206004820152601660248201527513db9b1e48195b991c1bda5b9d0818d85b8818d85b1b60521b60448201526064015b60405180910390fd5b60025461ffff878116600160f01b90920416146104e25760405162461bcd60e51b815260206004820152601a60248201527f536f75726365206d75737420626520536f6e696320636861696e000000000000604482015260640161047a565b6000806104f183850185610b79565b6001600160401b03821660008181526004602052604080822080546001600160a01b0319166001600160a01b03861690811790915560058054600160e01b6001600160e01b03199091168617600160401b84021760ff60e01b19161790559051949650929450919290917ff09a63f9e06f8e96ec8e1be5bdfdb17d52cf919bcfe025e59cf8e5c0bd65d35a91a35050505050505050565b6005546000908190600160e01b900460ff166105d85760405162461bcd60e51b815260206004820152600f60248201526e139bc81c995c5d595cdd1cc81e595d608a1b604482015260640161047a565b50506005546001600160401b03811691600160401b9091046001600160a01b031690565b6001600160401b0382166000908152600460205260409020546001600160a01b0316806106605760405162461bcd60e51b8152602060048201526012602482015271155b9adb9bdddb881c995c5d595cdd08125160721b604482015260640161047a565b600254600160501b90046001600160a01b03161580159061068b57506003546001600160a01b031615155b156107f857604080516001600160401b03851660208201526001600160a01b038381168284015260608083018690528351808403820181526080840185526002543090921b6bffffffffffffffffffffffff191660a08501528451609481860301815260b4850190955293600093600160501b8304909316926107229261ffff600160f01b9091041691908590879060d801610c00565b60408051601f198184030181529181526020820180516001600160e01b031663243e1e6760e01b179052516107579190610c43565b6000604051808303816000865af19150503d8060008114610794576040519150601f19603f3d011682016040523d82523d6000602084013e610799565b606091505b50509050806107f55760405162461bcd60e51b815260206004820152602260248201527f4661696c656420746f2073656e642063726f73732d636861696e206d65737361604482015261676560f01b606482015260840161047a565b50505b826001600160401b03167f27a63df837e5cbe7a78dfc6b69a2a47e9ba4c1d88f4ba0f9534df652fcfba3608360405161083391815260200190565b60405180910390a2505050565b6000805467ffffffffffffffff19166001600160401b03861690811790915560018490556002805461ffff851665ffffffffffff1990911681176201000063ffffffff861690810291909117909255604080519384526020840187905283015260608201527f9eecbde1c3ccea349424f9daf100c58c90c4af33b7f8f8e1bef739591a5d6ec59060800160405180910390a150505050565b6001600160401b03821660008181526004602052604080822080546001600160a01b0319166001600160a01b03861690811790915560058054600160e01b6001600160e01b03199091168617600160401b84021760ff60e01b191617905590519092917ff09a63f9e06f8e96ec8e1be5bdfdb17d52cf919bcfe025e59cf8e5c0bd65d35a91a35050565b803561ffff8116811461097457600080fd5b919050565b60008083601f84011261098b57600080fd5b5081356001600160401b038111156109a257600080fd5b6020830191508360208285010111156109ba57600080fd5b9250929050565b80356001600160401b038116811461097457600080fd5b600080600080600080608087890312156109f157600080fd5b6109fa87610962565b955060208701356001600160401b0380821115610a1657600080fd5b610a228a838b01610979565b9097509550859150610a3660408a016109c1565b94506060890135915080821115610a4c57600080fd5b50610a5989828a01610979565b979a9699509497509295939492505050565b600060208284031215610a7d57600080fd5b610a86826109c1565b9392505050565b60008060408385031215610aa057600080fd5b610aa9836109c1565b946020939093013593505050565b60008060008060808587031215610acd57600080fd5b610ad6856109c1565b935060208501359250610aeb60408601610962565b9150606085013563ffffffff81168114610b0457600080fd5b939692955090935050565b6001600160a01b0381168114610b2457600080fd5b50565b60008060408385031215610b3a57600080fd5b8235610b4581610b0f565b9150610b5360208401610962565b90509250929050565b600060208284031215610b6e57600080fd5b8135610a8681610b0f565b60008060408385031215610b8c57600080fd5b610b95836109c1565b91506020830135610ba581610b0f565b809150509250929050565b60005b83811015610bcb578181015183820152602001610bb3565b50506000910152565b60008151808452610bec816020860160208601610bb0565b601f01601f19169290920160200192915050565b61ffff85168152608060208201526000610c1d6080830186610bd4565b60ff851660408401528281036060840152610c388185610bd4565b979650505050505050565b60008251610c55818460208701610bb0565b919091019291505056fea264697066735822122021f96798811724e6af31e0e859e87f2e995fcadb48804f3ac254f66586aada7964736f6c63430008140033",
  "linkReferences": {},
  "deployedLinkReferences": {}
}